:020000040000FA
:1000000050270020F9020000010300000303000054
:1000100005030000070300000903000000000000C2
:100020000000000000000000000000000B030000C2
:100030000D030000000000000F030000110300008A
:1000400013030000130300008508000015050000DD
:100050001303000013030000A103000013030000BA
:100060001303000013030000130300001303000038
:100070001303000013030000130300001303000028
:100080001303000005050000130300001303000024
:100090001303000013030000130300001303000008
:1000A00013030000130300001303000013030000F8
:1000B0001303000013030000000000000000000014
:1000C00013030000130300001303000013030000D8
:1000D00013030000130300001303000000000000DE
:1000E0000000000000000000000000000000000010
:1000F0000000000000000000000000000000000000
:1001000000000000000000000000000000000000EF
:1001100000000000000000000000000000000000DF
:1001200000000000000000000000000000000000CF
:1001300000000000000000000000000000000000BF
:1001400000000000000000000000000000000000AF
:10015000000000000000000000000000000000009F
:10016000000000000000000000000000000000008F
:10017000000000000000000000000000000000007F
:10018000000000000000000000000000000000006F
:10019000000000000000000000000000000000005F
:1001A000000000000000000000000000000000004F
:1001B000000000000000000000000000000000003F
:1001C000000000000000000000000000000000002F
:1001D000000000000000000000000000000000001F
:1001E000000000000000000000000000000000000F
:1001F00000000000000000000000000000000000FF
:10020000DFF80CD000F0BAF800480047110E0000EB
:100210005027002030B4044654E8000F0D4644E84F
:100220000053002BF8D1156030BC704730B4044641
:1002300054E8000F40EA010544E80053002BF7D1D1
:10024000156030BC704730B4044654E8000F00EA33
:10025000010544E80053002BF7D1156030BC70470E
:1002600030B4044654E8000F80EA010544E8005326
:10027000002BF7D1156030BC704730B4044654E809
:10028000000F00EB010544E80053002BF7D1156087
:1002900030BC704730B4044654E8000FA0EB0105B1
:1002A00044E80053002BF7D1156030BC704770B4A0
:1002B00004464FF0000054E8006F0D68AE4207BFDF
:1002C00044E80023012044E800630E60002B1CBFBB
:1002D0000020F0E770BC704730B4044654E8000FCB
:1002E00088422CBF451A054644E80053002BF5D13F
:1002F000156030BC7047000006488047064800473C
:10030000FEE7FEE7FEE7FEE7FEE7FEE7FEE7FEE7C5
:10031000FEE7FEE7690500000102000000487047A3
:100320008C2C000040EA01039B0703D009E008C9B8
:10033000121F08C0042AFAD203E011F8013B00F8AA
:10034000013B521EF9D27047D2B201E000F8012BF6
:10035000491EFBD270470022F6E710B513460A4645
:1003600004461946FFF7F0FF204610BD421C10F866
:10037000011B0029FBD1801A70470000064C074D75
:1003800006E0E06840F0010394E807009847103465
:10039000AC42F6D3FFF738FF582D0000782D00004F
:1003A0002DE9F04700268AB0DFF85091B0464FF4AF
:1003B0008075012437460696284601F0C3F838B107
:1003C000D9F80403204203D0284601F0B1F82643AF
:1003D0002D1D64007F1CADB2082FEDD34FF4BE7409
:1003E000204601F0AFF848B1204601F0A1F846F0F0
:1003F000004606AA0121002001F086F8404D16F0C3
:10040000FF0F15D00127002437420DD009EB8401DE
:10041000D1F81005D1F81015C0F3042055F82420A8
:10042000C1F3014102B190477F00641C082CEBD35B
:10043000002E5FDA4FF0FF30CDF8108054E028191D
:1004400010F8507F90F9000027F0C008401C3BD006
:1004500007A9404600F020FE10B34FEA9719404626
:1004600000F0C6FB55F820701FB1B9F1030F03D09F
:1004700006E0B9F1030F27D104A9404600F014FEAD
:100480004FF0A04101EB8800D0F8000706A9C0F3A7
:10049000014A404600F000FE18B1BAF1020F03D045
:1004A00012E0BAF1030F0FD1B9F1030F08D1BAF17D
:1004B000020F1DD00221404600F0FCFF761CF6B270
:1004C00017B149464046B847641C042CB7D3002EE8
:1004D00010D06A460121002001F016F80699009814
:1004E000884207D006900498002634460790A6E775
:1004F0000321E0E70AB0BDE8F0870000006000409B
:10050000C000002002490248091F09680068084726
:100510002C000020F8B51248124E04464FF48C719E
:1005200001F0E1FB00281AD00025C4F81851D4F8D6
:1005300018010090F07F3446FF2806D0A17F11B14A
:1005400000F0C9FF01E000F0CDFF65772572D4E926
:10055000002101B004F10800BDE8F0401047F8BDEB
:10056000003000401C010020F0B5B5480023021DFA
:100570000178101D01254FF0805406290BD1167803
:10058000360708D10678C6F30316032E06D0042ECC
:1005900004D0052E02D0062907D00EE0B4F824635B
:1005A000A84FC6F304263E6002E01678360704D151
:1005B0000678C6F30316032E02D0062904D00FE0F6
:1005C000A24FA14E7E670EE01678360708D1067856
:1005D000C6F30316032E06D0042E04D0052E02D037
:1005E000062907D00EE0D4F84462994FC6F342368C
:1005F0003E6002E01678360704D10678C6F303168B
:10060000032E02D0062906D011E0924E376827F05B
:10061000807737600EE01678360708D10678C6F383
:100620000316032E06D0042E04D0052E02D0062970
:100630000AD011E04FF08046C6F80C31C6F81031F0
:10064000834E361F336002E01678360704D10678F1
:10065000C6F30316032E02D0062905D00CE07C4F0A
:10066000032664373E600AE01678360704D1067820
:10067000C6F30316032E02D006290DD014E0764FE0
:1006800005263E60744E78363560734E083633600A
:100690003F263F1D3E6002E01678360704D10678FB
:1006A000C6F30316052E02D0062957D062E06B4E22
:1006B00036686B4F3E60694E361D36683F1D3E60A2
:1006C000664E083636683F1D3E60644E0C3636680E
:1006D0003F1D3E60614E103636683F1D3E605F4EE6
:1006E000143636683F1D3E605C4E183636685C4FE7
:1006F00020373E60594E1C3636683F1D3E60574ECF
:10070000203636683F1D3E60544E243636683F1D05
:100710003E60524E283636683F1D3E604F4E2C36A6
:1007200036683F1D3E604D4E303636684C4F403780
:100730003E604A4E343636683F1D3E60474E38367E
:1007400036683F1D3E60454E3C3636683F1D3E6074
:10075000424E403636683F1D3E6002E0167836074E
:1007600008D10678C6F30316032E06D0042E04D053
:10077000052E02D0062907D019E0D4F85812394ABC
:1007800001F04F01116002E0117809070FD10078E4
:10079000C0F30310032803D0042801D0052806D194
:1007A00031480168C90702D06FF001010160D4F837
:1007B0003001062808D1D4F83401062804D12B488A
:1007C000016841F48061016022487438016841F495
:1007D00070010160BFF34F8FBFF36F8F4FF0102197
:1007E000D1F80002002803DBD1F80402002822DA45
:1007F0001F4A15601F480468002CFCD01524C1F85E
:1008000000420568002DFCD0C1F8044201680029AF
:10081000FCD0136001680029FCD0BFF34F8F0D4856
:10082000F0380168144A01F4E06111430160BFF33C
:100830004F8F00BFFDE7124910480860F0BD00006F
:10084000E00F00F0403501400DF0ADBA00C00740A8
:100850003C050040FCED00E0105600400404001090
:1008600020C50040E40E0040000400403C1700405A
:1008700004E5014000E401400400FA050090D003C3
:10088000A400002001480068004700001C00002070
:1008900002E008C8121F08C1002AFAD17047704749
:1008A000002001E001C1121F002AFBD170470000A7
:1008B00072B601F02BF900BF00F02AFF0028FBD12F
:1008C00011481249401AC408012000EB044010A14D
:1008D00001F08AF811480068C00700D000BE02206D
:1008E00000EB04400EA101F07FF8BFF34F8F0B48DF
:1008F000E43801680E4A01F4E06111430160BFF37E
:100900004F8F00BFFDE70000C82D0000882D0000BC
:10091000466174616C206572726F7200F0ED00E0E8
:1009200053797374656D20726573657400000000FF
:100930000400FA050EB500210091CDE901106A46C8
:1009400044F20100FFF7B4FF0EBD00F003B800F061
:1009500009B8000072B602480168491C016070477E
:100960002400002003490868401E086000D162B6D8
:1009700070470000240000202DE9F0410646086879
:100980000C46411C4FF0A0474FF0010506D005FA78
:1009900000F1C7F80815206800F078FD6068411C78
:1009A00002D0002100F056FD3168A069C1F824058D
:1009B000607D227D31681043C1F86C05D4E90012D6
:1009C0003068C0F81425C0F80C15207D012815D119
:1009D000A068411C02D0002100F03CFDE068411CF1
:1009E00005D08540C7F80855E06800F04FFDD4E910
:1009F00002123068C0F80825C0F81015BDE8F08173
:100A00002DE9F041064608680C46411C4FF0A0470E
:100A10004FF0010506D005FA00F1C7F80815206867
:100A200000F03EFD6068411C02D0002100F01BFD7B
:100A30003168A069C1F82405607D217D32680843D2
:100A4000C2F86C05D4E900123068C0F80C15C0F883
:100A50001425207D012815D1A068411C02D0002159
:100A600000F001FDE068411C05D08540C7F808553D
:100A7000E06800F015FDD4E902123068C0F80825DE
:100A8000C0F81015BDE8F0812DE9FC410646C0070D
:100A90004FF000050ED0104F00240122385D009564
:100AA00000231146019500F07BFC641C042CF4D358
:100AB00000F02EF8B0070DD5074E0024361D002299
:100AC000305D032300951146019500F069FC641C1C
:100AD000042CF4D3BDE8FC81982B000007490B5C83
:100AE0004FF0A041D1F804250120984020EA0203EC
:100AF000C1F808351040C1F80C057047982B00006C
:100B00000249085C012100F0F4BC0000982B0000B1
:100B100010B500242046FFF7F3FF641C042CF9D322
:100B200010BD00002DE9F0470546861C90460F4693
:100B30004FF001090020FFF708FF1B4C20683860C8
:100B4000D4E90001401AA16804F21C47081A0EE01B
:100B50000121384600F038FA00F00CF90146384619
:100B600000F032FAD4E90001401AA168081A401CCA
:100B70008642EDD8B8F1000F03D0052065F3891047
:100B800002E0062065F39F50A2682168114004EB43
:100B90008101C8602068304420600020FFF7D7FE44
:100BA0004846BDE8F08700002803002070B50D46D8
:100BB00004460A2902D10D21FFF7F8FFA068226838
:100BC000411CA1601554D4E90101814204D320469F
:100BD000BDE8704000F0EBBA70BD0000034803C8E8
:100BE000814201D101207047002070472803002076
:100BF0000249084490F9300070470000C00000200E
:100C000010B50021024800F0EAF980F3100010BD91
:100C1000440700202DE9FC5F0E008346DDE90C4708
:100C2000C6F1000098469246814600D40846012548
:100C300003E000BF90FBFAF06D1C5045FADAA845BE
:100C400000D9454624B1002E01DB780700D5641E8B
:100C5000B80702D5B8F1000F0AD0F80708D13CB1A7
:100C6000A54205D220215846641EFFF79FFFF6E7F4
:100C7000002E02DA4E462D2102E0780703D52B2103
:100C80005846FFF793FF07F0030002280BD1B8F195
:100C9000000F08D13CB1A54205D230215846641E50
:100CA000FFF784FFF6E7CDE9004743465246314659
:100CB000584601F001FFBDE8FC9F000070B50D46ED
:100CC000044600684FF4887101F028F84FF49071E1
:100CD000206801F023F84FF49271206801F01EF8AB
:100CE0004FF4A271206801F019F84FF4AC7120683C
:100CF00001F014F820681149C0F80413206869074E
:100D000040F30730090E002806DA00F00F0000F16A
:100D1000E02080F8141D03E000F1E02080F80014CA
:100D20002068012140F3073000F01F029140400984
:100D3000800000F1E020C0F8001170BD10034200F7
:100D4000024600201268530713D502F00300012861
:100D500002D002280CD105E0C2F383100B68801C7E
:100D6000184404E00223086803EB92521044086020
:100D7000012070472DE9FF410026234800F021F9AA
:100D80002148001F074600F01CF9204C60680090C5
:100D9000A56800E000986946284004EB80000C300C
:100DA000FFF7CEFF0028F5D101AA009901EA05035B
:100DB00004EB8303491CDB6842F82030401C00919F
:100DC0000228F2D3019800F0030001280BD002287A
:100DD00010D10198032101EB90500099BDF80A60F1
:100DE00001EB900005E00198BDF80A60C0F38310A4
:100DF00008440090384600F0E1F808B100986060BF
:100E000004B03046BDE8F0814007002028030020F0
:100E10008EB00120FFF738FE4FF48041002000F033
:100E20003FFE08B1FFF786FD00F064FC2C4B0DF18E
:100E3000100C0FCB8CE80F001F208DF813001E2024
:100E40008DF812001D208DF811001A208DF8100069
:100E500023480023234A04A9103800F02FF908B1D1
:100E6000FFF768FD20482149401AC008032101EB23
:100E700000401FA100F0B8FD234C4FF0000800BF58
:100E8000C4F80880A4F80C8084F80E8084F80080F0
:100E90001D490722491CCB1D15468DE82E00104820
:100EA00000220C38694601F02BF818B1FFF742FD1B
:100EB00000E020BF20780028FBD000BF00F028FC15
:100EC0000028FBD1FFF70AFE054DC826183D4FF458
:100ED0007A47691C38468847761EFAD1D0E7000069
:100EE000882B000071250000C82D0000882D00000F
:100EF000535049206578616D706C65207374617220
:100F00007465642E00000000000000202DE9F04709
:100F1000C5881E1DB6FBF5F78946B6FBF5F10446FC
:100F200005FB176C407916686843DDF820A0F718B8
:100F3000001F874200D9C61A166001E02468491EC6
:100F40000029FBD1A5EB0C078846B74216D818E05C
:100F500004EB0C00001D09EB0803BAF1000F3A4640
:100F600002D00146184600E01946FFF7DBF9246875
:100F7000F61B4FF0000CB844B54201D9374600E0EB
:100F80002F46002EE4D1BDE8F087000030B50246C0
:100F900051B100F0A3FD0021074C08E034F82130E6
:100FA0001568AB4202D11160002030BD491C81425E
:100FB000F4D3052030BD000000000000002100F047
:100FC00009B8012100F010B808B56A46FFF755F9D5
:100FD000009808BD08B56A46FFF735F908BD08B5A1
:100FE0006A46FFF717F908BD08B56A46FFF71EF90C
:100FF000009808BD08B56A46FFF74CF9009808BD8F
:1010000070B5044600252846FFF79FFC21686268FA
:10101000086890420ED9401E08600178238AE26871
:1010200001FB0325227A2168101AC0B20A79824294
:1010300000D208710020FFF78AFC284670BD70B509
:1010400005460C460020FFF780FCE868298A201A34
:10105000B0FBF1F12A681068431C13600170BDE811
:1010600070400020FFF773BC10B530B1017A4268C0
:101070000368891AC9B21A6006E00E2010BD036821
:101080001A68541C1C601170491EC9B2F7D200685E
:1010900000210171084610BDC20800F007030120BD
:1010A000895C98400840704710B5C20800F00703FB
:1010B000885C01249C402043885410BD2DE9FF41E9
:1010C0001C460378164D174E45F823200C3545F87D
:1010D0002340F0CE8DE8F0000C788DF800404C787D
:1010E0008DF801408C788DF80240CC788DF8034063
:1010F0000C798DF805404C798DF806408C68029487
:101100000C7B8DF80C40497B8DF80D1002B1064A1E
:101110006946001D00F03AFE04B0BDE8F081000011
:10112000A8000020A02B0000E9250000F0B505462E
:101130000478154889B0164640F82420124A0869F8
:10114000121DA2F1080742F82400487F38552022DA
:101150006846FFF7E7F804942878385C48B10EB188
:101160000A4A00E000226946281D01F031F809B062
:10117000F0BD0EB1064A00E00022694605F10C0000
:1011800000F0F8FEF3E700001400002075290000CD
:10119000BD2700000FB408B50399002904D004AAA4
:1011A00000926A4600F00FF801B05DF814FB10B52C
:1011B00082680446002A05D0D4E9040321689847D0
:1011C0000020A06010BD2DE9FC4791460C00804630
:1011D00076D014F8011B39B125290ED04046FFF70F
:1011E000E5FC20780028F4D198F80C00002867D09E
:1011F0004046BDE8FC47FFF7DABF00200122217816
:101200002B291BD02D2902D0302908D102E040F033
:10121000010001E040F00200641C002AEFD100252B
:101220002A290ED02178A1F130020A2A11D205EB29
:10123000850201EB4205641C303DF1E740F00400FB
:10124000EAE7D9F800100B1DC9F800300968641CE2
:101250000D44217800232E290BD114F8011FA1F190
:1012600030020A2A05D203EB830201EB4203303B32
:10127000F3E76C290DD068290BD0692921D00BDC4C
:10128000252918D0582931D063290ED0642915D1C9
:1012900017E014F8011FECE7702969D0732932D0E8
:1012A00075291BD0782909D120E0D9F80000011D4B
:1012B000C9F8001001784046FFF778FC641C90E7FD
:1012C0006CE0D9F800100A1DC9F800200968CDE9C2
:1012D00000500A224046FFF79DFCEFE7D9F80010C6
:1012E0000A1DC9F8002009680A2206E0D9F8001092
:1012F0000A1DC9F8002009681022CDE900504046B7
:1013000001F0DAFBDAE7D9F8001000270A1DC9F866
:1013100000200E68C00705D112E04046761C7F1CF5
:10132000FFF744FC31780029F7D104E02021404642
:101330006D1EFFF73BFCBD42C0D9002DF6D1BDE7C5
:101340004EB13046FFF712F8074604E02021404630
:101350006D1EFFF72BFCBD4206D9002DF6D103E030
:101360004046761CFFF722FC31780029F8D1A5E72A
:10137000D9F80000011DC9F8001005683021404669
:10138000FFF714FC78214046FFF710FC08200021ED
:10139000CDE90001034610222946B0E7BDE8FC87ED
:1013A00070B541EA4201DDE904564FF0A04441EA3C
:1013B000830141EA052104EB800041EA0641C0F8BF
:1013C000001770BD70B541EA4201DDE904564FF0E7
:1013D000A04441EA830141EA052104EB800041EA8F
:1013E0000641C0F8001770BD70B541EA4201DDE961
:1013F00004564FF0A04441EA830141EA052104EB81
:10140000800041EA0641C0F8001770BD70B541EA9E
:101410004201DDE904564FF0A04441EA830141EA6C
:10142000052104EB800041EA0641C0F8001770BDB9
:101430001CB5002100910B4601220191FFF7D4FF5A
:101440001CBD1CB5002100910B4601220191FFF744
:10145000DDFF1CBD1CB500220B4600921146019217
:10146000FFF7C2FF1CBD1CB500220B4600921146BF
:101470000192FFF7CBFF1CBD1CB5002100910B466C
:10148000012201911146FFF79DFF1CBD1CB50021F3
:1014900000910B46012201911146FFF7A5FF1CBDEB
:1014A0001CB5002100910B46012201911146FFF766
:1014B000ADFF1CBD4FF0A04202EB8000D0F800272A
:1014C00022F44032C0F80027D0F8002742EA014158
:1014D000C0F8001770474FF0A04201218140C2F8C8
:1014E0000C1570474FF0A04201218140C2F8081549
:1014F000704701224FF0A043824011B1C3F8082584
:101500007047C3F80C25704718B5084B6C4601446A
:101510001B68009306E000BF54F82030D3F8103564
:10152000401C08C28142F7D818BD0000B02B000053
:10153000034908B50844002101600068009008BD17
:101540000060004002494058012800D00020704748
:101550000060004030B5154A01460020D2F8104422
:1015600023460AE0DB681D79854205D1401C0A2824
:10157000F6DB4FF0FF3030BD1B68002BF2D1431C6F
:10158000F9D0CB681871D2F8103443B1DB68CC685D
:101590001B682360D2F81024D268116030BDC2F8F5
:1015A0001014C96800220A6030BD00002803002022
:1015B000F0B595B01C4615460F4608461A9E00F039
:1015C0005FFB182109A8FEF7C6FE0E96CDE9095467
:1015D0000023082203A9384600F067FB059806900F
:1015E000BDF81000ADF81C00BDF81200ADF81E00EB
:1015F00000208DF821000398082600F00300012840
:1016000002D0022818D032E003983346850AC0F38E
:10161000C2008DF8200003980FA9C0F38314A20024
:10162000384600F042FB09A8009006AB22460FA9FD
:10163000284600F081FA1AE00398840DC0F3C20036
:101640008DF82000082C01D2254600E008253346FD
:101650002A460FA9384600F028FB2E44641B09AB2C
:1016600006AA29460FA800F0C3F9002CEAD1384693
:1016700000F00CFB15B0F0BD7047012001F0BCB8C4
:10168000084810B50178084A515C19B1001D00F0F6
:1016900039FE02E00C3000F039FDBDE810400020BA
:1016A00001F0AAB8380000201000002008B5034A55
:1016B00000924023024AFFF77BFF08BD312500005E
:1016C000900100200A4A012902EBC00007D002293C
:1016D00007D0032907D0042907D000207047022033
:1016E00070470420704700797047407970470000C8
:1016F000882D000010B5FFF7C0FF04210348FFF755
:1017000029FF02490120C968487110BD782D0000E9
:101710002DE9F0478CB0FFF761FA18B100200CB04A
:10172000BDE8F0877D4C0020C4F81804BFF34F8F4C
:1017300060680290A5684FF00008284004EB800024
:101740000CE000BFD4F8180470B9216802988142F7
:1017500001D86160E2E7284004EB80000C3002A968
:10176000FFF7EEFA0028EDD1002003AA029901EA62
:10177000050304EB8303491CDB6842F82030401C5E
:1017800002910228F2D3039800F00300022802D04D
:1017900001284DD0A7E003985022810D8946B2EB75
:1017A000905F00D850210E4666F39F500390083199
:1017B0005B4800F01CFA070078D000F061FA43465D
:1017C000082203A9384600F078FA029908F1080ABD
:1017D0002940681A8000001D864222D94F4D0C35E1
:1017E00030B1C2B204EB8101301A90460C3104E0F2
:1017F0002946F2B2002590462846C6B253463846DE
:1018000000F05BFA0AEB080325B132462946384658
:1018100000F053FA029909F1030001EB90000290E5
:101820003BE004EB81015346324638460C31EFE78A
:101830000398C0F38310062800D30620039960F3B1
:101840008911C1F38310801C03918100344800F09A
:10185000CEF9070047D000F013FA4346082203A947
:10186000384600F02AFA08F1080800260FE002982E
:10187000434600EA0501401C04EB8101029004226A
:1018800038460C3100F019FA08F10408761C039868
:10189000C0F38310B042EAD847B1D4F81054D4F85A
:1018A000180478B1384600F0F1F931E01BE0E8683F
:1018B0004079012804D12A682846394612689047A1
:1018C000E8680568002DF2D1384600F0DFF9002005
:1018D000FFF73BF8D4F8180408B9029860600020BC
:1018E000FFF735F814E0D4F8104405E021682046ED
:1018F00089688847E0680468002CF7D109480A49DC
:10190000401AC008022101EB004008A100F06CF869
:10191000FFF764F980F0010001E7000028030020D0
:10192000D02D0000C82D0000882D00004261636B9F
:10193000656E647320666C757368656400000000F2
:101940002DE9F84F8146DFF89C80D01C15468A4669
:10195000800800226946D8F80860FFF7E3F8B8B3BA
:10196000009CA01C0090D8F808103040091A8F0085
:101970003F1DBD4208EB800002D82A46514608E0D0
:101980003A4651460C30FEF7CDFC1648EA1B0AEBEE
:1019900007010C30FEF7C6FC4FEA1947FFF730F994
:1019A00047EA0042601C304008EB8000344008EBFE
:1019B0008401C260C8684FF6C07269F3C5009043E5
:1019C00065F39F5020F00300801C20F00400C860E5
:1019D00098F8200402E000BFFFF79AFE0028FBD130
:1019E000BDE8F88F2803002000231A4600F076BED9
:1019F0002DE9F0470E4680461C469246082940D8FD
:101A000094F80C90002020731946104600F008FD51
:101A10000025B54206D218F805201BA12046FFF785
:101A2000B9FB03E01AA12046FFF7B4FB6D1C082D9B
:101A3000EFD318A12046FFF7ADFB0025B54212D227
:101A400018F805707E2F08D8FEF768FC0068C05DA6
:101A500010F03E0F01D03A4600E02E220EA12046A3
:101A6000FFF798FB03E00DA12046FFF793FB6D1CE9
:101A7000082DE3D301222146504600F0B3FC84F840
:101A80000C90BDE8F087000020253032780000007F
:101A9000202020007C0000002563000020000000C2
:101AA0000B4810B5FF218160002101604160C0F842
:101AB0001814C0F8141480F82014064800F0E4F854
:101AC000002803D1044800F000F9002010BD0000F8
:101AD00028030020D02D0000FC2B00000248034901
:101AE000401AC00870470000D02D0000882D00006B
:101AF00013B56846FFF74AFA08B100201CBD02483A
:101B0000009950F831001CBD882D000070B50948BF
:101B10000125D0F8104480F8205407E0E0684571B2
:101B20002168204649688847E0680468002CF5D1A0
:101B300070BD0000280300202DE9FF4781460C9D61
:101B400000200C462F7B28739846164629461846D7
:101B500000F066FC072E42D2DFE806F004090F16FB
:101B60001F2A360049462846FFF714FB37E049464E
:101B700028462268FFF70EFB31E0D4E900234946EE
:101B80002846FFF707FB2AE0A0680090D4E900236D
:101B900049462846FFF7FEFA21E0D4E90201CDE9E3
:101BA0000001D4E9002349462846FFF7F3FA16E07E
:101BB00004F1080007C88DE80700D4E9002349466E
:101BC0002846FFF7E7FA0AE004F108000FC88DE89D
:101BD0000F00D4E9002349462846FFF7DBFA00222C
:101BE0002946404600F0FEFB2F73BDE8FF872DE934
:101BF000F041058A80462D1F4819C01CB0FBF5F046
:101C0000C6B24046FFF7FCF9041E19D0002020712F
:101C100001206071E58000272546761EC4F800800B
:101C20000BE04046FFF7ECF960B16179491C617146
:101C3000286005467F1CC0F80080B742F1D32046DB
:101C4000BDE8F081204600F002F80020F8E72DE919
:101C5000F041457901466B1E002201E00968521CE3
:101C60009A42FBD30F680146002605E038460C680F
:101C7000FFF7E5F92146761CAE42F7D3BDE8F081C7
:101C80000121001DFFF7A0B9FFF7EEB910B504461A
:101C90000121001DFFF7AEF910F0FF0F04D120461F
:101CA000BDE81040FFF7D3BF10BD1CB50192012263
:101CB000009201AAFFF72AF91CBD1CB5019200226F
:101CC000009201AAFFF722F91CBD826800219160F1
:101CD00082681161826851618268D1608268516056
:101CE0008068016070474058002800D0012070478C
:101CF0004058002800D00120704708B5002242500B
:101D00004058009008BDD0F80403084000D00120DE
:101D100070474058002800D00120704708B50022C5
:101D200042504058009008BD0121B1EB507F01D1D5
:101D300001207047002070470121B1EB507F01D195
:101D4000012070470020704770B50D4600F0B4FBCD
:101D500004000FD00020FEF7F8FD207920B100200C
:101D6000FEF7F5FD112070BD0120256020710020D7
:101D7000FEF7EDFD002070BD10B500F09DFB0028C2
:101D800002D000210160017110BD00002DE9FC4767
:101D90000C46154601798046574A01EBC10002EB1B
:101DA00080069946307F10B10820BDE8FC87534A71
:101DB000D8F80000074652F82110FFF7C5FF08B118
:101DC0001120F2E7C6E90059207B0128207802D8CB
:101DD000FFF781FB01E0FFF785FB4FF0000ACDF82C
:101DE00000A0CDF804A02078534652460121FFF709
:101DF000E9FA60784FF0FF35FF2806D08146FFF7FB
:101E00006AFB4846FFF738FB00E0A946A078FF28A8
:101E100009D0002205460123CDF800A01146CDF8D7
:101E200004A0FFF7CFFAA07886F82000E078F077DA
:101E3000E078FF280BD0217911B1FFF74CFB01E0CE
:101E4000FFF750FBE078FFF717FB2079B077217898
:101E5000C7F80815C7F80C95C7F81055A068C7F85B
:101E60002405217B607B00B10120012904D00229D7
:101E700005D0032908D105E040F0020004E040F05D
:101E8000040001E040F00600C7F85405A079C7F847
:101E9000C005306810B14020C7F804030720C7F818
:101EA00000053068012108B3D8F80000627940F3DA
:101EB000073000284FEA421206DA00F00F0000F166
:101EC000E02080F8142D03E000F1E02080F80024E9
:101ED000D8F8000040F3073000F01F0201FA02F2C8
:101EE0004009800000F1E020C0F80021504686F84B
:101EF0001DA0317759E700001C010020B42B000021
:101F00002DE9F04105460F460079154900EBC00068
:101F100001EB80041646607F10B11120BDE8F0810E
:101F2000206820B116F0140F01D10120607797E8E6
:101F30000F0004F10C0888E80F00E07FFF2806D0AE
:101F4000A17F11B1FFF7CEFA01E0FFF7C4FA3346E3
:101F50003A4621462868BDE8F04100F061BB000028
:101F60001C0100200149024800F06EBC4001002025
:101F7000002000402DE9F0410546007916460F4645
:101F800000EB40012C4A01EBC00102EB810494F804
:101F90002A1011B10820BDE8F081284951F820101D
:101FA0002868FFF7D1FE08B11120F4E7394628462A
:101FB000FEF7E2FC66603869206030004FF00106F1
:101FC0002DD03F7F4FF48E712868FFF796FE4FF4B7
:101FD000A2712868FFF791FE28681949C0F8041318
:101FE00028684FEA471140F30730002806DA00F06E
:101FF0000F0000F1E02080F8141D03E000F1E02064
:1020000080F80014286840F3073000F01F0106FA3A
:1020100001F14009800000F1E020C0F800112868BB
:102020000421C0F800150020A061E06184F82900B7
:1020300044F8140FA675AEE740010020B82B00004D
:10204000800002002DE9F05F054600790B4600EBA9
:10205000400101EBC000244901EB8004284600F058
:1020600045F810B11120BDE8F09F62614FF0000902
:10207000C4F82090A36084F828904FF48E784E46E0
:1020800041462868FFF739FE28684FF0010AC0F87A
:1020900008A02146286800F067FB606808BBD5F8F7
:1020A00000B067690FE000BF94F8280008B10F2660
:1020B00015E041465846FFF71BFE0028F4D02146A4
:1020C000584600F051FB206AB842F2D357464146C9
:1020D0002868FFF70DFE0028F9D02868C760C4F80B
:1020E00014903046BFE7000040010020007900EB6B
:1020F000400101EBC000044901EB80004069002869
:1021000000D0012070470000400100202DE9F04779
:10211000044600794FF0000900EB400101EBC000DC
:10212000254901EB80072068C0F80095786880B1E8
:1021300020682249C0F808132068012140F30730C5
:1021400000F01F0291404009800000F1E020C0F83B
:1021500080112068D0F80C25D0F81485D0F80865D7
:10216000D0F810554FF0FF31C0F81415C0F80C1519
:102170002068C0F80815C0F81015501C02D0104691
:10218000FFF756F9B8F1FF3F02D04046FFF750F98C
:10219000681C02D02846FFF74BF9701C02D030466D
:1021A000FFF746F92068FFF7E7FD87F82A90C7F8A0
:1021B0000490BDE8F0870000400100208402020086
:1021C0000149024800F0EEBB6C01002000200040F5
:1021D0002DE9F0410546164600790F46154A00EBF9
:1021E000C00102EB810494F8201011B10820BDE871
:1021F000F081114951F820102868FFF7A5FD08B1BA
:102200001120F4E739462846FEF7FAFB6660386984
:1022100020601EB1397F2846FEF750FD286808214E
:10222000C0F800150020A061E0616061012184F820
:102230002010DCE76C010020BC2B00002DE9F047EA
:1022400004460E460079274900EBC00001EB8005EB
:1022500017463046FFF770FD30B1204600F044F8D5
:1022600020B11120BDE8F0871020FBE76F61AE6060
:102270004FF490774FF0000839462068FFF74EFD85
:102280004FF4AC7631462068FFF748FD2068AA6815
:102290006969C0F84425C0F8481520684FF0010965
:1022A000C0F808906868D0B9BA4651462068FFF770
:1022B00030FD074631462068FFF72BFD0743F4D079
:1022C00010B14FF00F0808E02068C0F80C903146BC
:1022D0002068FFF71EFD0028F9D000206861404605
:1022E000C0E700006C0100200079054900EBC00048
:1022F00001EB80004069002800D0012070470000F9
:102300006C0100202DE9F04704460079334900EBC9
:10231000C00001EB80070125786880B12068304952
:10232000C0F80813206840F3073000F01F0105FAD9
:1023300001F14009800000F1E020C0F88011206820
:10234000D0F8001221F02001C0F80012206845608A
:102350004FF4AC7631462068FFF7E0FC2068C5609A
:1023600031462068FFF7D5FC0028F9D020684FF0EF
:102370000009C0F800952068D0F80C25D0F8148525
:10238000D0F80865D0F810554FF0FF31C0F80C15A3
:10239000C0F814152068C0F80815C0F81015501CB6
:1023A00002D01046FFF74DF8B8F1FF3F02D040468B
:1023B000FFF747F8681C02D02846FFF742F8701C68
:1023C00002D03046FFF73DF82068FFF7D5FC87F8CC
:1023D0002090C7F80490BDE8F08700006C01002051
:1023E0001003420010B50C46017A052908D0407A46
:1023F00038B1084808A102682046FEF7CBFE00E08D
:102400001AB106A12046FEF7C5FE2046BDE81040E1
:10241000FEF7CDBE80000020257300000D0A0000ED
:1024200038B5C3880D46044633B114A0009015A2F8
:1024300016A12846FEF7AEFE217A05291CD0607A47
:1024400048B1A088FFF73EF9164951F8202016A19F
:102450002846FEF79FFEA0880021FFF749FB0346B0
:102460001049207A143951F8202001B02846BDE8DF
:1024700030400EA1FEF78EBE38BD00001B5B306DF4
:10248000000000001B5B313B33316D0025734C6F46
:1024900067732064726F7070656420282564292535
:1024A000730D0A0080000020257300003C25733E58
:1024B0002025733A200000000349884201D10348D7
:1024C0007047002070470000002000401C000020E2
:1024D00070B5054688690C4600284FF4847128467B
:1024E0000AD0FFF70AFCD5F81805626AE16888543B
:1024F000606A401C606270BDFFF7FFFBD5F81805ED
:1025000070BD1FB501238DF80030CDE90121D0E960
:102510000012684690471FBD1FB501238DF800309B
:10252000CDE90121D0E90012684690471FBD0000A7
:1025300070B50D4C0020D2B22070201D0B4D0378D9
:10254000EB5C1BB1001DFFF779FE02E00C30FFF7DA
:1025500079FD08B1FEF7EEF96078002802D0217805
:102560000029FAD070BD00003400002010000020C7
:10257000124910B50120087011481249401AC108CB
:10258000032000EB014004460FA1FFF72DFA0B4892
:102590000830007800280FD0204610A1FFF724FA59
:1025A00006480830FDF7E2FE82B220460349BDE846
:1025B00010400831FFF7C4B910BD00000000002032
:1025C000C82D0000882D00005472616E736665721C
:1025D00020636F6D706C657465642E0020526563B6
:1025E00065697665643A000000B585B00A460178F1
:1025F0008DF8001041680191017A8DF80810C168CA
:102600000391007C8DF81000044850F822100C381B
:1026100050F822206846904705B000BDB400002065
:102620002DE9F843044610681E4615460F464FF044
:10263000000810B1FFF778FBF8B1A86810B1FFF7F8
:1026400073FBD0B1D5E90001C4F84405C4F84815BE
:10265000D5E90201C4F83405C4F838154FF48C7577
:102660004046C4F81881D4F818110091F2074FF0D1
:10267000010107D0C4F8501506E087F81D8010202E
:10268000BDE8F883C4F85005B20702D5C4F8401578
:1026900001E0C4F84005300700D42161386848B132
:1026A00046F38000401C4FF0400014D0C4F80403EF
:1026B0000020E5E729462046FFF715FB0028F9D062
:1026C000F87FFF28F4D0B97F11B1FEF704FFEFE7E0
:1026D000FEF708FFECE7C4F80803E9E72DE9F84F37
:1026E000204D92468946064698460122694618467C
:1026F000AF68FEF717FA58B3009800210446801C13
:1027000009E000BF00EA07035AF8212005EB830324
:10271000401C491CDA604145F4D34FEA164AFEF7E3
:102720006FFA4AEA0041601C384005EB80003C40EB
:1027300005EB8402C160D06866F3C50068F38910B8
:1027400069F39F2020F00300401C20F00400D060BB
:1027500095F8200402E000BFFEF7DAFF0028FBD165
:10276000BDE8F88F2803002070B50C4605464FF4ED
:102770008E71FFF7C2FA216AA068415C206A401C92
:102780002062C5F81C1570BD1FB500228DF8002011
:102790000291816801914261D0E900126846904738
:1027A0001FBD1FB500228DF80020029181680191A4
:1027B0004261D0E90012684690471FBD1FB50A4626
:1027C00001788DF8001041680191017A8DF80810A8
:1027D000C0680390044850F82210001F50F82220CF
:1027E000684690471FBD00001800002001490120E5
:1027F000087070473400002010B588B004462022CD
:102800000E496846FDF78EFD06200090C01F01901E
:10281000029003904FF0EB7006900CB1084A00E074
:10282000002269460748FEF781FC08B1FEF782F8EE
:102830000448001F447008B010BD0000DC2B0000ED
:10284000ED270000380000202DE9FF470C46054623
:102850004FF40071FFF757FA01274FF40178002673
:1028600018B34FF4927949462846FFF741FAE0B190
:1028700049462846FFF741FAC5F8088394F829002D
:1028800000B96F6002208DF80000D5F88004C5F80B
:1028900080040390A0690290E0680190A661E6615F
:1028A000D4E900126846904728E004212846FFF743
:1028B0002AFA18B34FF484712846FFF719FAE8B1E1
:1028C00021462846FFF704FE616AA069884215D1B7
:1028D000E06938B1E268616AA0612069E661666218
:1028E000E06008E094F8290000B96F60C5F808833B
:1028F000A661E268616A2046FFF703FE4FF48E7816
:1029000041462846FFF7F4F980B16069216A8142A7
:1029100002D294F8280028B341462846FFF7EDF983
:10292000606918B161692046FFF72EFF4FF4A27865
:1029300041462846FFF7DCF9002818D041462846D2
:10294000FFF7DBF994F8290000B12F60A069002897
:102950000DD0A661E268616A04B02046BDE8F04788
:10296000FFF7CFBD21462846FFF7FEFEDEE7BDE8B4
:10297000FF8700001FB50A4601788DF800104168F6
:102980000191017A8DF80810C0680390044850F84E
:102990002210001F50F82220684690471FBD0000FB
:1029A000180000202DE9FF410C464FF492770546B0
:1029B0003946FFF7AEF90026B8B139462846FFF789
:1029C000ADF902208DF80000D5F88004C5F8800428
:1029D0000390D5F83C050290E0680190A661E6619D
:1029E000D4E900126846904723E04FF488773946CF
:1029F0002846FFF78EF9E0B139462846FFF78EF9F1
:102A0000D5F83C15A069884213D1E06960B1E2684D
:102A1000D5F8000220F02000C5F80002E069A061AE
:102A20002069E661E06001E0A661E2682046FFF708
:102A300073FD4FF4A27739462846FFF76AF968B16B
:102A400039462846FFF76AF9A06938B1A661E66100
:102A5000D5F83C152046E268FFF75EFD4FF490760E
:102A600031462846FFF755F960B131462846FFF751
:102A700055F90120E860606920B1D5F84C15204671
:102A8000FFF78FFE4FF4AC7631462846FFF741F949
:102A900000280ED031462846FFF740F9606900282B
:102AA00007D0D5F84C1504B02046BDE8F041FFF73B
:102AB00078BEBDE8FF8100002DE9F05F8346DDE9C7
:102AC0000A4A994690460D460846012703E000BF92
:102AD000B0FBF8F07F1C4045FAD2B94500D94F460B
:102AE0005FEACA7012D18CB15FEA8A7002D5B9F17F
:102AF000000F01D0202607E0302605E03146584679
:102B0000641EFEF753F80CB1A742F7D35FF001063D
:102B1000B9F1010F02D9A9F1010903E0B5FBF6F003
:102B2000404502D306FB08F6F2E7DFF83C9000BF11
:102B3000B5FBF6F000FB165519F800105846FEF7E5
:102B400035F8B6FBF8F6002EF2D15FEACA7009D06C
:102B5000002C07D0A74205D220215846641EFEF75C
:102B600025F8F5E7BDE8F09FC02B0000000000004D
:102B70000338FDD87047000000000000003000401E
:102B80000000000001000000FFFFFFFF06FF000043
:102B90000000004000000000111213140D0E0F1071
:102BA000FFFFFFFF0006FF000000004000000000E4
:102BB0000000005015050000651F0000C121000045
:102BC0003031323334353637383941424344454663
:102BD000AD1600008116000079160000FFFFFFFF10
:102BE000FFFFFFFFFFFFFFFFFFFFFFFF00000000F1
:102BF000000000000000D601060100009002002045
:102C00007F00000010030020004040404040404052
:102C100040404141414141404040404040404040AF
:102C20004040404040404040400502020202020253
:102C300002020202020202020220202020202020A2
:102C400020202002020202020202909090909090B6
:102C50001010101010101010101010101010101074
:102C600010101010020202020202888888888888E8
:102C700008080808080808080808080808080808D4
:102C8000080808080202020240000000092C0000A7
:102C90007761726E696E6700646562756700000037
:102CA0001B5B313B33306D001B5B306D000000005F
:102CB0001B5B313B33316D001B5B313B33326D00AD
:102CC0001B5B313B33336D001B5B313B33346D0099
:102CD0001B5B313B33356D001B5B313B33366D0085
:102CE0001B5B313B33376D00696E666F000000007F
:102CF0006572726F720000004750494F54450000E2
:102D0000505253005350494D000000005541525459
:102D10000000000055415254450000006170705F92
:102D2000627574746F6E00006170705F74696D65B8
:102D300072000000736F72746C697374000000009D
:102D4000756172745F6C6F675F6261636B656E64FF
:102D50000000000061707000E42D00000000002001
:102D6000A8000000900800008C2E0000A8000020A1
:102D7000A8260000A0080000D02B000000000000E2
:102D8000402D00004C000020F82C00000000000046
:102D9000002D000000000000042D000000000000D5
:102DA0000C2D000000000000142D000000000000A9
:102DB0001C2D000000000000282D00000000000075
:102DC000342D000000000000542D0000000003031B
:102DD0005C000020540000205C000020D001002096
:102DE00018000000004E6F7264696300000000006C
:102DF00000000000000000000000000000000000D3
:102E000000000000000000000000000000000000C2
:102E100000000000000000000000000000000000B2
:102E200000200040000000000020004000000000E2
:102E300000000000FF000000000000000000000093
:102E40000000000000000000000000000000000082
:102E500000000000F02C0000902C0000E82C000086
:102E6000982C0000A82C0000A02C0000B02C000022
:102E7000B82C0000C02C0000C82C0000D02C000092
:0C2E8000D82C0000E02C00000090D003D3
:0400000500000201F4
:00000001FF
