:020000040000FA
:10000000C02F0020F5030000FD03000015020000D2
:1000100001040000030400000504000000000000CB
:1000200000000000000000000000000007040000C5
:1000300009040000000000000B0400000D04000093
:10004000110900000F040000950B00000F040000D0
:100050000F040000210700000F0400000F0400003F
:100060000F0400000F0400000F0400000F04000044
:100070000F0400000F0400000F0400000F04000034
:100080000F0400000F0400000F0400000F04000024
:100090000F0400000F0400000F0400000F04000014
:1000A0000F0400000F0400000F040000450B0000C7
:1000B0000F0400000F04000000000000000000001A
:1000C0000F0400000F0400000F0400000F040000E4
:1000D0000F0400000F0400000F0400000F040000D4
:1000E0000F0400000F0400000F04000000000000D7
:1000F000000000000F040000000000000F040000DA
:1001000000000000000000000000000000000000EF
:1001100000000000000000000000000000000000DF
:1001200000000000000000000000000000000000CF
:1001300000000000000000000000000000000000BF
:1001400000000000000000000000000000000000AF
:10015000000000000000000000000000000000009F
:10016000000000000000000000000000000000008F
:10017000000000000000000000000000000000007F
:10018000000000000000000000000000000000006F
:10019000000000000000000000000000000000005F
:1001A000000000000000000000000000000000004F
:1001B000000000000000000000000000000000003F
:1001C000000000000000000000000000000000002F
:1001D000000000000000000000000000000000001F
:1001E000000000000000000000000000000000000F
:1001F00000000000000000000000000000000000FF
:10020000DFF80CD000F054F900480047AD200000A2
:10021000C02F0020094B1EF0040F1CBFEFF3098014
:100220001847EFF308800649064A884201D89042F1
:1002300002D88D464FF00000184700002D05000041
:10024000C02F0020C00F002030B450E8012F93B21F
:10025000C48923448489A34228BF1B1B0489A34269
:1002600002BFBFF32F8F002007E0C3EA020340E87C
:100270000134002CE9D14FF001000A6030BC704716
:1002800050E8012FC2EA024240E801210029F7D1DB
:10029000704730B450E8022F1FFAA2F3C488A3427B
:1002A00002BFBFF32F8F00200DE0C489234484894F
:1002B000A34228BF1B1BC2EA034340E80234002CC0
:1002C000E8D14FF001000A6030BC704750E8022FBF
:1002D000C2EA224240E802210029F7D170470346D2
:1002E00053E8022FD988B2EB324F4FF0000017BF0E
:1002F00092B241EA014142EA014104E05A68B2EB9C
:10030000324F08BF012043E80212002AE8D17047AB
:1003100030B4044654E8000F0D4644E80053002B67
:10032000F8D1156030BC704730B4044654E8000F73
:1003300040EA010544E80053002BF7D1156030BCBA
:10034000704730B4044654E8000F00EA010544E861
:100350000053002BF7D1156030BC704730B4044611
:1003600054E8000F80EA010544E80053002BF7D160
:10037000156030BC704730B4044654E8000F00EB01
:10038000010544E80053002BF7D1156030BC7047DD
:1003900030B4044654E8000FA0EB010544E80053D4
:1003A000002BF7D1156030BC704770B404464FF095
:1003B000000054E8006F0D68AE4207BF44E8002318
:1003C000012044E800630E60002B1CBF0020F0E712
:1003D00070BC704730B4044654E8000F88422CBF0C
:1003E000451A054644E80053002BF5D1156030BC92
:1003F000704700000648804706480047FEE7FEE7D2
:10040000FEE7FEE7FEE7FEE7FEE7FEE7FEE7FEE7C4
:100410006909000001020000202A04DB203A21FAC9
:1004200002F00021704721FA02F3D040C2F120020D
:10043000914008431946704700487047105B000020
:1004400040EA01039B0703D009E008C9121F08C056
:10045000042AFAD203E011F8013B00F8013B521ED6
:10046000F9D27047D2B201E000F8012B491EFBD24D
:1004700070470022F6E710B513460A4604461946AF
:10048000FFF7F0FF204610BD421C10F8011B0029A9
:10049000FBD1801A704730B504460020034600E0C7
:1004A0005B1C934203D2E05CCD5C401BF8D030BDB6
:1004B000064C074D06E0E06840F0010394E80700B1
:1004C00098471034AC42F6D3FFF79EFE506100000F
:1004D0007061000070B58C1810F8015B15F007030F
:1004E00001D110F8013B2A1106D110F8012B03E0CD
:1004F00010F8016B01F8016B5B1EF9D12B0705D4D5
:100500000023521E0DD401F8013BFAE710F8013B1D
:10051000CB1A921C03E013F8015B01F8015B521E39
:10052000F9D5A142D8D3002070BD00001CB581468A
:1005300003F026FB03F060F90028FBD12D485FEAA9
:10054000090507682C482D494FF00106A0EB010072
:100550004FEAD00006EB004417D0204628A1AA6934
:1005600003F066FAD5E90201CDE90001D5E90023DF
:10057000204629A103F06CFAE8690090D5E904232C
:10058000204633A103F05BFA03E020463AA103F0D2
:100590004BFA1848001D0068800703D520464349E0
:1005A00003F042FADFF80881002500BF06FA05F0E3
:1005B000384206D058F825201AB120463DA103F054
:1005C00037FA6D1C1A2DF1D3380606D509480C30C0
:1005D000026820463AA103F02BFA380406D50548F4
:1005E0001030026820463EA103F022FA484600F08F
:1005F00085F8000028ED00E0C06100008061000087
:1006000048415244204641554C5420617420307872
:100610002530385800000000202052303A20203089
:100620007825303858202052313A20203078253033
:100630003858202052323A2020307825303858203F
:100640002052333A202030782530385800000000FE
:1006500020205231323A2030782530385820204C32
:10066000523A202030782530385820205053523AC2
:100670002030782530385800537461636B207669D8
:100680006F6C6174696F6E3A20737461636B207074
:100690006F696E746572206F757473696465207319
:1006A0007461636B20617265612E0000EC5B000079
:1006B0008800002043617573653A2025732E000081
:1006C0004D656D4D616E616765204661756C742086
:1006D000416464726573733A20307825303858006D
:1006E000427573204661756C742041646472657351
:1006F000733A20307825303858000000BFF34F8F10
:1007000005480168054A01F4E06111430160BFF347
:100710004F8F00BFFDE700000CED00E00400FA057C
:100720002DE9FF5F4FF482750024284603F008FB93
:1007300038B1022003F014FB18B1284603F008FB7F
:1007400002244FF48475284603F0FAFA58B10420C5
:1007500003F006FB38B1284603F0FAFA0CB1032483
:1007600002E0012400E014B1204603F0F1FC4FF454
:100770008C7003F0E5FADFF88491614F614E624CB2
:100780004FF000084FF4947A4FF4867B78B3402002
:1007900003F0E6FA58B34FF48C7003F0D9FAB0685E
:1007A000CDE90008D9F800000390544814300068DF
:1007B0005546C0F30B001038C0F3CC0002905046F1
:1007C00003F0BEFA60B1381503F0CAFA40B13868D8
:1007D00000F00D000190284603F0BAFA0D203860B1
:1007E000616809B168468847584603F0B1FA4FF48A
:1007F000887003F0A5FAA0B1102003F0B1FA80B11F
:100800004FF4887003F0A4FA06F118000FC88DE8C1
:100810000F003E491820C1F80803616809B1684615
:1008200088474FF4A67003F08BFA354D083D18B396
:100830004FF4002003F094FAF0B14FF4A67003F0E7
:1008400087FA4FF48C7003F083FA504603F080FA75
:10085000584603F07DFA4FF4887003F079FA0D20C2
:1008600038600120286006F128000FC88DE80F00CD
:10087000616809B1684688474FF48E7A504603F0A4
:100880005FFAC0B1802003F06BFAA0B12F68504628
:1008900003F05EFA383696E80F008DE80F00F8078F
:1008A00007D0012028608DF80480616809B168468E
:1008B0008847012028605D46584603F041FA002829
:1008C00019D0082003F04CFA002814D0284603F071
:1008D0003FFA616800290ED008200090D9F8000086
:1008E000029006480C30006840F2FF1202EAD00085
:1008F000019068468847BDE8FF9F00001055004002
:100900000C540040A8580000F8050020005000409A
:1009100070B54FF48076304602F049FA114CB505B7
:1009200060B1304602F04AFA0120C5F80803607948
:1009300020B9012060712168002088474FF4827639
:10094000304602F034FA00280AD0304602F036FA77
:100950000220C5F808032168BDE87040012008475F
:1009600070BD00002400002030B54FF08050002200
:100970008300D0F83011C3F80C21C3F81021624B6A
:100980001A60624B1B68624C2360604B1B1D1B6826
:10099000241D23605D4B08331B68241D23605B4BC3
:1009A0000C331B68241D2360584B10331B68241D17
:1009B0002360564B14331B68241D2360534B18339C
:1009C0001B68534C20342360504B1C331B68241D80
:1009D00023604E4B20331B68241D23604B4B243374
:1009E0001B68241D2360494B28331B68241D23608A
:1009F000464B2C331B68241D2360444B30331B684B
:100A0000434C40342360414B34331B68241D236026
:100A10003E4B38331B68241D23603C4B3C331B6822
:100A2000241D2360394B40331B68241D23600123A0
:100A3000082902D1D0F8344114B1082904D006E0C5
:100A4000354C3449216005E0D0F8344114B108290F
:100A500004D006E0314CFB21216005E0D0F83441A0
:100A600014B1082908D00EE090F858422C480168CB
:100A700064F30301016002E0D0F834411CB9294954
:100A80004FF40070086028480168C90702D06FF071
:100A9000010101602548016841F470010160BFF364
:100AA0004F8FBFF36F8F4FF01021D1F80002002855
:100AB00003DBD1F80402002822DA1D4C23601D4814
:100AC0000368002BFCD01223C1F800320568002D0A
:100AD000FCD0C1F8043201680029FCD02260016812
:100AE0000029FCD0BFF34F8F10487C380168124AB0
:100AF00001F4E06111430160BFF34F8F00BFFDE7D8
:100B00000F490E48086030BD38050040040400104D
:100B100020C50040488103008C56004018F5004075
:100B2000E40E0040409602400004004088ED00E0E2
:100B300004E5014000E401400400FA050090D00300
:100B40006C0100202DE9F047104E062700244FF4D9
:100B5000A0784FF4803900BF08EB840509FA04F04F
:100B6000715961B1D6F80413014208D029463046C4
:100B700003F0BEF90648D0E9002128469047641CDE
:100B8000E4B2BC42E8D3BDE8F087000000B0014009
:100B90000406002001480068004700003C000020D7
:100BA00000F01F02012191404009800000F1E02087
:100BB000C0F88012704702E008C8121F08C1002A5E
:100BC000FAD170477047002001E001C1121F002ACE
:100BD000FBD17047800701D000207047012070478B
:100BE000C3688B4206D811440069491E814201D86E
:100BF0000120704700207047F8B5264CA04239D13B
:100C000000250446052935D2DFE801F003350E152D
:100C10001A00D4F82C61002E2CD0002300951A461F
:100C20000121D4F8300133E0C4E902232046BDE8B5
:100C3000F84001F007B82046BDE8F84000F045BF95
:100C4000107800F0F700F22804D0002084F8240186
:100C500018B901E00120F9E70023A361107800F042
:100C6000E601022903D1C00601D5012000E00020E1
:100C700084F82301F8BD204600F0FEFED4F82C6174
:100C8000002EF7D0002300951A460221D4F8300137
:100C9000B047F8BD680D002072B602F071FF00BFCA
:100CA00002F0AAFD0028FBD111481249401AC408DD
:100CB000012000EB044010A102F0B6FE11480068CC
:100CC000C00700D000BE022000EB04400EA102F0DD
:100CD000ABFEBFF34F8F0B48E43801680E4A01F4B6
:100CE000E06111430160BFF34F8F00BFFDE70000DB
:100CF000D061000080610000466174616C20657203
:100D0000726F7200F0ED00E053797374656D2072BC
:100D100065736574000000000400FA050EB500213B
:100D20000091CDE901106A4644F20100FFF7B4FFDB
:100D30000EBD00002DE9F047244C814692466088A4
:100D40000E4681423FD84FF6FF77002000F076F83C
:100D500022786078A188884201DA401C00E00020F7
:100D6000C0B2904203D1002000F06AF829E0657813
:100D70004FF000086078884201DA401C00E0002053
:100D80006070002000F05CF8BD421AD0A068B9F194
:100D9000000F40F835A00DD066B16188E06832469A
:100DA00005FB01004946FFF74BFBA06800EBC500BF
:100DB000868003E000EBC500A0F804800020BDE8B9
:100DC000F0870420FBE70920F9E700004400002039
:100DD00010B50E4C03E0401C00E00020207020788D
:100DE0006178814210D022786188E068A36802FBB4
:100DF000010003EBC20153F8322089889047207824
:100E0000A1888842E9DAE6E710BD0000440000202E
:100E100030B5CB0008339DB293074FF0000401D0EA
:100E2000072030BD044B9A602A44DA605C701C7065
:100E300058809980002030BD4400002000F002B8A6
:100E400000F008B872B602480168491C016070479A
:100E50005400002003490868401E086000D162B6B3
:100E6000704700005400002070B5054608680C4625
:100E7000411C04D002F0BAFB206802F078FB6068E5
:100E8000411C02D0002102F060FB2968A069C1F872
:100E90002405607D227D29681043C1F86C05D4E9E2
:100EA00000122868C0F81425C0F80C15207D012810
:100EB00014D1A068411C02D0002102F046FBE0687A
:100EC000411C04D002F092FBE06802F050FBD4E930
:100ED00002122868C0F80825C0F8101570BD70B55A
:100EE000054608680C46411C04D002F089FB2068C6
:100EF00002F047FB6068411C02D0002102F02EFB8B
:100F00002968A069C1F82405607D217D2A6808430D
:100F1000C2F86C05D4E900122868C0F80C15C0F8B6
:100F20001425207D012814D1A068411C02D0002185
:100F300002F014FBE068411C04D002F061FBE068A1
:100F400002F01FFBD4E902122868C0F80825C0F897
:100F5000101570BD084908B5085C0090684602F09D
:100F60001BFBD0F810050099C84010F0010000D01C
:100F7000012080F0010008BDA25800002DE9FC41CD
:100F80000646C0074FF000050ED0104F0024012286
:100F9000385D009500231146019502F079FA641C32
:100FA000042CF4D300F024F8B0070DD5074E00242C
:100FB000361D0022305D032300951146019502F095
:100FC00067FA641C042CF4D3BDE8FC819E58000031
:100FD0000249085C012102F01DBB00009E58000080
:100FE0000249085C002102F015BB00009E58000079
:100FF00010B500242046FFF7EBFF641C042CF9D346
:1010000010BD00002DE9F0470546861C90460F46AE
:101010004FF001090020FFF711FF1B4C20683860DA
:10102000D4E90001401AA16804F21C47081A0EE036
:101030000121384601F043FE00F0EAFF0146384640
:1010400001F03DFED4E90001401AA168081A401CD5
:101050008642EDD8B8F1000F03D0052065F3891062
:1010600002E0062065F39F50A2682168114004EB5E
:101070008101C8602068304420600020FFF7E0FE56
:101080004846BDE8F0870000E808002070B50D462E
:1010900004460A2902D10D21FFF7F8FFA068226853
:1010A000411CA1601554D4E90101814204D32046BA
:1010B000BDE8704001F01FBF70BD0000034803C8C9
:1010C000814201D10120704700207047E8080020CC
:1010D00070B5084C050009D010342168002907D0EC
:1010E00008682060496828468847F6E70834F4E72E
:1010F00070BD0000E4050020002801D103F0C0B954
:1011000070470000054A012120B1012805D19170E6
:10111000FFF7DEBF51700020FAE77047E4050020BA
:101120007FB50C4610B1012004B070BD20790026B7
:1011300038B141F61D5501281BD0022826D00F20BA
:10114000F2E70220207102960396E068019069465A
:1011500001A803F009FF50B102988188E18000885E
:101160002081BDF80010029803F07CFFDCE70A2024
:10117000DAE70A4B6A460021A01D03F0B1FE38B140
:10118000064918398E61CE610A28CDD12846CBE7B1
:1011900002488188019803F065FFF5E770000020A0
:1011A00010B50021024801F0A5FD80F3100010BD2C
:1011B000040D00202DE9FC4180461F4615460E46D1
:1011C00000240D4801F078FD38B11120BDE8FC8104
:1011D00006EB043002F044FE641CAC42F8D1064831
:1011E00001F061FDCDE9005733460022022140465F
:1011F00000F04EF80020E9E7F000002010B5037879
:101200000022072B06D2DFE803F005040610202990
:1012100030000A7010BD01230B7003898B81838815
:10122000CB81C06888600A7410BD02220A700289EE
:101230008A818288CA81C2688A60807D062802D03D
:101240000020087410BD0120FBE703220A70C28849
:101250008A810289CA81C068886010BD04230B702E
:10126000C0888881CA818A6010BD0520087010BDC1
:1012700070B5064D0646002455F8241009B13046D5
:101280008847641C042CF7D370BD00007C06002046
:101290002DE9F04387B00446DDE90E8980681D46DC
:1012A00016460F4600280BD018216846FFF7E1F8D4
:1012B00002A88DF8007080E86003A168684688473E
:1012C00007B0BDE8F083000070B50278224CEAB1A7
:1012D0002249234BC91AC908032303EB0145012AFC
:1012E00022D0022A19D0052A16D1406808B1FFF78A
:1012F00015FD28461BA102F097FB61780020E9B19B
:101300006070D4E9011000F0A5FF1FE0406808B14B
:10131000FFF704FD0120207070BD406808B1FFF7A1
:10132000FDFC284619A105E0406808B1FFF7F6FC6E
:1013300028461BA1BDE8704002F076BBA1780029C9
:10134000EAD0A070D4E9011001F064F80028E3D0DD
:10135000BDE87040FFF7E2BC04000020806100009F
:10136000806100004761726261676520436F6C6C49
:101370006563746F7220616374697669747920663D
:10138000696E69736865642E00000000464453204E
:1013900075706461746520737563636573732E0083
:1013A000464453207772697465207375636365736F
:1013B000732E00000C4808B5007888B1684603F029
:1013C00013FD78B106210170684603F01BFD074844
:1013D000017809B10121017303F06CFD002008BD03
:1013E000022008BD082008BD78000020400700202A
:1013F000F0B587B014216846FFF73BF82B4C2078F6
:1014000018B16846FFF734FF4EE0201D01F054FC90
:10141000B8BB4FF0102041690004026940694B1CC1
:1014200001D100FB02F1224800220161A1F54051E7
:10143000C160204901F0F4FE002820D11F481C2380
:101440008C221D49006801F0EFFB03F0C9FB051E6B
:1014500014D0022812D000270126062D12D005A88C
:1014600003F0C2FC88B106700C2D18D2DFE805F03D
:10147000170F170F17161716171113110B2007B098
:10148000F0BD11E026706760BBE70820F7E7077141
:1014900005E0032100E00221017100E0067105A8CA
:1014A00003F0B0FC03F006FD0020E8E77800002020
:1014B000900100208C5900008C060020F858000094
:1014C00038B5040014D0694603F04EFDA0B1BDF854
:1014D000000000EB8001094800EB8100C16849B1C0
:1014E000A17A39B1C168491EC1600020A07238BD1F
:1014F000052038BD062038BD0A2038BD1807002059
:101500001FB501A9684603F0EBFC04B010BD000054
:10151000F8B50D46040018D0BDB1694603F024FDAE
:10152000A8B1BDF800000B4900EB800001EB800082
:1015300001210C30666801F0C2FB2E6060680C303F
:1015400068600120A0720020F8BD0520F8BD0A20C7
:10155000F8BD00001807002018B10323002204F092
:101560006FB8052070470223002204F069B800001C
:10157000084910B50A69042A0AD0074A096942F8DD
:10158000210004480121103001F099FB002010BD1A
:101590000C2010BD580000207C060020406803F09D
:1015A00039BC000070B508B1012070BD1B4C00258E
:1015B000207B08B1257301E000F0A4F8207808280A
:1015C0002AD2DFE800F02904080C10291422BDE813
:1015D000704000F025B8BDE8704000F081B8BDE86B
:1015E000704000F063B8BDE8704000F03FB80620DE
:1015F00020706088094900EB8000283901EB8000E9
:101600004068BDE8704003F0CBBA072020706560E9
:10161000BDE8704003F0D2BA0F2070BD4007002033
:101620001149F0B48A1C00200346A1F128050C18CA
:10163000A67A4EB1A37200EB800405EB8404E66841
:1016400016B9247C012C0AD0401C80B20228EED3AB
:101650000B704B804B60F0BC41F61D507047108002
:10166000F0BC00F03DB80000400700200C48418865
:1016700001EB8102A0F1280101EB8201CA6852B19D
:1016800005210170074802218180016800230122A1
:10169000054801F029BD042202704968F6E7000000
:1016A00040070020800000209001002038B50A4942
:1016B000084803240B684268898803EB810153883A
:1016C0000470DB1C00201B0400909B0B034801F0FE
:1016D000F1FD38BD4007002080000020900100206F
:1016E000074910B54888091D03F08EFC18B1BDE804
:1016F0001040FFF7DBBFBDE81040FFF7B7BF0000A9
:1017000040070020F0B51F481F4901250678022434
:101710008B88A0F12802082E19D2DFE806F0041801
:10172000181B222F2F170189491C0181002141809C
:1017300080F80C1001EB810312F8233043B1002331
:101740004418491C89B2A3720229F3D30570F0BD75
:101750000123F5E742685288D21C1A448A8004703B
:10176000F0BD46880D6806EB860602EB86025668D9
:101770000E60556013818C80062100E00721017006
:10178000F0BD00004007002080000020428800EBF0
:1017900082020C328A4201D9022070478188A1F569
:1017A0007F42FF3A03D0008808B100207047012033
:1017B0007047884204D20068401C01D00120704765
:1017C00000207047014941600020704780590000A7
:1017D0002DE9F0412D4F002518B17D600120BDE8B5
:1017E000F0810879012258B1294E01280CD0274CEC
:1017F0004FF002080834022821D0032842D128E003
:101800000A7103F0DBF93BE05FF0000000EB8001C0
:1018100016F82110022908D0401C80B20228F5D306
:101820003A707D6041F61D50D9E700EB800006F864
:10183000205006EB8000406803F0B2F920E00D7103
:10184000A4F80480002301221248216801F04CFC16
:1018500016E00D71206803F0A3F90D4923682831C3
:10186000498801EB810206EB8201D1F804C0C4F87B
:1018700000C04B60A3880B81A4F8048006F82250B6
:101880000028ACD07D600E20A9E700007800002081
:1018900018070020900100202DE9FC5F0E00834610
:1018A000DDE90C47C6F1000098469246814600D417
:1018B0000846012503E000BF90FBFAF06D1C50457F
:1018C000FADAA84500D9454624B1002E01DB780795
:1018D00000D5641EB80702D5B8F1000F0AD0F8078A
:1018E00008D13CB1A54205D220215846641EFFF71D
:1018F000CDFBF6E7002E02DA4E462D2102E07807F6
:1019000003D52B215846FFF7C1FB07F0030002283F
:101910000BD1B8F1000F08D13CB1A54205D230215E
:101920005846641EFFF7B2FBF6E7CDE90047434691
:1019300052463146584603F005FEBDE8FC9F0000C4
:1019400070B50D46044600684FF4887102F0ECFA59
:101950004FF49071206802F0E7FA4FF4927120681A
:1019600002F0E2FA4FF4A271206802F0DDFA20687A
:101970001149C0F804132068690740F30730090EC5
:10198000002806DA00F00F0000F1E02080F8141DB6
:1019900003E000F1E02080F800142068012140F30A
:1019A000073000F01F0291404009800000F1E02064
:1019B000C0F8001170BD00001003020002460020B4
:1019C0001268530713D502F00300012802D0022841
:1019D0000CD105E0C2F383100B68801C184404E0AE
:1019E0000223086803EB92521044086001207047FC
:1019F00002480068002800D001207047F000002055
:101A0000800701D0002070470120704738B5194C7D
:101A1000049DA0422DD104F1280080E82C0020462E
:101A20000022D0E9015001290DD0022917D0052943
:101A300005D006291DD1BDE8384000F07DBEBDE8C7
:101A4000384000F0BBBE0B49002DCA630A644A64EB
:101A50008A640ED0002300921A46012108E04FF05C
:101A6000FF316162002D04D0002300921A4602214A
:101A7000A84738BD0C0D002001210177002180F816
:101A8000241180F8251180F8231180F8281180F89E
:101A9000291101714171C0F84011C0F83411C0F82A
:101AA00038117047826811780B07017906D5527892
:101AB00002F00F028A4202D1012102E009B10020A6
:101AC000704780F8291101207047F8B504468069F5
:101AD000002813D194F8260100280FD00025009586
:101AE000D4E94C03D4F82C61D4F84021052104F545
:101AF0009274B047E56104F8025CA570F8BD10B5BA
:101B0000044690F8240118B1002084F8240110BD87
:101B10002046FFF7C7FF0028F9D0204600F0DEF985
:101B20002046BDE81040FFF7A7BFF8B504460125E1
:101B300090F82401002610B184F82461F8BD2046F5
:101B4000FFF7B0FF0028F9D0A06801780A0700D598
:101B5000022594F8232112B184F82361F8BD4907C6
:101B600004D5415D6279914200D16D1C217F81F0E5
:101B7000010121770278D307B3EBC17FEED1D10603
:101B80004FF001070CD50097E1684B1B4219D4E9CF
:101B90004B500621A8472046BDE8F84000F00CB99C
:101BA000204600F0ABF984F822710096E068431BF0
:101BB000A0684219D4F83001D4F82C410621A0477E
:101BC000F8BD70B504460125FFF76CFF002838D03A
:101BD000A0680078010700D50225E168A94230D14C
:101BE000C6064FF0010204F21F1304F11D051AD4BA
:101BF00000F00101207F81421FD080F0010020779A
:101C00002046BDE8704000F0ECB884F824210022A2
:101C1000184604E06169002913D000222846BDE877
:101C2000704000F051BF217F00F00100884204D0D5
:101C30002046BDE8704000F0BFB8A1690029E9D096
:101C4000E3E770BD70B5C16800292FD08168002915
:101C50002CD0097801F0F002902A27D0D02A25D084
:101C60008A0748D590F828218AB34A0635D501F06D
:101C7000F701C2291BD0F22918D1044690F824019B
:101C80000125002812D02046FFF70CFF00280DD0B8
:101C9000A0680178090700D502256119405D91F817
:101CA0001F110025884206D084F8245170BDBDE87C
:101CB0007040FFF724BF94F8250148B1002204F1D9
:101CC0001D00616900F000FF84F82551ECE712E087
:101CD0002046BDE8704000F011B901F0E60102298C
:101CE00005D0A229E2D1BDE87040FFF76ABFBDE888
:101CF0007040FFF71ABF1D29D8D05029D6D0E0294F
:101D0000D4D190F828110029D0D10121017780F891
:101D1000281181680D4A4978090952F82110891E55
:101D200001618168497811F00F01017100D0012132
:101D300080F8291101790F2903D0BDE8704000F027
:101D40001BB8BDE87040FFF797BE00003C5A00008A
:101D5000024610B50920074B002100BF53F821406F
:101D6000944201D1084610BD491CC9B20929F5D3D6
:101D700010BD00003C5A000010B504460068FFF793
:101D8000E7FF092816D040F07000A0778021E177A6
:101D9000E179A279022041EA021184F8201084F846
:101DA00021000521617704F11D00BDE810400022EB
:101DB00000F08ABE032010BD027F002102F0010264
:101DC00042F0A202427790F829312BB142F008018B
:101DD000417702790121827700221D30491C00F0F1
:101DE00073BE2DE9F0410446007F002700F0010199
:101DF000891C617794F82921D4F838013E4632B124
:101E000028B941F00801617721790127A177D4F839
:101E100034117F1C0D1A2169C91B8D4204D9627FC0
:101E20000D4642F0100262773DB1D4F840112A46C7
:101E30000144E0191D30FEF703FB627F7919D006DB
:101E400029D4D4F83C0108B323698B4232D9D4F8A1
:101E50004421C0F10200105C621801F101015077C9
:101E6000D4F83C01401EC4F83C0114D022698A42D7
:101E70000DD9D4F84421C0F10200105C62185077EB
:101E8000D4F83C01401E491CC4F83C0103E0607FCB
:101E900040F0100060776161D4F8380101222844D5
:101EA000C4F83801D4F83431984208D3D4F83C014E
:101EB00018B104E042F01000ECE784F8262194F811
:101EC000240120B184F825213046BDE8F0810022AC
:101ED00004F11D0000F0F8FD0646F5E70021C222DE
:101EE000427790F8292122B1CA2141770279012154
:101EF000827700221D30491C00F0E6BD8279002166
:101F0000C2F1070301229A40F22380F81F3190F8B2
:101F10002931D2B233B1FA2180F81F11037901219E
:101F200080F82031491C3B2A00D93B22431800F29B
:101F30001F1083F81F210122491C00F0C5BD0000BD
:101F40002DE9F843164C042680468DF8006094F87D
:101F5000270115460F4608BB05B34FF4A471204670
:101F6000FEF787FAB00120600220E071A6712C60B4
:101F7000C4E94B7801226946104600F04BFD002869
:101F800008D12146074800F0ABFD28B15FF0000101
:101F900084F82711BDE8F8830121F9E70720F9E764
:101FA000680D0020F90B000030B4124CA04204D19F
:101FB00019B14FF6F074A24202D9072030BC704725
:101FC000D0F8404154B990F822413CB100243BB1D3
:101FD0000225C0F83C51C0F8443103E00820EDE789
:101FE000C0F83C41C0F84011C0E94D2430BCFFF7B7
:101FF000F8BE0000680D00200268134602E08A4225
:1020000004D01268002AFAD10B600160704700000A
:102010002DE9FF410026234800F04BFE2148001F18
:10202000074600F046FE204C60680090A56800E07E
:1020300000986946284004EB80000C30FFF7BEFC96
:102040000028F5D101AA009901EA050304EB8303F6
:10205000491CDB6842F82030401C00910228F2D372
:10206000019800F0030001280BD0022810D101983C
:10207000032101EB90500099BDF80A6001EB90003C
:1020800005E00198BDF80A60C0F383100844009091
:10209000384600F00BFE08B10098606004B030468E
:1020A000BDE8F081000D0020E808002008B50021FF
:1020B000084601F02FFD08B1FEF730FE01F08EFB5F
:1020C0000320FEF75BFF294A04210020FEF7A0FE53
:1020D00008B1FEF723FE00F089F908B1FEF71EFEF5
:1020E00022484FF480642146283000F005F908B1F9
:1020F000FEF714FE0020FEF72DFF80B11B48694655
:102100002830009400F0ECF808B1FEF707FE1748FD
:102110002146283000F07EF908B1FEF7FFFD0021CE
:10212000134800F023FD08B1FEF7F8FD0F482146E3
:10213000283000F0FDFC08B1FEF7F0FD0D480E4917
:10214000401AC008032101EB00400CA101F06CFC17
:1021500000F054FC08B1FEF7E1FDFEF739FE00BFC8
:1021600001F04AFB0028FBD120BFF6E7A4010020C4
:10217000FD270000D0610000806100005772697483
:1021800061626C65204E444546206D6573736167DE
:1021900065206578616D706C65207374617274651B
:1021A000642E00002DE9F047C5881E1DB6FBF5F72B
:1021B0008946B6FBF5F1044605FB176C40791668B5
:1021C0006843DDF820A0F718001F874200D9C61A1F
:1021D000166001E02468491E0029FBD1A5EB0C071D
:1021E0008846B74216D818E004EB0C00001D09EB36
:1021F0000803BAF1000F3A4602D00146184600E043
:102200001946FEF71DF92468F61B4FF0000CB84480
:10221000B54201D9374600E02F46002EE4D1BDE893
:10222000F087000030B5024651B101F091FC002169
:10223000074C08E034F821301568AB4202D1116038
:10224000002030BD491C8142F4D3052030BD000080
:102250000000000070B50C46054600F0B9F80D49C5
:10226000A1F10C00FFF77FF9072812D10A480121DC
:102270004170C0E9014509480949401AC0080321D5
:1022800001EB004007A101F0CFFBBDE87040FFF774
:1022900091B870BDD80500200400002080610000C6
:1022A0008061000046445320686173206E6F206691
:1022B000726565207370616365206C6566742C209F
:1022C0004761726261676520436F6C6C6563746F10
:1022D000722074726967676572656421000000008E
:1022E00008B5034600910E220249012000F05AFC75
:1022F00008BD00009058000013B586B004460020C9
:10230000039042F22221049003AB1A4A4810FFF7CF
:10231000F7F81949194A891AC908032202EB01433F
:1023200090B10A280ED1024615A1184601F080FB93
:1023300007A92046FFF7D4FF002803D120460799BC
:10234000FFF788FF08B010BD18461BA101F06CFB19
:1023500069460848FFF7DCF80028F3D10098019996
:10236000408882002046FEF76BF80248FFF7A8F885
:10237000E8E70000CC0500208061000080610000DB
:102380004E4445462066696C65207265636F7264D1
:10239000206E6F7420666F756E642C2064656661B4
:1023A000756C74204E4445462066696C65206372E6
:1023B00065617465642E0000466F756E64204E443E
:1023C00045462066696C65207265636F72642E00F5
:1023D000054A41F21113C91C13805B005380506001
:1023E0008808906070470000D805002010B50748A5
:1023F000FFF7BEF8002807D1FEF7FAFF002803D147
:1024000003490A78002AFCD010BD0000C912000060
:102410000400002070B50C460546FFF7D9FF0D49B2
:10242000A1F10C00FFF798F8072812D10A48012102
:102430008170C0E9014509480949401AC0080321D3
:1024400001EB004007A101F0EFFABDE87040FEF794
:10245000B1BF70BDD80500200400002080610000DD
:102460008061000046445320686173206E6F2073C2
:1024700070616365206C6566742C204761726261CF
:10248000676520436F6C6C6563746F72207472694A
:1024900067676572656421000848018CC268090A93
:1024A000D172C26890F82010117390F8391009B1F8
:1024B000002100E0FF21C068817370470C0D0020EF
:1024C00010B50F2209490A48FDF7BAFF0849A1F1E2
:1024D0004C00C16041610F21C161002101614A1EB0
:1024E0008161C0E9081280F8391010BD2B5A000034
:1024F000580D002070B50D4D0D4A00212C7800BFFD
:1025000001EB4103D65CA6420AD113445B788342B7
:1025100006D101EB4100104480782870002070BD86
:10252000491C0529ECD3082070BD00000C0D0020CB
:1025300070010020F8B51B4C04F13C052069A96826
:102540000844D4E90A12FDF77BFFA868E16A084451
:10255000A860216B012923D069682A68124E401AAD
:10256000002590420DD1361F01290AD8206900228A
:1025700041780078009501EB0023D4E90170042133
:10258000B847084833460849C5630564456485640F
:10259000606B01B00022BDE8F040491FFFF704BDA9
:1025A000F8BD00000C0D00200E5A00002DE9F0418E
:1025B0001848174B0022C46A591F052C22D3856A7C
:1025C000476AEC78AE782D7904EB062400EB870699
:1025D00004EB050CD6F81CE0F44513D84B1C7169CC
:1025E0002A462144012F0DD185696E782D7806EB9E
:1025F0000525AC4203D2AC4501D3012400E0002400
:1026000080F83840406BBDE8F041FFF7CDBC0000DA
:102610000E5A00000C0D002070B51D4C1B4D0026FD
:10262000E06A0D2808D10D2205F11201A06AFDF71C
:1026300032FF08B9AD1E6662606A401C1DD0E06AB8
:1026400007281AD111490722091DA06AFDF723FFA7
:1026500010B90E4D6662AD1E606A401C0DD0E06A76
:1026600007280AD1094907220B31A06AFDF713FF99
:1026700018B90120054D6062AD1E2B46606BBDE8A8
:10268000704002490022C91EFFF78EBC0C5A0000A0
:102690000C0D0020F8B5274D254FEA6A052A2CD3EA
:1026A000686A012829D195F8390010B3A96AC87859
:1026B0008B780E7900EB03242B6AA01998421CD862
:1026C0002846531F0069B34214D12044491D521FAC
:1026D000FDF7B6FE3F1F012C0FD82869417800781E
:1026E00001EB0023002002460090D5E901400421BF
:1026F000A04702E02B6B012B09D0686B01B03B4671
:10270000BDE8F0400A490022491FFFF74DBC2044B4
:10271000491D521FFDF794FE064801213C3001730C
:102720004460E96A641F214406608160F8BD0000CE
:102730000E5A00000C0D002038B51E4908780228FA
:1027400014D10846D0E90A230C690CB9886938B15C
:1027500018483C30007B50B1BDE83840FFF7EABE76
:10276000086B0090D1E901400621A04738BD022B3B
:1027700008D3107830B95078A4280FD0B02811D0E1
:10278000D62813D00B48406B03B10B4B01B00A495C
:10279000BDE830400022C91EFFF706BCBDE8384046
:1027A000FFF73ABFBDE83840FFF700BFBDE838404B
:1027B000FFF770BF0C0D00200C5A0000F8B50E4C4E
:1027C00094F8380048B100250095D4E901602B4603
:1027D0002A460321B04784F83850206900280AD1DE
:1027E000A069002807D1206B0090D4E90A23A068D3
:1027F00064680521A047F8BD0C0D002010B51C46EB
:10280000012917D0022917D0032919D004291CD176
:10281000002C1AD00120FEF7E3FB0C4800210C4AE3
:1028200004700846FEF786FA00280ED0BDE8104076
:10283000FEF774BA002004E0BDE81040FEF7D8BBF4
:102840000320BDE81040FEF7CBBB10BD0000002008
:10285000015100002DE9F84F17465FEA00080D46C8
:102860000DD067B1D8F800005FEA000907D08A46AA
:102870004DB13868022804D20420BDE8F88F0E203C
:10288000FBE70AF10205022400261EE026B1711CB6
:10289000884207D1402106E0012801D0802102E0D2
:1028A000C02100E0002138686B46001B00902A46DA
:1028B000D9F8000000F02AF80028DED1009804447E
:1028C00005B1054409F10409761CD8F80800B042A6
:1028D000DCD855B1A01EB0F5803F01D30620CCE76F
:1028E000020A8AF800208AF8010000203C60C4E750
:1028F000D0E901329A4201D304207047036843F8BB
:1029000022108168491C8160002070472DE9F8433E
:10291000144698460A4605004FF000074AD06878EA
:10292000297A4618B61D00B1761C8CB332F0C0006F
:1029300002D00720BDE8F883D8F80000B04201D2E9
:102940000420F7E722702B78601C1A4322702A7A41
:1029500000F8012B21460746041D687828B104F8C9
:10296000010B087840F0080008702A7A2046E968D0
:10297000FDF766FD287A6A7804442AB12046696822
:10298000FDF75EFD68780444D8F80000801B0090D5
:102990002B697BB16A462146686998470028C9D1EE
:1029A00014B1009800BA3860009831180020C8F8B7
:1029B0000010BFE70E20BDE70068022803D00428FE
:1029C00004D100F003BA024800F016BA70470000C4
:1029D00064010020084810B50649416000210160EB
:1029E00000F02EFA852803D0002800D0032010BD67
:1029F000002010BDF91000006401002010B5022075
:102A0000FFF778FD08B1082010BD00F08FF8002016
:102A100010BD00003EB52A4C012804D0022813D076
:102A2000032823D020E00D784FF48050A840012ADD
:102A30002CD1002101908DF80010684601F0C8FCEF
:102A4000002812D165700FE0012A1FD101208DF8F6
:102A5000000008788DF80400684601F0B9FC0028F1
:102A600003D19DF80400E07000203EBD012A06D08D
:102A7000042A15D0072A13D00A2A11D006E00878B4
:102A8000042805D0072803D00A2801D009203EBD1C
:102A900020710A210B4801F06BFC0028F7D103E0FC
:102AA00022710848FDF7CCFC02208DF80000054893
:102AB000019020798DF80800684601F089FC3EBD40
:102AC00080010020B00F00201CB5CDE900100AB134
:102AD000022100E00321684601F0E6FC1CBD000075
:102AE0001CB5104BD3E90223CDE900230E4AC2E9FD
:102AF00002010D490122C91C0220FFF78BFF0028AB
:102B00000ED109490122491C1046FFF783FF002816
:102B100006D1FFF75FFF002802D1684601F078FB7D
:102B20001CBD00007C5A00008001002001F088BA22
:102B300070B505464FF6F0700C46814207D804B1D7
:102B40002DB10120FFF7D6FC18B1082070BD0C2074
:102B500070BD0548012105618561046280F8391066
:102B6000FFF79AFC002070BD0C0D002070B50D46DB
:102B7000040005D00020FFF7BDFC18B1082070BD8F
:102B8000072070BDFFF79CFC0448054900F13402A2
:102B9000C0E90145BDE87040FFF7D2B90C0D002037
:102BA0000D1A000070B51D46134B0C468EB0D3E9CC
:102BB0000113129ECDE907130DA906910E498DF858
:102BC00024008DF82C200A9418220C316846FDF759
:102BD00037FC09A80590694606A8FFF789FE00287A
:102BE00005D134B13246294606A8FFF733FE0EB0B0
:102BF00070BD0E20FBE70000E459000070B51546DB
:102C0000044661B1207A2A68904201D3042070BD45
:102C100020780870481C227A6168FDF711FC207A40
:102C2000401C2860002070BD10B531B1B2FBF3F438
:102C300003FB14241CB1092010BD0E2010BD01603F
:102C40000021416081608281C381084610BD70B55A
:102C50000C460546FDF7F8FA002802D021882868BE
:102C6000084470BD10B50A8849888A4203D1FDF72F
:102C70002DFB012010BD002010BD70B50C4605468F
:102C8000FDF707FB002802D061882868084470BD62
:102C900010B50A8849888A4203D1FDF7F1FA01206C
:102CA00010BD002010BD002100F00FB8002100F081
:102CB00017B8012100F023B8012100F016B808B5BB
:102CC0006A46FDF758FB009808BD08B56A46FDF74F
:102CD00038FB009808BD08B56A46FDF74CFB08BDF7
:102CE00008B56A46FDF72DFB08BD08B56A46FDF735
:102CF0001BFB08BD08B56A46FDF70AFB08BD08B511
:102D00006A46FDF711FB009808BD08B56A46FDF755
:102D10003FFB009808BD70B5044600252846FEF725
:102D20008DF821686268086890420ED9401E0860DC
:102D30000178238AE26801FB0325227A2168101AB0
:102D4000C0B20A79824200D208710020FEF778F8FA
:102D5000284670BD70B505460C460020FEF76EF89B
:102D6000E868298A201AB0FBF1F12A681068431C30
:102D700013600170BDE870400020FEF761B810B527
:102D800030B1017A42680368891AC9B21A6006E054
:102D90000E2010BD03681A68541C1C601170491E77
:102DA000C9B2F7D2006800210171084610BD00F1D8
:102DB00080400068002800D00120704708B500F16D
:102DC0008040002101600068009008BD10B500201F
:102DD000FEF734F8074C6068401E6060606818B900
:102DE00001F0CAF800206070BDE810400020FEF736
:102DF00027B80000E405002070B5104D044668783F
:102E000038B114B16168002088470020FEF716F839
:102E10000CE00020FEF712F824B1084821460830E3
:102E2000FFF7EAF8686808B901F09AF86868401C8A
:102E30006860BDE870400020FEF702B8E40500209D
:102E400070B50A4C207808B185250CE00020A06000
:102E500060602061E060064801F0A4F8054601F0DA
:102E600069F801202070284670BD0000E4050020AC
:102E700005110000F0B505460478154889B01646DE
:102E800040F82420124A08690832A2F10C0742F8DF
:102E90002400487F385520226846FDF7D1FA049473
:102EA0002878385C48B10EB10A4A00E00022694631
:102EB000281D01F03BFD09B0F0BD0EB1064A00E04F
:102EC0000022694605F10C0001F004FCF3E7000064
:102ED00014000020115400005D5200000FB408B52A
:102EE0000399002904D004AA00926A4600F00FF862
:102EF00001B05DF814FB10B582680446002A05D0C5
:102F0000D4E90403216898470020A06010BD2DE992
:102F1000FC4791460C00804676D014F8011B39B16D
:102F200025290ED04046FEF7B1F820780028F4D1CC
:102F300098F80C00002867D04046BDE8FC47FFF732
:102F4000DABF0020012221782B291BD02D2902D0A5
:102F5000302908D102E040F0010001E040F0020019
:102F6000641C002AEFD100252A290ED02178A1F176
:102F700030020A2A11D205EB850201EB4205641CDE
:102F8000303DF1E740F00400EAE7D9F800100B1DEE
:102F9000C9F800300968641C0D44217800232E29EB
:102FA0000BD114F8011FA1F130020A2A05D203EB5C
:102FB000830201EB4203303BF3E76C290DD0682913
:102FC0000BD0692921D00BDC252918D0582931D004
:102FD00063290ED0642915D117E014F8011FECE71E
:102FE000702969D0732932D075291BD0782909D16D
:102FF00020E0D9F80000011DC9F800100178404612
:10300000FEF744F8641C90E76CE0D9F800100A1D44
:10301000C9F800200968CDE900500A224046FEF7B1
:103020003BFCEFE7D9F800100A1DC9F80020096839
:103030000A2206E0D9F800100A1DC9F80020096824
:103040001022CDE90050404602F07CFADAE7D9F8C8
:10305000001000270A1DC9F800200E68C00705D11E
:1030600012E04046761C7F1CFEF710F831780029EC
:10307000F7D104E0202140466D1EFEF707F8BD425F
:10308000C0D9002DF6D1BDE74EB13046FDF7FCF9B1
:10309000074604E0202140466D1EFDF7F7FFBD42C4
:1030A00006D9002DF6D103E04046761CFDF7EEFF71
:1030B00031780029F8D1A5E7D9F80000011DC9F839
:1030C0000010056830214046FDF7E0FF78214046BA
:1030D000FDF7DCFF08200021CDE9000103461022A6
:1030E0002946B0E7BDE8FC872DE9F843884605008E
:1030F0002C482D499946A0EB01004FEAD0004FF033
:103100000101164601EB004424D0286800282CD089
:10311000002E34D0696840464FF010070A68511EEF
:1031200011EA080F11D1014672432846FDF758FDF8
:1031300000282ED028684B463246046901B041462B
:103140002846A446BDE8F04360472046174B18A226
:10315000009722E00E2000902046144B1EA220A1D2
:1031600000F06DFC0E20BDE8F8830820009020469A
:103170000E4B26A21AA100F062FC0820F3E70920FA
:1031800000902046094B24A215A100F058FC09200C
:10319000E9E7064B214A2046009711A100F04FFCB9
:1031A0001020E0E7C8610000806100006B5900005A
:1031B000616464725F69735F706167655F616C69A8
:1031C000676E656428705F66732C20706167655F49
:1031D0006164647229000000705F66730000000083
:1031E000257320636865636B206661696C65642084
:1031F000696E202573282920776974682076616CB0
:10320000756520307825782E00000000705F6673A9
:103210002D3E705F617069006C656E002C6000006F
:1032200038B503001148124D4FF00E04A0EB050015
:103230004FEAD0004FF0010505EB004009D061B125
:1032400019600C6801B0A446BDE83040114618462C
:103250006047084B08A2009402E0064B08A20094C5
:1032600009A100F0ECFB0E2038BD0000C861000091
:103270008061000020590000705F6673000000004C
:10328000705F617069000000257320636865636B7F
:10329000206661696C656420696E20257328292089
:1032A000776974682076616C756520307825782E92
:1032B000000000002DE9F84F90468A463A493B4A03
:1032C0000500A1EB02014FEAD1014FF00102DDF848
:1032D00028901E464FF00E0002EB01441AD0B8F1C0
:1032E000000F1CD02868002822D00920002E29D0E9
:1032F00069684968B6FBF1F201FB1261002926D02A
:1033000000902B4B20462BA235A100F098FB092002
:10331000BDE8F88F00902046254B3CA203E00090CA
:10332000234B20463BA22EA100F089FB0E20EFE7A5
:103330000820009020461E4B38A229A100F07FFBF8
:103340000820E5E700902046194B37A2DCE75046FD
:10335000FDF740FC102798B14046FDF73BFCA0B1BB
:10336000324651462846FDF73BFC98B1CDF8009017
:10337000286833464246C46851462846A047C7E7F6
:1033800020460B4B29A2009708E02046084B2DA2AF
:10339000009703E0064B204633A2009710A100F0EF
:1033A0004EFB1020B4E70000C861000080610000FF
:1033B0005859000021286C656E202520705F6673C7
:1033C0002D3E705F666C6173685F696E666F2D3E3F
:1033D00070726F6772616D5F756E697429000000AD
:1033E000257320636865636B206661696C65642082
:1033F000696E202573282920776974682076616CAE
:10340000756520307825782E00000000705F6673A7
:1034100000000000705F737263000000705F6673ED
:103420002D3E705F617069006C656E00616464724E
:103430005F69735F616C69676E65643332286465C8
:1034400073742900616464725F69735F616C69679A
:103450006E65643332282875696E7433325F74295F
:10346000705F737263290000616464725F69735FE7
:1034700077697468696E5F626F756E647328705FD8
:1034800066732C20646573742C206C656E290000B3
:103490002DE9FF411C46DDE90A7815460E466846CF
:1034A00000F07AF846EA450141EA840141EA072240
:1034B00042EA0841009A00EB8200C0F80017BDE81C
:1034C000FF812DE9FF411C46DDE90A7815460E46CD
:1034D000684600F06FF846EA450141EA840141EA96
:1034E000072242EA0841009A00EB8200C0F8001768
:1034F000BDE8FF812DE9FF411C46DDE90A7815464C
:103500000E46684600F064F846EA450141EA840147
:1035100041EA072242EA0841009A00EB8200C0F823
:103520000017BDE8FF811CB5002100910B46012268
:103530000191FFF7C6FF1CBD1CB5002100910B4691
:1035400001220191FFF7D6FF1CBD1CB500220B46DE
:10355000009211460192FFF7B4FF1CBD1CB500227A
:103560000B46009211460192FFF7C4FF1CBD1CB52B
:10357000002100910B46012201911146FFF7A1FFA6
:103580001CBD1CB5002100910B4601220191114682
:10359000FFF7B0FF1CBD00000168202902D24FF0E8
:1035A000A040704701F01F01016001487047000012
:1035B000000300500168202902D24FF0A04070475C
:1035C00001F01F0101600148704700000003005036
:1035D0000168202902D24FF0A040704701F01F017E
:1035E00001600148704700000003005001B56846C3
:1035F000FFF7E0FF009A01219140C0F8081508BDCF
:1036000001B56846FFF7E4FF009A01219140C0F838
:10361000081508BD38B501240090684631B1FFF7A0
:10362000BBFF00998C40C0F8084538BDFFF7B4FFD8
:1036300000998C40C0F80C4538BD000030B5154AE3
:1036400001460020D2F8104423460AE0DB681D79C9
:10365000854205D1401C0A28F6DB4FF0FF3030BD13
:103660001B68002BF2D1431CF9D0CB681871D2F83B
:10367000103443B1DB68CC681B682360D2F8102497
:10368000D268116030BDC2F81014C96800220A6007
:1036900030BD0000E8080020F0B595B01C46154686
:1036A0000F4608461A9E00F025FB182109A8FCF7D2
:1036B000E0FE0E96CDE909540023082203A93846FE
:1036C00000F02DFB05980690BDF81000ADF81C0029
:1036D000BDF81200ADF81E0000208DF821000398FF
:1036E000082600F00300012802D0022818D032E09A
:1036F00003983346850AC0F3C2008DF82000039872
:103700000FA9C0F38314A200384600F008FB09A8F3
:10371000009006AB22460FA9284600F047FA1AE0AF
:103720000398840DC0F3C2008DF82000082C01D24C
:10373000254600E0082533462A460FA9384600F002
:10374000EEFA2E44641B09AB06AA29460FA800F026
:1037500089F9002CEAD1384600F0D2FA15B0F0BD54
:103760007047002001F098BD084810B50178084A5C
:10377000515C19B1001D01F065F902E00C3001F057
:1037800073F8BDE81040002001F086BDF80000206D
:103790001000002008B5034A00924023024AFFF7B8
:1037A0007BFF08BD55510000500700200A4A01293F
:1037B00002EBC00007D0022907D0032907D0042953
:1037C00007D000207047022070470420704700791E
:1037D00070474079704700008061000010B5FFF726
:1037E000C0FF04210348FFF729FF02490120C968EF
:1037F000487110BD706100002DE9F0478CB0FDF7F5
:103800005DFC18B100200CB0BDE8F0877D4C0020B5
:10381000C4F81804BFF34F8F60680290A5684FF09A
:103820000008284004EB80000CE000BFD4F8180426
:1038300070B921680298814201D86160E2E72840AE
:1038400004EB80000C3002A9FEF7B8F80028EDD197
:10385000002003AA029901EA050304EB8303491C33
:10386000DB6842F82030401C02910228F2D3039812
:1038700000F00300022802D001284DD0A7E00398F1
:103880005022810D8946B2EB905F00D850210E4640
:1038900066F39F50039008315B4800F0E2F907009F
:1038A00078D000F027FA4346082203A9384600F0F2
:1038B0003EFA029908F1080A2940681A8000001DA2
:1038C000864222D94F4D0C3530B1C2B204EB810192
:1038D000301A90460C3104E02946F2B20025904699
:1038E0002846C6B25346384600F021FA0AEB0803D0
:1038F00025B132462946384600F019FA029909F1F5
:10390000030001EB900002903BE004EB8101534681
:10391000324638460C31EFE70398C0F3831006288F
:1039200000D30620039960F38911C1F38310801C32
:1039300003918100344800F094F9070047D000F06B
:10394000D9F94346082203A9384600F0F0F908F1F6
:10395000080800260FE00298434600EA0501401CD3
:1039600004EB81010290042238460C3100F0DFF9AB
:1039700008F10408761C0398C0F38310B042EAD81B
:1039800047B1D4F81054D4F8180478B1384600F090
:10399000B7F931E01BE0E8684079012804D12A68D2
:1039A0002846394612689047E8680568002DF2D12C
:1039B000384600F0A5F90020FDF740FAD4F81804C5
:1039C00008B9029860600020FDF73AFA14E0D4F8D4
:1039D000104405E02168204689688847E06804684B
:1039E000002CF7D109480A49401AC008022101EB0E
:1039F000004008A100F018F8FDF760FB80F001001E
:103A000001E70000E8080020D8610000D061000054
:103A1000806100004261636B656E647320666C7543
:103A2000736865640000000000231A4601F0B2BB11
:103A300008B5012300926A4601F0ACFB08BD3EB513
:103A4000069C8DE81C0003236A4601F0A3FB3EBDE3
:103A50007FB5DDE908458DE83C0004236A4601F0A6
:103A600099FB7FBD2DE9F0470E4680461C469246E5
:103A7000082940D894F80C9000202073194610466D
:103A800001F05AF90025B54206D218F805201BA10D
:103A90002046FFF723FA03E01AA12046FFF71EFA9B
:103AA0006D1C082DEFD318A12046FFF717FA00254B
:103AB000B54212D218F805707E2F08D8FCF7BCFC6E
:103AC0000068C05D10F03E0F01D03A4600E02E22A3
:103AD0000EA12046FFF702FA03E00DA12046FFF7F2
:103AE000FDF96D1C082DE3D301222146504601F05B
:103AF00005F984F80C90BDE8F087000020253032ED
:103B000078000000202020007C00000025630000D9
:103B1000200000000B4810B5FF21816000210160EA
:103B20004160C0F81814C0F81414012180F8201462
:103B3000054800F0E3F8002803D1044800F0CAF972
:103B4000002010BDE8080020D8610000D85900000E
:103B500002480349401AC00870470000D8610000BD
:103B60008061000013B56846FEF75CFB08B10020D9
:103B70001CBD0248009950F831001CBD8061000056
:103B800070B509480125D0F8104480F8205407E0AA
:103B9000E06845712168204649688847E068046804
:103BA000002CF5D170BD0000E80800202DE9FF478A
:103BB00081460C9D00200C462F7B287398461646A4
:103BC0002946184601F0B8F8072E42D2DFE806F081
:103BD00004090F161F2A360049462846FFF77EF9CA
:103BE00037E0494628462268FFF778F931E0D4E902
:103BF000002349462846FFF771F92AE0A0680090A3
:103C0000D4E9002349462846FFF768F921E0D4E9C2
:103C10000201CDE90001D4E9002349462846FFF717
:103C20005DF916E004F1080007C88DE80700D4E943
:103C3000002349462846FFF751F90AE004F108003D
:103C40000FC88DE80F00D4E9002349462846FFF746
:103C500045F900222946404601F050F82F73BDE88F
:103C6000FF872DE9F041058A80462D1F4819C01CA9
:103C7000B0FBF5F0C6B24046FFF74DF8041E19D070
:103C80000020207101206071E58000272546761E06
:103C9000C4F800800BE04046FFF73DF860B1617961
:103CA000491C6171286005467F1CC0F80080B7423E
:103CB000F1D32046BDE8F081204600F002F8002054
:103CC000F8E72DE9F041457901466B1E002201E03D
:103CD0000968521C9A42FBD30F680146002605E092
:103CE00038460C68FFF736F82146761CAE42F7D30B
:103CF000BDE8F0810121001DFEF7E1BFFFF73FB8ED
:103D000010B504460121001DFEF7FFFF10F0FF0F64
:103D100004D12046BDE81040FFF7D3BF10BD1CB54D
:103D200001920122009201AAFEF73CFA1CBD1CB5CB
:103D300001920022009201AAFEF734FA1CBD000095
:103D400002494058002800D0012070470050004030
:103D5000024A00218150BFF34F8F7047005000404E
:103D60000449D1F80413014201D00120704700201A
:103D70007047000000500040C02903D0E9B18029FD
:103D800002D00DE040210BE010F8012B10F8013BB0
:103D9000120442EA032210F8013B1A430F4B1A6047
:103DA00010F8012B10F8013B120442EA032210F82C
:103DB000013B1A43094B1B1F1A600268C07812BAF4
:103DC00022F0FF0202430548083802600348083029
:103DD000026822F0C0020A43026070479855004012
:103DE00070B5054600681B4C002860790AD020B1E8
:103DF000BDE87040184800F029BBBDE8704029209C
:103E000000F09CBA68B1144800F020FBA668002EB0
:103E10001ED06B68E068B446BDE870400F4A0221CE
:103E200060470E4801780126E02907D14178C9434F
:103E3000090703D000F0F4F86671E7E7007850282E
:103E400003D0292000F07AFAE0E726702820F9E76D
:103E500070BD0000800100207C5A0000B00E0020E0
:103E6000094902220A60BFF36F8FBFF34F8F0A1D0B
:103E7000106006480268002AFCD000200860BFF3EA
:103E80006F8FBFF34F8F704704E5014000E401409E
:103E900070B50E4C01232360BFF36F8FBFF34F8FBC
:103EA00000230B4D08E000BF51F8236040F8236069
:103EB0002E68002EFCD05B1C9342F5D300202060BE
:103EC000BFF36F8FBFF34F8F70BD000004E501405B
:103ED00000E401408268002191608268116182687B
:103EE00051618268D160826851608068016070476A
:103EF00008B5002242504058009008BD40580028A4
:103F000000D00120704708B5002242504058009070
:103F100008BDD0F80403084000D001207047405885
:103F2000002800D00120704708B5002242504058B8
:103F3000009008BD08480068012110F0010F06D16B
:103F40004FF0E020C02280F80024C0F8001103499F
:103F5000012008607047000000E100E01805004003
:103F600010B54FF48070FEF729FF01208107C1F8DA
:103F70000403086010BD00000749012008600749DC
:103F80004FF001100A6802F001128242FAD004498F
:103F90000020487170470000040000400C040040FD
:103FA000240000200649024600200B790BB1852031
:103FB00070470A6001220A7100224A7170470000AE
:103FC000240000200121B1EB507F01D10120704776
:103FD00000207047104810B503780021021D33B14E
:103FE00001701172BDE81040032000F0B1B8517AA1
:103FF000002910D0917A00290DD0084A01211160C2
:1040000001700548001D00F0ACFA0348BDE81040FF
:10401000001D00F0D5BA10BD2C000020005000405B
:104020000248016841F00101016070479C55004061
:104030000248016821F00101016070479C55004071
:10404000074901200860074A014608320548116007
:104050000549C0F804130421C0F804137047000098
:1040600004540040005000408200080070B505462E
:10407000FEF7A2FC286800262F4C402821D00FDC38
:10408000042843D0082821D0102819D1A07890B353
:10409000FFF7CEFF282000F051F9A67066712EE0E0
:1040A000802840D0B0F5002F0AD1244800F0CEF986
:1040B000A56825B100231A461946E068A84766712D
:1040C00070BD281DBDE87040FFF78ABE60790028EA
:1040D000F6D0AA68107800F0F700C22801D10120BC
:1040E000A070A668002EEBD06B68E068B446BDE80F
:1040F000704004216047FFE7104800F0A7F9A56869
:10410000002DDDD000231A46032107E0FFF790FFC2
:10411000A568002DD4D000231A460121E068AC46E2
:10412000BDE87040604728790028C9D12078002870
:10413000C6D0267070BD0000800100207C5A0000AF
:1041400002480068800700D0012070473C540040BE
:10415000F1B5234E84B0F11C307810B9087A0028EC
:1041600029D19DF81000032807D1FFF7E9FF08B116
:10417000022000E001208DF810009DF810000025BD
:104180000127184C012818D0022814D1607A002881
:1041900011D1307850B94D7211488D720F72C01C18
:1041A00000F0DFF90E48C01C00F00AFA6772022026
:1041B00010E06846884705B0F0BD082000F060F9BF
:1041C0003178094801B107614FF48F61C0F80813D5
:1041D00065720420009061680029EAD1EBE70000D5
:1041E0002D000020F80500200050004010B5B0F56B
:1041F000A07F09D1054901208872084600F0D2F954
:10420000BDE81040FFF7E6BE10BD00003000002002
:104210002DE9FE43404C8046207A10B10820BDE8CD
:10422000FE8300F06DF93D4D2F1D38B1287810F058
:10423000F00F03D1387810F0F00F0AD00020384E7C
:10424000307000F05DF960B1287810F0F00F06D101
:1042500001E00120F3E7387810F0F00F01D00120E1
:1042600000E000207070D8E90010216060603178B3
:104270000020012561B12C4A2A4911602A49703970
:104280000D60294A3F21603A116027495039086082
:1042900026490320086025489430016821F01F0159
:1042A00041F0040101600520FCF77AFC2049C020A0
:1042B00081F800042020491FC1F800013078F8B9C6
:1042C0001C491D4AD1E90001CDE90101144801A9A9
:1042D000C01C00F099F90028A1D11148C01C006849
:1042E000D0F810050021C2B24FF47A50FCF794F8D0
:1042F00002460B4801230021C01C009500F06EF916
:104300000721684600F034F80646C0216846FFF7EA
:1043100033FD2572304682E7F8050020E80F00F0F3
:104320002D000020488103008C5600400C550040B1
:1043300005E000E0A8580000ED41000001210A4A14
:10434000292801D0104409E00848006810F0010F46
:1043500002D00548283001E00348243001604FF4C2
:104360008F60C2F80803704700500040205400409E
:1043700030B5042905D0072903D00A2901D0092026
:1043800030BD124A1468121D1268104B08331B68A6
:104390000470250A240C45708470D4B2C4700429BA
:1043A00012D0150A0571150C120E457182710A2979
:1043B00002D0882C06D007E0C371190A0172190CCB
:1043C000417201E09921C170002030BD50040010FD
:1043D00010B5017821B1012912D0022929D11DE09F
:1043E000184A41681648127802B10011421C9142E5
:1043F00009D8814200D80846C0F3130012490BE0E7
:104400000079032801D9072010BD0F499C310A68A3
:1044100022F0600242EA401008600AE0017A0429B2
:1044200009D0072901D00A2907D040214068FFF7A9
:10443000A3FC002010BD0021F8E78021F6E7000072
:10444000FFFF0F002D00002008550040094A416879
:1044500000881160111DC0F3080008600648074974
:10446000008800F48C60C1F80403044901201C3169
:104470000860704710550040F805002000500040CB
:1044800070B5044606480125407828B124B904488F
:10449000C01C4572FFF79EFD0248255070BD00000C
:1044A0002D0000200050004010B50268FAB1114CF8
:1044B00043682360231DC2F308021A6000884FF688
:1044C000FF7202EAC0000B4AC0F30B000C3210600E
:1044D000201F016008480949007800F01800C1F861
:1044E0000403064901200C310860002010BD09209A
:1044F00010BD000010550040F8050020005000409D
:1045000006480078082804D10448001D00780007F8
:1045100001D000207047012070470000E00F00F03C
:1045200070B50D4600F054FC04000FD00020FCF7DD
:1045300085FC207920B10020FCF782FC112070BDA1
:104540000120256020710020FCF77AFC002070BD5E
:1045500010B500F03DFC002802D00021016001717F
:1045600010BD00680121C16070472DE9F041064689
:104570000D464FF4803400681746AC404BB14FF401
:10458000A07101EB8501FFF7B3FC3068C0F804436C
:1045900001E0C0F80843306800EB8500C0F84075C2
:1045A000BDE8F0810268012111610079034A00EB46
:1045B000400002EB800001727047000004060020FA
:1045C000016801220A600079034A00EB400002EB17
:1045D000800002210172704704060020F0B40468D4
:1045E000049E40F20115D4F800728D40AF43C4F828
:1045F00000720468D4F800521D43C4F800523346D8
:10460000F0BCFFF7B2BF00002DE9F04104460E46B2
:1046100000792B4900EB400001EB8007387A10B19C
:104620000820BDE8F0813A60706800254FF4A0785A
:10463000786006E008EB85012068FFF759FC6D1CE7
:10464000EDB26079A842F5D82068F17840F30730E0
:1046500000284FEA411106DA00F00F0000F1E020D7
:1046600080F8141D03E000F1E02080F800142068B9
:10467000012140F3073000F01F0201FA02F2400965
:10468000800000F1E020C0F8002120687278D0F8A6
:10469000043562F30103C0F804352068B278D0F81D
:1046A000083562F30103C0F8083520683278D0F885
:1046B000103562F30303C0F8103539720020B0E7FB
:1046C000040600200149024800F00EBE100600203A
:1046D000002000402DE9F0410546007916460F46BE
:1046E00000EB40012C4A01EBC00102EB810494F87D
:1046F0002A1011B10820BDE8F081284951F8201096
:104700002868FFF70DFF08B11120F4E73946284665
:10471000FCF7AAFB66603869206030004FF00106A4
:104720002DD03F7F4FF48E712868FFF7ECFB4FF4DC
:10473000A2712868FFF7E7FB28681949C0F804133D
:1047400028684FEA471140F30730002806DA00F0E6
:104750000F0000F1E02080F8141D03E000F1E020DC
:1047600080F80014286840F3073000F01F0106FAB3
:1047700001F14009800000F1E020C0F80011286834
:104780000421C0F800150020A061E06184F8290030
:1047900044F8140FA675AEE710060020F05800008C
:1047A000800002002DE9F047054600790B4600EB3A
:1047B000400101EBC000234901EB8004284600F0D2
:1047C00043F810B11120BDE8F0874FF00008C4F89D
:1047D0002080A360626184F828804FF48E7647467B
:1047E00031462868FFF78FFB28684FF00109C0F8B1
:1047F00008902146286800F013FD606800BBD5F8DA
:1048000000A00EE094F8280008B10F2716E031460A
:104810005046FFF773FB0028F4D02146504600F0C5
:10482000FFFC216A60698142F1D331462868FFF7B5
:1048300065FB0028F9D02868C0F80C90C4F81480F3
:104840003846C0E710060020007900EB400101EB7C
:10485000C000044901EB80004069002800D001201D
:1048600070470000100600202DE9F047044600794B
:104870004FF0000900EB400101EBC000254901EBBE
:1048800080072068C0F80095786880B120682249C8
:10489000C0F808132068012140F3073000F01F0220
:1048A00091404009800000F1E020C0F880112068AC
:1048B000D0F80C25D0F81485D0F80865D0F810553C
:1048C0004FF0FF31C0F81415C0F80C152068C0F87F
:1048D0000815C0F81015501C02D01046FEF723FE34
:1048E000B8F1FF3F02D04046FEF71DFE681C02D023
:1048F0002846FEF718FE701C02D03046FEF713FE65
:104900002068FFF725FE87F82A90C7F80490BDE8D5
:10491000F0870000100600208402020001490248CE
:1049200000F08EBD3C060020002000402DE9F04143
:104930000546164600790F46154A00EBC00102EB0A
:10494000810494F8201011B10820BDE8F0811149CC
:1049500051F820102868FFF7E3FD08B11120F4E7B3
:1049600039462846FCF7BBFA6660386920601EB1FC
:10497000397F2846FCF7E4FF28680821C0F80015B5
:104980000020A061E0616061012184F82010DCE773
:104990003C060020F45800002DE9F04704460E467E
:1049A0000079204900EBC00001EB80051746304636
:1049B000FFF708FB30B1204600F036F820B1112097
:1049C000BDE8F0871020FBE76F61AE604FF4907692
:1049D000002731462068FFF7A7FA4FF4AC7841462C
:1049E0002068FFF7A1FA2068AA686969C0F8442521
:1049F000C0F84815206801218160686878B9B1461F
:104A000049462068FFF78BFA064641462068FFF7C3
:104A100086FA0643F4D000B10F27002068613846BB
:104A2000CEE700003C0600200079054900EBC000FD
:104A300001EB80004069002800D001207047000091
:104A40003C0600202DE9F04704460079274900EB99
:104A5000C00001EB800720684FF00009C0F8009506
:104A6000786880B120682249C0F8081320680121C5
:104A700040F3073000F01F0291404009800000F130
:104A8000E020C0F880112068D0F80C25D0F81485FB
:104A9000D0F80865D0F810554FF0FF31C0F80C156C
:104AA000C0F814152068C0F80815C0F81015501C7F
:104AB00002D01046FEF740FDB8F1FF3F02D040465D
:104AC000FEF73AFD681C02D02846FEF735FD701C43
:104AD00002D03046FEF730FD2068FFF739FD87F839
:104AE0002090C7F80490BDE8F08700003C06002045
:104AF0001003020048B1064A0168914205D140689E
:104B00000449401802D0012800D00320704700005B
:104B1000DEC0ADDE02FEE10E8A7D022A04D90289E2
:104B2000CB881A44D21C02814289C988511AC91EF5
:104B3000418170472DE9F0410D460221904600F574
:104B40008056298000F10804144F1BE031462046AE
:104B5000FCF71CFE40B1B8F1000F02D0012288F82A
:104B60000020022816D004E0A0687969884200D9A4
:104B70007861288861880844C01C2880608804EB1C
:104B800080040C3431462046FCF713FE0028DDD1AA
:104B9000BDE8F0814FF480602880F9E758000020DC
:104BA00008B50021009101460823024A0248FEF799
:104BB00081FB08BD085900009001002008B50020C5
:104BC000009004480823044A01680448FEF772FB79
:104BD00008BD000080000020005900009001002066
:104BE0002DE9F05F0025DFF80891DFF808B12C46C9
:104BF0004FF00308AA462F46D9F80C0000EB073601
:104C00003046FFF777FF78B3012847D0032862D1F9
:104C100000204FF4806200BF56F82010491C0ED0CF
:104C200004EB84010BEB8102A8F101005660032222
:104C30001FFA80F80BF82120641CA4B24BE0401C42
:104C40009042E9D32C48016879B104EB8401022039
:104C50000BF821000BEB81014E60088125482830BC
:104C60004480641CA4B205E007E002210660818054
:104C70004FF0010A45F001052DE004EB840100220C
:104C80000BF821200BEB810101F110024E60304640
:104C90000831FFF74FFF45F00205CDE7BAF1000FED
:104CA0000CD0022004EB8401134A0BF821000BEB1B
:104CB000810112684A60641C0881A4B20E48002277
:104CC000011D06603046FFF735FF0B48808802283B
:104CD0000CD0082005437F1CBFB2032F8CD3B8F142
:104CE000020F00D20025E8B2BDE8F09F0420F1E7F2
:104CF00090010020180700208000002010B50C460D
:104D0000017A052908D0407A38B1084808A102681C
:104D10002046FEF7E3F800E01AB106A12046FEF7B0
:104D2000DDF82046BDE81040FEF7E5B84001002060
:104D3000257300000D0A000038B5C3880D460446EF
:104D400033B114A0009015A216A12846FEF7C6F8AC
:104D5000217A05291CD0607A48B1A088FEF726FD8B
:104D6000164951F8202016A12846FEF7B7F8A0886A
:104D70000021FEF7F7FE03461049207A143951F856
:104D8000202001B02846BDE830400EA1FEF7A6B8AD
:104D900038BD00001B5B306D000000001B5B313B29
:104DA00033316D0025734C6F67732064726F7070C0
:104DB0006564202825642925730D0A004001002020
:104DC000257300003C25733E2025733A2000000027
:104DD0000349884201D10348704700207047000012
:104DE000002000403C0000200146054810B5006846
:104DF000FDF72DFF04461C21FBF73BFB204610BDB1
:104E0000F8580000014602480068FDF741BF000065
:104E1000F8580000F0B5254D254E85B00446002712
:104E2000686828B9214930680831FDF726FF6860B5
:104E300001460078072817D2DFE800F016040808BA
:104E40000E0E12002046FCF7C3FC02E0204600F0E4
:104E50006BFC040028D008E02046FCF761F9F8E775
:104E60002046FCF79FFBF4E70F2414216846FBF76C
:104E700000FBA4F5E8501D3800D1002401946946D8
:104E80006868FCF7BBF96846FCF7F2F907496F6000
:104E9000002408313068FDF7E5FE044801210C309C
:104EA000FDF733FF0028BBD105B0F0BD580000204E
:104EB000F858000010B501210448FDF70CFF002848
:104EC00003D1BDE81040FFF7A5BF10BD640000206E
:104ED00010B510461A46FBF7B3FA002010BD0000CB
:104EE0002DE9F04707461E481C46154600780E4639
:104EF00070B185B17CB1DFF86C804FF00009A088FB
:104F000002282BD200EB800118F8210010BB19E019
:104F10000220BDE8F0870520FBE720681FB18188EB
:104F20003A8891420ED11EB101883288914209D14E
:104F300080682860206868600A48283000892881D5
:104F40000020E6E7A088214600F05EF80028E4D1C2
:104F5000C4F80090A088401CA080D0E70A20D8E7C1
:104F60007800002018070020F8B505464068244F57
:104F70000C46002648B32349CA68824225D80969ED
:104F8000814222D3FCF73CFDF8B128893989884257
:104F90001BD1D5E900018A68904216D10020A7F103
:104FA000280200BF00EB800302EB83035B688B42A7
:104FB00005D203F580538B4201D9208011E0401CBB
:104FC00080B20228EED30020F8BD268000960AE0C9
:104FD000009829688068884205D1009868603889FF
:104FE00028810120F8BD2088694600F00DF80028CE
:104FF000EED12088401C80B220800228E6D3E2E770
:10500000400700209001002070B50E4600EB8001A3
:10501000134800EB81004468306804F5805518B1EE
:10502000418800EB810411E0083410E02946204655
:10503000FCF7ACFB20B1012805D0022807D10DE018
:105040000120346070BD608804EB80040C34294674
:105050002046FCF7AEFB0028E8D170BD002070BDF3
:105060001807002038B50C460021009101460423A2
:10507000074A0848FEF71EF908B10E2038BD064A57
:1050800004EB840102EB810101200874002038BD8B
:10509000FC580000900100201807002008467047C7
:1050A00070B5054688690C4600284FF4847128467F
:1050B0000AD0FEF728FFD5F81805626AE16888541F
:1050C000606A401C606270BDFEF71DFFD5F81805D0
:1050D00070BD1FB501238DF80030CDE90121D0E965
:1050E0000012684690471FBD1FB501238DF80030A0
:1050F000CDE90121D0E90012684690471FBD0000AC
:105100000A4810B501780A48891CFDF783F908B1EF
:10511000FBF704FE07480849BDE81040401AC008E4
:10512000032101EB004005A1FEF77EBC000000203A
:10513000CC010020D0610000806100004E44454653
:10514000206D657373616765207570646174656453
:105150002100000070B50D4C0020D2B22070201D3F
:105160000B4D0378EB5C1BB1001DFFF715FC02E053
:105170000C30FFF717FB08B1FBF7D0FD6078002873
:1051800002D021780029FAD070BD0000F400002080
:10519000100000202DE9F84F204D92468946064622
:1051A0009846012269461846AF68FBF72BFF58B3B3
:1051B000009800210446801C09E000BF00EA0703B4
:1051C0005AF8212005EB8303401C491CDA60414555
:1051D000F4D34FEA164AFBF7E3FF4AEA0041601CAA
:1051E000384005EB80003C4005EB8402C160D0688C
:1051F00066F3C50068F3891069F39F2020F003006F
:10520000401C20F00400D06095F8200402E000BFAC
:10521000FEF7F2FA0028FBD1BDE8F88FE80800207D
:1052200070B50C4605464FF48E71FEF76CFE216A90
:10523000A068415C206A401C2062C5F81C1570BD46
:105240001FB500228DF80020029181680191426112
:10525000D0E90012684690471FBD00001FB50A46FE
:1052600001788DF8001041680191017A8DF80810DD
:10527000C0680390044850F82210083850F82220E3
:10528000684690471FBD00001C0000200149012016
:1052900008707047F400002010B588B00446202242
:1052A0000E496846FBF7CCF806200090C01F01901D
:1052B000029003904FF0EB7006900CB1084A00E0AA
:1052C000002269460748FDF7D5FD08B1FBF726FD2A
:1052D0000448001F447008B010BD0000B859000019
:1052E0008D520000F80000202DE9FF470C460546CE
:1052F0004FF40071FEF70DFE01274FF401780026F0
:1053000018B34FF4927949462846FEF7F7FDE0B10D
:1053100049462846FEF7F7FDC5F8088394F82900AA
:1053200000B96F6002208DF80000D5F88004C5F840
:1053300080040390A0690290E0680190A661E66194
:10534000D4E900126846904728E004212846FEF779
:10535000E0FD18B34FF484712846FEF7CFFDE8B1A5
:1053600021462846FFF79CFE616AA069884215D154
:10537000E06938B1E268616AA0612069E66166624D
:10538000E06008E094F8290000B96F60C5F8088370
:10539000A661E268616A2046FFF79BFE4FF48E78B3
:1053A00041462846FEF7AAFD78B1206A6169884225
:1053B00002D294F8280020B341462846FEF7A3FD08
:1053C000616911B12046FFF73BFF4FF4A2784146D7
:1053D0002846FEF793FD002818D041462846FEF7E0
:1053E00092FD94F8290000B12F60A06900280DD02B
:1053F000A661E268616A04B02046BDE8F047FFF7A5
:1054000068BE21462846FFF70BFFDEE7BDE8FF87B1
:105410001FB50A4601788DF8001041680191017AA4
:105420008DF80810C0680390044850F8221008381E
:1054300050F82220684690471FBD00001C00002045
:105440002DE9FF410C464FF4927706463946FEF7A8
:1054500066FD0025B8B139463046FEF765FD0220ED
:105460008DF80000D6F88004C6F880040390D6F8C2
:105470003C050290E0680190A561E561D4E9001265
:105480006846904723E04FF4887739463046FEF768
:1054900046FDE0B139463046FEF746FDD6F83C15EC
:1054A000A069884213D1E06960B1E268D6F80002D1
:1054B00020F02000C6F80002E069A0612069E561E3
:1054C000E06001E0A561E2682046FFF70DFE4FF4C1
:1054D000A27739463046FEF722FD68B1394630469C
:1054E000FEF722FDA06938B1A561E561D6F83C154B
:1054F0002046E268FFF7F8FD4FF4907739463046D2
:10550000FEF70DFD002812D039463046FEF70CFD9F
:10551000606900280BD0D6F84C058DF80050029039
:10552000A06801906561D4E9001268469047BDE823
:10553000FF81000010B50248FDF7B5FB002010BD4B
:10554000F00000202DE9F05F8346DDE90A4A994624
:1055500090460D460846012703E000BFB0FBF8F077
:105560007F1C4045FAD2B94500D94F465FEACA7060
:1055700012D18CB15FEA8A7002D5B9F1000F01D067
:10558000202607E0302605E031465846641EFBF72A
:105590007DFD0CB1A742F7D35FF00106B9F1010F11
:1055A00002D9A9F1010903E0B5FBF6F0404502D3A9
:1055B00006FB08F6F2E7DFF83C9000BFB5FBF6F01B
:1055C00000FB165519F800105846FBF75FFDB6FBB7
:1055D000F8F6002EF2D15FEACA7009D0002C07D08D
:1055E000A74205D220215846641EFBF74FFDF5E780
:1055F000BDE8F09F10590000002070472DE9FC41E4
:1056000080461C4617460E460C48089DFDF754FB85
:1056100010B11120BDE8FC81A20839463046FEF7E2
:1056200037FC0648FDF73FFB33463A46012140462A
:10563000CDE90045FBF72CFE0020EBE7F000002051
:105640002DE9FC47064636489846144600780D4634
:105650004FF0000978B37DB32888A0F57F41FF396A
:1056600031D0688848B36868FCF7CAF968B374B386
:105670002088ADF80000678801A8FFF7B5FB04009B
:105680002FD084F800804FF0000A84F816A0BDF8EF
:105690000000A08268682061214801210C38FDF7D4
:1056A0000EFBE060288820816888A080E780B8F140
:1056B000030F1DD020E001E003E004E00220BDE87C
:1056C000FC870520FBE70420F9E70320F7E7FFE765
:1056D0002889694687B2384600F0ACF80028EED138
:1056E000CAE7BDF80010384600F098F80820E6E751
:1056F0000420A0753068A061A4F80A9001A8FFF703
:1057000081FB46B1C6F804A0E1680648316086F81E
:105710000AA000893081FFF7CDFB0020CFE7000011
:1057200078000020400700202DE9F8430D46898AC3
:10573000374A01EB810102EB810630B12946304640
:10574000FFF7EAF90120BDE8F88331897068002489
:1057500000EB81072E48A97DA8384FF00E080729D5
:105760004ED2DFE801F00D2D162404404A004460BB
:10577000A969016026482749A838FFF7F5FB30B131
:105780000220A875042339462A1D009423E00A202C
:10579000D9E728692A4608B1032000E00120907566
:1057A000042305F10C0207F10801009413E0012025
:1057B000A8750094E88807F10C0183002A690AE0C3
:1057C00028782A4603280CD006209075042305F17A
:1057D0000802391D00941048FDF76CFDA8B144463D
:1057E0000FE00520F1E70621A9750A4940680988FC
:1057F000FFF738FC040004D107E041F61D5400E037
:105800000F2429463046FFF787F920469BE7000022
:1058100018070020580000209001002001EB8102B1
:10582000034901EB82014A89101AC01E4881704762
:105830001807002070B5C01C82B240F2FE308242D0
:1058400001D3092070BD114B00204FF4806500BFCB
:1058500000EB800413F8246096B903EB84063489C6
:10586000768914443444A4B2AC4209D2088000EBD7
:10587000800003EB8000418911444181002070BD0C
:10588000401C80B20228E3D3072070BD1807002017
:105890006E6F7264696373656D692E636F6D0D0E53
:1058A0000F100B0C18190000040000060000000087
:1058B00040000000000000000000000000000000A8
:1058C00010000000000000000000000000000000C8
:1058D00000000800000000000000000000000000C0
:1058E0008000000000000000000000000000000038
:1058F000C54600001D490000600600200000FFFFB3
:10590000DEC0ADDEFF011EF1DEC0ADDEFE011EF128
:1059100030313233343536373839414243444546E5
:105920006E72665F6673746F726167655F696E69D8
:1059300074006E72665F6673746F726167655F751F
:105940006E696E6974006E72665F6673746F726101
:1059500067655F72656164006E72665F6673746F1F
:10596000726167655F7772697465006E72665F6603
:1059700073746F726167655F6572617365000000C3
:10598000001000000400000001000000C517000026
:1059900035550000D14E0000FD550000B511000046
:1059A0009D500000F9550000F119000095370000E6
:1059B0006937000061370000FFFFFFFFFFFFFFFFB7
:1059C000FFFFFFFFFFFFFFFF0000000000000000DF
:1059D0000000D60106010000500800207F000000F2
:1059E000D0080020000000000100000000000000BE
:1059F000010000000000000001000000085A000043
:105A0000FD2B000000000000550090006A826B0032
:105A100000A4000C02E10300A4000C02E10400A4B5
:105A2000040007D276000085010100000F2000F875
:105A300000F80406E104000000000000100000006F
:105A400018000000200000002800000030000000C6
:105A50004000000060000000800000000001000025
:105A60000000000000000000000000000000000036
:105A70000000000000000000000000000001000025
:105A8000B00E0020580400006D400000004040406F
:105A90004040404040404141414141404040404001
:105AA00040404040404040404040404040050202AD
:105AB000020202020202020202020202022020206C
:105AC00020202020202020020202020202029090C8
:105AD00090909090101010101010101010101010C6
