:020000040000FA
:1000000008080020150200001D0200001F02000069
:100010002102000023020000250200000000000071
:1000200000000000000000000000000027020000A7
:1000300029020000000000002B0200002D02000039
:100040002F0200002F0200002F0200002F020000EC
:100050002F020000000000002F0200002F0200000D
:100060002F0200002F0200002F0200002F020000CC
:100070002F0200002F0200002F0200002F020000BC
:100080002F0200002F0200002F0200002F020000AC
:100090002F0200002F0200002F0200002F0200009C
:1000A0002F0200002F0200000000000000000000EE
:1000B0002F0200002F0200000000000000000000DE
:1000C0000000000000000000000000000000000030
:1000D0000000000000000000000000000000000020
:1000E0000000000000000000000000000000000010
:1000F0000000000000000000000000000000000000
:1001000000000000000000000000000000000000EF
:1001100000000000000000000000000000000000DF
:1001200000000000000000000000000000000000CF
:1001300000000000000000000000000000000000BF
:1001400000000000000000000000000000000000AF
:10015000000000000000000000000000000000009F
:10016000000000000000000000000000000000008F
:10017000000000000000000000000000000000007F
:10018000000000000000000000000000000000006F
:10019000000000000000000000000000000000005F
:1001A000000000000000000000000000000000004F
:1001B000000000000000000000000000000000003F
:1001C000000000000000000000000000000000002F
:1001D000000000000000000000000000000000001F
:1001E000000000000000000000000000000000000F
:1001F00000000000000000000000000000000000FF
:10020000DFF80CD000F018F800480047C1040000E7
:10021000080800200648804706480047FEE7FEE73A
:10022000FEE7FEE7FEE7FEE7FEE7FEE7FEE7FEE7A6
:100230005D02000001020000064C074D06E0E06888
:1002400040F0010394E8070098471034AC42F6D31D
:10025000FFF7DAFF400500006005000070B54FF0C1
:100260008051D1F84422D1F830015A4BC2F34232C6
:100270001A6000238A00C2F80C31C2F81031554AC6
:10028000121F1360544A1268544C2260524A121DC5
:100290001268241D2260504A08321268241D226010
:1002A0004D4A0C321268241D22604B4A10321268EB
:1002B000241D2260484A14321268241D2260464AD6
:1002C00018321268454C20342260434A1C321268AE
:1002D000241D2260404A20321268241D22603E4ABA
:1002E00024321268241D22603B4A28321268241DE1
:1002F0002260394A2C321268241D2260364A30327C
:100300001268364C40342260334A34321268241D5D
:100310002260314A38321268241D22602E4A3C3253
:100320001268241D22602C4A40321268241D22606B
:1003300001242B4A082802D1D1F8345115B10828DC
:1003400004D00CE0274EFB25356002E0D1F8345193
:100350002DB991F85852116865F3030111602249D3
:100360000D68ED0702D06FF001050D60106840F0D8
:100370000F0010604FF01021D1F80002002803DBBD
:10038000D1F80402002821DA184A146018480468D9
:10039000002CFCD01224C1F800420568002DFCD0CE
:1003A000C1F8044201680029FCD0136001680029EB
:1003B000FCD0BFF34F8F0F4801680F4A01F4E06192
:1003C00011430160BFF34F8F00BFFDE70C490B489D
:1003D000086070BD3C0500400404001020C50040CA
:1003E000E40E004018F500400004004004E5014020
:1003F00000E401400CED00E00400FA050090D00399
:100400000000002002E008C8121F08C1002AFAD12B
:1004100070477047002001E001C1121F002AFBD184
:10042000704700002DE9FC410646C0074FF000056B
:100430000ED0104F00240122385D00950023114694
:10044000019500F055F8641C042CF4D300F02EF84C
:10045000B0070DD5074E0024361D0022305D032362
:1004600000951146019500F043F8641C042CF4D368
:10047000BDE8FC813605000007490B5C4FF0A04148
:10048000D1F804250120984020EA0203C1F808357C
:100490001040C1F80C057047360500000249085CA1
:1004A000012100F037B800003605000010B5002427
:1004B0002046FFF7F3FF641C042CF9D310BD0000A5
:1004C0000120FFF7AFFF094C4FF4FA784FF47A4759
:1004D00000263046FFF7D0FF4546611C3846884766
:1004E0006D1EFAD1761C042EF3DBF1E73005000017
:1004F00070B541EA4201DDE904564FF0A04441EAFB
:10050000830141EA052104EB800041EA0641C0F87D
:10051000001770BD01224FF0A043824011B1C3F813
:1005200008257047C3F80C25704700000000000044
:100530000338FDD870470D0E0F100B0C1819000072
:10054000600500000000002004000000040400001A
:1005500064050000040000200408000014040000EA
:040560000090D00334
:0400000500000201F4
:00000001FF
