:020000040000FA
:10000000801B0020F9020000010300000303000030
:1000100005030000070300000903000000000000C2
:100020000000000000000000000000000B030000C2
:100030000D030000000000000F030000110300008A
:100040001303000081040000610800001303000096
:100050001303000013030000130300001303000048
:1000600013030000B5070000FD07000013030000A4
:100070001303000013030000130300001303000028
:100080001303000013030000130300001303000018
:100090001105000013030000130300001303000008
:1000A00013030000130300001303000013030000F8
:1000B0001303000013030000000000000000000014
:1000C00013030000130300001303000013030000D8
:1000D00013030000130300001303000013030000C8
:1000E00013030000130300001303000000000000CE
:1000F00000000000130300000000000013030000D4
:1001000000000000000000000000000000000000EF
:1001100000000000000000000000000000000000DF
:1001200000000000000000000000000000000000CF
:1001300000000000000000000000000000000000BF
:1001400000000000000000000000000000000000AF
:10015000000000000000000000000000000000009F
:10016000000000000000000000000000000000008F
:10017000000000000000000000000000000000007F
:10018000000000000000000000000000000000006F
:10019000000000000000000000000000000000005F
:1001A000000000000000000000000000000000004F
:1001B000000000000000000000000000000000003F
:1001C000000000000000000000000000000000002F
:1001D000000000000000000000000000000000001F
:1001E000000000000000000000000000000000000F
:1001F00000000000000000000000000000000000FF
:10020000DFF80CD000F0C6F800480047D127000006
:10021000801B002030B4044654E8000F0D4644E82B
:100220000053002BF8D1156030BC704730B4044641
:1002300054E8000F40EA010544E80053002BF7D1D1
:10024000156030BC704730B4044654E8000F00EA33
:10025000010544E80053002BF7D1156030BC70470E
:1002600030B4044654E8000F80EA010544E8005326
:10027000002BF7D1156030BC704730B4044654E809
:10028000000F00EB010544E80053002BF7D1156087
:1002900030BC704730B4044654E8000FA0EB0105B1
:1002A00044E80053002BF7D1156030BC704770B4A0
:1002B00004464FF0000054E8006F0D68AE4207BFDF
:1002C00044E80023012044E800630E60002B1CBFBB
:1002D0000020F0E770BC704730B4044654E8000FCB
:1002E00088422CBF451A054644E80053002BF5D13F
:1002F000156030BC7047000006488047064800473C
:10030000FEE7FEE7FEE7FEE7FEE7FEE7FEE7FEE7C5
:10031000FEE7FEE785050000010200000048704787
:100320000C71000040EA01039B0703D009E008C9F3
:10033000121F08C0042AFAD203E011F8013B00F8AA
:10034000013B521EF9D27047D2B201E000F8012BF6
:10035000491EFBD270470022F6E710B513460A4645
:1003600004461946FFF7F0FF204610BD421C10F866
:10037000011B0029FBD1801A704730B504460020CC
:10038000034600E05B1C934203D2E05CCD5C401B63
:10039000F8D030BD064C074D06E0E06840F00103A0
:1003A00094E8070098471034AC42F6D3FFF72CFFCF
:1003B000A4710000C471000030B58C1810F8012B36
:1003C00012F00F0301D110F8013B120906D110F809
:1003D000012B03E010F8015B01F8015B5B1EF9D112
:1003E00001E001F8013B521EFBD1A142E6D30020FF
:1003F00030BD00F01F02012191404009800000F152
:10040000E020C0F88012704700F01F0201219140E7
:100410004009800000F1E020C0F88012704700F031
:100420001F02012191404009800000F1E020C0F846
:100430008012704700F01F020121914040098000A6
:1004400000F1E020C0F88011704700F01F02012188
:1004500091404009800000F1E020C0F80011704791
:100460004907090E002806DA00F00F0000F1E0202D
:1004700080F8141D704700F1E02080F800147047E8
:1004800070B5204D28696C78401C2861687D10B1DA
:100490001D4802F0A7FB287803281AD11B48D0F882
:1004A0000C01B0B1012C04D0022C0AD01648123035
:1004B00023E02869032816D01348083002F092FB85
:1004C00011E02869022812D00F480D3002F08AFB93
:1004D0000DE0032C0FD2012C05D0022C07D0BDE873
:1004E000704004F093BBBDE8704004F0BBBBBDE8B6
:1004F000704004F0CDBD04482830BDE8704002F0E3
:1005000071BB00003408002038030A0000100040CE
:1005100030B51B4C85B00025012080F31088D4F83D
:10052000D40038B3D4F8D00000EB800004EB800096
:1005300001798DF800108168C26803694069CDE9CE
:100540000330CDE90112D4F8D400401EC4F8D40021
:10055000D4F8D000401CC4F8D000D4F8D0000A2849
:1005600001D3C4F8D050002080F310882168684679
:100570008847D1E7002080F3108805B030BD000027
:100580005008002030B54FF0805000228300D0F892
:100590003011C3F80C21C3F81021624B1A60624B72
:1005A0001B68624C2360604B1B1D1B68241D23606D
:1005B0005D4B08331B68241D23605B4B0C331B68A9
:1005C000241D2360584B10331B68241D2360564B99
:1005D00014331B68241D2360534B18331B68534C82
:1005E00020342360504B1C331B68241D23604E4B6A
:1005F00020331B68241D23604B4B24331B68241DB0
:100600002360494B28331B68241D2360464B2C3341
:100610001B68241D2360444B30331B68434C40341B
:100620002360414B34331B68241D23603E4B383319
:100630001B68241D23603C4B3C331B68241D236036
:10064000394B40331B68241D23600123082902D144
:10065000D0F8344114B1082904D006E0354C3449AF
:10066000216005E0D0F8344114B1082904D006E037
:10067000314CFB21216005E0D0F8344114B1082948
:1006800008D00EE090F858422C48016864F303014A
:10069000016002E0D0F834411CB929494FF40070E0
:1006A000086028480168C90702D06FF001010160A5
:1006B0002548016841F470010160BFF34F8FBFF31B
:1006C0006F8F4FF01021D1F80002002803DBD1F822
:1006D0000402002822DA1D4C23601D480368002B09
:1006E000FCD01223C1F800320568002DFCD0C1F8FF
:1006F000043201680029FCD0226001680029FCD086
:10070000BFF34F8F10487C380168124A01F4E06152
:1007100011430160BFF34F8F00BFFDE70F490E4843
:10072000086030BD380500400404001020C50040BA
:10073000488103008C56004018F50040E40E00404C
:10074000409602400004004088ED00E004E50140CE
:1007500000E401400400FA050090D003C00000202E
:10076000124A10B50021104B126809E053F82140DD
:10077000844203D10E4802F035FA13E0491CC9B295
:100780009142F3D3084A002112F1180201EB011340
:1007900002EB4303834201D1012010BD491CC9B2C1
:1007A0000629F3D3002010BD9C0A00203001002050
:1007B000F90003000E4800220178142905D2491CD3
:1007C000C9B201700A2901D302E00270022101E0DE
:1007D0006FF00101074803680B4403604368194444
:1007E0004160012141720448C0F8402100F006BC7C
:1007F00006000020340100200090004070B5144E27
:100800004FF48030C6F808030025C6F84051114C5B
:10081000606810B9104802F0E5F9A570626801231C
:10082000656073640D480168001F00681430B1F5FD
:10083000804F04D2B0F5404F01D9637005E081428A
:1008400001D3012000E000206070BDE87040104737
:1008500000A0004008010020E500040044A500407D
:1008600001480068004700002800002002E008C896
:10087000121F08C1002AFAD170477047002001E01A
:1008800001C1121F002AFBD17047000072B605F0AB
:1008900085F900BF04F0D8FF0028FBD111481249A8
:1008A000401AC408012000EB044010A105F0E4F850
:1008B00011480068C00700D000BE022000EB0440D1
:1008C0000EA105F0D9F8BFF34F8F0B48E43801684B
:1008D0000E4A01F4E06111430160BFF34F8F00BF86
:1008E000FDE70000EC710000D47100004661746106
:1008F0006C206572726F7200F0ED00E053797374D2
:10090000656D207265736574000000000400FA05CF
:100910000EB500210091CDE901106A4644F20100B4
:10092000FFF7B4FF0EBD00F003B800F009B80000F7
:1009300072B602480168491C01607047300000200F
:1009400003490868401E086000D162B67047000085
:100950003000002070B5054608680C46411C04D0E4
:1009600002F082FE206802F040FE6068411C02D066
:10097000002102F028FE2968A069C1F82405607DE5
:10098000227D29681043C1F86C05D4E9001228685B
:10099000C0F81425C0F80C15207D012814D1A068DA
:1009A000411C02D0002102F00EFEE068411C04D080
:1009B00002F05AFEE06802F018FED4E9021228683C
:1009C000C0F80825C0F8101570BD70B50546086858
:1009D0000C46411C04D002F051FE206802F00FFECC
:1009E0006068411C02D0002102F0F6FD2968A06970
:1009F000C1F82405607D217D2A680843C2F86C0592
:100A0000D4E900122868C0F80C15C0F81425207D20
:100A1000012814D1A068411C02D0002102F0DCFDA5
:100A2000E068411C04D002F029FEE06802F0E7FD16
:100A3000D4E902122868C0F80825C0F8101570BD66
:100A4000084908B5085C0090684602F0E3FDD0F85C
:100A500010050099C84010F0010000D0012080F07E
:100A6000010008BDE06F00002DE9FC410646C0070B
:100A70004FF000050ED0104F00240122385D009584
:100A800000231146019502F041FD641C042CF4D3AF
:100A900000F01CF8B0070DD5074E0024361D0022CB
:100AA000305D032300951146019502F02FFD641C73
:100AB000042CF4D3BDE8FC81DC6F00000249085C23
:100AC000012102F0E5BD0000DC6F000010B500243C
:100AD0002046FFF7F3FF641C042CF9D310BD042853
:100AE00001D2FFF7ADBF0020704710B50024FFF71B
:100AF000BBFF204610BD00002DE9F0470546861CCF
:100B000090460F464FF001090020FFF70CFF1B4CE9
:100B100020683860D4E90001401AA16804F21C473B
:100B2000081A0EE00121384602F064F801F002FED6
:100B30000146384602F05EF8D4E90001401AA16887
:100B4000081A401C8642EDD8B8F1000F03D00520EA
:100B500065F3891002E0062065F39F50A2682168C2
:100B6000114004EB8101C8602068304420600020FF
:100B7000FFF7DBFE4846BDE8F08700005803002081
:100B800070B50D4604460A2902D10D21FFF7F8FF82
:100B9000A0682268411CA1601554D4E9010181427A
:100BA00004D32046BDE8704002F0B7BB70BD000022
:100BB000034803C8814201D10120704700207047DB
:100BC0005803002010B50021024802F01EF880F3FF
:100BD000100010BD740700202DE9F0411C4C1D4988
:100BE0001D4B2279A1EB030160784FEAD1014FF050
:100BF000030382434FF0000603EB01454FF001076A
:100C000005D02671284615A104F036FF01E000B199
:100C10002771E1782078814305D0E670284616A137
:100C200004F02AFF01E000B1E7706179A078814308
:100C300005D06671284616A104F01EFF01E000B140
:100C4000677104F001FE0028FBD1BDE8F0810000CF
:100C500000000020EC710000D4710000537973741F
:100C6000656D2061646472657373206E6F742072A9
:100C70006563656976656400486F73742049442034
:100C80006E6F7420726563656976656400000000AC
:100C900044796E204B6579206E6F742072656365B0
:100CA000697665640000000002490A88028089783C
:100CB00081707047347000002DE9F0418AB0202720
:100CC0000026099702F0DAFD054602F001FE804693
:100CD00002F082FFC82002F00DFF052002F042FF63
:100CE000002002F09BFD02F055FD00208DF8200051
:100CF00004460022012108A801F07CFB30B100204D
:100D000002F078FF641CE4B2642CF2D3C82000F037
:100D100017F901208DF820000146002208A801F0F3
:100D200069FB08B31E480078F0B1002002F0A8FD6E
:100D300000281DDD09AA69460020099702F038FD48
:100D4000B0B19DF80000082812D11548DDF8011057
:100D50000C38C0F803100DF1010001F0ADFB0020CC
:100D600001F054FA012603E04FF4967000F0E8F821
:100D70004FF4AF7000F0E4F802F02EFF002002F014
:100D80004DFD002002F05AFD284602F0B3FE404619
:100D900002F0E8FE02F0FEFC0AB03046BDE8F08149
:100DA000B6000020002207E010F8013BFF2B01D025
:100DB00000207047521CD2B28A42F5D301207047FE
:100DC000F0B50746204889B0154600780E4698B120
:100DD000012814D0022834D110221C4904A8FFF79E
:100DE000A1FA1B490D2204A8FFF79CFA0024164A19
:100DF0006846521C21460DE010221449F3E71022E8
:100E0000124904A8FFF78EFA04A800F0D9F8EDE71C
:100E1000052C02D2135D035500E00155641CE4B2B9
:100E2000102CF5D302F056F804A802F065F86946D4
:100E3000084602F025F82B466A463146384601F04E
:100E40009BFB09B0F0BD0000A4000020377000003B
:100E50009C07002070B50C4605460D2910D800F0FF
:100E60002BF808B1012070BD0648007840B901F0A8
:100E700095F928B121462846BDE8704000F01CB81D
:100E8000002070BDAA0000200149087070470000D2
:100E9000A400002001460D220148FFF743BA0000DC
:100EA0009C07002003490268C1F8012000794871BD
:100EB00070470000A4000020F0B50746081D89B067
:100EC000C6B206208DF8100004AC0D46601CFFF77A
:100ED000EBFE2A463946201DFFF724FA174D2878E5
:100EE00008B1002000E00220FFF7CEFF701EC2B262
:100EF000611C601CFFF764FF01200090002301AA21
:100F0000314604A801F08CFA18B99DF804000B28AA
:100F100002D0002009B0F0BD01AC0322A01DA11D2C
:100F2000FFF74EFFA01D01F01BFB0028F2D0287830
:100F300010B9601CFFF7B6FF0120EBE7AA00002004
:100F400010B5044602F0B0FC6043400004D00349F1
:100F5000BDE810408001084710BD0000517000003E
:100F6000F0B54E23B3FBF2F5022303704F23841830
:100F700004F8013C81B10123541E0BE003F0030689
:100F80008E5DB6FBF5F705FB176605FB0366C654D9
:100F90005B1CDBB2A342F1DB01210DE04318445C92
:100FA00013F8013CE31ADBB2052B03D2C3F10503AE
:100FB00023444354491CC9B29142EFD3F0BD000011
:100FC0000349D1F807200260C97A01717047000017
:100FD000AA00002041F6FF700078FF2801D0012010
:100FE00070470020704701EBC10101F580510A688C
:100FF00002604A684260097A017270477047704720
:10100000FFFFFFFFFFFFFFFFFFFFFFFFFFFFFFFFF0
:10101000FFFFFFFFFFFFFFFFFFFFFFFFFFFFFFFFE0
:10102000FFFFFFFFFFFFFFFFFFFFFFFFFFFFFFFFD0
:10103000FFFFFFFFFFFFFFFFFFFFFFFFFFFFFFFFC0
:1020000010B588B000216FF0010002AAFF235354DD
:10201000491C09B20529FADB40F6817241F27E01C2
:10202000895CFF2917D00F20B0EB111F01D00C09DC
:1020300001E001F00F04214604A8FEF7D4FF0522B9
:1020400002A905A8FEF799F910B1204608B010BD05
:102050004FF0FF30FAE7521E12B2002ADEDAF5E73F
:10206000F0B52F4D87B000262878012701ACB0B11C
:1020700003208DF80400601CFEF716FE0020FEF71A
:1020800003FF0322611C601CFEF79AFE002303AAD3
:10209000042101A8009700F0C3F9A0B117E00220C5
:1020A0008DF804000521601C00F072F90122062160
:1020B00001A800F09FF950B1601CFEF7F3FE2F70ED
:1020C000002007B0F0BD9DF80C00092802D02E704A
:1020D0000320F6E703AC0922601C611CFEF770FECA
:1020E000601C00F03DFAC0B19DF8100020B101283D
:1020F00005D0022800D12E709DF81000E1E7601D88
:1021000000F062F90D21074800F042F90548FEF79A
:10211000C1FE012000F07AF8EDE72E700220D0E732
:10212000AA000020A907002040F6817041F27E013C
:10213000095CFF2905D00F20B0EB111F07D008095B
:102140007047401E00B20028F0DA0E20704701F000
:102150000F0070473EB5104C00202070FEF73AFF8C
:1021600098B94FF4805090F87E00FF280DD0FFF70B
:10217000DBFF01460E2808D26846FEF734FF0098C0
:10218000C4F8030001A800F01FF9BDE83E40024872
:10219000C01C00F091B90000AA00002010B58AB060
:1021A00004208DF80400012001460090002306AAB7
:1021B00001A800F035F930BB9DF818000A2822D19B
:1021C0000DF11900FEF76EFE05208DF8040001AC3C
:1021D000601CFEF769FD0D21201D00F0D9F8201DBF
:1021E000FEF758FE0120FEF74FFE1022611C601C16
:1021F000FEF7E6FD0122112101A800F0FBF810B165
:1022000001200AB010BD0020FBE700002DE9FE43CD
:1022100000265E4FB046344600285ED00025E946D1
:1022200029466846FEF7DFFE58490422C91C684665
:10223000FEF7A3F838B955490522C91D09F1040074
:10224000FEF79BF880B16D1CEDB20E2DE8D3002592
:1022500029466846FEF7C7FE4C490422C91C684659
:10226000FEF78BF810B10CE02C4632E0052109F1A5
:102270000400FEF797FD20B1D7F807000190F87A27
:1022800013E06D1CEDB20E2DE2D300252946684601
:10229000FEF7A9FE09216846FEF784FD48B157F80C
:1022A000030F009078680190387A8DF808002C466A
:1022B00031E06D1CEDB20E2DE8D3B8F1000F07D060
:1022C00004EBC4006946092200F5805003F0D0FDFC
:1022D0003EB3FEF77FFE28B356E000242146684651
:1022E000FEF781FE29490422C91C6846FEF745F81D
:1022F0000028EED0641CE4B20E2CEFD3002421465B
:102300006846FEF770FE04216846FEF74BFD20B1DB
:10231000D7F8030000900126D2E7641CE4B20E2C2B
:10232000EDD331E0FFF700FFA0422DD00E2C2BD0D3
:102330004FF48051002040F681720F2591F87E10F5
:10234000531C04E041F27E019042095C0DD0CE4363
:10235000360706D0B5EB111F0AD164F31F11C9B2BD
:102360000AE001F0F001214306E044F0E00103E05F
:10237000401C00B29842E5DB41F27E02104403F0BB
:1023800055FD0120BDE8FE830020FBE7AA000020E8
:10239000F0B50B4B0025C3F8005101241C602A4600
:1023A000084E09E0D3F80071002FFBD0376887543E
:1023B000C3F80051521CD2B28A42F3D35C60F0BD24
:1023C00000D0004008D5004003490268C1F807204A
:1023D0000079C87270470000AA00002010B50446BA
:1023E00001F0B2F900E030BF01F058FAB0EB440F51
:1023F000F9D310BD10B5094C134600226270A270CB
:102400000A460146184601F057F908B910BD30BF19
:1024100060780028FBD0A07810BD0000AA00002042
:102420002DE9FC4780460A200A9D009016460F467B
:10243000284601F0DFFB012401F0A0F901F0AEFA1B
:102440000028FBD101F028FA81461E2001F06AFB2A
:1024500001F0A0F92A4639464046FFF7CBFFE0B12C
:102460000224284601F0C6FB07208DF804000A204C
:10247000FFF7B4FF2A46012101A8FFF7BBFF60B1B7
:10248000284601F0FDF940B1202000906A4631460F
:10249000284601F08DF900B1002401F06FF900BF6A
:1024A00001F07CFA0028FBD1484601F03BFB01F02B
:1024B00071F92046BDE8FC872DE9FF41054601F092
:1024C0006DFA264C0646EDB328786978EA7800EB79
:1024D0000120A978090401EB0261471801F07CFB97
:1024E000204601F095FA50B10021084601F07CFA2F
:1024F00028B1384601F09CFA08B1012402E0012419
:1025000007E037B12146084601F06EFA08B101270D
:1025100000E00027641CE4B2082CF2D301F0A2F919
:102520000446C2B229466846FEF71AFD87B1214625
:10253000684601F08DFA58B10120002E05D001F057
:1025400029F900E007E030B1012004B0BDE8F081D6
:102550000020002EF9D00020F7E700000405070B4B
:1025600010B503220349FDF708FF08B1002010BD94
:10257000012010BD3470000070B5002409E000BFD8
:1025800011F8015B12F8016B7540641C00F8015BE7
:10259000E4B29C42F4D370BD0278521C02700278FF
:1025A0008A4201D300210170704700002DE9FC5FD1
:1025B0000E008346DDE90C47C6F1000098469246BE
:1025C000814600D40846012503E000BF90FBFAF0E5
:1025D0006D1C5045FADAA84500D9454624B1002EB5
:1025E00001DB780700D5641EB80702D5B8F1000FEB
:1025F0000AD0F80708D13CB1A54205D2202158469F
:10260000641EFEF7BDFAF6E7002E02DA4E462D21D3
:1026100002E0780703D52B215846FEF7B1FA07F000
:10262000030002280BD1B8F1000F08D13CB1A5423C
:1026300005D230215846641EFEF7A2FAF6E7CDE92E
:102640000047434652463146584604F06DFCBDE80B
:10265000FC9F000070B50D46044600684FF4887179
:1026600003F046FE4FF49071206803F041FE4FF4F2
:102670009271206803F03CFE4FF4A271206803F0D1
:1026800037FE4FF4AC71206803F032FE2068114928
:10269000C0F804132068690740F30730090E0028CA
:1026A00006DA00F00F0000F1E02080F8141D03E0CE
:1026B00000F1E02080F800142068012140F3073089
:1026C00000F01F0291404009800000F1E020C0F8B6
:1026D000001170BD1003420002460020126853072B
:1026E00013D502F00300012802D002280CD105E026
:1026F000C2F383100B68801C184404E002230868AE
:1027000003EB9252104408600120704700220270CF
:1027100002214254491CC9B20829FAD37047002249
:1027200002700421817003214254491CC9B2082956
:10273000FAD370472DE9FF410026234800F057FAED
:102740002148001F074600F052FA204C60680090B4
:10275000A56800E000986946284004EB80000C3032
:10276000FFF7BAFF0028F5D101AA009901EA050395
:1027700004EB8303491CDB6842F82030401C0091C5
:102780000228F2D3019800F0030001280BD00228A0
:1027900010D10198032101EB90500099BDF80A6017
:1027A00001EB900005E00198BDF80A60C0F38310CA
:1027B00008440090384600F017FA08B100986060AD
:1027C00004B03046BDE8F0817007002058030020B7
:1027D00000210220FEF789F90021084603F0A8F93C
:1027E00008B1FEF795F803F021F838483849401A47
:1027F000C008032101EB004036A103F03DF900BF02
:1028000003F022F80028FBD1012000F0D9F810B91C
:102810000020FEF77DF800F0CBF8002001F07AF8F8
:1028200028B901F025F800F50340FEF771F896206D
:1028300001F060F9002001F045F928B901F018F81D
:1028400000F50340FEF764F84FF4FC7001F07AF9EC
:1028500028B901F00DF800F50340FEF759F8002003
:1028600001F060F928B901F003F800F50340FEF724
:102870004FF8FFF7C5FB00231D4910F1020F05D0EB
:102880000122B0F1FF3F04D00A7003E00B704B70DF
:1028900001E00B704A70FFF75DFC00F07BFF28B988
:1028A00000F0E6FF00F50340FEF732F80120FEF7E6
:1028B00016F908B104F0BAF80020FEF710F908B1D3
:1028C00004F03CF8FEF788F9F0E70000EC71000036
:1028D000D47100004465736B746F7020656D756C06
:1028E00061746F72206578616D706C650000000026
:1028F000000000202DE9F047C5881E1DB6FBF5F746
:102900008946B6FBF5F1044605FB176C407916685D
:102910006843DDF820A0F718001F874200D9C61AC7
:10292000166001E02468491E0029FBD1A5EB0C07C5
:102930008846B74216D818E004EB0C00001D09EBDE
:102940000803BAF1000F3A4602D00146184600E0EB
:102950001946FDF7E7FC2468F61B4FF0000CB8445D
:10296000B54201D9374600E02F46002EE4D1BDE83C
:10297000F087000030B5024651B103F0F7F80021AE
:10298000074C08E034F821301568AB4202D11160E1
:10299000002030BD491C8142F4D3052030BD000029
:1029A000000000000148407A704700003401002018
:1029B00002480121C16001607047000000900040A2
:1029C000134A0021116051605172117211490122A4
:1029D0004A60CA60931EC1F808331304C1F8043377
:1029E000C1F800220C4A042111600B49303110B1AA
:1029F0004FF4FA5001E04FF47A6008604FF0E021A4
:102A00004FF40070C1F88002C1F800010120704746
:102A10003401002000900040109500400B4910B593
:102A20004A7A8AB1022202708A8842700B88C2F305
:102A3000032242EA031484701A09C270002008605D
:102A400048604872012010BD002010BD34010020F4
:102A50002DE9F0415C4903780446D1E903020025E1
:102A6000082B77D2DFE803F0042B4877726E879546
:102A7000217C914208D238B100EB81018A6C521C52
:102A80008A640168491C0160A17B2E4661F3070638
:102A90002189677B61F31F466189606861F30F05D7
:102AA000217B61F31745E17B61F31F6501F0CCFCED
:102AB0002A4631463846BDE8F04100F055BE486927
:102AC000407D10B9414800F08DF82F46218965F30B
:102AD000070761F31F476189267B61F30F05617B5F
:102AE000606861F31F6501F0AFFC2A463946304645
:102AF000BDE8F04100F02EBE217B914208D238B1F2
:102B000000EB81018A6C521C8A640168491C0160D7
:102B1000A07A217A60F3070561F30F25E17A667ADE
:102B2000676861F3174538B11FB92848263000F0AF
:102B300059F8384601F088FC29463046BDE8F04196
:102B400000F0E7BEBDE8F041FEF759BA00F02CFFF7
:102B5000BDE8F08131E01E484168491C41600178C0
:102B60000029F5D0816811B1491E8160F0E7BDE808
:102B7000F04100F003BEA379934208D238B100EBD4
:102B8000830293685B1C93604268521C42608A68AF
:102B90000CE0A379934208D238B100EB830293682A
:102BA0005B1C93604268521C42604A68002ACFD086
:102BB00061792079BDE8F0411047BDE8F041034854
:102BC0007F3000F00FB80000C40000203D04050075
:102BD000B807002002490F220A7088617047000080
:102BE000C4000020FFF7F6BF002100F009B8012162
:102BF00000F010B808B56A46FDF73FFB009808BD25
:102C000008B56A46FDF71FFB08BD08B56A46FDF723
:102C100001FB08BD08B56A46FDF708FB009808BD32
:102C200008B56A46FDF736FB009808BD70B5044646
:102C300000252846FDF777FE216862680868904203
:102C40000ED9401E08600178238AE26801FB032543
:102C5000227A2168101AC0B20A79824200D2087121
:102C60000020FDF762FE284670BD70B505460C4693
:102C70000020FDF758FEE868298A201AB0FBF1F120
:102C80002A681068431C13600170BDE87040002082
:102C9000FDF74BBE10B530B1017A42680368891A5E
:102CA000C9B21A6006E00E2010BD03681A68541CF1
:102CB0001C601170491EC9B2F7D200680021017171
:102CC000084610BD70B5074C251F20682968496863
:102CD000884202D30448FFF785FF2868216880688E
:102CE000405C70BD00010020440001000148006804
:102CF000704700000001002010B504460548006838
:102D00004068A04202D80448FFF76CFF0148001D4C
:102D1000046010BDFC0000204C0001000148406828
:102D2000704700000001002010B504460548006807
:102D30000068A04202D80448FFF754FF0148001D74
:102D4000446010BDFC0000205800010010B50400D4
:102D500002D10548FFF746FF044800210460001D2A
:102D60000160416010BD000027000100FC00002050
:102D70000948021F4168491C416012681368994262
:102D800008D3002343600168491C016052689142E6
:102D900000D303607047000000010020002839D0F4
:102DA000401E00BF00BF00BF00BF00BF00BF00BF8C
:102DB00000BF00BF00BF00BF00BF00BF00BF00BF1B
:102DC00000BF00BF00BF00BF00BF00BF00BF00BF0B
:102DD00000BF00BF00BF00BF00BF00BF00BF00BFFB
:102DE00000BF00BF00BF00BF00BF00BF00BF00BFEB
:102DF00000BF00BF00BF00BF00BF00BF00BF00BFDB
:102E000000BF00BF00BF00BF00BF00BF00BF00BFCA
:102E100000BFC5D170470000F0B5054604781548DD
:102E200089B0164640F82420124A08690832A2F1F7
:102E30000C0742F82400487F385520226846FDF7E9
:102E400071FA04942878385C48B10EB10A4A00E05F
:102E500000226946281D03F0B1FB09B0F0BD0EB198
:102E6000064A00E00022694605F10C0003F078FAFA
:102E7000F3E700000C000020E56D00002D6C000061
:102E800070B5124D06464FF080746868814202D0DA
:102E90001022FDF747FA0E490020C1F80001012277
:102EA0000A6001E0641E0ED0D1F80021002AF9D09A
:102EB000C1F80001A9688E4203D010223046FDF708
:102EC00031FA012070BD002070BD00001C00002000
:102ED00000E000400549064801F11002C0E9001277
:102EE00010328260034801600120704740010020D9
:102EF0001C00002004E50040014602481022006842
:102F0000FDF710BA1C0000202DE9F04104461028FE
:102F100002D30B48FFF766FE094E0A4D761D204688
:102F200000F080F8070008D0AF4202D13046FFF72A
:102F300059FE384600F03AF8F1E7BDE8F0810000AC
:102F4000DD000300ADDEADDE014800687047000023
:102F50003001002010B50020114A014600EB40036B
:102F60009C186170A170D154401CC0B21028F5D3D8
:102F7000DE22CC210B48FDF7E7F90A4A0020A2F136
:102F8000180100BF00EB001302EB430341F82030AF
:102F9000401CC0B20628F5D303490620086010BDC6
:102FA000AC090020B40A00203001002070B5104C9C
:102FB00006462068062802D30E48FFF713FE304667
:102FC000FDF7CEFB18B90B48401CFFF70BFE0A4D6E
:102FD00020680A4955F82000884203D00548801C23
:102FE000FFF700FE216845F82160491C216070BD93
:102FF00030010020800003009C0A0020ADDEADDE21
:1030000010B5102804D30548FFF7ECFD002010BDD3
:10301000034900EB4000085C10BD0000C400030041
:10302000AC09002070B50026102803D30C48FFF728
:10303000D9FD13E00B4D00EB4004285D70B105F1A4
:10304000300000EB8401601910F8022F51F8226063
:103050000321FFF7A1FA285D401E2855304670BDB8
:10306000A4000300AC09002070B50C4606461029E8
:1030700002D31448FFF7B6FD3046FDF771FB18B9CF
:103080001048401CFFF7AEFD102C19D204EB44058C
:103090000D4C28194178032912D2615D03290FD202
:1030A00004F1300110F8012F01EB850141F8226095
:1030B0000321FFF771FA605D401C6055012070BD6F
:1030C000002070BD8C000300AC09002010B5102852
:1030D00003D30A48FFF786FD0DE0094900EB4000E5
:1030E0000A5C42B101F1300202EB800208448078B0
:1030F00052F8200010BD002010BD0000B5000300F4
:10310000AC0900200B4810B50168002479B10A4AC7
:103110000A4B02EB8102491E52F8044D1360016014
:103120002046FDF71DFB10B90548FFF75BFD204663
:1031300010BD0000300100209C0A0020ADDEADDE95
:10314000780003000048704740A100402DE9F74F88
:10315000904607004FF0000502D13448FFF742FDCA
:10316000334C4FF4803BC4F808B3324EB07818B1FA
:103170002E48801DFFF736FD706818B12B480930C6
:10318000FFF730FDDFF8B0A077605FEA08004FF08E
:1031900000094FF00108AAF1040724D001282FD01C
:1031A000022829D021481D30FFF71CFD86F8028037
:1031B000C4F840910199294489B239603F68C4F844
:1031C0004480DAF80060D4F8400118B117482B3079
:1031D000FFF708FDAF4215D3AE4201D3BE4221D363
:1031E000124833301CE0C4F84480DAF80050C4F8C8
:1031F0004080C4F84091D9E70F48001D0568D5E725
:103200003D68D3E7BE4201D2012000E00020B54274
:1032100001D8012100E00021884203D103483E305B
:10322000FFF7E0FCC4F804B3BDE8FE8F860004009D
:1032300000A000400801002044A50040004870475D
:1032400048A0004070B5144C01266660E6606664D4
:1032500012480025056011483C30006810B1104844
:10326000FFF7C0FC4FF0FF30C4F80803C4F840512A
:103270000A490420083108600A4845600670457014
:1032800085700A20FDF7C0F84FF0E0214FF4806010
:10329000C1F8000170BD000000A0004008A500407A
:1032A0004700040008010020014800787047000032
:1032B000080100200349012008600349002008702C
:1032C0007047000000A000400801002070B50748CA
:1032D00001250561C560064C00260A2066606670FF
:1032E000FDF792F8A670257070BD000000A00040A8
:1032F00008010020014840787047000008010020C4
:103300000FB408B50399002904D004AA00926A46B4
:1033100000F00FF801B05DF814FB10B582680446A8
:10332000002A05D0D4E90403216898470020A06052
:1033300010BD2DE9FC4791460C00804676D014F86C
:10334000011B39B125290ED04046FDF719FC207824
:103350000028F4D198F80C00002867D04046BDE85A
:10336000FC47FFF7DABF0020012221782B291BD070
:103370002D2902D0302908D102E040F0010001E0FF
:1033800040F00200641C002AEFD100252A290ED04B
:103390002178A1F130020A2A11D205EB850201EB56
:1033A0004205641C303DF1E740F00400EAE7D9F83B
:1033B00000100B1DC9F800300968641C0D44217809
:1033C00000232E290BD114F8011FA1F130020A2A83
:1033D00005D203EB830201EB4203303BF3E76C2998
:1033E0000DD068290BD0692921D00BDC252918D0F4
:1033F000582931D063290ED0642915D117E014F86B
:10340000011FECE7702969D0732932D075291BD0D0
:10341000782909D120E0D9F80000011DC9F8001071
:1034200001784046FDF7ACFB641C90E76CE0D9F8EE
:1034300000100A1DC9F800200968CDE900500A22D1
:103440004046FFF7B3F8EFE7D9F800100A1DC9F8B6
:10345000002009680A2206E0D9F800100A1DC9F800
:10346000002009681022CDE90050404603F05CFDC1
:10347000DAE7D9F8001000270A1DC9F800200E6805
:10348000C00705D112E04046761C7F1CFDF778FB93
:1034900031780029F7D104E0202140466D1EFDF768
:1034A0006FFBBD42C0D9002DF6D1BDE74EB130460D
:1034B000FCF75CFF074604E0202140466D1EFDF747
:1034C0005FFBBD4206D9002DF6D103E04046761CD5
:1034D000FDF756FB31780029F8D1A5E7D9F80000AF
:1034E000011DC9F80010056830214046FDF748FB72
:1034F00078214046FDF744FB08200021CDE900017A
:10350000034610222946B0E7BDE8FC872DE9FF41BC
:103510001C46DDE90A7815460E46684600F07AF842
:1035200046EA450141EA840141EA072242EA0841AC
:10353000009A00EB8200C0F80017BDE8FF812DE97A
:10354000FF411C46DDE90A7815460E46684600F044
:103550006FF846EA450141EA840141EA072242EA5E
:103560000841009A00EB8200C0F80017BDE8FF8117
:103570002DE9FF411C46DDE90A7815460E466846EE
:1035800000F064F846EA450141EA840141EA072275
:1035900042EA0841009A00EB8200C0F80017BDE83B
:1035A000FF811CB5002100910B4601220191FFF71C
:1035B000C6FF1CBD1CB5002100910B4601220191E4
:1035C000FFF7D6FF1CBD1CB500220B46009211462A
:1035D0000192FFF7B4FF1CBD1CB500220B46009200
:1035E00011460192FFF7C4FF1CBD1CB500210091DC
:1035F0000B46012201911146FFF7A1FF1CBD1CB52E
:10360000002100910B46012201911146FFF7B0FF06
:103610001CBD00000168202902D24FF0A040704775
:1036200001F01F01016001487047000000030050D5
:103630000168202902D24FF0A040704701F01F011D
:103640000160014870470000000300500168202914
:1036500002D24FF0A040704701F01F010160014805
:10366000704700000003005001B56846FFF7E0FF17
:10367000009A01219140C0F8081508BD01B56846BF
:10368000FFF7E4FF009A01219140C0F8081508BD3A
:1036900038B501240090684631B1FFF7BBFF0099AF
:1036A0008C40C0F8084538BDFFF7B4FF00998C4046
:1036B000C0F80C4538BD00002DE9F041204D1646FC
:1036C00088460746082801D3042035E0B8F1000FEA
:1036D00003D0202E03D906202EE003202CE038460C
:1036E00001F062FA032801D3092025E0384600F0F2
:1036F000EFFF032801D30A201EE000F01FFD02287F
:1037000001D2082018E000F0A9FE044606704078B7
:10371000324640F0010060704146A01CFCF702FEFA
:10372000F8B2214601F042FA10B10120BDE8F08163
:103730000448FFF757FA0F2028700020F6E7000032
:10374000C4000020FC0005000149002048607047CB
:10375000B80700200348C1600261012141700021C7
:1037600081707047AA0000200348C16002610121F6
:103770004170817070470000AA00002010B500F071
:10378000A1FD18B1BDE81040FDF739BCBDE81040FF
:1037900000F096BC054810B5416919B100F0A4FCD1
:1037A000012010BD02210170002010BDC4000020C6
:1037B0002DE9F04116460F46044600F089FF154DED
:1037C00048B157B1204600F08FFF00783168814240
:1037D00005D206201AE00B2018E0032016E0204650
:1037E00000F078FF04000DD0A01C0BD02278A11CA3
:1037F00038463260FCF796FD204600F025FE012099
:10380000BDE8F0810448FFF7EDF90F202870002093
:10381000F6E70000C40000202601050010B50828C6
:1038200004D3054904200870002010BDC0B200F088
:1038300045FF012010BD0000C4000020084910B55C
:103840004A69527D0AB10C2002E0082803D3042003
:103850000870002010BDC0B201F08EF9012010BD2B
:10386000C40000200148006970470000C400002027
:103870000148007870470000C400002000F02CBD13
:10388000082804D3034904200870401F704700F043
:103890001FBF0000C400002001F094B80148406838
:1038A00070470000B807002001F0A4B810B500F080
:1038B00045FCC0F1060010BD082804D303490420CC
:1038C0000870401F704701F06FB90000C40000206D
:1038D00010B5012401F084F9F02815D005DCB0B151
:1038E000042809D0EC2812D110E0F4280AD0F828D6
:1038F00006D0FC280BD101E0002408E0022406E0F9
:10390000032404E0042402E0052400E00624204609
:1039100010BD70472DE9F0411D4D064600241D489D
:103920002C70AC610460446084601B4800F028FC8B
:10393000686140B3042000F099FA05F11C00296980
:1039400000F086F80746304600F0D6F800EA070691
:10395000002000F0B7F80640012000F003F906400F
:10396000022000F097F80640002000F01DF9064004
:10397000012000F091FE0020EC6000F05FFD16B128
:103980000120BDE8F081012028700020F9E7000047
:10399000C4000020B8070020512A000001484069F7
:1039A000407D7047C40000207047000010B50446F9
:1039B000082803D30B490420087010E0FFF77CFFB0
:1039C00003280CDA2046FFF75BFF032807DAFFF72E
:1039D0006DFFC0F10600022801D3012010BD0020B8
:1039E00010BD0000C4000020084A10B553695B7D7B
:1039F0000BB1022002E0082803D30420107000203D
:103A000010BD00F035FD012010BD0000C4000020F5
:103A1000064910B54A69527D1AB10220087000208B
:103A200010BD00F00BFA012010BD0000C400002002
:103A3000064910B54A69527D1AB10220087000206B
:103A400010BD00F007FA012010BD0000C4000020E6
:103A500010B50F4C6269527D0AB1022014E01029A2
:103A60000FD871B178B10A462161014608481C306F
:103A7000FCF758FC064821691C3000F00BFA0120C5
:103A800010BD072000E003202070002010BD0000C2
:103A9000C40000200A4910B54B69024601205B7D35
:103AA0000BB1022004E0012A05D0022A04D00E2026
:103AB0000870002010BD002000F06AFA012010BD3F
:103AC000C40000200A4910B54B69024600205B7D06
:103AD0000BB1022003E032B1012A03D00E2008709E
:103AE000002010BD012000F0CFF9012010BD000022
:103AF000C400002000F0F6BB10B540B1012808D08A
:103B000002280BD0064905200870002010BD0120B6
:103B100000E0022000F0ECFB012010BD0020F9E7DE
:103B2000C4000020064910B54A69527D1AB102202E
:103B30000870002010BD00F04BFF012010BD0000F8
:103B4000C4000020064910B54A69527D1AB102200E
:103B50000870002010BD00F053FF012010BD0000D0
:103B6000C4000020014610B50020072914D2DFE868
:103B700001F0040F06080A0C0E00042008E0FC20E7
:103B800006E0F82004E0F42002E0F02000E0EC2061
:103B900001F02CF8012010BD02490E200870002011
:103BA00010BD0000C40000200A4910B54B69024650
:103BB00000205B7D0BB1022003E032B1012A03D06B
:103BC0000E200870002010BD012001F019F801201E
:103BD00010BD0000C400002010B5FFF7DFFE002874
:103BE00006D0FFF7CBFD30BFFFF7D8FE0028FBD192
:103BF00010BD000038B50446012181F3108820254E
:103C000005E06A46064920460095FFF7D1FD2046AB
:103C1000FFF736FE0028F4DC002080F3108838BD62
:103C20007C07002010B501F0DDF903490020086190
:103C30000249087010BD000010080020F0000020AC
:103C40002DE9FE434D4800684D4C012802D04D48F7
:103C5000006828B960680078202801D8012100E0B8
:103C60000021494E03204FF0000830704348C4F84B
:103C7000008008300568424F183F89B30068414909
:103C80000839086002A8CDE900043C480C300268FD
:103C900001232946184602F03DF910B3012805D04A
:103CA000022821D0032855D0384851E0029818B195
:103CB00036481C38FEF796FF284602F08EFA18B9EF
:103CC00032481B38FEF78EFF01F0C0F9B97D0023A2
:103CD000CDE900017068EAB290F9161018461CE0B0
:103CE0001EE02A48113833E0029818B927480D38E9
:103CF000FEF778FF284602F070FA18B923480C380E
:103D0000FEF770FF01F0A2F9B97DEAB2CDE900013A
:103D10007068012390F91610029800F077FB19E003
:103D200000F05CFE30B101F091F90146BA7DE8B2D5
:103D300000F03EFB0023CDF800801A4619461846D5
:103D4000CDF8048002F0E6F8042803D00F480F30C5
:103D5000FEF748FF206838B1012060750C482061EB
:103D600004203070BDE8FE8301F03CF984F8158032
:103D7000C4F8108000F00EF8F4E7000000140040D2
:103D80001008002034150040F0000020490609000A
:103D90002D3E000070B5FFF745FF1F4D0120287034
:103DA0001E4801681E4A21F0FF011269114301609B
:103DB00002F01CFA1A4C4C3410B302F017FA032824
:103DC00002D01848FEF70EFF022001F041FB002050
:103DD00001F096FB02F00AFA032803D011480830DC
:103DE000FEF700FF2878012803D00E480E30FEF7BA
:103DF000F9FE02202870002020610B48E06070BDB1
:103E000002F000F80228DFD302F016F96060002803
:103E1000DAD10448401FD5E7F000002030150040FB
:103E2000C4070020F9050900413C000002490520B3
:103E30000870FFF7AFBF0000F0000020034910B585
:103E4000086200F09DFD0249086010BDC407002013
:103E50001C150040034910B5486200F091FD02496D
:103E6000086010BDC40700202015004004494877B1
:103E700004490A6822F4E02242EA004008607047E0
:103E8000C40700201815004001490876704700005B
:103E9000C407002070B50C00054602D10748FEF7A4
:103EA000A1FE1DB90548401CFEF79CFE0448C0E970
:103EB0000145BDE870400020FEF71EBFB8030900B1
:103EC0002808002010B500F089FD044901F16402C2
:103ED00008B1C86800E08868106010BDC407002001
:103EE0001CB510490320086002F080F9012812D0A7
:103EF000022810D0032813D1002000900346024668
:103F00000146019002F006F8042809D0BDE81C40E3
:103F10000548FEF767BE0021084602F0ABF8F3E75C
:103F20001CBD000008F5014048020900144981F851
:103F3000310014490A6822F0FF020A6048B1114AB0
:103F40000B1D0832012807D002280ED00E48FEF7BC
:103F500049BE086808607047086840F001000860C2
:103F6000FF20106040F2071007E0086840F00200F0
:103F700008604FF6FF70106004481860704700003A
:103F8000C40700203415004033040900211001004B
:103F9000044981F83200044908B1012800D10860C1
:103FA00070470000C4070020101500402DE9FF41B4
:103FB0003E480068012802D03D48006830B93D48BD
:103FC00040680078202801D8012700E0002700F091
:103FD000E5FB384C0126183C00B9266102F006F9D1
:103FE000012802D03448FEF7FDFD344D6868007D9D
:103FF00018B13148401CFEF7F5FD00F0F3FFEFB3B8
:104000000121084602F036F820B1012828D0022804
:1040100026D10FE001F01AF8064601F043FFC7B2BF
:1040200001F03AFF8446A07D0021CDE90260CDE990
:1040300000710DE001F00AF8804601F033FFC7B2CD
:1040400001F02AFFA17DCDE90076CDE90281844609
:1040500068686289218990F91630604600F0B8F9E5
:10406000FEF744FEE06013484C3840696060FFF79B
:1040700029FF04B00020BDE8F04100E001E0FEF7B8
:1040800053BE6E7000F0AAFC00280CD000F0DEFFDA
:10409000054601F007FFA27D04B02946BDE8F041C6
:1040A000C0B200F085B9BDE8FF81000000140040F7
:1040B00034150040100800203C070900F0000020E3
:1040C00010B5012080F310880648417D29B1817820
:1040D00019B90121817000F02FFB002080F31088B6
:1040E00010BD0000F807002070B5124C607D00285C
:1040F0001ED100F0B3FA04F13005A86810B90E48DB
:10410000FEF770FD686818B90B48401CFEF76AFDA1
:1041100002F0AAF818B10848801DFEF763FD0020E0
:1041200002F0C2F801206075BDE8704000F004BBE9
:1041300070BD0000F8070020CE02090001F0BEBEED
:1041400030B50D4D85B0687D002813D000F032FBEE
:1041500000F048FF0024AC706C7505208DF800005D
:10416000684601F0FBFD0548047005B0BDE830402D
:10417000FFF7B6BE05B030BDF8070020F000002004
:104180002DE9F0410546012080F31088484E4FF09C
:1041900003080024707086F80080B4707460348165
:1041A0007481F46007463461347506F11800747543
:1041B000046044608460C4600461047518308460E5
:1041C0004460FFF73FF8284601F002FE01F078FE58
:1041D000002002F05BF806F13000FEF7B7FD002189
:1041E0000A20FCF73DF900210120FCF739F90121F3
:1041F0001420FCF735F9012000F07AF8A6F1340517
:10420000FF202861042068772A4929622A496962C7
:1042100085F82870022185F8291085F82A8085F80C
:104220002B00052085F82C00062085F82D0007209E
:1042300085F82E00082085F82F0085F8304085F895
:10424000311085F83270692045F8140B1E20286063
:104250004FF4167045F8100C022000F081FC0F207E
:1042600000F084FCEC802F716F712C72204601F0FD
:104270001FFE7078012802D01048FEF7B3FC37709B
:10428000B470746034817481F46034610C483475A6
:1042900074758460447000F0E1F90A20FCF7A9F815
:1042A0001420FCF7A6F884F310880148BDE8F081DB
:1042B000F807002004070A0D05080B0E9F020900ED
:1042C000F00000200348407D08B100207047012025
:1042D00070470000F80700200148408B704700003D
:1042E000C40700200149488370470000C40700202C
:1042F00010B5012181F3108807490A78824204D061
:104300004870487D28B100F017FA002080F310882B
:1043100010BD00F003F8F8E7F807002030B5224D93
:1043200085B02878697888423BD008B900F096F9C2
:10433000687808B9FFF7D4FD1C480024046000F039
:1043400051FE194818300460446004618460C46000
:104350002878012802D0022808D015E001F046FF95
:1043600090B10021084601F085FE0DE0FFF75AFCF0
:1043700001F03CFF032807D1002300941A46194698
:104380001846019401F0C6FDFFF79CFD687828707F
:1043900004208DF80000684601F0E0FC012005B023
:1043A00030BD0020FBE70000F807002014F50140B5
:1043B00000B585B006238DF806208DF805108DF820
:1043C00004008DF80030684601F0C8FC05B000BD5F
:1043D000F0B585B00DF1280C9CE8F0008DF80C309C
:1043E0008DF80D404FF0000C0190ADF808108DF8DD
:1043F0000E508DF800C0ADF80A208DF80F608DF8D2
:104400001070684601F0AAFC05B0F0BD70B586B02A
:104410000226DDE90A458DF808108DF80920019083
:104420008DF80A308DF800608DF80C508DF80B4037
:10443000684601F093FC06B070BD00000149886039
:1044400070470000F000002010B5012181F31088B2
:1044500001F05CFD002080F3108810BD10B5012034
:1044600080F3108801F054FD002181F3108810BD05
:1044700070B5082819D20F4A024482F82810820722
:10448000D40EFF22A240D243042801D20A4D01E0FB
:10449000094D2D1D286810402860084600F05EFA7E
:1044A0002968A0400843286070BDBDE870400348FB
:1044B000FEF798BBC407002024150040A70309009D
:1044C00010B51B4C00206070FEF7FCFB194908601A
:1044D000FEF70CFC1849887501F088FE012807D00A
:1044E00001F084FE022802D01448FEF77BFB002076
:1044F00000F0AEFFFEF726FE114908606068091D56
:1045000040680860A068002811D0007820B1FEF74C
:1045100019FEA16800F002FCA0680179002906D00C
:1045200000F0D0FBA068BDE8104000F0D9BB10BD82
:10453000F000002008150040F80700209C06090044
:1045400010F5014010B501F0FBFD002820D0114806
:1045500000210181418101F0A5FC0F49086001F0B3
:10456000A1FC012181400C48001D026822F0FF02DD
:104570001143016001F090FC064C1834206001F0FA
:1045800085FC60600548E060BDE81040FFF798BF1B
:1045900010BD0000F80700202C150040AD3F0000C2
:1045A000154800210160012101601448016821F4CF
:1045B00080710160016821F00F01891D01600168AF
:1045C00021F4702141F440310160001D016821F0A7
:1045D00000710160016841F080710160016821F0A3
:1045E000FF0141F020010160016821F47F41016079
:1045F0000120FBF7FEBE0000FC1F00401415004028
:1046000070B5134C1348A16800F096FE6060114C21
:104610004C3C607FFFF72AFC206AFFF70FFC606AC2
:10462000FFF718FC0025601990F828102846FFF7BE
:104630001FFF6D1C082DF6D3074914F8300F0860D2
:104640006078FFF773FCA078BDE87040FFF7A0BC6E
:10465000F0000020100800200C1500400C4910B597
:10466000002008600A4803240C380460FFF798FF14
:10467000FEF7E4FD064908310860091F0548086097
:10468000034810380460BDE81040FFF7B9BF0000D0
:1046900014F501400411004010B504460448406878
:1046A00010B90448FEF79EFA0348047510BD0000D7
:1046B000F0000020730409001008002010B501214B
:1046C00081F3108801F086FD002080F3108810BD72
:1046D00001F083BD10B5012181F3108801F080FD48
:1046E000002181F3108810BD01F07DBD0349012236
:1046F000086101460248FEF729BD0000F8070020C6
:104700007562000070B50C4601F0CEFD074D2869BA
:10471000A04202D30648FEF765FA28690122211A51
:104720000448FEF713FD0020286170BDF807002043
:10473000DB0609007562000010B5FEF7B5FD012823
:1047400022D101F0ABFD10B11048FEF74BFA002268
:1047500064210F48FEF7FAFC0E48007F80B90E482E
:104760000121016000220007C0F80021016000BFA4
:1047700000BF00BFAFF30080D0F800110029FBD0CC
:10478000BDE81040FEF796BD10BD0000B906090057
:1047900075620000C407002014050040044810B5ED
:1047A000006918B9FEF7A6FD002800D0012010BD51
:1047B000F807002010B5FEF777FD01280ED0FEF7B0
:1047C00085FD0748007F10B901208107486000205F
:1047D00001F06AFD024900203431486010BD00003C
:1047E000C40700200B4810B54068407D30B101205F
:1047F00000F086FE08490889401C0881074900200E
:1048000008600548343803C8BDE81040091A002084
:10481000FFF778BFF0000020F807002014F50140F2
:1048200070B586B0FFF7BAFF494D4A4E05F1340422
:1048300058B100F0BDF8A078002869D0FEF798FACA
:1048400006B0BDE87040FFF77BBC2078012802D09D
:10485000022804D008E000F00FFF28B170E03078A3
:1048600004286DD003286BD0FEF782FA00F0A0F880
:10487000A07868B1FFF764FC01F0C4FA022840D3C5
:1048800003208DF80000684601F068FA06B070BD9C
:10489000FFF744FD20B100206968FFF733FFEBE725
:1048A0002078F0B1012816D0022817D02A48FEF748
:1048B00099F9687E0128DFD100F090F80028DBD15B
:1048C0002078D8B1012811D00228D5D022481A303A
:1048D000FEF788F9D0E700F099F8EAE700F01AF956
:1048E000E7E700206968FFF70DFFE2E701F07EFCD3
:1048F0000028C1D101F0F8FB0028BDD1FFF75AFF15
:10490000BAE706B01448BDE870403630FEF76AB921
:104910002078022808D0FEF72BFA696806B000203C
:10492000BDE87040FFF7EEBE3078042808D00328B9
:1049300006D0FEF71DFA06B0BDE8704000F0EAB8F8
:10494000686806B04008BDE87040FFF7CFBE0000C1
:10495000C4070020F0000020D5040900024610B56D
:104960000020014622FA01F303F00103C1F107041C
:10497000A3400343491CC9B2D8B20829F2D310BDE1
:104980002DE9F0410024064625461827E80026FABE
:1049900000F0C0B2FFF7E2FF694207EBC1018840B7
:1049A00020436D1CEDB20446042DEFD3BDE8F08129
:1049B0000348416809B1491E4160FFF783BA00000E
:1049C000F80700200148406970470000C407002034
:1049D0000149486170470000C4070020044801787D
:1049E000022902D04068002800D001207047000052
:1049F000F80700200148406870470000C407002005
:104A00000149486070470000C40700202DE9F041CB
:104A100086B000F0E7FA01F0E9FB3A4D05F1340405
:104A200020B3688BB0B3218981423BD301210020A0
:104A300001F020FB01F030FA26898046648901F0FC
:104A400031FA074600F002FB014601208DF8000014
:104A5000ADF808608DF80C70CDF80480ADF80A4010
:104A60008DF80D10684601F079F944E001F0CAF9BB
:104A7000022840D3FFF7B2FF68B1FEF74FF9D0BB71
:104A8000287E20B9FEF732F9E168884233D1FFF77A
:104A900059FD30E006E0E068FEF72EF90020FEF751
:104AA00043F9F4E7FEF726FC10B11748FEF79AF831
:104AB000FEF708F915490968884202D06089401C50
:104AC000608113484078A0B9FFF788FF88B101F0F2
:104AD000E9F9064600F0BAFAA17D8DF806108DF8C6
:104AE000050007228DF800208DF80460684601F06B
:104AF00035F9FFF7E5FC296806B00120BDE8F04173
:104B0000FFF700BEC407002081050900081500401A
:104B1000F000002070B50024FEF7D4F80D4D296890
:104B2000884207D0FEF7CEF82860FEF7DFF80A4982
:104B3000012488750948641E0078044201D1FFF7FA
:104B400029F9054834384168BDE870400020FFF776
:104B5000D9BD000008150040F8070020F000002033
:104B60000149C860FFF7AEB9C40700200149886059
:104B7000FFF7A8B9C407002010B50446012181F34E
:104B800010880748017821B1407D10B10548FEF733
:104B900029F8204601F030FB002080F3108810BD7A
:104BA000F80700206803090001F02FBB10B50122AF
:104BB00082F3108801F036FB58B10848817819B9A2
:104BC000407D08B1FFF7B8FD002080F31088012078
:104BD00010BD002080F3108810BD0000F8070020F1
:104BE000014890F830007047C4070020024981F85E
:104BF0003000024908607047C40700200C150040CF
:104C00000149087770470000C407002070B51149BA
:104C1000114A0025487802EB0010027B22B10F4AAE
:104C2000D2F80C2102B10125807A0870012000F031
:104C3000D7FB0B4C1DB1A068806800B1804760684D
:104C4000002806D00179002903D0BDE8704000F0AB
:104C50001BB870BD340800205870000000100040E0
:104C60001001002007480069012805D0022805D05E
:104C7000032805D100F09AB800F04CB900F0E4B870
:104C80007047000034080020827B002193000B4A0B
:104C90001344C3F81019C37B02EB8302C2F8101946
:104CA000427B0121837BC07B01FA02F201FA03F30C
:104CB000814003481A430A430260704700F00140F4
:104CC00008F501404279054BC079012103EB8000D2
:104CD0000AB1016670470163704700000060004040
:104CE00082680021C2F84011C17B094ACB00094902
:104CF0000B44C3F81025C37B826801EBC301C1F8E4
:104D00001425C17B012088400349086070470000DA
:104D10001011004000F0014004F501402DE9F04180
:104D20000746886800260C46C0F840618868097B01
:104D30001A4D00F5A07005EBC101C1F810056278AD
:104D4000E178207B00F086FC607B05EBC000C0F8BA
:104D50001075617BA06805EBC101C1F8140510480E
:104D6000C0F80C61C0F81061A17B0E4805EBC101D1
:104D7000C1F810056278E178A07B00F059FC217B36
:104D80000120627B00FA01F100FA02F21143A27BDA
:104D90009040014304480160BDE8F08100F001400B
:104DA000001000400C11004004F501402DE9F041D5
:104DB0001F4E02200025307003207070756035751D
:104DC000B0691C4C401CB061C4F80C51C4F80051CF
:104DD000C4F81051C4F80451C4F82851C4F8005262
:104DE000681EC4F808030120FBF719FB124FB868CE
:104DF000007D50B1114800684042B075C4F81C51A4
:104E00000120A0610E49042008600C484438006865
:104E1000F168884202D00B48FDF7E4FEB868C0682C
:104E2000002802D0BDE8F0410047BDE8F081000055
:104E300034080020001000401001002048150040F8
:104E400008F5014051040A0010B52D4CD4F80C01AE
:104E5000012802D02B48FDF7C5FED4F81001012827
:104E600003D02848401CFDF7BDFED4F800010128FE
:104E700003D02448801CFDF7B5FED4F8040118B116
:104E80002048C01CFDF7AEFE0020C4F80C01C4F899
:104E90001001C4F80001C4F80401C4F8080102219B
:104EA000C4F800120121C4F808130822C4F804232E
:104EB000154A0323154C137010755060606890B14B
:104EC000027912B1FFF7E0FE0DE002785AB1027BE1
:104ED000437B807B01FA02F201FA03F381400C4824
:104EE0001A430A430260A068006900B18047A068C5
:104EF0008068002802D0BDE81040004710BD0000C7
:104F000000100040F3030A003408002010010020C4
:104F100008F501402DE9F0412A4DD5F8000101289E
:104F200002D02948FDF75EFED5F80401012803D020
:104F30002548401CFDF756FE2448016824480170AE
:104F40000021C5F80011C5F80411C5F80811491E63
:104F5000C5F808130126C5F8046381681D4F097D53
:104F600009B104213960446814B3207900B3617B2E
:104F7000DFF86480A06808EBC10100F5A070C1F8FB
:104F800010056279E179607B00F064FB607B06FAD2
:104F900000F03860207B114908EBC000C0F8101504
:104FA0006279E179207B00F043FB207B86403E6004
:104FB0000B480649091FC06808600B20C5F80002AD
:104FC000BDE8F08100100040BD030A000815004054
:104FD0001001002004F5014000F001400C110040D8
:104FE0003408002070B50120FBF724FA0120FBF7FC
:104FF00016FA144C4FF0FF30C4F808030026C4F82A
:105000000062C4F8106101202061A0610E4D287873
:10501000012813D0022813D0032811D05FF001001B
:10502000FDF7BCFEC4F810612E706E75002000F014
:10503000D7F9BDE870400120FBF707BA0620EFE77B
:105040000220EDE7001000403408002001480078FD
:10505000704700001001002001F03F014FF40033C1
:1050600043EA0121830009481844C0F81015D0F81C
:1050700010150AB941F48011C0F81015D0F81015B8
:1050800041F00301C0F810157047000000600040B7
:1050900008480069012806D0022806D0032806D057
:1050A0000548FDF79FBD00F095B800F007B800F087
:1050B000F1B800003408002033050A002DE9F0475C
:1050C000DFF8F0804FF00409012088F80090D8F84C
:1050D0001810491CC8F81810FBF7A1F936480068E9
:1050E000364D2870364C0026C4F80C61C4F80061B7
:1050F000C4F81061C4F80461A868DFF8C8A00127EB
:10510000007D90B12F4808380068400702D42E482F
:10511000FDF768FD284840300068404288F81600D6
:10512000C4F81C61A761CAF80090D4F8000118B156
:1051300025480930FDF756FDD4F80C0118B1224876
:105140000A30FDF74FFD4FF0E020B046D0F80002E6
:1051500010F0020F03D01C480B30FDF743FD6E68C2
:10516000CEB13078B8B1C4F80C81717B184A1748B9
:1051700002EBC101C1F810057278F178707B00F084
:1051800057FA707B0F4907FA00F0091F0860F07B9F
:105190008740CAF80070A868C06800B18047A86856
:1051A000417D002903D004490068091F0860BDE85B
:1051B000F08700003408002008150040100100208E
:1051C0000010004008F50140C0040A000C11004026
:1051D00000F001402DE9F041294C0026C4F80C6193
:1051E000C4F80061C4F81061C4F80861C4F804612F
:1051F000012004F58074FBF712F90820C4F80402BA
:105200000125C4F808520720C4F800011D4844686D
:10521000002C32D0207920B1207B1B4905FA00F008
:1052200008602078002828D0A068C0F84061A17BE1
:10523000164FA06807EBC10100F5A070C1F810057A
:105240006278E178A07B00F005FAA068C0F84061C0
:10525000E17B0F4807EBC101C1F81005E17BA068B5
:1052600007EBC101C1F81405A17B05FA01F0E17B50
:105270008D4005492843091F0860BDE8F081000002
:10528000001000401001002008F5014000F001402E
:105290000C11004070B5234CD4F80C01012802D049
:1052A0002148FDF79FFCD4F81001012803D01E48C7
:1052B000401CFDF797FCD4F80001012803D01A48E0
:1052C000801CFDF78FFC0020C4F80C01C4F810010D
:1052D000C4F80001C4F80401411EC4F80813C4F85E
:1052E0000002124C626872B1117861B1557B0123E2
:1052F00003FA05F1957BD27B03FA05F593400C4A3E
:105300002943194311600B49032208704A70486011
:105310000875A0680069002802D0BDE87040004709
:1053200070BD000000100040F5040A0010010020CC
:1053300008F501403408002070B506460C460120EF
:10534000FBF778F8FFF74EFE214D22482349C5E9C7
:10535000014600240470032646704460046104750D
:10536000447584751C4808601B48F030091F0860AC
:105370000120FBF76AF8686838B3017909B9017848
:1053800019B38168C1F808650422C1F81025027CB0
:10539000C2F18102C1F8402540F20112C1F8002299
:1053A000C1F804450122CA60C1F84041017921B128
:1053B00042798179C079FFF74FFE6868017821B1A1
:1053C00042788178C078FFF747FE024870BD000040
:1053D00010010020340800201410004024F5014082
:1053E0002DE9F041174C00250746C4F80052164E2F
:1053F000307803281CD0681EC4F80803C4F80C5188
:10540000032070700120FBF70AF800BFC4F80051B8
:10541000C4F81051C4F8045175603575002F0FD0D1
:105420000A488068006900280AD0BDE8F0410047BA
:105430006FF00800C4F808030820C4F80403E5E787
:10544000BDE8F08100100040340800201001002069
:105450002DE9F0470746DFF8908022484FF0FF31F2
:1054600000EB0716C8F808130120FAF7D8FF1F4C05
:105470000025DFF87C9065756770D9F80800032F68
:105480000268A2604168C4E90315A56130686060E4
:1054900019D2337AC8F80032C8F80C51C8F8105144
:1054A000F37A14481BB10160006828B108E002607B
:1054B000006828B9104801E00F48401DFDF792FB35
:1054C000717AC8F80413D9F80800007D28B1022FBA
:1054D00003D10A49A5750420086001206075BDE864
:1054E000F0870000587000000010004034080020D1
:1054F00010010020041500409C020A0004F5014040
:105500002DE9F05F404C82464048667800EB061774
:10551000607D012802D03E48FDF764FB207D18B174
:105520003B48401CFDF75EFB012500212575DFF897
:10553000E490A0466175032E47D2BAF1000F3CD12A
:10554000D9F80440BCB32279AAB38A460846A168B8
:10555000C1F84001217BDFF8C0B0A0680BEBC101AE
:1055600000F5A070C1F810056279E179207B00F0A8
:1055700071F82A49C1F80CA1607B29490BEBC000E6
:10558000C0F810156279E179607B00F051F8217B59
:10559000627B05FA01F005FA02F10843214908602F
:1055A000D9F80400204A81791268CA4012F0010F2C
:1055B00001D18068056038680560022E01D0012E97
:1055C00007D1B97A88F8001003E011482530FDF7BB
:1055D00009FBD9F80800007D002813D0022E11D154
:1055E00010480068400703D409482A30FDF7FAFA4A
:1055F0000E480068002805D1BDE8F05F04482B3054
:10560000FDF7F0BABDE8F09F3408002058700000A4
:10561000B8020A001001002000F001400010004014
:105620000C11004004F50140100500500415004025
:10563000064B03EBC0000AB1054A01E0044A303AC8
:1056400002EB8101C0F814157047000000F0014022
:1056500060600040064B03EBC0000AB1054A01E060
:10566000044A303202EB8101C0F814157047000083
:1056700000F00140306000400348D0F804010128E8
:1056800000D00020704700000010004030B5154ADF
:1056900001460020D2F8104423460AE0DB681D7959
:1056A000854205D1401C0A28F6DB4FF0FF3030BDA3
:1056B0001B68002BF2D1431CF9D0CB681871D2F8CB
:1056C000103443B1DB68CC681B682360D2F8102427
:1056D000D268116030BDC2F81014C96800220A6097
:1056E00030BD000058030020F0B595B01C461546AB
:1056F0000F4608461A9E00F00BFB182109A8FAF77E
:105700002AFE0E96CDE909540023082203A9384643
:1057100000F013FB05980690BDF81000ADF81C00D2
:10572000BDF81200ADF81E0000208DF8210003988E
:10573000082600F00300012802D0022818D032E029
:1057400003983346850AC0F3C2008DF82000039801
:105750000FA9C0F38314A200384600F0EEFA09A89E
:10576000009006AB22460FA9284600F02DFA1AE059
:105770000398840DC0F3C2008DF82000082C01D2DC
:10578000254600E0082533462A460FA9384600F092
:10579000D4FA2E44641B09AB06AA29460FA800F0D0
:1057A0006FF9002CEAD1384600F0B8FA15B0F0BD18
:1057B0007047012001F058BA084810B50178084A2E
:1057C000515C19B1001D00F093FF02E00C3000F0B5
:1057D00093FEBDE81040002001F046BA38000020DA
:1057E0000800002008B5034A00924023024AFFF750
:1057F0007BFF08BD0D6B0000C00100200A4A012993
:1058000002EBC00007D0022907D0032907D00429E2
:1058100007D00020704702207047042070470079AD
:105820007047407970470000D471000010B5FFF751
:10583000C0FF04210348FFF729FF02490120C9687E
:10584000487110BDC47100002DE9F0478CB0FBF722
:10585000AFF918B100200CB0BDE8F0877D4C0020F6
:10586000C4F81804BFF34F8F60680290A5684FF02A
:105870000008284004EB80000CE000BFD4F81804B6
:1058800070B921680298814201D86160E2E728403E
:1058900004EB80000C3002A9FCF71EFF0028EDD1BC
:1058A000002003AA029901EA050304EB8303491CC3
:1058B000DB6842F82030401C02910228F2D30398A2
:1058C00000F00300022802D001284DD0A7E0039881
:1058D0005022810D8946B2EB905F00D850210E46D0
:1058E00066F39F50039008315B4800F0C8F9070049
:1058F00078D000F00DFA4346082203A9384600F09C
:1059000024FA029908F1080A2940681A8000001D4B
:10591000864222D94F4D0C3530B1C2B204EB810121
:10592000301A90460C3104E02946F2B20025904628
:105930002846C6B25346384600F007FA0AEB080379
:1059400025B132462946384600F0FFF9029909F19F
:10595000030001EB900002903BE004EB8101534611
:10596000324638460C31EFE70398C0F3831006281F
:1059700000D30620039960F38911C1F38310801CC2
:1059800003918100344800F07AF9070047D000F015
:10599000BFF94346082203A9384600F0D6F908F1BA
:1059A000080800260FE00298434600EA0501401C63
:1059B00004EB81010290042238460C3100F0C5F955
:1059C00008F10408761C0398C0F38310B042EAD8AB
:1059D00047B1D4F81054D4F8180478B1384600F020
:1059E0009DF931E01BE0E8684079012804D12A687C
:1059F0002846394612689047E8680568002DF2D1BC
:105A0000384600F08BF90020FAF78DFFD4F818041F
:105A100008B9029860600020FAF787FF14E0D4F814
:105A2000104405E02168204689688847E0680468DA
:105A3000002CF7D109480A49401AC008022101EB9D
:105A4000004008A100F018F8FBF7B2F880F0010060
:105A500001E7000058030020F4710000EC71000021
:105A6000D47100004261636B656E647320666C756F
:105A7000736865640000000000231A4601F066B8F0
:105A80002DE9F0470E4680461C469246082940D82C
:105A900094F80C90002020731946104600F0F6FE92
:105AA0000025B54206D218F805201BA12046FDF7B7
:105AB00027FC03E01AA12046FDF722FC6D1C082DEF
:105AC000EFD318A12046FDF71BFC0025B54212D2EA
:105AD00018F805707E2F08D8FAF720FC0068C05D22
:105AE00010F03E0F01D03A4600E02E220EA12046D3
:105AF000FDF706FC03E00DA12046FDF701FC6D1C3F
:105B0000082DE3D301222146504600F0A1FE84F87F
:105B10000C90BDE8F08700002025303278000000AE
:105B2000202020007C0000002563000020000000F1
:105B30000B4810B5FF218160002101604160C0F871
:105B40001814C0F8141480F82014064800F0E4F883
:105B5000002803D1044800F078FB002010BD0000AD
:105B600058030020F4710000287000000248034927
:105B7000401AC00870470000F4710000D4710000A2
:105B800013B56846FCF7F6FE08B100201CBD0248BC
:105B9000009950F831001CBDD471000070B509485F
:105BA0000125D0F8104480F8205407E0E0684571E2
:105BB0002168204649688847E0680468002CF5D1D0
:105BC00070BD0000580300202DE9FF4781460C9D61
:105BD00000200C462F7B2873984616462946184607
:105BE00000F054FE072E42D2DFE806F004090F163B
:105BF0001F2A360049462846FDF782FB37E0494612
:105C000028462268FDF77CFB31E0D4E900234946B1
:105C10002846FDF775FB2AE0A0680090D4E9002330
:105C200049462846FDF76CFB21E0D4E90201CDE9A5
:105C30000001D4E9002349462846FDF761FB16E040
:105C400004F1080007C88DE80700D4E9002349469D
:105C50002846FDF755FB0AE004F108000FC88DE85F
:105C60000F00D4E9002349462846FDF749FB0022EE
:105C70002946404600F0ECFD2F73BDE8FF872DE973
:105C8000F041058A80462D1F4819C01CB0FBF5F075
:105C9000C6B24046FCF7CAFF041E19D0002020718E
:105CA00001206071E58000272546761EC4F800803B
:105CB0000BE04046FCF7BAFF60B16179491C6171A5
:105CC000286005467F1CC0F80080B742F1D320460B
:105CD000BDE8F081204600F002F80020F8E72DE949
:105CE000F041457901466B1E002201E00968521C13
:105CF0009A42FBD30F680146002605E038460C683F
:105D0000FCF7B3FF2146761CAE42F7D3BDE8F08125
:105D10000121001DFCF76EBFFCF7BCBF10B50446A7
:105D20000121001DFCF77CFF10F0FF0F04D120467D
:105D3000BDE81040FFF7D3BF10BD1CB50192012292
:105D4000009201AAFCF7D6FD1CBD1CB501920022F1
:105D5000009201AAFCF7CEFD1CBD000070B51A4CE4
:105D60000546206810B91948FCF73CFFD4F8D40068
:105D70000A2803D31548401CFCF734FFD4F8CC00A4
:105D800000EB800004EB800115F8040B08712DCDA9
:105D90008860CA600B614D61D4F8D400401CC4F81F
:105DA000D400D4F8CC00401CC4F8CC00D4F8CC10FB
:105DB00000200A2901D3C4F8CC004FF0E0214FF4B1
:105DC0008010C1F8000270BD500800204A000B008E
:105DD00010B5040002D10948FCF704FF084941F856
:105DE000CC4B002041F874098867C8674FF0E02168
:105DF0004FF48010C1F8000110BD00003E000B0000
:105E00005008002010B5074CD4F8D4000A2802D955
:105E10000548FCF7E7FED4F8D400C0F10A00C0B290
:105E200010BD00005008002079000B0010B500F0F4
:105E300003029043D200FF24944003689140A3439F
:105E4000CA18094901230B60BFF36F8FBFF34F8F4F
:105E5000026006480268002AFCD000200860BFF3F8
:105E60006F8FBFF34F8F10BD04E5014000E4014088
:105E7000F0B515460E460746002404E0315D38199A
:105E8000FFF7D4FF641CAC42F8D3F0BD0148C068F2
:105E90007047000028090020014880687047000012
:105EA00028090020014840687047000028090020A8
:105EB000014981F88100704728090020FDF744B8A6
:105EC00070B5FDF747F800240E4E2546204600F039
:105ED0007FFC04F1080000F07BFC3555641C082CA5
:105EE000F4D309480121057045608560C5600561EE
:105EF000456180F8805080F85850C56780F881105F
:105F000070BD00001C01002028090020FDF74EB8DC
:105F1000FDF7F8B82DE9FF4F81B0444FDDE90EA839
:105F200003260025F86F0C46AB4610B94048FCF735
:105F300059FE3878032803D03D48401CFCF752FE38
:105F4000F86FB9464178C8072FD199F8810060B33E
:105F500000270198E8B3039A584662F31700C1F38B
:105F6000410161F31F6009EB84018A6BCAF800B03C
:105F7000C8F800B00090904234D0204600F050FCA9
:105F8000051E07EA05072DD004F1080109EB81027F
:105F90000099916104990D4223D0264E305D00B3E3
:105FA000204600F032F910B105E00127D1E7204882
:105FB0002830FCF717FE204600F029F9CAF8000047
:105FC000BAF1000F0AD018B919482E30FCF70AFEB2
:105FD00000E01BE006F804B0022603E0144832306B
:105FE000F4E7012677B1204600F02DF9C8F800004B
:105FF00018B110480121015506E00C485830C8F886
:10600000000001E0C8F800B00DB107E004264C46DE
:10601000D9F87C00FCF7CAFFC4F87CB089F800B05E
:1060200000F068F805B03046BDE8F08F2809002080
:106030002D010C001C01002010B50C4C207810B173
:106040000B48FCF7CFFD00F0DFFB00280DD0FF224E
:106050000270417841F00601417000214318491C4B
:106060009A702029FAD30321217010BD280900203D
:1060700007010C0070B51A4C05460E462078012821
:1060800004D0022802D01748FCF7ACFDB5B1207847
:10609000012803D01348401DFCF7A4FDE06818B99F
:1060A0001048801DFCF79EFDE068007820B1606814
:1060B00000F0B6FB022502E0002500E004254EB109
:1060C000606800F0A4F8A168814203D005481D3043
:1060D000FCF788FD0020207000F00CF8284670BD09
:1060E00028090020CC000C00014890F8800070477F
:1060F000280900202DE9F041104C207800281AD101
:1061000094F88000002816D1082501260027606930
:10611000FCF776FF18B184F88060606920616069DF
:10612000401C6061082800D1676194F88000002855
:1061300001D16D1EEBD1BDE8F081000028090020DF
:1061400070B5224C207810B12148FCF74BFD94F833
:1061500080000025F8B12069606000F074F8A0604C
:1061600018B91B48C01DFCF73DFDA0684078C0076A
:1061700005D194F8810010B10220E56009E0606863
:1061800000F02BF8032806D200F03EFBE06010B1CF
:106190000120207002E02078002815D0A06818B9EE
:1061A0000B482030FCF71EFD2069606004EB800086
:1061B000C17E491CC17684F88050C27EA0684178B7
:1061C00062F342014170012070BD000028090020E7
:1061D00098000C000830FCF797BE0830FCF710BFA1
:1061E0000830FCF71FBF0830FCF770BF014800788B
:1061F000704700002809002010B5044600F0F0FAAE
:106200002046BDE81040FCF77FBEFCF7F9BE70B534
:106210000446FCF707FF050002D0204600F0E0FA34
:10622000284670BD70B50E4604460025FCF78CFE6E
:1062300038B121463046FCF717FF10B1FFF75AFF7F
:106240000125284670BDFCF741BF8268002191609E
:1062500082681161826851618268D1608268516090
:1062600080680160704700000148007870470000B6
:106270002401002004480178817041780170001DDC
:1062800050F82100004700002401002002498870D6
:1062900048700870704700002401002001484078D1
:1062A000704700002401002010B50446022802D3E4
:1062B0000248FCF797FC0248447010BD33000D0003
:1062C000240100204058002800D00120704708B564
:1062D000002242504058009008BDD0F80403084006
:1062E00000D0012070474058002800D0012070479E
:1062F00008B5002242504058009008BD0121B1EB82
:10630000507F01D1012070470020704770B50D46C5
:1063100000F008FB04000FD00020FAF704FB2079FE
:1063200020B10020FAF701FB112070BD012025608B
:1063300020710020FAF7F9FA002070BD10B500F0C6
:10634000F1FA002802D000210160017110BD0000A7
:106350000149024800F0B0BC70010020002000405C
:106360002DE9F0410546007916460F4600EB400145
:106370002C4A01EBC00102EB810494F82A1011B100
:106380000820BDE8F081284951F820102868FFF75F
:10639000BDFF08B11120F4E739462846FAF7DAFACA
:1063A00066603869206030004FF001062DD03F7FD5
:1063B0004FF48E712868FFF78AFF4FF4A2712868A6
:1063C000FFF785FF28681949C0F8041328684FEAC9
:1063D000471140F30730002806DA00F00F0000F103
:1063E000E02080F8141D03E000F1E02080F80014A4
:1063F000286840F3073000F01F0106FA01F1400958
:10640000800000F1E020C0F8001128680421C0F8E5
:1064100000150020A061E06184F8290044F8140F01
:10642000A675AEE770010020E46F00008000020056
:106430002DE9F05F054600790B4600EB400101EBCA
:10644000C000244901EB8004284600F045F810B153
:106450001120BDE8F09F62614FF00009C4F8209060
:10646000A36084F828904FF48E784E464146286801
:10647000FFF72DFF28684FF0010AC0F808A0214659
:10648000286800F0A9FB606808BBD5F800B0676910
:106490000FE000BF94F8280008B10F2615E0414630
:1064A0005846FFF70FFF0028F4D02146584600F069
:1064B00093FB206AB842F2D3574641462868FFF75B
:1064C00001FF0028F9D02868C760C4F8149030464E
:1064D000BFE7000070010020007900EB400101EBF4
:1064E000C000044901EB80004069002800D0012071
:1064F00070470000700100202DE9F0470446007944
:106500004FF0000900EB400101EBC000254901EB11
:1065100080072068C0F80095786880B1206822491B
:10652000C0F808132068012140F3073000F01F0273
:1065300091404009800000F1E020C0F880112068FF
:10654000D0F80C25D0F81485D0F80865D0F810558F
:106550004FF0FF31C0F81415C0F80C152068C0F8D2
:106560000815C0F81015501C02D01046FDF719F898
:10657000B8F1FF3F02D04046FDF713F8681C02D087
:106580002846FDF70EF8701C02D03046FDF709F8DA
:106590002068FFF7D3FE87F82A90C7F80490BDE87B
:1065A000F0870000700100208402020001490248C7
:1065B00000F030BC9C010020002000402DE9F0419B
:1065C0000546164600790F46154A00EBC00102EB5E
:1065D000810494F8201011B10820BDE8F081114920
:1065E00051F820102868FFF791FE08B11120F4E758
:1065F00039462846FAF7E9F96660386920601EB125
:10660000397F2846FCF726F828680821C0F80015CD
:106610000020A061E0616061012184F82010DCE7C6
:106620009C010020E86F00002DE9F04704460E466B
:106630000079274900EBC00001EB80051746304682
:10664000FFF75CFE30B1204600F044F820B1112085
:10665000BDE8F0871020FBE76F61AE604FF49077E4
:106660004FF0000839462068FFF742FE4FF4AC7641
:1066700031462068FFF73CFE2068AA686969C0F8C7
:106680004425C0F8481520684FF00109C0F808906B
:106690006868D0B9BA4651462068FFF724FE07461D
:1066A00031462068FFF71FFE0743F4D010B14FF0CA
:1066B0000F0808E02068C0F80C9031462068FFF70A
:1066C00012FE0028F9D0002068614046C0E70000B3
:1066D0009C0100200079054900EBC00001EB80001F
:1066E0004069002800D00120704700009C01002074
:1066F0002DE9F04704460079334900EBC00001EB77
:1067000080070125786880B120683049C0F80813F7
:10671000206840F3073000F01F0105FA01F140093D
:10672000800000F1E020C0F880112068D0F800124D
:1067300021F02001C0F80012206845604FF4AC76CB
:1067400031462068FFF7D4FD2068C56031462068D7
:10675000FFF7C9FD0028F9D020684FF00009C0F804
:1067600000952068D0F80C25D0F81485D0F808657D
:10677000D0F810554FF0FF31C0F80C15C0F81415C3
:106780002068C0F80815C0F81015501C02D010463B
:10679000FCF710FFB8F1FF3F02D04046FCF70AFFBC
:1067A000681C02D02846FCF705FF701C02D030465A
:1067B000FCF700FF2068FFF7C1FD87F82090C7F8BD
:1067C0000490BDE8F08700009C0100201003420007
:1067D000024A002102EB80008161704728090020F5
:1067E00010B50446064890F8801021B10069A04217
:1067F00001D1FFF77FFC03490020085510BD0000C0
:10680000280900201C01002010B5044CE06F00286E
:1068100002D1FCF777FCE06710BD000028090020DA
:1068200070B5094D0446E86F10B90848FCF7DAF96D
:1068300004F10801E86FFCF717FC002802D00020E3
:10684000E867012070BD0000280900202E020C001E
:1068500010B50C46017A052908D0407A38B10848AD
:1068600008A102682046FCF74BFD00E01AB106A122
:106870002046FCF745FD2046BDE81040FCF74DBD25
:1068800080000020257300000D0A000038B5C38881
:106890000D46044633B114A0009015A216A1284657
:1068A000FCF72EFD217A05291CD0607A48B1A0881A
:1068B000FEF7A4FF164951F8202016A12846FCF740
:1068C0001FFDA0880021FFF75BF903461049207ADD
:1068D000143951F8202001B02846BDE830400EA1FF
:1068E000FCF70EBD38BD00001B5B306D00000000E2
:1068F0001B5B313B33316D0025734C6F6773206434
:10690000726F70706564202825642925730D0A0054
:1069100080000020257300003C25733E2025733A3B
:10692000200000000349884201D10348704700203D
:106930007047000000200040280000207CB5684619
:10694000FBF7EDFE2B4C20786178084302D1FAF773
:10695000B3F96070607821784FF0010688434FF0FA
:1069600000050BD0FBF77CFB012834D0022801D0B6
:10697000032801D1257065700028F3D02078A17814
:10698000884305D008216846FAF764FA30B3A67048
:106990002078A17808422BD008216846FAF75AFAE5
:1069A0001549164B0322C91AC90802EB01420028F7
:1069B000104615D012A1FFF75FF80020FAF78FF804
:1069C0000028FAD16846FBF7A1FE08216846FAF7CD
:1069D00041FA40B108E026706670CFE72570D7E72E
:1069E0000CA1FFF749F8A570FEF72EFF0028FBD198
:1069F0007CBD000000000020EC710000D47100009C
:106A00004B6579626F6172642073656E74204F4BC1
:106A1000000000004B6579626F6172642073656EDF
:106A200074204641494C45440000000008B5FBF77E
:106A3000B9FF002822D06846FBF7F0FF00281DD0E0
:106A40000220FCF7B3FF0028FAD004226946022096
:106A5000FCF732FE0A490B4A891AC908032202EBE5
:106A600001420028104601D007A100E00AA1FFF76B
:106A700003F800BFFEF7E8FE0028FBD108BD0000C8
:106A8000EC710000D47100004D6F75736520736563
:106A90006E74204F4B0000004D6F75736520736559
