:020000040000FA
:10000000A0230020150200001D0200001F020000B6
:100010002102000023020000250200000000000071
:1000200000000000000000000000000027020000A7
:1000300029020000000000002B0200002D02000039
:100040002F0200001D0300006D0500002F020000BC
:100050002F0200002F0200002F0200002F020000DC
:100060002F0200002F0200002F0200002F020000CC
:100070002F0200002F0200002F0200002F020000BC
:100080002F0200002F0200002F0200002F020000AC
:10009000790300002F0200002F0200002F02000051
:1000A0002F0200002F0200002F0200002F0200008C
:1000B0002F0200002F0200000000000000000000DE
:1000C0002F0200002F0200002F0200002F0200006C
:1000D0002F0200002F0200002F0200002F0200005C
:1000E0002F020000000000000000000000000000DF
:1000F000000000002F020000000000002F0200009E
:1001000000000000000000000000000000000000EF
:1001100000000000000000000000000000000000DF
:1001200000000000000000000000000000000000CF
:1001300000000000000000000000000000000000BF
:1001400000000000000000000000000000000000AF
:10015000000000000000000000000000000000009F
:10016000000000000000000000000000000000008F
:10017000000000000000000000000000000000007F
:10018000000000000000000000000000000000006F
:10019000000000000000000000000000000000005F
:1001A000000000000000000000000000000000004F
:1001B000000000000000000000000000000000003F
:1001C000000000000000000000000000000000002F
:1001D000000000000000000000000000000000001F
:1001E000000000000000000000000000000000000F
:1001F00000000000000000000000000000000000FF
:10020000DFF80CD000F03CF8004800476107000020
:10021000A02300200648804706480047FEE7FEE787
:10022000FEE7FEE7FEE7FEE7FEE7FEE7FEE7FEE7A6
:10023000D10300000102000040EA01039B0703D044
:1002400009E008C9121F08C0042AFAD203E011F815
:10025000013B00F8013B521EF9D27047D2B201E0D7
:1002600000F8012B491EFBD270470022F6E710B5BB
:1002700013460A4604461946FFF7F0FF204610BD14
:10028000064C074D06E0E06840F0010394E80700E3
:1002900098471034AC42F6D3FFF7B6FF0C100000BD
:1002A0002C10000000F01F02012191404009800045
:1002B00000F1E020C0F88012704700F01F02012119
:1002C00091404009800000F1E020C0F880117047A3
:1002D00000F01F02012191404009800000F1E02060
:1002E000C0F80011704700F01F0201219140400941
:1002F000800000F1E020C0F8001270474907090EA5
:10030000002806DA00F00F0000F1E02080F8141D4C
:10031000704700F1E02080F80014704770B5144C6D
:10032000D4F80001002628B1D4F80403C00701D096
:10033000C4F80061D4F80C010E4D40B1D4F80403A8
:10034000000704D5C4F80C61286900B18047D4F8CF
:10035000100100280BD0D4F80403C00607D5C4F858
:100360001061E868002802D0BDE87040004770BD09
:1003700000100040080000207CB5144C606A019019
:100380002078002821D00120FFF797FF656800261C
:1003900066600120FFF79CFFE169002915D0E8079E
:1003A00003D08DF8006068468847A80705D501206E
:1003B0008DF80000E16968468847680705D5022086
:1003C0008DF80000E169684688477CBD0800002080
:1003D00030B54FF080520021D2F8300101240D28B1
:1003E00002D1D2F8343113B10D2809D00BE04FF00F
:1003F0008040C0F80C11C0F810115248016005E0AF
:10040000D2F8343113B10D2857D060E04E4800685F
:100410004E4A10604C48001D0068121D10604A488A
:1004200008300068121D106047480C300068121D2B
:100430001060454810300068121D106042481430AA
:100440000068121D10604048183000683F4A203292
:1004500010603D481C300068121D10603A48203082
:100460000068121D1060384824300068121D1060AA
:10047000354828300068121D106033482C30006861
:10048000121D1060304830300068304A4032106031
:100490002D4834300068121D10602B483830006839
:1004A000121D106028483C300068121D106026485C
:1004B00040300068121D106002E0D2F8340130B9FB
:1004C00023480268D20702D06FF00102026021487F
:1004D000026842F470020260BFF34F8FBFF36F8F68
:1004E0004FF01022D2F80002002803DBD2F80402F9
:1004F000002822DA184B1C6018480468002CFCD035
:100500001224C2F800420568002DFCD0C2F8044253
:100510000268002AFCD0196001680029FCD0BFF3F2
:100520004F8F0C487C3801680D4A01F4E06111439B
:100530000160BFF34F8F00BFFDE70B49094808601A
:1005400030BD0000380500400404001020C5004004
:100550000004004088ED00E004E5014000E40140B3
:100560000400FA050090D003500000200148006804
:10057000004700000000002002E008C8121F08C168
:10058000002AFAD170477047002001E001C1121F14
:10059000002AFBD17047006890FAA0F000BA00BAB8
:1005A0007047000072B609480068C00700D000BE5E
:1005B000BFF34F8F0548E4380168054A01F4E06154
:1005C00011430160BFF34F8F00BFFDE7F0ED00E086
:1005D0000400FA050EB500210091CDE901106A462C
:1005E00044F20100FFF7DEFF0EBD00002DE9FC41E3
:1005F0000646C0074FF000050ED0104F0024012220
:10060000385D009500231146019500F097FA641CAF
:10061000042CF4D300F01CF8B0070DD5074E0024CD
:10062000361D0022305D032300951146019500F030
:1006300085FA641C042CF4D3BDE8FC81041000008E
:100640000249085C012100F0C2BA00000410000059
:1006500010B500242046FFF7F3FF641C042CF9D3E7
:1006600010BD006890FAA0F000BA704770B50F4D49
:10067000A8680F4CC4F800020E486969C07C88471E
:100680000E490D4808600021C4F8101101202061B6
:10069000D4F81021002AFBD0C4F81011A96841F049
:1006A0000401C4F80012606070BD00000800002062
:1006B000001000407C0000205E0300200415004074
:1006C0004FF080400021C0F800110121C0F8001057
:1006D000D0F800110029FBD07047000000B51AA027
:1006E0008BB00068089019A019A100680990D1E9A1
:1006F0000001CDE90601182217496846FFF79CFD65
:1007000008208DF8130001208DF800008DF80800F6
:100710008DF801001148019000208DF81400684602
:1007200000F098F800280DD108A800F07FF9002803
:1007300008D109A800F08CF9002803D1082106A8E7
:1007400000F098F90BB000BDE7E7E7E7C2C2C2C20C
:10075000E7C2C3C4C5C6C7C8EC0F0000C907000084
:100760000120FFF743FFFFF7ABFFFFF7B7FF08B12B
:10077000FFF730FF00F0A2F908B1FFF72BFF20BF11
:10078000FDE7000070B50C494FF4705008600B4C49
:1007900000256570257000F00BFB20210848FFF74D
:1007A00064FDE56214202563FFF787FD05490320FA
:1007B000C1F80002002070BD08F5014008000020CB
:1007C000800300200010004010B5007800283DD0C4
:1007D00001283BD0022839D11D4800F0E3F8002859
:1007E00034D11B4CA079410703D000F00700042846
:1007F00001D9012100E000210D2000F0D5F9A079F8
:1008000000F00700012801D9052801D9012100E0E5
:1008100000210E2000F0C8F9A07900F0070002289E
:1008200001D9062801D9012100E000210F2000F0A4
:10083000BBF9A07900F00700032801D8012100E0EE
:100840000021BDE81040102000F0AEB910BD00003E
:100850005400002070B505007ED0454C207818B1BA
:10086000FFF790FF00287DD16868E06118222946D3
:100870004048FFF7E1FC0025656020213E48FFF776
:10088000F4FCE562256300F039FB00286DD03B499C
:100890004FF0E7300860091D4FF043300860091D34
:1008A00037480860091D3748086000F081FA314A6E
:1008B0000020183202F5947100EB800303EB401323
:1008C000134441F82030401C0828F5DB2E4A002054
:1008D00002F5947100EB800303EB4013134441F8DD
:1008E0002030401C0828F5DB2849042008602748F0
:1008F00008380560264840F20221C0F80012264A56
:1009000024491160111D08602248001D091D08605E
:100910001F481030091D0860091D204808601D4847
:10092000F038091D08601D48001D091D0860091DDB
:100930001B4808600F4E707C00F003010120FFF798
:10094000DDFCB07C00F003011420FFF7D7FC14207D
:10095000FFF7BEFC657002E005E003E005E0012062
:100960002070002070BD0E2070BD072070BD0000FB
:10097000080000207C000020800300201C1500409F
:10098000E743C323A363E313E801002010A500405D
:1009900000A000400011004060F5014040A100406F
:1009A0000010004070B505461E48007880B385B33E
:1009B0001D4CA06A70B30120FFF77FFC606A54F8F9
:1009C00020100A782A7054F820104978697054F879
:1009D00020108978A97054F820100979297154F8E9
:1009E0002010C978E97054F82010681D491DFFF7E0
:1009F00023FC606A401C6062082801D3002060620A
:100A0000A06A401EA0620120FFF762FC002070BDBA
:100A100001E002E003E00820F9E70E20F7E70520F7
:100A2000F5E700000800002010030020074910B57A
:100A30004A780AB1112010BD30B100684863012026
:100A400000F010FA002010BD0E2010BD080000209C
:100A5000074910B54A780AB1112010BD30B10068BD
:100A60008863022000F0FEF9002010BD0E2010BDAA
:100A70000800002010B50C460F49497809B1112033
:100A800010BD18B1082C03D9072010BD0E2010BDD1
:100A90000146094822463C30FFF7CEFB0648C4F128
:100AA00008023430FF210474D1408174042000F026
:100AB000D9F9002010BD00000800002070B51A48C8
:100AC000417809B1112070BD184C4FF0FF31C4F8C6
:100AD00008130025C4F810511549C160816841F020
:100AE0000401C4F800121021C4F804130421417059
:100AF0000D48104A3430817C11600E49C07C283981
:100B00000860091F0C48086001209434FFF7CAFBF5
:100B10000120FFF7DDFB25676567E567012044F8E5
:100B2000900C002070BD0000080000200010004064
:100B3000F50B0000301500405E0300202DE9FF4159
:100B40001C46DDE90A7815460E46684600F01EF898
:100B500046EA450141EA840141EA072242EA0841A6
:100B6000009A00EB8200C0F80017BDE8FF8100008A
:100B70000168202902D24FF0A040704701F01F0108
:100B800001600148704700000003005001682029FF
:100B900002D24FF0A040704701F01F0101600148F0
:100BA000704700000003005038B5012400906846EB
:100BB00031B1FFF7DDFF00998C40C0F8084538BD22
:100BC000FFF7D6FF00998C40C0F80C4538BD38B50A
:100BD00001240090684631B1FFF7D8FF00998C409E
:100BE000C0F8084538BDFFF7D1FF00998C40C0F828
:100BF0000C4538BD2DE9F05F5548002201270068FB
:100C000018B15448806A082803D3BDE8F05FFFF7A5
:100C10002DBDDFF83C9109F10809D9F800004D49D4
:100C2000703101EB800609F104010C68494B3588ED
:100C30004E33AC42587805D1B478B4EB500F01D1A3
:100C4000012200274008B07008689A463080424868
:100C5000424C017D19B19AF80110C90710D0A16862
:100C60003F4B41F00801C3F800123C49394D007870
:100C700049694FF0000B2C35B8B3012847D102E089
:100C8000FFF7F4FC4EE03748836AB3F1000E2DD035
:100C9000436A50F823C09CF80180D9F800C0E045B1
:100CA00024D196F803C0BCF1010F0DD162B95B1CD1
:100CB0004362082B01D3C0F824B0AEF10102826276
:100CC000626842F0010262600122F270426A50F8EA
:100CD0002200A06100788847A1690878287011F87F
:100CE000052BA81CFFF7A8FA06E009E086F803B078
:100CF0000020884785F800B09AF80100687006E087
:100D0000002088479AF80000287085F801B0052077
:100D10006070D9F80000144908601348283805604D
:100D20001248E060002F10D0B178D9F80000C0B2AE
:100D300000F04CF8002808D0606840F004006060C3
:100D4000BDE8F05F1420FFF7CEBABDE8F09F0000C9
:100D500000140040100300207C0000200800002048
:100D600000100040BC0100202C150040710D000057
:100D700010B5094CA068094940F00400C1F8000210
:100D800007486169C07C88470749064808600748EA
:100D9000E0600420607010BD0800002000100040DA
:100DA0007C0000205E03002004150040F50B0000CD
:100DB0000549002008624862886201F5AA7108624C
:100DC0004862886270470000BC0100202DE9F041B4
:100DD000224C07468846A06A08283DD2A4F5257112
:100DE00020460A780026006A01F2E225012A03D093
:100DF0004A7842B1C97C02E0297820292CD854F8DD
:100E00002020117002E054F820100E7054F82000D9
:100E1000A91C10F8052BFFF70FFA206A54F82010D0
:100E20004F700F49096854F82020917054F8202021
:100E300082F80480697854F8202041F30001491CAD
:100E4000401CD1702062082800D32662A06A401C92
:100E5000A0620120BDE8F0810020FBE71003002024
:100E60004815004010B50446C00704D00F48FFF7EE
:100E700092FB0F490860A00706D50C48001DFFF73C
:100E80008AFB0B49091D086060070DD5074808302B
:100E9000FFF7E7FB06490831086004480C30FFF70C
:100EA000E0FB03490C31086010BD00003C0000204D
:100EB0001C1500400E490F480A7A02600E4849236B
:100EC00052B1012A05D0032A06D0042A01D00020FD
:100ED00070473022826200E083628B89826A3E32F0
:100EE000934202D2806A3E30888101207047000020
:100EF0007C000020101500400800002070B500F0B4
:100F00003FF8FFF7D7FF1849184A0B787BB1012B40
:100F10000BD00023034016484D7A041FB5B1012DB4
:100F20000ED0022D07D0002417E0124B00E0124B28
:100F300053610123EEE74FF6FF7606600F4803E0AA
:100F4000FF26066040F20710206002E000260660DF
:100F500026600748083805600124C87C51691C4098
:100F60008847204670BD00007C000020080000205B
:100F70003C150040C10F0000950F0000211001003A
:100F800002480349807A0860704700007C00002016
:100F90000C150040084A074911600849497C491E60
:100FA000090441EA0021014341F08070111D0860ED
:100FB0007047000000010100141500403C000020B3
:100FC00007490648086007480749407C401E41EA37
:100FD00000400349091D0860704700000600030037
:100FE000141500403C00002020000001010000001A
:100FF0000000000001020000FA00030000010220CE
:10100000000000000D0E0F100B0C18192C10000022
:10101000000000205400000078050000801000004F
:10102000540000204C230000880500000000000050
:10103000000000000000000000000000130100009C
:1010400000000000000000000000000000000000A0
:101050000000000000000000000000000000000090
:101060000000000000000000E7E7E7E7C2C2C2C2DC
:10107000E7C2C3C4C5C6C7C80805FF020090D003B5
:0400000500000201F4
:00000001FF
