:020000040000FA
:1000000050320020150300001D0300001F030000F4
:10001000210300002303000025030000000000006E
:1000200000000000000000000000000027030000A6
:1000300029030000000000002B0300002D03000036
:100040002F0300002F0300007D0E00002F0300008F
:100050002F0300002F0300002F0300002F030000D8
:100060002F0300002F0300002F0300002F030000C8
:100070002F030000D90A00002F0300002F03000007
:100080002F0300002F0300002F0300002F030000A8
:100090002F0300002F0300002F0300002F03000098
:1000A0002F0300002F0300002F0300002F03000088
:1000B0002F0300002F0300000000000000000000DC
:1000C0002F0300002F0300002F0300002F03000068
:1000D0002F0300002F0300002F030000000000008A
:1000E0000000000000000000000000000000000010
:1000F0000000000000000000000000000000000000
:1001000000000000000000000000000000000000EF
:1001100000000000000000000000000000000000DF
:1001200000000000000000000000000000000000CF
:1001300000000000000000000000000000000000BF
:1001400000000000000000000000000000000000AF
:10015000000000000000000000000000000000009F
:10016000000000000000000000000000000000008F
:10017000000000000000000000000000000000007F
:10018000000000000000000000000000000000006F
:10019000000000000000000000000000000000005F
:1001A000000000000000000000000000000000004F
:1001B000000000000000000000000000000000003F
:1001C000000000000000000000000000000000002F
:1001D000000000000000000000000000000000001F
:1001E000000000000000000000000000000000000F
:1001F00000000000000000000000000000000000FF
:10020000DFF80CD000F0E0F800480047511800007B
:100210005032002000B583B002900091019244F268
:10022000010071466A4600F0F3FE03B000BD000015
:1002300030B4044654E8000F0D4644E80053002B48
:10024000F8D1156030BC704730B4044654E8000F54
:1002500040EA010544E80053002BF7D1156030BC9B
:10026000704730B4044654E8000F00EA010544E842
:100270000053002BF7D1156030BC704730B40446F2
:1002800054E8000F80EA010544E80053002BF7D141
:10029000156030BC704730B4044654E8000F00EBE2
:1002A000010544E80053002BF7D1156030BC7047BE
:1002B00030B4044654E8000FA0EB010544E80053B5
:1002C000002BF7D1156030BC704770B404464FF076
:1002D000000054E8006F0D68AE4207BF44E80023F9
:1002E000012044E800630E60002B1CBF0020F0E7F3
:1002F00070BC704730B4044654E8000F88422CBFED
:10030000451A054644E80053002BF5D1156030BC72
:10031000704700000648804706480047FEE7FEE7B2
:10032000FEE7FEE7FEE7FEE7FEE7FEE7FEE7FEE7A5
:10033000610B00000102000000487047AC72000031
:1003400010B540EA01040346A40703D009E010C930
:10035000121F10C3042AFAD203E011F8014B03F86C
:10036000014B521EF9D210BDD2B201E000F8012BB0
:10037000491EFBD270470022F6E710B513460A4625
:1003800004461946FFF7F0FF204610BD421C10F846
:10039000011B0029FBD1801A704730B504460020AC
:1003A000034600E05B1C934203D2E05CCD5C401B43
:1003B000F8D030BD034611F8012B00F8012B002ABC
:1003C000F9D1184670470000064C074D06E0E0687A
:1003D00040F0010394E8070098471034AC42F6D38C
:1003E000FFF712FF9C790000BC790000F8B50A6E97
:1003F0000C46531C11448026382B81F8206005469A
:1004000004F120062FD93F2B25D82344901C00212E
:10041000402883F820101ED02044D31C402B80F8A5
:10042000201018D02344101D402883F8201012D02B
:100430002044531D402B80F820100CD02344901DE5
:10044000402883F8201006D02044382A80F8201055
:1004500008BF84F85F103146204600F0B9FA3A2808
:10046000034600F2818003F1200E04EB0E0252429B
:1004700002F00302D71C052F38BF0527C3F13A004D
:100480008742C3F13B014CD8002A00F09D80E01860
:100490000027012A80F8207003F1010C0DD004EB35
:1004A0000C00032A03F1020C80F8207005D104EB44
:1004B0000C0003F1030C80F82070891A8B08724439
:1004C0000020012B04EB0207A05024D9022B7860F6
:1004D00021D0032BB8601ED0042BF8601BD0052B55
:1004E000386118D0062B786115D0072BB86112D06F
:1004F000082BF8610FD0092B38620CD00A2B7862D8
:1005000009D00B2BB86206D00C2BF86203D00D2B50
:10051000386318BF786321F0030291420CEB0203A9
:1005200022D0E018591C00223B2980F820201BD043
:100530002144981C3B2881F8202015D02044D91C48
:100540003B2980F820200FD02144181D3B2881F83A
:10055000202009D005333B2B204418BF1B1980F8FD
:10056000202018BF83F82020636E0022590F61F30A
:100570000702590D61F30F22590B61F31742590914
:1005800061F31F62DB0084F85F303146C4F85B2002
:10059000204600F01DFA23681BBA2B6063681BBA63
:1005A0006B60A3681BBAAB60E3681BBAEB6023699E
:1005B0001BBA2B6163691BBA6B61A3691BBAAB6180
:1005C000E3691BBAEB61F8BD9C4676E730B40A4993
:1005D0000A4C0B4A0B4B0C4D046041600B4C0C4910
:1005E00082600C4AC3600023C0E90454C0E90612CB
:1005F000C0E9183330BC704785AE67BB67E6096A4F
:1006000072F36E3C3AF54FA57F520E518C68059BF4
:10061000ABD9831F19CDE05B2DE9F04F824602F183
:10062000100090E8011283B0A1F1040B0AF140041C
:10063000D1680091D369D2F808800194D2E9001EF4
:10064000674602E08E46304629465AF8046B5BF84E
:10065000044FD7614FEAF02587EA090C85EAB01507
:10066000264485EA70650CEA000C8CEA070C3544D8
:1006700065441D444FEA7134009BC2F8189041EA6A
:100680000E0606EA080684EAB10401EA0E0C2B44C1
:1006900046EA0C0684EAB154344450611E461361A4
:1006A0003B464F4681460198C2F80C80254482455E
:1006B000CDF80080C2E9011E1560F046C2D103B03A
:1006C000BDE8F08FF0B40022061F1546931E0132DC
:1006D00002F00F0103F00F03073D50F821C050F85E
:1006E000237005F00F054FEABC4450F8253056F84A
:1006F000045F84EAFC144FEAF7412B4484EADC04EB
:1007000081EA7741234481EA97210B44102A336020
:10071000DBD1F0BC704700BFF8B50546D0E918033F
:10072000134414460E466B66E0B13F2800F2A080E9
:10073000CAB100F12001C0F1400C2944B444334651
:1007400001E0002C7ED001339A1B13F8017C01F8E4
:10075000017B634504F1FF340244F2D1402A74D096
:1007600010461E460CB92866F8BD2246314628467A
:1007700000F082F8231A33440028F4D0221D121A04
:10078000324405F1200105F12407BB4238BF9142F4
:1007900064D3082862D91A682A625A686A62820891
:1007A000022A35D09968A962032A31D0D968E96252
:1007B000042A2DD019692963052A29D0596969634A
:1007C000062A25D09969A963072A21D0D969E96346
:1007D000082A1DD0196A2964092A19D0596A69643E
:1007E0000A2A15D0996AA9640B2A11D0D96AE9643A
:1007F0000C2A0DD0196B29650D2A09D0596B696532
:100800000E2A05D0996BA9650F2A1CBFDA6BEA6521
:1008100020F00302904203EB0204A4D09E5CA918CE
:10082000531C984281F820609DD92B440232617894
:1008300083F82010904296D92A44A37882F8203079
:100840002866F8BD10462866F8BD05F12001284647
:100850001E4600F0BDF8002C85D086E7344405F133
:100860001F0213F8011B02F8011FA342F9D17AE716
:1008700002460B4672E700BF2DE9F04F9BB03F2ABE
:10088000019240F29D80A2F1400626F03F060C4600
:100890000546D0E90012D0E9023AD0E90498403682
:1008A000D0E906E0A619009627686668D4F808C063
:1008B000D4F810B002910392E168A26A0493CDF8D3
:1008C00014A0E36AD4F814A0CDF81890CDF81C80D9
:1008D000D4F81890D4F81C80CDF820E00990D4F812
:1008E00020E0606A3FBA36BA9CFA8CFC09BA9EFADC
:1008F0008EFE00BA12BA1BBA9BFA8BFB9AFA8AFADE
:1009000099FA89F998FA88F8CDE90A76CDE912E0E2
:10091000CDE91423CDE90CC1CDE90EBACDE910988B
:10092000D4F830C0676BA66BE36B27489CFA8CFC4D
:1009300036BA1BBA3FBA02AA0AA9CDE91863CDE9B3
:1009400016C7FFF769FE403400260AA8FFF7BAFE73
:100950001E4B02AA98190AA94036FFF75DFEC02E69
:10096000F3D16E68A868039A049B2F6802993244F9
:100970000344059EE8686A6000EB060A2869069E43
:1009800000EB06096869EE698446079839440CEB68
:100990000008AF690898296007EB000E09983044F9
:1009A000009EB442C5E9023AC5E90498C5E906E0EB
:1009B0007FF47AAF019B03F03F001BB0BDE8F08FDE
:1009C00010461BB0BDE8F08F9C780000DC7800007A
:1009D000F0B58F68CE680D698A69CB69D1F800E0FF
:1009E000D1F804C099B004463FBA486936BA2DBA66
:1009F000CDE90A7612BA26680C95656827690E92C9
:100A000000BAE26800961BBA66690195A5690D9067
:100A10009EFA8EFEA0680F939CFA8CFCE36902900C
:100A2000CDE908ECCDE90327CDE9056507934A6BCD
:100A3000886BD1F820E0D1F824C08F6ACE6A0D6BA4
:100A4000CB6B00BA11BA9EFA8EFE9CFA8CFC36BAB9
:100A50002DBA1BBA159116903FBA6A4608A91C48D0
:100A60001495CDE91276CDE910EC1793FFF7D4FD7C
:100A7000184E002508A8FFF725FE70196A4608A938
:100A80004035FFF7C9FDC02DF4D16168A268029E10
:100A9000019F2068009DE3680F449119039E22691D
:100AA000A160054425609D19049E63690699E5606F
:100AB0009019059EA269079D20611E44E369676045
:100AC0000A442B440020C4E90562E36119B0F0BD7B
:100AD0009C780000DC780000064882B000210160AC
:100AE00000680090044800680449C0B2496802B038
:100AF0000847000000D1004008D500404C0000200D
:100B000000F0EAB970B50E46144900EB400001EB65
:100B1000C0051446E86A183520B101280FD0022814
:100B200005D113E0284600F00BFAA04201D20024C0
:100B300011E022463146284600F03AFA0BE02846FA
:100B400000F0FEF9A042F4D20446F2E7314628460E
:100B500000F001FA0446204670BD0000C8090020DC
:100B6000F0B5B5480023021D0178101D01254FF096
:100B7000805406290BD11678360708D10678C6F3BB
:100B80000316032E06D0042E04D0052E02D006290B
:100B900007D00EE0B4F82463A84FC6F304263E60E5
:100BA00002E01678360704D10678C6F30316032E42
:100BB00002D0062904D00FE0A24FA14E7E670EE0BE
:100BC0001678360708D10678C6F30316032E06D02A
:100BD000042E04D0052E02D0062907D00EE0D4F84A
:100BE0004462994FC6F342363E6002E016783607FB
:100BF00004D10678C6F30316032E02D0062906D0C8
:100C000011E0924E376827F0807737600EE0167853
:100C1000360708D10678C6F30316032E06D0042E35
:100C200004D0052E02D006290AD011E04FF08046EC
:100C3000C6F80C31C6F81031834E361F336002E01F
:100C40001678360704D10678C6F30316032E02D0B1
:100C5000062905D00CE07C4F032664373E600AE08D
:100C60001678360704D10678C6F30316032E02D091
:100C700006290DD014E0764F05263E60744E783676
:100C80003560734E083633603F263F1D3E6002E0FC
:100C90001678360704D10678C6F30316052E02D05F
:100CA000062957D062E06B4E36686B4F3E60694E46
:100CB000361D36683F1D3E60664E083636683F1D5D
:100CC0003E60644E0C3636683F1D3E60614E103605
:100CD00036683F1D3E605F4E143636683F1D3E60ED
:100CE0005C4E183636685C4F20373E60594E1C36D5
:100CF00036683F1D3E60574E203636683F1D3E60C9
:100D0000544E243636683F1D3E60524E28363668B3
:100D10003F1D3E604F4E2C3636683F1D3E604D4EA7
:100D2000303636684C4F40373E604A4E343636686F
:100D30003F1D3E60474E383636683F1D3E60454E8B
:100D40003C3636683F1D3E60424E403636683F1D99
:100D50003E6002E01678360708D10678C6F303161F
:100D6000032E06D0042E04D0052E02D0062907D06B
:100D700019E0D4F85812394A01F04F01116002E02D
:100D8000117809070FD10078C0F30310032803D0AE
:100D9000042801D0052806D131480168C90702D0CE
:100DA0006FF001010160D4F83001062808D1D4F8B1
:100DB0003401062804D12B48016841F480610160A8
:100DC00022487438016841F470010160BFF34F8F0D
:100DD000BFF36F8F4FF01021D1F80002002803DB22
:100DE000D1F80402002822DA1F4A15601F4804685F
:100DF000002CFCD01524C1F800420568002DFCD061
:100E0000C1F8044201680029FCD013600168002980
:100E1000FCD0BFF34F8F0D48F0380168144A01F43D
:100E2000E06111430160BFF34F8F00BFFDE712493E
:100E300010480860F0BD0000E00F00F040350140B0
:100E40000DF0ADBA00C007403C050040FCED00E0ED
:100E5000105600400404001020C50040E40E00407D
:100E6000000400403C17004004E5014000E401405C
:100E70000400FA050090D003D400002010B5054C02
:100E8000206818B904A12B2000F022FA2068BDE8E0
:100E900010400047440000202E2E5C2E2E5C2E2E8B
:100EA0005C2E2E5C2E2E5C2E2E5C2E2E5C6D6F64C6
:100EB000756C65735C6E7266785C64726976657277
:100EC000735C7372635C7072735C6E7266785F7071
:100ED00072732E630000000010B5124C02202061D6
:100EE000606111A0A06104F17800E0614FF400603E
:100EF00020620020A06260620BA1A164E06204F69F
:100F00007801E1641021A065C4E91410E06509A12D
:100F1000E01DFFF74FFA08A12046FFF74BFA20200B
:100F2000A07110BDC80900205465726D696E616CB6
:100F300000000000525454005345474745520000FA
:100F40000269C1688A4203D88068401A104400E0F0
:100F5000501A401E70472DE9F047C468174689466D
:100F600006464FF000083069A04201D9051B02E097
:100F7000B168201A0D1AB0686D1E001BA84200D877
:100F80000546BD4200D33D4670682A462044494686
:100F9000FFF7D6F9B0687F1B2C44A844A944A042AF
:100FA00000D10024F460002FDDD14046BDE8F08779
:100FB0002DE9F04104468846D4E90207C51BE168E3
:100FC000606816460844B54206D94146FFF7B8F9AD
:100FD000B819E060BDE8F0812A464146FFF7B0F954
:100FE000761B08EB050132466068FFF7A9F9E66059
:100FF000F0E702E008C8121F08C1002AFAD17047C2
:101000007047002001E001C1121F002AFBD1704788
:10101000FEB514460E46074672B602F0DBFB00BF73
:1010200002F010FA0028FBD11D4A1E496FF48040DF
:101030003B18A2EB01014FF001004FEAD10100EB98
:1010400001451AD0012B11D02846324616A102F0D4
:1010500015FB1B480068C00700D000BE224603B045
:1010600031463846BDE8F04000F058B8238828469D
:1010700014A1626802F009FBEBE7A06802F0ACFE85
:101080000346D4E90001CDE900100296284614A1D8
:10109000A26802F002FB28461BA102F0EBFAD8E797
:1010A000147A0000E4790000554E4B4E4F574E2005
:1010B0004641554C54206174203078253038580012
:1010C000F0ED00E0415353455254494F4E20464104
:1010D000494C45442061742025733A257500000071
:1010E0004552524F52202575205B25735D20617457
:1010F0002025733A25750D0A50432061743A20303B
:101100007825303878000000456E64206F662065D1
:1011100072726F72207265706F72740008B501236D
:101120008DF800309DF80030144B186059609A60BB
:101130006FF48041401807D001280FD1DA60D868D9
:1011400000889861D86807E01A611869806858615A
:1011500018690068986118694068D861186858680B
:101160009868D868186958699869D86972B600BFD4
:101170009DF800000028FBD162B608BDAC0300203A
:1011800010B503F031FB012803D004491D2000F005
:101190009FF8BDE8104000F013B80000FC7200009A
:1011A00010B503F021FB012803D004492B2000F0E7
:1011B0008FF8BDE8104000F00BB80000FC72000092
:1011C00072B602480168491C016070475400002053
:1011D00003490868401E086000D162B670470000ED
:1011E0005400002070B5054608680C46411C04D028
:1011F00002F006F8206801F0A3FF6068411C02D0ED
:10120000002101F08BFF2968A069C1F82405607DE9
:10121000227D29681043C1F86C05D4E900122868C2
:10122000C0F81425C0F80C15207D012814D1A06841
:10123000411C02D0002101F071FFE068411C04D084
:1012400001F0DEFFE06801F07BFFD4E902122868BC
:10125000C0F80825C0F8101570BD70B505460868BF
:101260000C46411C04D001F0D5FF206801F072FF4C
:101270006068411C02D0002101F059FF2968A06973
:10128000C1F82405607D217D2A680843C2F86C05F9
:10129000D4E900122868C0F80C15C0F81425207D88
:1012A000012814D1A068411C02D0002101F03FFFA9
:1012B000E068411C04D001F0ADFFE06801F04AFF96
:1012C000D4E902122868C0F80825C0F8101570BDCE
:1012D0001CB56A46ADF800000191002144F20200FD
:1012E000FFF796FE1CBD2DE9F04FADF5477D144686
:1012F0000E468246B2F5C07F05D96FF037000DF576
:10130000477DBDE8F08F4FF4D0716846FFF733F8A2
:1013100068A800F0FCFF200E8DF81000200C8DF85E
:101320001100200A8DF8120030208DF8170006AD4C
:101330008DF81340224631462846FFF701F88020F9
:10134000285504F119050020BEA90854401C202886
:10135000FBDB4FF4807B5A4668A800F0DDFF0026D7
:10136000B1466F46CDF8B892CDF8BC92CDF8C09298
:101370002C460DF52E78CDF8C49215E0002041469C
:101380003B5C0A5C5A400A54401C1028F8DB1037BA
:10139000102C01D3102000E02046241AAEAB1A46D0
:1013A000012168A800F0D2FB002CE7D1B2A830449C
:1013B0001022AEA9FEF7C4FF9DF803001036401CB2
:1013C0008DF80300302ECCDB5A46B2A968A800F095
:1013D000A3FFBAAD56462B461A46012168A800F075
:1013E000B5FB102229463046FEF7AAFF103410360E
:1013F000302CF0DB68A800F07FFF00207FE70000C2
:101400002DE9F0470546861C90460F464FF001092E
:101410000020FFF7B5FE1B4C20683860D4E90001BE
:10142000401AA16804F21C47081A0EE00121384650
:1014300001F046F900F0B6F90146384601F040F9EE
:10144000D4E90001401AA168081A401C8642EDD870
:10145000B8F1000F03D0052065F3891002E00620E3
:1014600065F39F50A2682168114004EB8101C860B8
:101470002068304420600020FFF792FE4846BDE817
:10148000F0870000A405002070B50D4604460A2927
:1014900002D10D21FFF7F8FFA0682268411CA1606E
:1014A0001554D4E90101814204D32046BDE87040BF
:1014B00001F098BC70BD0000034803C8814201D10F
:1014C0000120704700207047A40500202DE9F0415D
:1014D0008CB00E4604466F4630213846FEF74BFF6F
:1014E000002504F120081020211811F8012D521CAC
:1014F00012F0FF020A7002D1401E0028F4DC3B46C5
:1015000022460121404600F021FB10351037302DD6
:10151000E9DB00206946335C0A5C5A400A54401CEF
:101520003028F8DB4FF48072404600F0F5FE08AD3D
:1015300095E80F0084E80F000CB00020BDE8F081B2
:1015400010B50021024801F0C6F880F3100010BD6C
:10155000C009002010B50846114601F001FB00202B
:1015600010BD00002DE9FC5F0E008346DDE90C474D
:10157000C6F1000098469246814600D408460125EF
:1015800003E000BF90FBFAF06D1C5045FADAA84565
:1015900000D9454624B1002E01DB780700D5641E32
:1015A000B80702D5B8F1000F0AD0F80708D13CB14E
:1015B000A54205D220215846641EFFF765FFF6E7D5
:1015C000002E02DA4E462D2102E0780703D52B21AA
:1015D0005846FFF759FF07F0030002280BD1B8F176
:1015E000000F08D13CB1A54205D230215846641EF7
:1015F000FFF74AFFF6E7CDE900474346524631463A
:10160000584603F0B9FBBDE8FC9F000070B50E46DC
:10161000054600684FF48E7102F0EDFB4FF4A271A5
:10162000286802F0E8FB28681449C0F80413286809
:10163000082E40F3073403D311A14520FFF748FEDD
:101640007007000E002C06DA04F00F0101F1E02112
:1016500081F8140D03E004F1E02484F80004286804
:10166000012140F3073000F01F0291404009800043
:1016700000F1E020C0F8001170BD00008000020001
:101680002E2E5C2E2E5C2E2E5C2E2E5C2E2E5C2E94
:101690002E5C2E2E5C696E746567726174696F6E64
:1016A0005C6E7266785C6E7266785F676C75652ECC
:1016B0006800000070B50E46044600684FF488715B
:1016C00002F0AAFB4FF49071206802F0A5FB4FF4E2
:1016D0009271206802F0A0FB4FF4A271206802F022
:1016E0009BFB20681449C0F804132068082E40F3BF
:1016F000073503D311A14520FFF7EAFD7007000E5F
:10170000002D06DA05F00F0101F1E02181F8140D3A
:1017100003E005F1E02585F800042068012140F38D
:10172000073000F01F0291404009800000F1E020E6
:10173000C0F8001170BD0000100302002E2E5C2EB8
:101740002E5C2E2E5C2E2E5C2E2E5C2E2E5C2E2ED3
:101750005C696E746567726174696F6E5C6E7266E7
:10176000785C6E7266785F676C75652E6800000045
:10177000024600201268530713D502F00300012827
:1017800002D002280CD105E0C2F383100B68801C44
:10179000184404E00223086803EB925210440860E6
:1017A000012070472DE9FF410026264800F085FF03
:1017B0002448001F074600F080FF234C606800901B
:1017C000A56800E000986946284004EB80000C30D2
:1017D000FFF7CEFF0028F5D101AA009901EA050321
:1017E00004EB8303491CDB6842F82030401C009165
:1017F0000228F2D3019800F0030001281AD0022831
:101800000ED012494FF4AC70FFF762FD384600F07D
:1018100051FF08B10098606004B03046BDE8F08127
:101820000198032101EB90500099BDF80A6001EB8B
:10183000900005E00198BDF80A60C0F383100844E9
:101840000090E3E7BC090020A40500209C7700007D
:101850000EB5202000210290084601F085FF18B146
:1018600054A24421FEF7D6FC01F0C4FD5548564968
:10187000401AC408032000EB0440054653A101F0C0
:10188000F9FE01F0A7F818B14AA25821FEF7C2FCF0
:10189000284654A101F0EEFE5F49604801F06CF863
:1018A00018B144A25F21FEF7B5FC03225C495B48F6
:1018B00001F078F818B13FA26421FEF7ABFC57495C
:1018C00002AA2039554801F03CF818B139A2692123
:1018D000FEF7A0FC052000EB044452A1204601F0D5
:1018E000C9FE204656A101F0C5FE4C480299203899
:1018F00002F05AFF204652A101F0BCFE3249314BA2
:101900000120591AC908029A00EB0146202A05D085
:10191000304620234BA101F0B8FEFEE740493F4886
:101920002022091D2038FEF738FD20B1304651A194
:1019300001F0A0FEFEE7284657A101F09BFE2846D5
:101940005F4901F097FE354802A92038CDE9000132
:101950000323334A3049203000F0D8FF18B115A2D4
:101960008621FEF757FC20462EA101F083FE20467B
:1019700033A101F07FFE29480299203802F014FFBC
:1019800020462FA101F076FE254924482022091D7A
:101990002038FEF702FD20B130464AA101F06AFE70
:1019A000FEE7284653A101F065FE28465EA101F03E
:1019B00061FEFEE72E2E5C2E2E5C2E2E5C6D616984
:1019C0006E2E6300147A0000E479000048617368A9
:1019D000206578616D706C652073746172746564E4
:1019E0002E0D0A0043616C63756C6174696E67202B
:1019F0005348412D32353620686173682077697409
:101A00006820696E69742F7570646174652F6669EA
:101A10006E616C697A6500004C4E0000F800002091
:101A20000000002043616C63756C61746564205331
:101A300048412D323536206469676573743A200059
:101A40000D0A0000496E76616C69642073697A65DD
:101A5000206F6620686173683A20307825303478CA
:101A60002C2065787065637465643A20253078258C
:101A7000303478005348412D323536206861736820
:101A80002063616C63756C6174696F6E2066616957
:101A90006C65640D0A0000005348412D3235362034
:101AA000686173682063616C63756C6174696F6EE3
:101AB0002077617320636F72726563740D0A000092
:101AC000B0720000496E746567726174656420537A
:101AD00048412D32353620686173682063616C633C
:101AE000756C6174696F6E206661696C65640D0A5E
:101AF00000000000496E746567726174656420536C
:101B000048412D32353620686173682063616C630B
:101B1000756C6174696F6E2077617320636F727288
:101B20006563740D0A000000486173682065786180
:101B30006D706C6520657865637574656420737578
:101B4000636365737366756C6C792E0010B514460B
:101B500001291A46214603D000F006F8002010BDE6
:101B600000F0E6F9FAE700002DE9F84FCC78436879
:101B70000D684E6864F31F6510CB8F686C40CD799B
:101B800091F80FC065F31F6620CB00687540CE7AD0
:101B9000DFF890E366F31F6753F8086B0EF5806B70
:101BA0007E40CF6853F8041C6CF31F6779404FF0F8
:101BB000FF3707EB600A0BF58060CDE004F0FF0C07
:101BC00053F8049B5EF82C70C6F3074C89EA0709AA
:101BD000C1F3072750F82CC05BF82770984687EAB6
:101BE0000C0789EA0709D04F4FEA156C57F82C709B
:101BF00005F0FF0C89EA07091F685EF82C30C1F375
:101C0000074C5F40C4F3072350F82CC05BF8233027
:101C100083EA0C035F40C44B4FEA166C53F82C3038
:101C20005F4008F104030093D8F804C006F0FF08F1
:101C30005EF82830C4F307488CEA030CC5F3072389
:101C400050F828805BF8233083EA08038CEA030C01
:101C5000B54B4FEA116853F828308CEA030C009B0F
:101C60001B1D0093D3F80080CBB25EF82310C5F3A0
:101C7000074388EA0108C6F3072150F823305BF8D0
:101C8000211009F0FF05594088EA0108A649230EF2
:101C900051F82310009B88EA01085EF825105C6863
:101CA000CCF307454C40C8F3072150F825505BF8AA
:101CB000211069404C409C493D0E03F1080651F843
:101CC00025109D68FBB24C405EF82310C8F3074313
:101CD0004D40C9F3072150F823305BF82110AAF1D9
:101CE000010A59404D4090494FEA1C6351F82310B6
:101CF000331D00930CF0FF034D4076685EF823100F
:101D0000C9F307434E40C7F3072150F823305BF86F
:101D10002110C7F3074759404E4083494FEA1863E3
:101D200008F0FF0851F82310009B4E401B1D009344
:101D300019685EF8283050F827705940CCF3072313
:101D40005BF823307B405940774B4FEA196753F8D3
:101D500027305940009B1B1DBAF1000F3FF72EAFF3
:101D6000DFF8C0C104F0FF0880CB5CF828C0C6F3E0
:101D7000074887EA0C07C1F3072C86465BF82CC09E
:101D800050F828009A468CEA000C87EA0C0766484F
:101D90004FEA156CD3F8008050F82C00EBB24740A6
:101DA000604806F0FF0C50F82300C1F3074388EAAF
:101DB0000008C4F307205EF823305BF82000584089
:101DC00088EA00085848330E50F82300554B88EA3B
:101DD00000095AF8040F53F82C3001F0FF0858405E
:101DE000C5F30723C5F307455BF823C0C4F30743D6
:101DF0005EF825505EF823308CEA030C80EA0C0074
:101E0000494B4FEA116C474953F82C3058400AF1BE
:101E1000040351F8281053F804CB8CEA010CC6F3E4
:101E200007215BF8211069408CEA010C3E49240E21
:101E300051F8241010CB8CEA010C3C4951FA87F57B
:101E40002D78C0F307466C40CCF307258E5D4D5DC1
:101E50002D0285EA06456C4001EB19652D7884EA70
:101E6000056420CB51FA89F63678CCF307487540E3
:101E7000C7F3072611F808808E5D9A46360286EA77
:101E80000846754001EB10661B68367885EA0665E2
:101E900051FA80F63678C7F307487340C9F307262E
:101EA00011F808808E5D360286EA0846734001EB21
:101EB0001C66367883EA066651FA8CFC9CF800C0F2
:101EC000DAF80430C0F3072083EA0C03C9F3074CA7
:101ED000085C11F80CC0000280EA0C40434001EBA2
:101EE0001760210A007814705170210C9170210E36
:101EF000D1701571290A5171290C9171290ED17176
:101F00001672310A5172310C9172310E83EA0060FF
:101F1000D1721073010A5173010C9173000ED073CA
:101F2000BDE8F88F00620000006E00000061000054
:101F30002DE9F84FCC7843680D684E6864F31F654F
:101F400010CB8F686C40CD7991F80FC065F31F6698
:101F500020CB00687540CE7ADFF890E366F31F6708
:101F600053F8086B0EF5806B7E40CF6853F8041C65
:101F70006CF31F6779404FF0FF3707EB600A0BF5F2
:101F80008060CDE004F0FF0C53F8049B5EF82C70E9
:101F9000C6F3074C89EA0709C5F3072750F82CC098
:101FA0005BF82770984687EA0C0789EA0709D04F43
:101FB0004FEA116C57F82C7005F0FF0C89EA0709FD
:101FC0001F685EF82C30C1F3074C5F40C6F307234F
:101FD00050F82CC05BF8233083EA0C035F40C44BFD
:101FE0004FEA146C53F82C305F4008F1040300935F
:101FF000D8F804C006F0FF085EF82830C4F307489C
:102000008CEA030CC1F3072350F828805BF82330D7
:1020100083EA08038CEA030CB54B4FEA156853F8C2
:1020200028308CEA030C009B1B1D0093D3F8008022
:10203000CBB25EF82310C5F3074388EA0108C4F366
:10204000072150F823305BF8211009F0FF055940B3
:1020500088EA0108A649330E51F82310009B88EA4C
:1020600001085EF825105C68CCF307454C40C7F3C7
:10207000072150F825505BF8211069404C409C49DD
:102080004FEA186503F1080651F825109D68FBB268
:102090004C405EF82310C8F307434D40CCF30721B2
:1020A00050F823305BF82110AAF1010A59404D4045
:1020B0008F494FEA196351F82310331D00930CF038
:1020C000FF034D4076685EF82310C9F307434E4086
:1020D000C8F3072150F823305BF8211008F0FF08FF
:1020E00059404E4082493B0EC7F3074751F8231031
:1020F000009B4E401B1D009319685EF8283050F875
:1021000027705940C9F307235BF823307B405940BF
:10211000774B4FEA1C6753F827305940009B1B1D33
:10212000BAF1000F3FF72EAFDFF8C0C104F0FF088F
:1021300080CB5CF828C0C6F3074887EA0C07C5F3D4
:10214000072C86465BF82CC050F828009A468CEA8B
:10215000000C87EA0C0766484FEA116CD3F8008040
:1021600050F82C00EBB24740604806F0FF0C50F8E6
:10217000230088EA0008C6F307205BF82030C1F38B
:1021800007405EF82000434088EA03085848230EC1
:1021900050F82300554B88EA00095AF8040F53F809
:1021A0002C30C4F3074C5840C1F307235EF82CC011
:1021B0005BF8233001F0FF0883EA0C0358404C4BD6
:1021C0004FEA156C494953F82C3058400AF1040382
:1021D00051F8281053F804CB8CEA010CC4F3072102
:1021E000C5F307445BF821105EF8244061408CEA97
:1021F000010C3F49340E51F8241010CB8CEA010C2D
:102200003C4951FA87F52D78C0F307466C40C9F375
:1022100007258E5D4D5D2D0285EA06456C4001EB7C
:102220001C652D7884EA056420CB51FA89F636784E
:10223000CCF307487540C0F3072611F808808E5D7F
:102240009A46360286EA0846754001EB17661B6817
:10225000367885EA066551FA80F63678C7F307487E
:102260007340CCF3072611F808808E5D360286EAAB
:102270000846734001EB1966367883EA066651FA20
:102280008CFC9CF800C0DAF80430C7F3072783EA17
:102290000C03C9F3074CCF5D11F80CC001EB1060C3
:1022A000210A007814705170210C9170210ED170A8
:1022B0001571290A5171290C9171290ED17116726B
:1022C000310A51723F02310C87EA0C4791727B4010
:1022D000310E83EA0060D1721073010A5173010C50
:1022E0009173000ED073BDE8F88F0000005100001C
:1022F000005D000000500000002807D040F21711D8
:102300005FF0000200F8012B491EFBD270474FF42A
:102310008C71FEF730B80000F0B5802A07D0C02AD3
:1023200007D0B2F5807F0BD06FF01F00F0BD0A23FD
:1023300000E00C23036000F10803002443600AE07E
:102340000E23F7E701EB8405EE782D6866F31F6531
:1023500043F82450641CB4EB521FF3D3544A016871
:10236000A2F508500A2904D00C292BD00E2928D117
:1023700056E0002453F80C5B52F824104D4002CB79
:10238000C1F30726C1F30747865DC75D86EA0726C6
:10239000754000EB1166367885EA064550FA81F6FD
:1023A0003678641C85EA06651D6053F80C6C6E4037
:1023B0005E6053F8085C75406940C3E902510A2C1D
:1023C000D8D373E05FF000041D6852F824104D402C
:1023D0005969C1F30726C1F30747865DC75D86EAE1
:1023E0000726754000EB1166367885EA064550FAF7
:1023F00081F63678641C85EA06659D615E686E40EC
:10240000DE619D6875401D62DE686E405E621D691A
:1024100075406940C3E90A511833082CD4D345E00C
:102420005FF000051C6852F825104C40D969C1F3D3
:102430000726C1F30747865DC75D86EA0726744015
:1024400000EB1166367884EA064450FA81F6367855
:1024500084EA06661E625C6874405C629E68664040
:102460009E62DC687440DC6250FA84F73F781E6933
:10247000C4F3074C7E40C4F3072710F80CC0C75DB7
:1024800000EB14643F0287EA0C4724787E4086EA1A
:1024900004641C635E696D1C66405E639C697440E5
:1024A0006140C3E90E412033072DBBD30020F0BDAE
:1024B0000072000010B504000AD004F12000FFF7FC
:1024C0001BFF40F23F10002104F8011B401EFBD20D
:1024D00010BD4FF4A071FDF74EBFF0B50F468569F2
:1024E0004FF4C071E1B0164604468D4203D8C5F5DD
:1024F000C070B04203D26FF0370061B0F0BD6846E3
:10250000FDF739FFD4E94E302A466946984710B1A5
:102510006FF03300F1E7A5693FB136B10DEB05006F
:1025200032463946FDF70CFF354469462A460846CF
:10253000FEF7D9FE69462046FEF7C8FF012020615C
:102540000020DAE77CB53025069CCDE9004500F097
:1025500001F87CBD2DE9F04788B00D46DDE9108912
:1025600004469A46164620216846FDF704FF04F10A
:1025700020000746FFF7CBFE42F21070C4E9069038
:10258000C4E94E564FF4807269463846FFF7C4FEE0
:10259000424651462046FFF7A0FF08B0BDE8F0874D
:1025A0002DE9F05F1E46DDF828B091468A4604000A
:1025B00003D124A19020FEF78BFEB4F80680607949
:1025C00008FB00F8A8F10408464503D31DA19E208E
:1025D000FEF77EFEE788301DB0FBF7F1B0FBF7F2A7
:1025E00007FB1200D9F80050AA19424501D9A8EBFF
:1025F0000605C9F8005001E02468491E0029FBD1F6
:102600003E1A8846AE4215D817E000BF2044001D90
:102610000AEB0803BBF1000F324602D00146184610
:1026200000E01946FDF78CFE00202468AD1BB04485
:10263000AF4201D92E4600E03E46002DE6D1BDE86E
:10264000F09F00002E2E5C2E2E5C2E2E5C2E2E5C1B
:102650002E2E5C2E2E5C2E2E5C636F6D706F6E6561
:102660006E74735C6C69627261726965735C6D65CE
:102670006D6F626A5C6E72665F6D656D6F626A2E09
:102680006300000030B5024651B101F08BF8002123
:10269000074C08E034F821301568AB4202D11160D4
:1026A000002030BD491C8142F4D3052030BD00001C
:1026B00000000000002100F009B8012100F010B86E
:1026C00008B56A46FDF7E7FD009808BD08B56A46FB
:1026D000FDF7C7FD08BD08B56A46FDF7A9FD08BDB1
:1026E00008B56A46FDF7B0FD009808BD08B56A4612
:1026F000FDF7DEFD009808BD70B5040003D113A1FD
:10270000FE20FEF7E5FD00252846FEF739FD20688E
:1027100062680168914214D9491E01600D781CB9A4
:102720001AA1C220FEF7D4FD208AE16805FB00153E
:102730002068217A0278891A0279C9B28A4200D2C5
:1027400001710020FEF72CFD284670BD2E2E5C2E58
:102750002E5C2E2E5C2E2E5C2E2E5C2E2E5C2E2EB3
:102760005C636F6D706F6E656E74735C6C696272C2
:1027700061726965735C62616C6C6F635C6E7266DA
:102780005F62616C6C6F632E630000002E2E5C2E06
:102790002E5C2E2E5C2E2E5C2E2E5C2E2E5C2E2E73
:1027A0005C636F6D706F6E656E74735C6C69627282
:1027B00061726965735C62616C6C6F635C6E72669A
:1027C0005F62616C6C6F632E6300000070B50C4635
:1027D000050004D110A140F22110FEF779FD24B9C3
:1027E0000DA14FF49170FEF773FD0020FEF7C8FCB9
:1027F0001DB91949CF20FEF76BFDE8682A68211A38
:10280000288AB1FBF0F11068431C13600170BDE829
:1028100070400020FEF7C4BC2E2E5C2E2E5C2E2EA7
:102820005C2E2E5C2E2E5C2E2E5C2E2E5C636F6D2D
:10283000706F6E656E74735C6C69627261726965EB
:10284000735C62616C6C6F635C6E72665F62616C1C
:102850006C6F632E630000008C27000010B504002D
:1028600002D0206830B901E00E2010BD17A1D92098
:10287000FEF72EFD606818B914A1DA20FEF728FDD6
:10288000A06818B911A1DB20FEF722FDE06818B995
:102890000EA1DC20FEF71CFD208A18B90BA1DD205B
:1028A000FEF716FD207A61682268401AC0B21160F6
:1028B00004E0226811684B1C13600870401EC0B20F
:1028C000F7D221680020087110BD00002E2E5C2E6A
:1028D0002E5C2E2E5C2E2E5C2E2E5C2E2E5C2E2E32
:1028E0005C636F6D706F6E656E74735C6C69627241
:1028F00061726965735C62616C6C6F635C6E726659
:102900005F62616C6C6F632E630000002DE9F04123
:102910001D46DDE906871646044600F02DF800281E
:102920000DD12A463146204600F03CF8002806D159
:102930003A4641462046BDE8F04100F002B8BDE805
:10294000F08170B515460E46044602F06FFA002875
:1029500007D13EB160682968C268914205D248F249
:10296000145070BD48F2135070BD83682A4631463A
:102970002046BDE87040184710B550B161B14160C4
:10298000096804468847002802D1054820600020D5
:1029900010BD48F2015010BD48F2105010BD0000AB
:1029A0006E52464870B515460E46044602F03EFA91
:1029B00000280BD146B155B160682A4631464368BC
:1029C0002046BDE87040184748F2105070BD002006
:1029D00070BD00002DE9F0410B480C4D0C4F401B21
:1029E000C60801203870002406E000BF55F8340006
:1029F0008047002805D1641CB442F7D30220387008
:102A00000020BDE8F0810000C4790000BC7900001E
:102A10002400002005480178022904D0007801280C
:102A200001D00020704701207047000024000020E2
:102A300038B5041D002000F0CFF800280ED1204644
:102A4000FFF747FD00200346024600900449204658
:102A5000FFF778FDBDE8384001F01FBF38BD00002A
:102A60005515000010B5001DFFF724FD00F010F90A
:102A7000002010BD2DE9F0416C460D46074601F0DF
:102A800085F970B11B481C49401AC008012101EBAF
:102A900000401AA100F0EEFDA54648F21950BDE82D
:102AA000F081FFF7B7FF48B11B4A1C4E106848B1D0
:102AB0005068B04206D10020A546F0E74FF405402B
:102AC000A546ECE748F21750002FA546E7D1002DA8
:102AD000A546E4D110491248083115461060FFF7A9
:102AE000A7FF0028A546DAD16E602A680D4911605B
:102AF000A546D4E7147A0000E479000053746163BA
:102B00006B206F766572666C6F77206465746563A1
:102B10007465642E00000000280000206572E54BFB
:102B2000C80100206169614D0A4930B40A4B486808
:102B300048F20252984204D10868084C0368A34244
:102B400002D030BC10467047002202604A6030BCA0
:102B5000FFF788BF280000206572E54B6169614D71
:102B600070B506460C480C460078012811D00BA120
:102B7000BA20FEF7ADFB0CE0402C01D2254600E068
:102B80004025E9B2304600F045F80028F9D1641B31
:102B90002E44002CF0D170BD340000202E2E5C2E6F
:102BA0002E5C2E2E5C2E2E5C2E2E5C2E2E5C2E2E5F
:102BB0005C696E746567726174696F6E5C6E726673
:102BC000785C6C65676163795C6E72665F6472766F
:102BD0005F726E672E63000070B50B4C217809B1EF
:102BE000852070BD00B9094809490088A4F8010092
:102BF000601C01F09FF90500F3D101F011FA0120EA
:102C00002070284670BD000034000020644E000093
:102C1000153F000070B50C460C490546097801299E
:102C200003D00BA19120FEF753FB224629461748FB
:102C300000F0EEFF044601F0F3F92CB1052C03D0AF
:102C400003A1AB20FEF744FB204670BD34000020FA
:102C50002E2E5C2E2E5C2E2E5C2E2E5C2E2E5C2EAE
:102C60002E5C2E2E5C696E746567726174696F6E7E
:102C70005C6E7266785C6C65676163795C6E7266C7
:102C80005F6472765F726E672E630000307A0000B8
:102C900010B5094C2078012803D008A16A20FEF75E
:102CA00017FB01F0F5F901F025FA134800F0FAFFDF
:102CB0000020207010BD0000340000202E2E5C2E5D
:102CC0002E5C2E2E5C2E2E5C2E2E5C2E2E5C2E2E3E
:102CD0005C696E746567726174696F6E5C6E726652
:102CE000785C6C65676163795C6E72665F6472764E
:102CF0005F726E672E630000307A0000F0B5054603
:102D00000478154889B0164640F82420124A08690C
:102D1000121DA2F1080742F82400487F38552022EE
:102D20006846FDF70DFB04942878385C48B10EB175
:102D30000A4A00E000226946281D01F071FB09B033
:102D4000F0BD0EB1064A00E00022694605F10C0014
:102D500001F012FAF3E700003C000020554C00009F
:102D6000994A00000FB438B5040003D110A11C200B
:102D7000FEF7AEFA606918B90DA11D20FEF7A8FA9A
:102D8000206818B90AA11E20FEF7A2FA606818B9D7
:102D900007A11F20FEF79CFA0599002905D006A877
:102DA00000906A46204600F049F838BC5DF814FBF4
:102DB0002E2E5C2E2E5C2E2E5C2E2E5C2E2E5C2E4D
:102DC0002E5C2E2E5C65787465726E616C5C66702C
:102DD00072696E74665C6E72665F667072696E743C
:102DE000662E630010B5040003D107A10B20FEF787
:102DF0006FFAA268002A05D0D4E904032168984735
:102E00000020A06010BD00002E2E5C2E2E5C2E2E09
:102E10005C2E2E5C2E2E5C2E2E5C2E2E5C65787425
:102E200065726E616C5C667072696E74665C6E72FF
:102E3000665F667072696E74662E63002DE9FC47EA
:102E400091460C465FEA000804D183A14FF4A270BA
:102E5000FEF73EFAD8F8140020B97FA14FF4A37012
:102E6000FEF736FAD8F8000020B97BA140F24710EF
:102E7000FEF72EFAD8F8040020B977A14FF4A47019
:102E8000FEF726FA002C76D014F8011B39B125295B
:102E90000ED04046FEF7F8FA20780028F4D198F8D2
:102EA0000C00002867D04046BDE8FC47FFF79ABFFA
:102EB0000020012221782B291BD02D2902D0302976
:102EC00008D102E040F0010001E040F00200641C83
:102ED000002AEFD100252A290ED02178A1F1300255
:102EE0000A2A11D205EB850201EB4205641C303D34
:102EF000F1E740F00400EAE7D9F800100B1DC9F82B
:102F000000300968641C0D44217800232E290BD160
:102F100014F8011FA1F130020A2A05D203EB830243
:102F200001EB4203303BF3E76C290DD068290BD04D
:102F3000692921D00BDC252918D0582931D06329E3
:102F40000ED0642915D117E014F8011FECE77029A1
:102F500069D0732932D075291BD0782909D120E096
:102F6000D9F80000011DC9F8001001784046FEF7AD
:102F70008BFA641C90E76CE0D9F800100A1DC9F8C0
:102F800000200968CDE900500A224046FEF7EAFA1F
:102F9000EFE7D9F800100A1DC9F8002009680A22D5
:102FA00006E0D9F800100A1DC9F8002009681022AF
:102FB000CDE90050404601F0DFFEDAE7D9F8001015
:102FC00000270A1DC9F800200E68C00705D112E0CD
:102FD0004046761C7F1CFEF757FA31780029F7D15E
:102FE00004E0202140466D1EFEF74EFABD42C0D9D6
:102FF000002DF6D1BDE74EB13046FDF7C7F90746C3
:1030000004E0202140466D1EFEF73EFABD4206D97F
:10301000002DF6D103E04046761CFEF735FA3178F4
:103020000029F8D1A5E7D9F80000011DC9F8001062
:10303000056830214046FEF727FA78214046FEF722
:1030400023FA08200021CDE9000103461022294679
:10305000B0E7BDE8FC8700002E2E5C2E2E5C2E2EE5
:103060005C2E2E5C2E2E5C2E2E5C2E2E5C657874D3
:1030700065726E616C5C667072696E74665C6E72AD
:10308000665F667072696E74665F666F726D61749A
:103090002E6300002DE9FF411C46DDE90A78154644
:1030A0000E46684600F060F846EA450141EA8401B0
:1030B00041EA072242EA0841009A00EB8200C0F888
:1030C0000017BDE8FF812DE9FF411C46DDE90A78C4
:1030D00015460E46684600F06DF846EA450141EA9D
:1030E000840141EA072242EA0841009A00EB82008B
:1030F000C0F80017BDE8FF811CB5002100910B4608
:1031000001220191FFF7C6FF1CBD1CB500210091F3
:103110000B4601220191FFF7D6FF1CBD1CB5002212
:103120000B46009211460192FFF7B4FF1CBD1CB57F
:1031300000220B46009211460192FFF7C4FF1CBD0E
:103140001CB5002100910B46012201911146FFF7A9
:10315000A1FF1CBD1CB5002100910B46012201916D
:103160001146FFF7B0FF1CBD10B50068202804D33E
:1031700003A14FF4E070FEF7ABF84FF0A04010BD94
:103180002E2E5C2E2E5C2E2E5C2E2E5C2E2E5C2E79
:103190002E5C2E2E5C6D6F64756C65735C6E726652
:1031A000785C68616C2F6E72665F6770696F2E68FD
:1031B0000000000010B50068202804D303A14FF4DC
:1031C000E070FEF785F84FF0A04010BD2E2E5C2E6B
:1031D0002E5C2E2E5C2E2E5C2E2E5C2E2E5C2E2E29
:1031E0005C6D6F64756C65735C6E7266785C68614B
:1031F0006C2F6E72665F6770696F2E68000000004A
:1032000001B56846FFF7B0FF009A01219140C0F870
:10321000081508BD01B56846FFF7CCFF009A0121EB
:103220009140C0F8081508BD00210846FFF722BCF0
:10323000FFF77ABC30B5154A01460020D2F8104499
:1032400023460AE0DB681D79854205D1401C0A2827
:10325000F6DB4FF0FF3030BD1B68002BF2D1431C72
:10326000F9D0CB681871D2F8103443B1DB68CC6860
:103270001B682360D2F81024D268116030BDC2F8F8
:103280001014C96800220A6030BD0000A4050020A7
:103290007047FDF735BC704708B5034A00924023DC
:1032A000024A00F005F808BD1D490000CC030020CB
:1032B000F0B595B01C4615460F4608461A9E00F01C
:1032C00043FB182109A8FDF756F80E96CDE90954DD
:1032D0000023082203A9384600F04CFB059806900D
:1032E000BDF81000ADF81C00BDF81200ADF81E00CE
:1032F00000208DF821000398082600F00300012823
:1033000002D0022818D032E003983346850AC0F371
:10331000C2008DF8200003980FA9C0F38314A20007
:10332000384600F027FB09A8009006AB22460FA9FB
:10333000284600F065FA1AE00398840DC0F3C20035
:103340008DF82000082C01D2254600E008253346E0
:103350002A460FA9384600F00DFB2E44641B09AB2A
:1033600006AA29460FA800F0A7F9002CEAD1384692
:1033700000F0F0FA15B0F0BD7047002001F0AABBD4
:10338000084810B50178084A515C19B1001D01F0D8
:1033900031F902E00C3000F0E1FFBDE81040002000
:1033A00001F098BB600000203800002008B5034AF7
:1033B00000924023024AFFF77BFF08BD6D490000E1
:1033C0000C0400200A4A012902EBC00007D00229A0
:1033D00007D0032907D0042907D000207047022016
:1033E00070470420704700797047407970470000AB
:1033F000E479000010B5FFF74CFF04210F48FFF7F8
:1034000019FF002803DA0E491B20FDF761FF0B4866
:103410000124C0684471FFF7B0FF08480421103050
:10342000FFF708FF002803DA05492220FDF750FFC7
:1034300002481030C068447110BD0000C47900001B
:103440004C7700002DE9F0478CB0FEF735F818B145
:1034500000200CB0BDE8F0877D4C0020C4F81804B3
:10346000BFF34F8F60680290A5684FF000082840B6
:1034700004EB80000CE000BFD4F8180470B9216898
:103480000298814201D86160E2E7284004EB8000A5
:103490000C3002A9FEF76CF90028EDD1002003AA38
:1034A000029901EA050304EB8303491CDB6842F837
:1034B0002030401C02910228F2D3039800F0030050
:1034C000022802D001284DD0A7E003985022810D98
:1034D0008946B2EB905F00D850210E4666F39F50AC
:1034E000039008315B4800F0E6F9070078D000F05F
:1034F0002BFA4346082203A9384600F06BFA0299DA
:1035000008F1080A2940681A8000001D864222D965
:103510004F4D0C3530B1C2B204EB8101301A9046E8
:103520000C3104E02946F2B2002590462846C6B286
:103530005346384600F04EFA0AEB080325B13246EE
:103540002946384600F046FA029909F1030001EBDA
:10355000900002903BE004EB81015346324638462E
:103560000C31EFE70398C0F38310062800D3062040
:10357000039960F38911C1F38310801C03918100CA
:10358000344800F098F9070047D000F0DDF94346D1
:10359000082203A9384600F01DFA08F108080026A1
:1035A0000FE00298434600EA0501401C04EB81014C
:1035B0000290042238460C3100F00CFA08F104089D
:1035C000761C0398C0F38310B042EAD847B1D4F810
:1035D0001054D4F8180478B1384600F0BBF931E043
:1035E0001BE0E8684079012804D12A68284639465A
:1035F00012689047E8680568002DF2D1384600F05F
:10360000A9F90020FDF7BCFDD4F8180408B9029808
:1036100060600020FDF7C4FD14E0D4F8104405E01C
:103620002168204689688847E0680468002CF7D143
:1036300009480A49401AC008022101EB004008A1CC
:1036400000F018F8FDF738FF80F0010001E70000F6
:10365000A40500201C7A0000147A0000E479000020
:103660004261636B656E647320666C757368656434
:103670000000000000231A4601F09CB908B50123A0
:1036800000926A4601F096F908BD1CB5CDE9002309
:1036900002236A4601F08EF91CBD70B586B00DF1AB
:1036A000280C9CE870008DE87C0005236A4601F038
:1036B00081F906B070BD00002DE9F0470E46804646
:1036C0001C469246082940D894F80C90002020739C
:1036D0001946104601F01CF80025B54206D218F82C
:1036E00005201BA12046FFF73DFB03E01AA1204661
:1036F000FFF738FB6D1C082DEFD318A12046FFF70C
:1037000031FB0025B54212D218F805707E2F08D87B
:10371000FCF712FE0068C05D10F03E0F01D03A4683
:1037200000E02E220EA12046FFF71CFB03E00DA1B6
:103730002046FFF717FB6D1C082DE3D3012221461D
:10374000504600F0C7FF84F80C90BDE8F0870000F9
:103750002025303278000000202020007C0000006E
:1037600025630000200000000B4810B5FF21816098
:10377000002101604160C0F81814C0F81414012140
:1037800080F82014054800F0E3F8002803D104482D
:1037900000F0EEFA002010BDA40500201C7A000005
:1037A000F44F000002480349401AC0087047000067
:1037B0001C7A0000E479000013B56846FEF762FF4A
:1037C00008B100201CBD0248009950F831001CBD12
:1037D000E479000070B509480125D0F8104480F85C
:1037E000205407E0E0684571216820464968884711
:1037F000E0680468002CF5D170BD0000A40500202D
:103800002DE9FF4781460C9D00200C462F7B287335
:10381000984616462946184600F07AFF072E42D2EF
:10382000DFE806F004090F161F2A3600494628462D
:10383000FFF798FA37E0494628462268FFF792FAE0
:1038400031E0D4E9002349462846FFF78BFA2AE005
:10385000A0680090D4E9002349462846FFF782FA81
:1038600021E0D4E90201CDE90001D4E90023494671
:103870002846FFF777FA16E004F1080007C88DE83C
:103880000700D4E9002349462846FFF76BFA0AE00F
:1038900004F108000FC88DE80F00D4E90023494661
:1038A0002846FFF75FFA00222946404600F012FF43
:1038B0002F73BDE8FF872DE9F041058A80462D1F53
:1038C0004819C01CB0FBF5F0C6B24046FEF714FF25
:1038D000041E19D00020207101206071E5800027AE
:1038E0002546761EC4F800800BE04046FEF704FF34
:1038F00060B16179491C6171286005467F1CC0F880
:103900000080B742F1D32046BDE8F081204600F0A8
:1039100002F80020F8E72DE9F041457901466B1ED9
:10392000002201E00968521C9A42FBD30F6801464D
:10393000002605E038460C68FEF748FF2146761C55
:10394000AE42F7D3BDE8F0810121001DFEF7B8BEFD
:10395000FEF784BF10B504460121001DFEF7C6FE28
:1039600010F0FF0F04D12046BDE81040FFF7D3BF91
:1039700010BD00001CB514460122CDE9002401AAA7
:10398000FEF70EFE0198A04203D002A1DA20FDF757
:103990009FFC1CBD2E2E5C2E2E5C2E2E5C2E2E5CD3
:1039A0002E2E5C2E2E5C2E2E5C636F6D706F6E65FE
:1039B0006E74735C6C69627261726965735C6D656B
:1039C0006D6F626A5C6E72665F6D656D6F626A2EA6
:1039D000630000001CB514460022CDE9002401AAB2
:1039E000FEF7DEFD0198A04203D002A1D020FDF732
:1039F0006FFC1CBD2E2E5C2E2E5C2E2E5C2E2E5CA3
:103A00002E2E5C2E2E5C2E2E5C636F6D706F6E659D
:103A10006E74735C6C69627261726965735C6D650A
:103A20006D6F626A5C6E72665F6D656D6F626A2E45
:103A30006300000010B5040004D105A14FF4F67036
:103A4000FDF746FC204600F061F9A168081A10BD98
:103A50002E2E5C2E2E5C2E2E5C2E2E5C2E2E5C2EA0
:103A60002E5C2E2E5C636F6D706F6E656E74735C72
:103A70006C69627261726965735C71756575655CAC
:103A80006E72665F71756575652E630070B50400B2
:103A900003D108A16420FDF71BFC2068056841687C
:103AA000204600F025F8A84201D1012070BD002079
:103AB00070BD00002E2E5C2E2E5C2E2E5C2E2E5CF9
:103AC0002E2E5C2E2E5C2E2E5C636F6D706F6E65DD
:103AD0006E74735C6C69627261726965735C717536
:103AE0006575655C6E72665F71756575652E6300E0
:103AF00070B50C46050003D105495120FDF7E8FBE0
:103B0000A868A04201D9601C70BD002070BD0000F3
:103B1000503A00002DE9F0410E4604004FF0000835
:103B200003D12CA16F20FDF7D3FB1EB929A1702072
:103B3000FDF7CEFB0020FDF723FB2046FFF7A6FF95
:103B4000070009D0207C38B14FF004080020FDF7B1
:103B500027FB4046BDE8F081206845684168204663
:103B6000FFF7C6FF2168486037B12068016820462A
:103B7000FFF7BEFF21680860E268012A14D0022A1C
:103B800016D0042A19D0082A1CD06068314605FBDB
:103B90000200FCF7D5FB204600F073FE21688A681E
:103BA0008242D3D28860D1E7616830784855F2E725
:103BB0006168308821F81500EDE76168306841F8E8
:103BC0002500E8E7D6E90001626802EBC502C2E918
:103BD0000001E0E72E2E5C2E2E5C2E2E5C2E2E5C3D
:103BE0002E2E5C2E2E5C2E2E5C636F6D706F6E65BC
:103BF0006E74735C6C69627261726965735C717515
:103C00006575655C6E72665F71756575652E6300BE
:103C10002DE9F04115460E4607004FF0000404D18F
:103C200011A140F29110FDF753FB26B90EA14FF4FC
:103C3000C970FDF74DFB4FF00000002D11D0FDF7CE
:103C40009FFA384600F01DFEA84205D32A463146A9
:103C5000384600F0E3FD00E005240020FDF7A0FA5F
:103C60002046BDE8F08100002E2E5C2E2E5C2E2E0C
:103C70005C2E2E5C2E2E5C2E2E5C2E2E5C636F6DC9
:103C8000706F6E656E74735C6C6962726172696587
:103C9000735C71756575655C6E72665F717565756F
:103CA000652E630010B5040004D109A140F2C910CB
:103CB000FDF70EFB0020FDF763FA2068002101608C
:103CC00041608160BDE810400846FDF769BA000018
:103CD0002E2E5C2E2E5C2E2E5C2E2E5C2E2E5C2E1E
:103CE0002E5C2E2E5C636F6D706F6E656E74735CF0
:103CF0006C69627261726965735C71756575655C2A
:103D00006E72665F71756575652E630010B504008F
:103D100004D108A140F2D710FDF7DAFA0020FDF730
:103D20002FFA204600F0ADFD04460020FDF738FADA
:103D3000204610BD2E2E5C2E2E5C2E2E5C2E2E5C70
:103D40002E2E5C2E2E5C2E2E5C636F6D706F6E655A
:103D50006E74735C6C69627261726965735C7175B3
:103D60006575655C6E72665F71756575652E63005D
:103D70008268002191608268116182685161826865
:103D8000D16082685160806801607047034968466D
:103D9000884201D201207047002070475012002055
:103DA0000C4A10B502F58C730EE0991AC91001EB9C
:103DB000D171491002EBC1010C68844201D90B4654
:103DC00002E005D201F108029A42EED3002010BDB4
:103DD000486810BD944E000000B5FFF7E1FF0028D1
:103DE00000D1014800BD0000804E0000405800286E
:103DF00000D00120704708B5002242504058009082
:103E000008BDD0F80403084000D001207047405896
:103E1000002800D00120704708B5002242504058C9
:103E2000009008BD0121B1EB507F01D10120704706
:103E30000020704770B50D46040003D10DA151203C
:103E4000FDF746FA204600F0DDFC04000FD000200C
:103E5000FDF796F9207920B10020FDF7A1F9112096
:103E600070BD0120256020710020FDF799F9002028
:103E700070BD00002E2E5C2E2E5C2E2E5C2E2E5C35
:103E80002E2E5C2E2E5C2E2E5C6D6F64756C657311
:103E90005C6E7266785C647269766572735C73726C
:103EA000635C7072735C6E7266785F7072732E639F
:103EB0000000000010B5040003D106A17520FDF735
:103EC00007FA204600F09EFC002802D00021016085
:103ED000017110BD2E2E5C2E2E5C2E2E5C2E2E5CC3
:103EE0002E2E5C2E2E5C2E2E5C6D6F64756C6573B1
:103EF0005C6E7266785C647269766572735C73720C
:103F0000635C7072735C6E7266785F7072732E633E
:103F10000000000001B569460548FFF7FBFD0448B5
:103F2000FFF7B4FD002801D000F0B2F808BD000092
:103F3000307A000070B50E46040003D118A1182095
:103F4000FDF7C6F91EB916A11920FDF7C1F9234DD9
:103F5000287808B1852070BD6E602078C00704D035
:103F60001F48016841F0010101601E48D0F80012AD
:103F700021F00101C0F800126478082C03D31AA1C3
:103F80004520FDF7A5F92549600181F800040120CD
:103F90004FF0E0224103C2F800112870002070BDEC
:103FA0002E2E5C2E2E5C2E2E5C2E2E5C2E2E5C2E4B
:103FB0002E5C2E2E5C6D6F64756C65735C6E726624
:103FC000785C647269766572735C7372635C6E723E
:103FD00066785F726E672E63000000004C00002060
:103FE00004D5004000D000402E2E5C2E2E5C2E2EDC
:103FF0005C2E2E5C2E2E5C2E2E5C2E2E5C696E743A
:104000006567726174696F6E5C6E7266785C6E7201
:1040100066785F676C75652E680000000DE000E053
:10402000094808B50078012803D008A13020FDF721
:104030004FF91649002214480A60096800910121CD
:10404000C0F80413016008BD4C0000202E2E5C2E29
:104050002E5C2E2E5C2E2E5C2E2E5C2E2E5C2E2E9A
:104060005C6D6F64756C65735C6E7266785C6472AF
:1040700069766572735C7372635C6E7266785F7288
:104080006E672E630000000000D0004000D10040A9
:10409000074810B50078012803D006A13820FDF7A5
:1040A00017F913490120C1F80803091D086010BD64
:1040B0004C0000202E2E5C2E2E5C2E2E5C2E2E5CB4
:1040C0002E2E5C2E2E5C2E2E5C6D6F64756C6573CF
:1040D0005C6E7266785C647269766572735C73722A
:1040E000635C6E7266785F726E672E63000000001C
:1040F00000D0004010B50B4C2078012803D00AA155
:104100003F20FDF7E5F817490120C1F80803091D14
:10411000086041034FF0E0220020C2F880112070B7
:1041200010BD00004C0000202E2E5C2E2E5C2E2E8A
:104130005C2E2E5C2E2E5C2E2E5C2E2E5C6D6F6403
:10414000756C65735C6E7266785C647269766572B4
:10415000735C7372635C6E7266785F726E672E63F7
:104160000000000000D000400149024800F0DEBC21
:104170005C030020002000402DE9F04117460D00AF
:10418000064603D11AA18420FDF7A2F83079274A08
:1041900000EB400101EBC00102EB810494F82A100E
:1041A00011B10820BDE8F081214951F82010306894
:1041B000FFF740FE08B11120F4E729463046FDF72D
:1041C00011F86760286920601FB1297F3046FDF72C
:1041D0001DFA30680421C0F800150020A061E061DC
:1041E00084F8290044F8140F0121A175DAE70000D2
:1041F0002E2E5C2E2E5C2E2E5C2E2E5C2E2E5C2EF9
:104200002E5C2E2E5C6D6F64756C65735C6E7266D1
:10421000785C647269766572735C7372635C6E72EB
:1042200066785F756172742E630000005C03002085
:10423000684E00002DE9F047054600790F4600EB77
:10424000400101EBC0002D49164601EB800494F8B3
:104250002A00012803D02AA1EF20FDF739F81FB961
:1042600027A1F020FDF734F81EB925A1F120FDF7B4
:104270002FF8284600F062F810B11120BDE8F08751
:104280004FF00008C4F82080A760666184F8288099
:104290004FF48E76474631462868FFF7ACFD286814
:1042A0004FF00109C0F808902146286800F0D6FBBD
:1042B000606808BBD5F800A00FE000BF94F82800A4
:1042C00008B10F2716E031465046FFF78FFD002852
:1042D000F4D02146504600F0C1FB216A606981425A
:1042E000F1D331462868FFF781FD0028F9D028680E
:1042F000C0F80C90C4F814803846BFE75C03002077
:104300002E2E5C2E2E5C2E2E5C2E2E5C2E2E5C2EE7
:104310002E5C2E2E5C6D6F64756C65735C6E7266C0
:10432000785C647269766572735C7372635C6E72DA
:1043300066785F756172742E63000000007900EB8F
:10434000400101EBC000044901EB800040690028F6
:1043500000D00120704700005C0300202DE9F047E9
:10436000044600794FF0000900EB400101EBC0006A
:10437000254901EB80072068C0F80095786880B176
:1043800020682249C0F808132068012140F3073053
:1043900000F01F0291404009800000F1E020C0F8C9
:1043A00080112068D0F80C25D0F81485D0F8086565
:1043B000D0F810554FF0FF31C0F81415C0F80C15A7
:1043C0002068C0F80815C0F81015501C02D010461F
:1043D000FEF792FEB8F1FF3F02D04046FEF78CFE9A
:1043E000681C02D02846FEF787FE701C02D03046BB
:1043F000FEF782FE2068FFF75DFD87F82A90C7F878
:104400000490BDE8F08700005C03002084020200F5
:104410000149024800F036BC88030020002000401B
:104420002DE9F04117460D00064603D118A1A7203B
:10443000FCF74EFF3079254A00EBC00102EB810406
:1044400094F8201011B10820BDE8F081204951F8FE
:1044500020103068FFF7EEFC08B11120F4E7294680
:104460003046FCF7FAFE6760286920601FB1297F9B
:104470003046FDF71FF930680821C0F8001500200C
:10448000A061E0616061012184F82010DCE7000098
:104490002E2E5C2E2E5C2E2E5C2E2E5C2E2E5C2E56
:1044A0002E5C2E2E5C6D6F64756C65735C6E72662F
:1044B000785C647269766572735C7372635C6E7249
:1044C00066785F75617274652E6300008803002052
:1044D0006C4E00002DE9F04704460F4600792E4946
:1044E00000EBC00001EB8005164695F8200001287E
:1044F00003D02AA1FE20FCF7EBFE1FB927A1FF2065
:10450000FCF7E6FE26B925A14FF48070FCF7E0FE2B
:10451000207908B9FF2E04D920A140F20110FCF740
:10452000D7FE3846FFF77EFC30B1204600F054F845
:1045300020B11120BDE8F0871020FBE76E61AF606D
:104540004FF49076002731462068FFF765FC4FF462
:10455000AC7841462068FFF75FFC2068AA6869696B
:10456000C0F84425C0F848152068012181606868BA
:1045700078B9B14649462068FFF749FC06464146EE
:104580002068FFF744FC0643F4D000B10F27002059
:1045900068613846CEE70000880300202E2E5C2E8E
:1045A0002E5C2E2E5C2E2E5C2E2E5C2E2E5C2E2E45
:1045B0005C6D6F64756C65735C6E7266785C64725A
:1045C00069766572735C7372635C6E7266785F7530
:1045D000617274652E6300000079054900EBC0002C
:1045E00001EB80004069002800D0012070470000E6
:1045F000880300202DE9F04704460079274900EBA5
:10460000C00001EB800720684FF00009C0F800955A
:10461000786880B120682249C0F808132068012119
:1046200040F3073000F01F0291404009800000F184
:10463000E020C0F880112068D0F80C25D0F814854F
:10464000D0F80865D0F810554FF0FF31C0F80C15C0
:10465000C0F814152068C0F80815C0F81015501CD3
:1046600002D01046FEF751FDB8F1FF3F02D04046A0
:10467000FEF74BFD681C02D02846FEF746FD701C75
:1046800002D03046FEF741FD2068FFF713FC87F8A3
:104690002090C7F80490BDE8F08700008803002050
:1046A0001003020010B514460A4600F10801104636
:1046B000FBF79CFE20202060002010BD10B50830C4
:1046C000FBF784FF002010BD10B50830FCF724F87C
:1046D000002010BD10B50C46017A052908D0407A9B
:1046E00038B1084808A102682046FEF73BFB00E00D
:1046F0001AB106A12046FEF735FB2046BDE8104062
:10470000FEF770BBB0000020257300000D0A00000A
:1047100038B5C3880D46044633B114A0009015A2E5
:1047200016A12846FEF71EFB217A05291CD0607AC7
:1047300048B1A088FEF746FE164951F8202016A180
:104740002846FEF70FFBA0880021FFF735F8034647
:104750001049207A143951F8202001B02846BDE8CC
:1047600030400EA1FEF7FEBA38BD00001B5B306D75
:10477000000000001B5B313B33316D0025734C6F33
:1047800067732064726F7070656420282564292522
:10479000730D0A00B0000020257300003C25733E15
:1047A0002025733A200000002DE9F0410E4607460F
:1047B00009480A490024401AC008052101EB0045B8
:1047C00005E03A5D284606A1FEF758FF641CB44296
:1047D000F7D3BDE8F0810000147A0000E47900000E
:1047E0002530327800000000EFF30580C005C00DD1
:1047F00001D001207047EFF3148040F30000401C0B
:10480000704700000349884201D1034870470020E7
:104810007047000000200040440000202DE9F041D6
:10482000044600681746884605684068854201D8F6
:10483000461B02E0A068461B761CE2686068B7422F
:1048400005FB02010CD87A434046FBF779FDA168CD
:10485000E819884200D9002021680860BDE8F0818D
:1048600002FB06F52A464046FBF76AFDE268BE1BDE
:10487000724308EB05006168FBF762FD2068066083
:10488000ECE701680A684968914201D3881A7047C9
:104890008068801A0844401C704710F1380F07D018
:1048A00010F1360F07D0002801D048F2165070479B
:1048B00048F21150704748F21450704770B50546E1
:1048C00088690C4600284FF4847128460AD0FFF707
:1048D00092FAD5F81805626AE1688854606A401C4B
:1048E000606270BDFFF787FAD5F8180570BD1FB577
:1048F00001238DF80030CDE90121D0E9001268468E
:1049000090471FBD1FB501238DF80030CDE901216F
:10491000D0E90012684690471FBD00002DE9F04124
:104920001400884618D000250E4F032608EB050119
:1049300022460020FCF7E6F80544241A40B93878EE
:10494000002809D008494FF47A408847761E05D0E0
:1049500001203870002CE9D1BDE8F08100203870CA
:10496000FAE7000058000020C14F000070B50E4C5F
:104970000020D2B22070201D0C4D0378EB5C1BB1DF
:10498000001DFFF7A7FD02E00C30FFF753FC18B144
:10499000074A2D21FBF73EFC6078002802D02178E1
:1049A0000029FAD070BD00005C0000203800002013
:1049B000007700002DE9F84FDFF89880924689468D
:1049C00005461F46012269461846D8F80860FCF7DC
:1049D00017FDB0B3009800210446801C0AE000BF18
:1049E00000EA06025AF821C008EB8202401C491C6A
:1049F000C2F80CC0B942F3D3BA462F0CFCF7A0FDA5
:104A00008346FEF7CFFEB84204D8134940F27D102A
:104A1000FCF75EFC601C304008EB8000344047EA45
:104A20000B4208EB8401C260C86865F3C5006AF3F5
:104A3000891069F39F2020F00300401C20F004003F
:104A4000C86098F8200401E0FEF7FCFC0028FBD1C8
:104A5000BDE8F88FA40500209C77000070B50C46D7
:104A600005464FF48E71FFF7C6F9216AA068415CD4
:104A7000206A401C2062C5F81C1570BD1FB50022BD
:104A80008DF800200291816801914261D0E9001205
:104A9000684690471FBD00001FB50A4601788DF893
:104AA000001041680191017A8DF80810C0680390E8
:104AB000044850F82210001F50F822206846904702
:104AC0001FBD000040000020014901200870704710
:104AD0005C00002010B588B0044620220F496846CB
:104AE000FBF72EFC06200090C01F0190029003905F
:104AF0004FF0EB7006900CB1094A00E000226946C5
:104B00000848FEF7FBF818B1074A1D21FBF782FBA6
:104B10000448001F447008B010BD0000D44F0000CE
:104B2000C94A000060000020007700002DE9FF471F
:104B30000C4605464FF40071FFF763F901274FF467
:104B40000178002618B34FF4927949462846FFF7BA
:104B50004DF9E0B149462846FFF74DF9C5F80883FD
:104B600094F8290000B96F6002208DF80000D5F894
:104B70008004C5F880040390A0690290E068019069
:104B8000A661E661D4E900126846904728E0042156
:104B90002846FFF736F918B34FF484712846FFF71B
:104BA00025F9E8B121462846FFF788FE616AA06929
:104BB000884215D1E06938B1E268616AA061206974
:104BC000E6616662E06008E094F8290000B96F6071
:104BD000C5F80883A661E268616A2046FFF787FE90
:104BE0004FF48E7841462846FFF700F978B1206AE5
:104BF0006169884202D294F8280020B341462846D1
:104C0000FFF7F9F8616911B12046FFF737FF4FF45C
:104C1000A27841462846FFF7E9F8002818D0414617
:104C20002846FFF7E8F894F8290000B12F60A06942
:104C300000280DD0A661E268616A04B02046BDE894
:104C4000F047FFF754BE21462846FFF707FFDEE78F
:104C5000BDE8FF871FB50A4601788DF8001041684E
:104C60000191017A8DF80810C0680390044850F84B
:104C70002210001F50F82220684690471FBD0000F8
:104C8000400000202DE9FF410C464FF49277064684
:104C90003946FFF7BCF80025B8B139463046FFF772
:104CA000BBF802208DF80000D6F88004C6F8800416
:104CB0000390D6F83C050290E0680190A561E5619B
:104CC000D4E900126846904723E04FF488773946CC
:104CD0003046FFF79CF8E0B139463046FFF79CF8C4
:104CE000D6F83C15A069884213D1E06960B1E2684A
:104CF000D6F8000220F02000C6F80002E069A061AA
:104D00002069E561E06001E0A561E2682046FFF707
:104D1000F9FD4FF4A27739463046FFF778F868B1CD
:104D200039463046FFF778F8A06938B1A561E561EA
:104D3000D6F83C152046E268FFF7E4FD4FF4907783
:104D400039463046FFF763F8002812D0394630461E
:104D5000FFF762F8606900280BD0D6F84C058DF893
:104D600000500290A06801906561D4E90012684685
:104D70009047BDE8FF8100002DE9F05F8346DDE943
:104D80000A4A994690460D460846012703E000BFAF
:104D9000B0FBF8F07F1C4045FAD2B94500D94F4628
:104DA0005FEACA7012D18CB15FEA8A7002D5B9F19C
:104DB000000F01D0202607E0302605E03146584696
:104DC000641EFCF761FB0CB1A742F7D35FF001064C
:104DD000B9F1010F02D9A9F1010903E0B5FBF6F021
:104DE000404502D306FB08F6F2E7DFF83C9000BF2F
:104DF000B5FBF6F000FB165519F800105846FCF705
:104E000043FBB6FBF8F6002EF2D15FEACA7009D078
:104E1000002C07D0A74205D220215846641EFCF77B
:104E200033FBF5E7BDE8F09F704E000030B100683D
:104E30000549884205D048F20250704748F20150B7
:104E400070470020704700006E524648BD46000083
:104E5000C9460000A54600002000000070000000C8
:104E6000000000000106000069410000114400003C
:104E70003031323334353637383941424344454690
:104E8000556E6B6E6F776E206572726F7220636FF6
:104E90006465000000000000A4760000010000002E
:104EA0006475000002000000587300000300000059
:104EB000D8750000040000002C76000005000000FA
:104EC0000C75000006000000A87400000700000038
:104ED00014760000080000002075000009000000A2
:104EE000847500000A0000008C7600000B000000B2
:104EF000407300000C000000387500000D00000039
:104F0000DC7600000E000000047600000F000000B8
:104F100040760000100000007476000011000000D0
:104F2000F076000080000000C074000081000000E6
:104F3000FC73000082000000BC73000083000000CE
:104F40009C73000084000000D873000085000000FE
:104F5000E474000086000000EC7500009000000082
:104F600088740000910000007C7300009200000033
:104F70004C750000008200005476000001820000A1
:104F8000A075000002820000BC75000000840000D3
:104F90001874000001840000B07600000284000054
:104FA00060740000038400003C740000993200002B
:104FB0009732000091320000000000000000000065
:104FC0000338FDD870470000AD3300008133000086
:104FD00079330000FFFFFFFFFFFFFFFFFFFFFFFF31
:104FE000FFFFFFFF00000000000000000000D601EE
:104FF000060100000C0500207F0000008C05002049
:10500000637C777BF26B6FC53001672BFED7AB7685
:10501000CA82C97DFA5947F0ADD4A2AF9CA472C030
:10502000B7FD9326363FF7CC34A5E5F171D831159D
:1050300004C723C31896059A071280E2EB27B275BE
:1050400009832C1A1B6E5AA0523BD6B329E32F8436
:1050500053D100ED20FCB15B6ACBBE394A4C58CF2E
:10506000D0EFAAFB434D338545F9027F503C9FA802
:1050700051A3408F929D38F5BCB6DA2110FFF3D2D0
:10508000CD0C13EC5F974417C4A77E3D645D197384
:1050900060814FDC222A908846EEB814DE5E0BDB7E
:1050A000E0323A0A4906245CC2D3AC629195E479B5
:1050B000E7C8376D8DD54EA96C56F4EA657AAE080F
:1050C000BA78252E1CA6B4C6E8DD741F4BBD8B8AAA
:1050D000703EB5664803F60E613557B986C11D9E10
:1050E000E1F8981169D98E949B1E87E9CE5528DF87
:1050F0008CA1890DBFE6426841992D0FB054BB16B3
:10510000C66363A5F87C7C84EE777799F67B7B8D0C
:10511000FFF2F20DD66B6BBDDE6F6FB191C5C5545A
:105120006030305002010103CE6767A9562B2B7DFA
:10513000E7FEFE19B5D7D7624DABABE6EC76769AB3
:105140008FCACA451F82829D89C9C940FA7D7D8761
:10515000EFFAFA15B25959EB8E4747C9FBF0F00B3D
:1051600041ADADECB3D4D4675FA2A2FD45AFAFEAC9
:10517000239C9CBF53A4A4F7E47272969BC0C05BAF
:1051800075B7B7C2E1FDFD1C3D9393AE4C26266A70
:105190006C36365A7E3F3F41F5F7F70283CCCC4F51
:1051A0006834345C51A5A5F4D1E5E534F9F1F10892
:1051B000E2717193ABD8D873623131532A15153F20
:1051C0000804040C95C7C752462323659DC3C35EDC
:1051D00030181828379696A10A05050F2F9A9AB508
:1051E0000E070709241212361B80809BDFE2E23D86
:1051F000CDEBEB264E2727697FB2B2CDEA75759FBE
:105200001209091B1D83839E582C2C74341A1A2EE4
:10521000361B1B2DDC6E6EB2B45A5AEE5BA0A0FB9F
:10522000A45252F6763B3B4DB7D6D6617DB3B3CE92
:105230005229297BDDE3E33E5E2F2F71138484978F
:10524000A65353F5B9D1D16800000000C1EDED2C93
:1052500040202060E3FCFC1F79B1B1C8B65B5BED78
:10526000D46A6ABE8DCBCB4667BEBED97239394B84
:10527000944A4ADE984C4CD4B05858E885CFCF4A6F
:10528000BBD0D06BC5EFEF2A4FAAAAE5EDFBFB160A
:10529000864343C59A4D4DD7663333551185859462
:1052A0008A4545CFE9F9F91004020206FE7F7F81A5
:1052B000A05050F0783C3C44259F9FBA4BA8A8E3EF
:1052C000A25151F35DA3A3FE804040C0058F8F8A99
:1052D0003F9292AD219D9DBC70383848F1F5F504A0
:1052E00063BCBCDF77B6B6C1AFDADA7542212163A1
:1052F00020101030E5FFFF1AFDF3F30EBFD2D26D80
:1053000081CDCD4C180C0C1426131335C3ECEC2FA7
:10531000BE5F5FE1359797A2884444CC2E171739BA
:1053200093C4C45755A7A7F2FC7E7E827A3D3D47C1
:10533000C86464ACBA5D5DE73219192BE6737395E6
:10534000C06060A0198181989E4F4FD1A3DCDC7FA3
:1053500044222266542A2A7E3B9090AB0B88888395
:105360008C4646CAC7EEEE296BB8B8D32814143C55
:10537000A7DEDE79BC5E5EE2160B0B1DADDBDB76D5
:10538000DBE0E03B64323256743A3A4E140A0A1EAD
:10539000924949DB0C06060A4824246CB85C5CE49C
:1053A0009FC2C25DBDD3D36E43ACACEFC46262A6F4
:1053B000399191A8319595A4D3E4E437F279798BAA
:1053C000D5E7E7328BC8C8436E373759DA6D6DB70A
:1053D000018D8D8CB1D5D5649C4E4ED249A9A9E0E2
:1053E000D86C6CB4AC5656FAF3F4F407CFEAEA255D
:1053F000CA6565AFF47A7A8E47AEAEE91008081830
:105400006FBABAD5F07878884A25256F5C2E2E724F
:10541000381C1C2457A6A6F173B4B4C797C6C6514E
:10542000CBE8E823A1DDDD7CE874749C3E1F1F21DE
:10543000964B4BDD61BDBDDC0D8B8B860F8A8A855B
:10544000E07070907C3E3E4271B5B5C4CC6666AAF1
:10545000904848D806030305F7F6F6011C0E0E1215
:10546000C26161A36A35355FAE5757F969B9B9D0E2
:105470001786869199C1C1583A1D1D27279E9EB94E
:10548000D9E1E138EBF8F8132B9898B322111133D6
:10549000D26969BBA9D9D970078E8E89339494A734
:1054A0002D9B9BB63C1E1E2215878792C9E9E920D9
:1054B00087CECE49AA5555FF50282878A5DFDF7A38
:1054C000038C8C8F59A1A1F8098989801A0D0D17B9
:1054D00065BFBFDAD7E6E631844242C6D06868B815
:1054E000824141C3299999B05A2D2D771E0F0F1172
:1054F0007BB0B0CBA85454FC6DBBBBD62C16163A6F
:10550000A5C6636384F87C7C99EE77778DF67B7B08
:105510000DFFF2F2BDD66B6BB1DE6F6F5491C5C556
:105520005060303003020101A9CE67677D562B2BF6
:1055300019E7FEFE62B5D7D7E64DABAB9AEC7676AF
:10554000458FCACA9D1F82824089C9C987FA7D7D5D
:1055500015EFFAFAEBB25959C98E47470BFBF0F039
:10556000EC41ADAD67B3D4D4FD5FA2A2EA45AFAFC5
:10557000BF239C9CF753A4A496E472725B9BC0C0AB
:10558000C275B7B71CE1FDFDAE3D93936A4C26266C
:105590005A6C3636417E3F3F02F5F7F74F83CCCC4D
:1055A0005C683434F451A5A534D1E5E508F9F1F18E
:1055B00093E2717173ABD8D8536231313F2A15151C
:1055C0000C0804045295C7C7654623235E9DC3C3D8
:1055D00028301818A13796960F0A0505B52F9A9A04
:1055E000090E0707362412129B1B80803DDFE2E282
:1055F00026CDEBEB694E2727CD7FB2B29FEA7575BA
:105600001B1209099E1D838374582C2C2E341A1AE0
:105610002D361B1BB2DC6E6EEEB45A5AFB5BA0A09B
:10562000F6A452524D763B3B61B7D6D6CE7DB3B38E
:105630007B5229293EDDE3E3715E2F2F971384848B
:10564000F5A6535368B9D1D1000000002CC1EDED8F
:10565000604020201FE3FCFCC879B1B1EDB65B5B74
:10566000BED46A6A468DCBCBD967BEBE4B72393980
:10567000DE944A4AD4984C4CE8B058584A85CFCF6B
:105680006BBBD0D02AC5EFEFE54FAAAA16EDFBFB06
:10569000C5864343D79A4D4D55663333941185855E
:1056A000CF8A454510E9F9F90604020281FE7F7FA1
:1056B000F0A0505044783C3CBA259F9FE34BA8A8EB
:1056C000F3A25151FE5DA3A3C08040408A058F8F95
:1056D000AD3F9292BC219D9D4870383804F1F5F59C
:1056E000DF63BCBCC177B6B675AFDADA634221219D
:1056F000302010101AE5FFFF0EFDF3F36DBFD2D27C
:105700004C81CDCD14180C0C352613132FC3ECECA3
:10571000E1BE5F5FA2359797CC884444392E1717B6
:105720005793C4C4F255A7A782FC7E7E477A3D3DBD
:10573000ACC86464E7BA5D5D2B32191995E67373E2
:10574000A0C0606098198181D19E4F4F7FA3DCDC9F
:10575000664422227E542A2AAB3B9090830B888891
:10576000CA8C464629C7EEEED36BB8B83C28141451
:1057700079A7DEDEE2BC5E5E1D160B0B76ADDBDBD1
:105780003BDBE0E0566432324E743A3A1E140A0AA9
:10579000DB9249490A0C06066C482424E4B85C5C98
:1057A0005D9FC2C26EBDD3D3EF43ACACA6C46262F0
:1057B000A8399191A431959537D3E4E48BF27979A6
:1057C00032D5E7E7438BC8C8596E3737B7DA6D6D06
:1057D0008C018D8D64B1D5D5D29C4E4EE049A9A9DE
:1057E000B4D86C6CFAAC565607F3F4F425CFEAEA59
:1057F000AFCA65658EF47A7AE947AEAE181008082C
:10580000D56FBABA88F078786F4A2525725C2E2E4B
:1058100024381C1CF157A6A6C773B4B45197C6C64A
:1058200023CBE8E87CA1DDDD9CE87474213E1F1FDA
:10583000DD964B4BDC61BDBD860D8B8B850F8A8A57
:1058400090E07070427C3E3EC471B5B5AACC6666ED
:10585000D89048480506030301F7F6F6121C0E0E11
:10586000A3C261615F6A3535F9AE5757D069B9B9DE
:10587000911786865899C1C1273A1D1DB9279E9E4A
:1058800038D9E1E113EBF8F8B32B989833221111D2
:10589000BBD2696970A9D9D989078E8EA733949430
:1058A000B62D9B9B223C1E1E9215878720C9E9E9D5
:1058B0004987CECEFFAA5555785028287AA5DFDF34
:1058C0008F038C8CF859A1A180098989171A0D0DB5
:1058D000DA65BFBF31D7E6E6C6844242B8D0686811
:1058E000C3824141B0299999775A2D2D111E0F0F6E
:1058F000CB7BB0B0FCA85454D66DBBBB3A2C16166B
:1059000063A5C6637C84F87C7799EE777B8DF67B04
:10591000F20DFFF26BBDD66B6FB1DE6FC55491C552
:10592000305060300103020167A9CE672B7D562BF2
:10593000FE19E7FED762B5D7ABE64DAB769AEC76AB
:10594000CA458FCA829D1F82C94089C97D87FA7D59
:10595000FA15EFFA59EBB25947C98E47F00BFBF035
:10596000ADEC41ADD467B3D4A2FD5FA2AFEA45AFC1
:105970009CBF239CA4F753A47296E472C05B9BC0A7
:10598000B7C275B7FD1CE1FD93AE3D93266A4C2668
:10599000365A6C363F417E3FF702F5F7CC4F83CC49
:1059A000345C6834A5F451A5E534D1E5F108F9F18A
:1059B0007193E271D873ABD831536231153F2A1518
:1059C000040C0804C75295C723654623C35E9DC3D4
:1059D0001828301896A13796050F0A059AB52F9A00
:1059E00007090E0712362412809B1B80E23DDFE27E
:1059F000EB26CDEB27694E27B2CD7FB2759FEA75B6
:105A0000091B1209839E1D832C74582C1A2E341ADC
:105A10001B2D361B6EB2DC6E5AEEB45AA0FB5BA097
:105A200052F6A4523B4D763BD661B7D6B3CE7DB38A
:105A3000297B5229E33EDDE32F715E2F8497138487
:105A400053F5A653D168B9D100000000ED2CC1ED8B
:105A500020604020FC1FE3FCB1C879B15BEDB65B70
:105A60006ABED46ACB468DCBBED967BE394B72397C
:105A70004ADE944A4CD4984C58E8B058CF4A85CF67
:105A8000D06BBBD0EF2AC5EFAAE54FAAFB16EDFB02
:105A900043C586434DD79A4D33556633859411855A
:105AA00045CF8A45F910E9F9020604027F81FE7F9D
:105AB00050F0A0503C44783C9FBA259FA8E34BA8E7
:105AC00051F3A251A3FE5DA340C080408F8A058F91
:105AD00092AD3F929DBC219D38487038F504F1F598
