:020000040000FA
:10000000B8280020F90200000103000003030000EB
:1000100005030000070300000903000000000000C2
:100020000000000000000000000000000B030000C2
:100030000D030000000000000F030000110300008A
:100040001303000013030000ED050000130300007C
:100050001303000013030000130300001303000048
:100060001303000013030000130300001303000038
:100070001303000013030000130300001303000028
:100080001303000013030000130300001303000018
:100090001303000013030000130300001303000008
:1000A00013030000130300001303000013030000F8
:1000B0001303000013030000000000000000000014
:1000C00013030000130300001303000013030000D8
:1000D00013030000130300001303000013030000C8
:1000E00013030000DD030000130300000000000004
:1000F00000000000130300000000000013030000D4
:1001000000000000000000000000000000000000EF
:1001100000000000000000000000000000000000DF
:1001200000000000000000000000000000000000CF
:1001300000000000000000000000000000000000BF
:1001400000000000000000000000000000000000AF
:10015000000000000000000000000000000000009F
:10016000000000000000000000000000000000008F
:10017000000000000000000000000000000000007F
:10018000000000000000000000000000000000006F
:10019000000000000000000000000000000000005F
:1001A000000000000000000000000000000000004F
:1001B000000000000000000000000000000000003F
:1001C000000000000000000000000000000000002F
:1001D000000000000000000000000000000000001F
:1001E000000000000000000000000000000000000F
:1001F00000000000000000000000000000000000FF
:10020000DFF80CD000F0D8F800480047FD0A0000E5
:10021000B828002030B4044654E8000F0D4644E8E6
:100220000053002BF8D1156030BC704730B4044641
:1002300054E8000F40EA010544E80053002BF7D1D1
:10024000156030BC704730B4044654E8000F00EA33
:10025000010544E80053002BF7D1156030BC70470E
:1002600030B4044654E8000F80EA010544E8005326
:10027000002BF7D1156030BC704730B4044654E809
:10028000000F00EB010544E80053002BF7D1156087
:1002900030BC704730B4044654E8000FA0EB0105B1
:1002A00044E80053002BF7D1156030BC704770B4A0
:1002B00004464FF0000054E8006F0D68AE4207BFDF
:1002C00044E80023012044E800630E60002B1CBFBB
:1002D0000020F0E770BC704730B4044654E8000FCB
:1002E00088422CBF451A054644E80053002BF5D13F
:1002F000156030BC7047000006488047064800473C
:10030000FEE7FEE7FEE7FEE7FEE7FEE7FEE7FEE7C5
:10031000FEE7FEE7110400000102000000487047FC
:10032000042800000649074A0868504343F239028E
:100330001044086040087047014908607047000099
:10034000980000206D4EC64140EA01039B0703D090
:1003500009E008C9121F08C0042AFAD203E011F804
:10036000013B00F8013B521EF9D27047D2B201E0C6
:1003700000F8012B491EFBD270470022F6E710B5AA
:1003800013460A4604461946FFF7F0FF204610BD03
:10039000421C10F8011B0029FBD1801A704730B5B0
:1003A00004460020034600E05B1C934203D2E05C5D
:1003B000CD5C401BF8D030BD064C074D06E0E06830
:1003C00040F0010394E8070098471034AC42F6D39C
:1003D000FFF71AFF9C280000BC28000010B50A4C4B
:1003E0004FF48071204601F07CFA00280AD00748BB
:1003F00000214171C4F8001102688168BDE8104015
:100400000020104710BD0000009002409C02002018
:1004100030B54FF0805000228300D0F83011C3F87F
:100420000C21C3F81021624B1A60624B1B68624CAE
:100430002360604B1B1D1B68241D23605D4B08332C
:100440001B68241D23605B4B0C331B68241D236039
:10045000584B10331B68241D2360564B14331B6804
:10046000241D2360534B18331B68534C20342360E6
:10047000504B1C331B68241D23604E4B20331B68DC
:10048000241D23604B4B24331B68241D2360494BE0
:1004900028331B68241D2360464B2C331B68241D06
:1004A0002360444B30331B68434C40342360414B42
:1004B00034331B68241D23603E4B38331B68241DD6
:1004C00023603C4B3C331B68241D2360394B403375
:1004D0001B68241D23600123082902D1D0F8344170
:1004E00014B1082904D006E0354C3449216005E0F8
:1004F000D0F8344114B1082904D006E0314CFB2176
:10050000216005E0D0F8344114B1082908D00EE08C
:1005100090F858422C48016864F30301016002E03E
:10052000D0F834411CB929494FF4007008602848BC
:100530000168C90702D06FF0010101602548016818
:1005400041F470010160BFF34F8FBFF36F8F4FF025
:100550001021D1F80002002803DBD1F804020028A2
:1005600022DA1D4C23601D480368002BFCD01223A7
:10057000C1F800320568002DFCD0C1F804320168D2
:100580000029FCD0226001680029FCD0BFF34F8F06
:1005900010487C380168124A01F4E061114301609F
:1005A000BFF34F8F00BFFDE70F490E48086030BD15
:1005B000380500400404001020C5004048810300B5
:1005C0008C56004018F50040E40E00404096024072
:1005D0000004004088ED00E004E5014000E4014033
:1005E0000400FA050090D003940000200148006840
:1005F000004700001800002002E008C8121F08C1D0
:10060000002AFAD170477047002001E001C1121F93
:10061000002AFBD17047000072B601F083F800BFDA
:1006200000F0D6FE0028FBD111481249401AC40838
:10063000012000EB044010A100F0E2FF1148006827
:10064000C00700D000BE022000EB04400EA100F065
:10065000D7FFBFF34F8F0B48E43801680E4A01F40F
:10066000E06111430160BFF34F8F00BFFDE7000061
:10067000E4280000CC280000466174616C2065729B
:10068000726F7200F0ED00E053797374656D207243
:1006900065736574000000000400FA050EB50021C2
:1006A0000091CDE901106A4644F20100FFF7B4FF62
:1006B0000EBD00F003B800F009B8000072B60248A1
:1006C0000168491C01607047200000200349086848
:1006D000401E086000D162B6704700002000002074
:1006E00070B5054608680C46411C04D000F07EFD3C
:1006F000206800F04BFD6068411C02D0002100F032
:1007000033FD2968A069C1F82405607D227D296830
:100710001043C1F86C05D4E900122868C0F814250C
:10072000C0F80C15207D012814D1A068411C02D00E
:10073000002100F019FDE068411C04D000F056FDD6
:10074000E06800F023FDD4E902122868C0F808250B
:10075000C0F8101570BD70B5054608680C46411C00
:1007600004D000F04DFD206800F01AFD6068411CC7
:1007700002D0002100F001FD2968A069C1F824051C
:10078000607D217D2A680843C2F86C05D4E9001217
:100790002868C0F80C15C0F81425207D012814D154
:1007A000A068411C02D0002100F0E7FCE068411C79
:1007B00004D000F025FDE06800F0F2FCD4E902125C
:1007C0002868C0F80825C0F8101570BD2DE9F0475D
:1007D0000546861C90460F464FF001090020FFF7A2
:1007E00068FF1B4C20683860D4E90001401AA168FA
:1007F00004F21C47081A0EE00121384600F0CEFA38
:1008000000F02EF90146384600F0C8FAD4E900019C
:10081000401AA168081A401C8642EDD8B8F1000FB2
:1008200003D0052065F3891002E0062065F39F5090
:10083000A2682168114004EB8101C860206830443F
:1008400020600020FFF737FF4846BDE8F087000032
:100850009004002070B50D4604460A2902D10D21EE
:10086000FFF7F8FFA0682268411CA1601554D4E985
:100870000101814204D32046BDE8704000F037BB3F
:1008800070BD0000034803C8814201D101207047B8
:1008900000207047900400200EB5154940208DF8C7
:1008A0000800D1E90001CDE90001002211466846A7
:1008B00001F080F808B1FFF7F1FE99208DF80000F3
:1008C00000221146684601F075F808B1FFF7E6FE10
:1008D00001208DF8000002208DF80100002202A9FD
:1008E000684601F067F8002801D0FFF7D7FE0EBD7B
:1008F000FC26000010B50021024800F05AFA80F3EF
:10090000100010BDAC0800202DE9FC5F0E008346EE
:10091000DDE90C47C6F1000098469246814600D4B6
:100920000846012503E000BF90FBFAF06D1C50451E
:10093000FADAA84500D9454624B1002E01DB780734
:1009400000D5641EB80702D5B8F1000F0AD0F80729
:1009500008D13CB1A54205D220215846641EFFF7BC
:1009600079FFF6E7002E02DA4E462D2102E07807E5
:1009700003D52B215846FFF76DFF07F0030002282F
:100980000BD1B8F1000F08D13CB1A54205D23021FE
:100990005846641EFFF75EFFF6E7CDE90047434681
:1009A00052463146584601F04FFEBDE8FC9F00001C
:1009B00070B50D46044600684FF4887100F0BAFF28
:1009C0004FF49071206800F0B5FF4FF492712068E9
:1009D00000F0B0FF4FF4A271206800F0ABFF206878
:1009E0001149C0F804132068690740F30730090E65
:1009F000002806DA00F00F0000F1E02080F8141D56
:100A000003E000F1E02080F800142068012140F3A9
:100A1000073000F01F0291404009800000F1E02003
:100A2000C0F8001170BD0000100302000246002053
:100A30001268530713D502F00300012802D00228E0
:100A40000CD105E0C2F383100B68801C184404E04D
:100A50000223086803EB925210440860012070479B
:100A60002DE9FF410026234800F095F92148001F99
:100A7000074600F090F9204C60680090A56800E0FF
:100A800000986946284004EB80000C30FFF7CEFF49
:100A90000028F5D101AA009901EA050304EB8303BC
:100AA000491CDB6842F82030401C00910228F2D338
:100AB000019800F0030001280BD0022810D1019802
:100AC000032101EB90500099BDF80A6001EB900002
:100AD00005E00198BDF80A60C0F383100844009057
:100AE000384600F055F908B10098606004B030460F
:100AF000BDE8F081A808002090040020002186B005
:100B0000084600F0D9FD08B1FFF7C8FD00F052FC1F
:100B100037483849401AC108032000EB0140044619
:100B200035A100F06DFD0020FFF706FC0025404ECA
:100B3000FFF7F8FB70556D1CFF2DF9D914223D49C4
:100B40006846FFF701FC00223B49684600F0BCFF05
:100B500008B1FFF7A3FD204638A100F051FDFFF7D3
:100B60009BFE3C4D00262E703146012000F0A2FF76
:100B700008B1FFF793FD28780028FCD02E7020469E
:100B800035A100F03DFD4FF480770022394628481A
:100B900001F036F808B1FFF781FD28780028FCD075
:100BA0002E70204636A100F02BFD002239463C482D
:100BB00000F0F6FF28780028FCD02E70204639A1DE
:100BC00000F01EFD20463AA100F01AFD3A463449D5
:100BD0001748FFF7E4FB0028204606D037A100BFE6
:100BE00000F00EFD00F0F4FFFEE739A1F8E7000089
:100BF000E4280000CC280000515350492077726946
:100C0000746520616E642072656164206578616D31
:100C1000706C65207573696E672032346269742068
:100C200061646472657373696E67206D6F646500DB
:100C30009C000020042700004D2100005153504922
:100C4000206578616D706C65207374617274656481
:100C50002E0000000000002050726F636573732047
:100C60006F662065726173696E672066697273745E
:100C700020626C6F636B20737461727400000000FB
:100C800050726F63657373206F6620777269746941
:100C90006E67206461746120737461727400000077
:100CA0009C01002044617461207265616400000051
:100CB000436F6D706172652E2E2E00004461746169
:100CC00020696E636F6E73697374656E74000000E3
:100CD0004461746120636F6E73697374656E740030
:100CE0002DE9F047C5881E1DB6FBF5F78946B6FB12
:100CF000F5F1044605FB176C407916686843DDF88A
:100D000020A0F718001F874200D9C61A166001E01C
:100D10002468491E0029FBD1A5EB0C078846B74281
:100D200016D818E004EB0C00001D09EB0803BAF11B
:100D3000000F3A4602D00146184600E01946FFF778
:100D400003FB2468F61B4FF0000CB844B54201D9F0
:100D5000374600E02F46002EE4D1BDE8F0870000C2
:100D600030B5024651B100F0C5FC0021074C08E047
:100D700034F821301568AB4202D11160002030BD3B
:100D8000491C8142F4D3052030BD00000000000062
:100D9000002100F009B8012100F010B808B56A463A
:100DA000FFF76BFA009808BD08B56A46FFF74BFAE3
:100DB00008BD08B56A46FFF72DFA08BD08B56A46B2
:100DC000FFF734FA009808BD08B56A46FFF762FAE3
:100DD000009808BD70B5044600252846FFF769FC59
:100DE00021686268086890420ED9401E0860017848
:100DF000238AE26801FB0325227A2168101AC0B217
:100E00000A79824200D208710020FFF754FC28467C
:100E100070BD70B505460C460020FFF74AFCE86837
:100E2000298A201AB0FBF1F12A681068431C13606C
:100E30000170BDE870400020FFF73DBC10B530B137
:100E4000017A42680368891AC9B21A6006E00E2066
:100E500010BD03681A68541C1C601170491EC9B289
:100E6000F7D2006800210171084610BDF0B50546B3
:100E70000478154889B0164640F82420124A0869BB
:100E80000832A2F10C0742F82400487F385520228E
:100E90006846FFF759FA04942878385C48B10EB1D7
:100EA0000A4A00E000226946281D00F0F5FF09B05B
:100EB000F0BD0EB1064A00E00022694605F10C00C3
:100EC00000F0BEFEF3E7000008000020252500002A
:100ED000712300000FB408B50399002904D004AAB7
:100EE00000926A4600F00FF801B05DF814FB10B5EF
:100EF00082680446002A05D0D4E904032168984793
:100F00000020A06010BD2DE9FC4791460C008046F2
:100F100076D014F8011B39B125290ED04046FFF7D1
:100F200099FC20780028F4D198F80C00002867D0AC
:100F30004046BDE8FC47FFF7DABF002001222178D8
:100F40002B291BD02D2902D0302908D102E040F0F6
:100F5000010001E040F00200641C002AEFD10025EE
:100F60002A290ED02178A1F130020A2A11D205EBEC
:100F7000850201EB4205641C303DF1E740F00400BE
:100F8000EAE7D9F800100B1DC9F800300968641CA5
:100F90000D44217800232E290BD114F8011FA1F153
:100FA00030020A2A05D203EB830201EB4203303BF5
:100FB000F3E76C290DD068290BD0692921D00BDC0F
:100FC000252918D0582931D063290ED0642915D18C
:100FD00017E014F8011FECE7702969D0732932D0AB
:100FE00075291BD0782909D120E0D9F80000011D0E
:100FF000C9F8001001784046FFF72CFC641C90E70C
:101000006CE0D9F800100A1DC9F800200968CDE984
:1010100000500A224046FFF777FCEFE7D9F80010AE
:101020000A1DC9F8002009680A2206E0D9F8001054
:101030000A1DC9F8002009681022CDE90050404679
:1010400001F002FBDAE7D9F8001000270A1DC9F801
:1010500000200E68C00705D112E04046761C7F1CB8
:10106000FFF7F8FB31780029F7D104E02021404652
:101070006D1EFFF7EFFBBD42C0D9002DF6D1BDE7D5
:101080004EB13046FFF784F9074604E02021404680
:101090006D1EFFF7DFFBBD4206D9002DF6D103E040
:1010A0004046761CFFF7D6FB31780029F8D1A5E73A
:1010B000D9F80000011DC9F800100568302140462C
:1010C000FFF7C8FB78214046FFF7C4FB082000214A
:1010D000CDE90001034610222946B0E7BDE8FC87B0
:1010E0002DE9FF411C46DDE90A7815460E466846A3
:1010F00000F060F846EA450141EA840141EA07222E
:1011000042EA0841009A00EB8200C0F80017BDE8EF
:10111000FF812DE9FF411C46DDE90A7815460E46A0
:10112000684600F055F846EA450141EA840141EA83
:10113000072242EA0841009A00EB8200C0F800173B
:10114000BDE8FF811CB5002100910B4601220191F1
:10115000FFF7C6FF1CBD1CB5002100910B46012204
:101160000191FFF7D6FF1CBD1CB500220B46009273
:1011700011460192FFF7B4FF1CBD1CB500220B46BF
:10118000009211460192FFF7C4FF1CBD1CB500215F
:1011900000910B46012201911146FFF7A1FF1CBDF2
:1011A0001CB5002100910B46012201911146FFF769
:1011B000B0FF1CBD0168202902D24FF0A04070474B
:1011C00001F01F010160014870470000000300505A
:1011D0000168202902D24FF0A040704701F01F01A2
:1011E00001600148704700000003005001B56846E7
:1011F000FFF7E0FF009A01219140C0F8081508BDF3
:1012000001B56846FFF7E4FF009A01219140C0F85C
:10121000081508BD30B5154A01460020D2F8104423
:1012200023460AE0DB681D79854205D1401C0A2867
:10123000F6DB4FF0FF3030BD1B68002BF2D1431CB2
:10124000F9D0CB681871D2F8103443B1DB68CC68A0
:101250001B682360D2F81024D268116030BDC2F838
:101260001014C96800220A6030BD000090040020FC
:10127000F0B595B01C4615460F4608461A9E00F07C
:101280000BFB182109A8FFF778F80E96CDE9095451
:101290000023082203A9384600F013FB05980690A6
:1012A000BDF81000ADF81C00BDF81200ADF81E002E
:1012B00000208DF821000398082600F00300012883
:1012C00002D0022818D032E003983346850AC0F3D2
:1012D000C2008DF8200003980FA9C0F38314A20068
:1012E000384600F0EEFA09A8009006AB22460FA996
:1012F000284600F02DFA1AE00398840DC0F3C200CE
:101300008DF82000082C01D2254600E00825334640
:101310002A460FA9384600F0D4FA2E44641B09ABC4
:1013200006AA29460FA800F06FF9002CEAD138462A
:1013300000F0B8FA15B0F0BD7047002001F036B8E3
:10134000084810B50178084A515C19B1001D00F039
:101350002FFE02E00C3000F03DFDBDE81040002003
:1013600001F024B8280000200400002008B5034A3A
:1013700000924023024AFFF77BFF08BD692200006C
:10138000F80200200A4A012902EBC00007D0022916
:1013900007D0032907D0042907D000207047022076
:1013A000704704207047007970474079704700000B
:1013B000CC28000010B5FFF7C0FF04210348FFF759
:1013C00029FF02490120C968487110BDBC280000EE
:1013D0002DE9F0478CB0FFF755FA18B100200CB09A
:1013E000BDE8F0877D4C0020C4F81804BFF34F8F90
:1013F00060680290A5684FF00008284004EB800068
:101400000CE000BFD4F8180470B92168029881423A
:1014100001D86160E2E7284004EB80000C3002A9AB
:10142000FFF704FB0028EDD1002003AA029901EA8E
:10143000050304EB8303491CDB6842F82030401CA1
:1014400002910228F2D3039800F00300022802D090
:1014500001284DD0A7E003985022810D8946B2EBB8
:10146000905F00D850210E4666F39F5003900831DC
:101470005B4800F0C8F9070078D000F00DFA434649
:10148000082203A9384600F024FA029908F1080A54
:101490002940681A8000001D864222D94F4D0C3524
:1014A00030B1C2B204EB8101301A90460C3104E035
:1014B0002946F2B2002590462846C6B25346384621
:1014C00000F007FA0AEB080325B1324629463846F0
:1014D00000F0FFF9029909F1030001EB900002907E
:1014E0003BE004EB81015346324638460C31EFE7CE
:1014F0000398C0F38310062800D30620039960F3F5
:101500008911C1F38310801C03918100344800F0DD
:101510007AF9070047D000F0BFF94346082203A933
:10152000384600F0D6F908F1080800260FE00298C6
:10153000434600EA0501401C04EB810102900422AD
:1015400038460C3100F0C5F908F10408761C039800
:10155000C0F38310B042EAD847B1D4F81054D4F89D
:10156000180478B1384600F09DF931E01BE0E868D6
:101570004079012804D12A682846394612689047E4
:10158000E8680568002DF2D1384600F08BF900209C
:10159000FFF78FF8D4F8180408B9029860600020AB
:1015A000FFF789F814E0D4F8104405E021682046DC
:1015B00089688847E0680468002CF7D109480A491F
:1015C000401AC008022101EB004008A100F018F801
:1015D000FFF758F980F0010001E7000090040020B7
:1015E000EC280000E4280000CC2800004261636B76
:1015F000656E647320666C75736865640000000036
:1016000000231A4600F050BE2DE9F0470E468046F2
:101610001C469246082940D894F80C90002020736C
:101620001946104600F03AFD0025B54206D218F8DA
:1016300005201BA12046FFF74DFC03E01AA1204620
:10164000FFF748FC6D1C082DEFD318A12046FFF7CB
:1016500041FC0025B54212D218F805707E2F08D83B
:10166000FEF75CFE0068C05D10F03E0F01D03A4608
:1016700000E02E220EA12046FFF72CFC03E00DA176
:101680002046FFF727FC6D1C082DE3D301222146DD
:10169000504600F0E5FC84F80C90BDE8F0870000AF
:1016A0002025303278000000202020007C0000003F
:1016B00025630000200000000B4810B5FF21816069
:1016C000002101604160C0F81814C0F81414012111
:1016D00080F82014054800F0E3F8002803D10448FE
:1016E00000F004F9002010BD90040020EC28000058
:1016F0007427000002480349401AC00870470000E0
:10170000EC280000CC28000013B56846FFF728FB42
:1017100008B100201CBD0248009950F831001CBDE2
:10172000CC28000070B509480125D0F8104480F895
:10173000205407E0E06845712168204649688847E1
:10174000E0680468002CF5D170BD00009004002012
:101750002DE9FF4781460C9D00200C462F7B287306
:10176000984616462946184600F098FC072E42D2A5
:10177000DFE806F004090F161F2A360049462846FE
:10178000FFF7A8FB37E0494628462268FFF7A2FB8F
:1017900031E0D4E9002349462846FFF79BFB2AE0C5
:1017A000A0680090D4E9002349462846FFF792FB41
:1017B00021E0D4E90201CDE90001D4E90023494642
:1017C0002846FFF787FB16E004F1080007C88DE8FC
:1017D0000700D4E9002349462846FFF77BFB0AE0CF
:1017E00004F108000FC88DE80F00D4E90023494632
:1017F0002846FFF76FFB00222946404600F030FCE8
:101800002F73BDE8FF872DE9F041058A80462D1F23
:101810004819C01CB0FBF5F0C6B24046FFF7DAFA33
:10182000041E19D00020207101206071E58000277E
:101830002546761EC4F800800BE04046FFF7CAFA42
:1018400060B16179491C6171286005467F1CC0F850
:101850000080B742F1D32046BDE8F081204600F079
:1018600002F80020F8E72DE9F041457901466B1EAA
:10187000002201E00968521C9A42FBD30F6801461E
:10188000002605E038460C68FFF7C3FA2146761CAF
:10189000AE42F7D3BDE8F0810121001DFFF77EBA0B
:1018A000FFF7CCBA10B504460121001DFFF78CFAF2
:1018B00010F0FF0F04D12046BDE81040FFF7D3BF62
:1018C00010BD1CB501920122009201AAFFF708FA8F
:1018D0001CBD1CB501920022009201AAFFF700FA7C
:1018E0001CBD4058002800D00120704782680021AC
:1018F000916082681161826851618268D1608268FA
:1019000051608068016070474058002800D0012075
:10191000704708B5002242504058009008BDD0F8EA
:101920000403084000D0012070474058002800D030
:101930000120704708B5002242504058009008BD71
:10194000002802D001498001084770472127000084
:101950000121B1EB507F01D1012070470020704779
:101960000121B1EB507F01D1012070470020704769
:1019700070B50D4600F0DEFB04000FD00020FEF72E
:1019800098FE207920B10020FEF795FE112070BD51
:101990000120256020710020FEF78DFE002070BD23
:1019A00010B500F0C7FB002802D0002101600171D2
:1019B00010BD00002DE9F04705463C48144640792B
:1019C00010B11120BDE8F087394882150026C0F813
:1019D000006129B36F7800230A2F21D2DFE807F0D6
:1019E00020201C1916130E0B0805CF7943EA076354
:1019F0008F7943EA07434F7943EA07230F791F435F
:101A0000C0F83C760023CF7843EA07638F7843EA37
:101A100007434F7843EA072309781943C0F838167B
:101A20000121C0F808132988AB782F7941EA0331E6
:101A3000EB785B0343EA873319436B7941EAC3319F
:101A4000C0F8341664279146804649464046FFF761
:101A500048FFA0B14046C8F800610121C8F804134E
:101A600014B36A78D0F83C16D0F838060A2A1BD28C
:101A7000DFE802F01A1A1917151312100E0C0A20BB
:101A8000FFF75EFF7F1EE0D10D209BE70A0EE2719B
:101A90000A0CA2710A0A62712171010EE170010C37
:101AA000A170010A6170207000208BE79C02002069
:101AB00000900240034AC2F81C15C2F820050C2011
:101AC00000F082BB009002402DE9F041304E044608
:101AD000154630790F4610B10820BDE8F081201D71
:101AE00000F03AFBE8B32B482168C0F84015A17A12
:101AF000E27A41EAC201227B41EA8211627B02B1B1
:101B0000012241EAC211C0F84415D0F80016224A59
:101B10001140A27B0A43E17B01B1012142EA01614C
:101B2000227C41EA4261627C41EA0271C0F80016FF
:101B30000023737137600121B560C0F808130A46AD
:101B400057B1A17C154C490184F80014134C4FF493
:101B50000071253CC4F8001132710546C0F800251B
:101B600000E00CE04FF48074C0F80031026064269D
:101B700021462846FFF7B5FE18B10020ADE7072043
:101B8000ABE70A20FFF7DCFE761EF1D10D20A4E7BB
:101B90009C0200200090024000FFFF0029E000E0CE
:101BA00070B514460D460646FFF7D2FE58B10748F9
:101BB000C0F80445C0F80865C0F80C55BDE8704091
:101BC000042000F001BB102070BD00000090024016
:101BD00008480121C0F80813016141650021C0F8DF
:101BE0000015054B4215C3F88021C0F800110348C9
:101BF000017170470090024004E000E09C02002068
:101C000070B514460D460646FFF7A2FE58B10748C8
:101C1000C0F81045C0F81465C0F81855BDE870400C
:101C2000082000F0D1BA102070BD000000900240E2
:101C30000149024800F0E2BBA80200200020004059
:101C40002DE9F0410546007916460F4600EB4001AC
:101C50002C4A01EBC00102EB810494F82A1011B167
:101C60000820BDE8F081284951F820102868FFF7C6
:101C70007FFE08B11120F4E739462846FEF730FD13
:101C800066603869206030004FF001062DD03F7F3C
:101C90004FF48E712868FFF73CFE4FF4A27128685C
:101CA000FFF737FE28681949C0F8041328684FEA7F
:101CB000471140F30730002806DA00F00F0000F16A
:101CC000E02080F8141D03E000F1E02080F800140B
:101CD000286840F3073000F01F0106FA01F14009BF
:101CE000800000F1E020C0F8001128680421C0F84D
:101CF00000150020A061E06184F8290044F8140F69
:101D0000A675AEE7A8020020302700008000020080
:101D10002DE9F047054600790B4600EB400101EB49
:101D2000C000234901EB8004284600F043F810B1BD
:101D30001120BDE8F0874FF00008C4F82080A360B0
:101D4000626184F828804FF48E76474631462868D1
:101D5000FFF7DFFD28684FF00109C0F80890214621
:101D6000286800F0E7FA606800BBD5F800A00EE034
:101D700094F8280008B10F2716E031465046FFF7C7
:101D8000C3FD0028F4D02146504600F0D3FA216A62
:101D900060698142F1D331462868FFF7B5FD00281C
:101DA000F9D02868C0F80C90C4F814803846C0E711
:101DB000A8020020007900EB400101EBC0000449BB
:101DC00001EB80004069002800D00120704700002E
:101DD000A80200202DE9F047044600794FF00009E1
:101DE00000EB400101EBC000254901EB80072068B2
:101DF000C0F80095786880B120682249C0F80813BF
:101E00002068012140F3073000F01F029140400993
:101E1000800000F1E020C0F880112068D0F80C2587
:101E2000D0F81485D0F80865D0F810554FF0FF3180
:101E3000C0F81415C0F80C152068C0F80815C0F8D3
:101E40001015501C02D01046FFF77CF9B8F1FF3F87
:101E500002D04046FFF776F9681C02D02846FFF70B
:101E600071F9701C02D03046FFF76CF92068FFF75B
:101E700097FD87F82A90C7F80490BDE8F087000026
:101E8000A8020020840202000149024800F062BB5F
:101E9000D4020020002000402DE9F04105461646FE
:101EA00000790F46154A00EBC00102EB810494F85B
:101EB000201011B10820BDE8F081114951F820101F
:101EC0002868FFF755FD08B11120F4E73946284688
:101ED000FEF741FC6660386920601EB1397F2846F4
:101EE000FEF766FD28680821C0F800150020A061F3
:101EF000E0616061012184F82010DCE7D402002059
:101F0000342700002DE9F04704460E4600792049A9
:101F100000EBC00001EB800517463046FFF720FDBF
:101F200030B1204600F036F820B11120BDE8F0872E
:101F30001020FBE76F61AE604FF4907600273146CA
:101F40002068FFF7F7FC4FF4AC7841462068FFF7B4
:101F5000F1FC2068AA686969C0F84425C0F84815F2
:101F6000206801218160686878B9B14649462068D7
:101F7000FFF7DBFC064641462068FFF7D6FC064328
:101F8000F4D000B10F27002068613846CEE700008A
:101F9000D40200200079054900EBC00001EB80006D
:101FA0004069002800D0012070470000D4020020C2
:101FB0002DE9F04704460079274900EBC00001EB0A
:101FC000800720684FF00009C0F80095786880B15C
:101FD00020682249C0F808132068012140F3073027
:101FE00000F01F0291404009800000F1E020C0F89D
:101FF00080112068D0F80C25D0F81485D0F8086539
:10200000D0F810554FF0FF31C0F80C15C0F814157A
:102010002068C0F80815C0F81015501C02D01046F2
:10202000FFF799F8B8F1FF3F02D04046FFF793F869
:10203000681C02D02846FFF78EF8701C02D030468C
:10204000FFF789F82068FFF7ABFC87F82090C7F806
:102050000490BDE8F0870000D402002010030200C5
:1020600010B50C46017A052908D0407A38B10848E5
:1020700008A102682046FEF72DFF00E01AB106A174
:102080002046FEF727FF2046BDE81040FEF72FBF91
:1020900070000020257300000D0A000038B5C388C9
:1020A0000D46044633B114A0009015A216A128468F
:1020B000FEF710FF217A05291CD0607A48B1A0886C
:1020C000FFF760F9164951F8202016A12846FEF7BF
:1020D00001FFA0880021FFF717FB03461049207A73
:1020E000143951F8202001B02846BDE830400EA137
:1020F000FEF7F0BE38BD00001B5B306D0000000035
:102100001B5B313B33316D0025734C6F677320646B
:10211000726F70706564202825642925730D0A008C
:1021200070000020257300003C25733E2025733A83
:10213000200000000349884201D103487047002075
:1021400070470000002000401800002001490120D5
:10215000087070470000002010B50278FF2A11D0E7
:102160004178FF290ED08178FF290BD0C178FF2953
:1021700008D01449C1F8242542784FF0FF34FF2AD3
:1021800002D002E0002010BD2246C1F82825827846
:10219000FF2A00D12246C1F83025C278FF2A00D19B
:1021A0002246C1F834250279FF2A00D12246C1F81F
:1021B00038254379FF2B00D01C46C1F83C4501204F
:1021C00010BD00000090024070B50D494A790AB177
:1021D000112070BD0B4CA5150022C4F800210B681E
:1021E0000122002B02D04A71C4F80423225005D1E9
:1021F00029462046FFF775FB0028F9D0002070BD66
:102200009C0200200090024070B5054688690C468B
:1022100000284FF4847128460AD0FFF77AFBD5F8DE
:102220001805626AE1688854606A401C606270BD8B
:10223000FFF76FFBD5F8180570BD1FB501238DF8AA
:102240000030CDE90121D0E90012684690471FBD5A
:102250001FB501238DF80030CDE90121D0E900122E
:10226000684690471FBD000070B50D4C0020D2B2EB
:102270002070201D0B4D0378EB5C1BB1001DFFF798
:1022800041FE02E00C30FFF743FD08B1FEF706FA0D
:102290006078002802D021780029FAD070BD0000B3
:1022A00024000020040000202DE9F84F204D924624
:1022B000894606469846012269461846AF68FEF7E9
:1022C00085FA58B3009800210446801C09E000BF3D
:1022D00000EA07035AF8212005EB8303401C491C40
:1022E000DA604145F4D34FEA164AFEF703FB4AEAA7
:1022F0000041601C384005EB80003C4005EB840247
:10230000C160D06866F3C50068F3891069F39F2047
:1023100020F00300401C20F00400D06095F8200459
:1023200002E000BFFFF754F80028FBD1BDE8F88FAA
:102330009004002070B50C4605464FF48E71FFF7EF
:10234000E8FA216AA068415C206A401C2062C5F856
:102350001C1570BD1FB500228DF800200291816808
:1023600001914261D0E90012684690471FBD00000C
:102370001FB50A4601788DF8001041680191017A75
:102380008DF80810C0680390044850F822100838EF
:1023900050F82220684690471FBD00001000002022
:1023A00001490120087070472400002010B588B052
:1023B000044620220E496846FDF7C6FF062000901D
:1023C000C01F0190029003904FF0EB7006900CB18B
:1023D000084A00E0002269460748FEF747FD08B1B9
:1023E000FEF75CF90448001F447008B010BD0000FF
:1023F00054270000A1230000280000202DE9FF47FA
:102400000C4605464FF40071FFF789FA01274FF497
:102410000178002618B34FF4927949462846FFF711
:1024200073FAE0B149462846FFF773FAC5F8088306
:1024300094F8290000B96F6002208DF80000D5F8EB
:102440008004C5F880040390A0690290E0680190C0
:10245000A661E661D4E900126846904728E00421AD
:102460002846FFF75CFA18B34FF484712846FFF74B
:102470004BFAE8B121462846FFF7C6FE616AA0691B
:10248000884215D1E06938B1E268616AA0612069CB
:10249000E6616662E06008E094F8290000B96F60C8
:1024A000C5F80883A661E268616A2046FFF7C5FEA9
:1024B0004FF48E7841462846FFF726FA78B1206A15
:1024C0006169884202D294F8280020B34146284628
:1024D000FFF71FFA616911B12046FFF73BFF4FF488
:1024E000A27841462846FFF70FFA002818D0414647
:1024F0002846FFF70EFA94F8290000B12F60A06972
:1025000000280DD0A661E268616A04B02046BDE8EB
:10251000F047FFF792BE21462846FFF70BFFDEE7A4
:10252000BDE8FF871FB50A4601788DF800104168A5
:102530000191017A8DF80810C0680390044850F8A2
:102540002210083850F82220684690471FBD00002E
:10255000100000202DE9FF410C464FF4927706460B
:102560003946FFF7E2F90025B8B139463046FFF7A2
:10257000E1F902208DF80000D6F88004C6F8800446
:102580000390D6F83C050290E0680190A561E561F2
:10259000D4E900126846904723E04FF48877394623
:1025A0003046FFF7C2F9E0B139463046FFF7C2F9CD
:1025B000D6F83C15A069884213D1E06960B1E268A1
:1025C000D6F8000220F02000C6F80002E069A06101
:1025D0002069E561E06001E0A561E2682046FFF75F
:1025E00037FE4FF4A27739463046FFF79EF968B1BF
:1025F00039463046FFF79EF9A06938B1A561E5611B
:10260000D6F83C152046E268FFF722FE4FF490779B
:1026100039463046FFF789F9002812D0394630464E
:10262000FFF788F9606900280BD0D6F84C058DF8C3
:1026300000500290A06801906561D4E900126846DC
:102640009047BDE8FF8100002DE9F05F8346DDE99A
:102650000A4A994690460D460846012703E000BF06
:10266000B0FBF8F07F1C4045FAD2B94500D94F467F
:102670005FEACA7012D18CB15FEA8A7002D5B9F1F3
:10268000000F01D0202607E0302605E031465846ED
:10269000641EFEF7DFF80CB1A742F7D35FF0010626
:1026A000B9F1010F02D9A9F1010903E0B5FBF6F078
:1026B000404502D306FB08F6F2E7DFF83C9000BF86
:1026C000B5FBF6F000FB165519F800105846FEF75A
:1026D000C1F8B6FBF8F6002EF2D15FEACA7009D055
:1026E000002C07D0A74205D220215846641EFEF7D1
:1026F000B1F8F5E7BDE8F09F382700006601010159
:102700000101000000000000131114151617040346
:1027100000000100000106000000000000000000B1
:102720000338FDD8704700000502000000000000DB
:10273000311C0000891E0000303132333435363709
:1027400038394142434445466D13000041130000AF
:1027500039130000FFFFFFFFFFFFFFFFFFFFFFFF39
:10276000FFFFFFFF00000000000000000000D60196
:1027700006010000F80300207F000000780400201C
:102780000040404040404040404041414141414084
:102790004040404040404040404040404040404039
:1027A00040050202020202020202020202020202C8
:1027B00002202020202020202020200202020202CD
:1027C0000202909090909090101010101010101025
:1027D0001010101010101010101010100202020231
:1027E0000202888888888888080808080808080875
:1027F0000808080808080808080808080202020271
:1028000040000000812700007761726E696E6700EA
:1028100064656275670000001B5B313B33306D00FF
:102820001B5B306D000000001B5B313B33316D00E2
:102830001B5B313B33326D001B5B313B33336D002F
:102840001B5B313B33346D001B5B313B33356D001B
:102850001B5B313B33366D001B5B313B33376D0007
:10286000696E666F000000006572726F7200000092
:1028700050525300554152540000000055415254EB
:1028800045000000756172745F6C6F675F62616321
:102890006B656E640000000061707000002900002C
:1028A000000000209C000000F80500009C290000AA
:1028B0009C0000201C28000008060000482700009B
:1028C00000000000842800003C0000207028000068
:1028D0000000000074280000000000007C280000B8
:1028E0000000000098280000000003034C000020B6
:1028F000440000204C000020380300201800000095
:1029000000000000000000000000000000000000C7
:1029100000000000000000000000000000000000B7
:102920000000000000000000000000000020004047
:102930000000000000200040000000000000000037
:10294000FF00000000000000000000000000000088
:102950000000000000000000000000000000000077
:1029600068280000082800006028000010280000E7
:102970002028000018280000282800003028000027
:102980003828000040280000482800005028000097
:0C299000582800000090D0030000000058
:0400000500000201F4
:00000001FF
