:020000040000FA
:1000000078340120F902000001030000030300001E
:1000100005030000070300000903000000000000C2
:100020000000000000000000000000000B030000C2
:100030000D030000000000000F030000110300008A
:100040001303000013030000130300001303000058
:100050001303000013030000130300001303000048
:100060001303000013030000130300001303000038
:100070001303000009AD0000130300001303000088
:100080001303000031AD0000130300001303000050
:10009000B5AD0000130300001303000013030000BC
:1000A00013030000130300001303000013030000F8
:1000B0001303000013030000000000000000000014
:1000C00013030000130300001303000013030000D8
:1000D00013030000130300001303000013030000C8
:1000E00013030000130300001303000000000000CE
:1000F00000000000130300000000000013030000D4
:1001000000000000000000000000000000000000EF
:1001100000000000000000000000000000000000DF
:1001200000000000000000000000000000000000CF
:1001300000000000000000000000000000000000BF
:1001400000000000000000000000000000000000AF
:10015000000000000000000000000000000000009F
:10016000000000000000000000000000000000008F
:10017000000000000000000000000000000000007F
:10018000000000000000000000000000000000006F
:10019000000000000000000000000000000000005F
:1001A000000000000000000000000000000000004F
:1001B000000000000000000000000000000000003F
:1001C000000000000000000000000000000000002F
:1001D000000000000000000000000000000000001F
:1001E000000000000000000000000000000000000F
:1001F00000000000000000000000000000000000FF
:10020000DFF80CD000F0DEF8004800477DFD00006C
:100210007834012030B4044654E8000F0D4644E819
:100220000053002BF8D1156030BC704730B4044641
:1002300054E8000F40EA010544E80053002BF7D1D1
:10024000156030BC704730B4044654E8000F00EA33
:10025000010544E80053002BF7D1156030BC70470E
:1002600030B4044654E8000F80EA010544E8005326
:10027000002BF7D1156030BC704730B4044654E809
:10028000000F00EB010544E80053002BF7D1156087
:1002900030BC704730B4044654E8000FA0EB0105B1
:1002A00044E80053002BF7D1156030BC704770B4A0
:1002B00004464FF0000054E8006F0D68AE4207BFDF
:1002C00044E80023012044E800630E60002B1CBFBB
:1002D0000020F0E770BC704730B4044654E8000FCB
:1002E00088422CBF451A054644E80053002BF5D13F
:1002F000156030BC7047000006488047064800473C
:10030000FEE7FEE7FEE7FEE7FEE7FEE7FEE7FEE7C5
:10031000FEE7FEE7B9AD00000102000000487047AB
:100320008850010010B5441A0346944209D284183B
:10033000114403E011F8013D04F8013D521EF9D2C9
:1003400010BD40EA0104A40703D009E010C9121F40
:1003500010C3042AFAD203E011F8014B03F8014B51
:10036000521EF9D210BDD2B201E000F8012B491E95
:10037000FBD270470022F6E710B513460A46044642
:100380001946FFF7F0FF204610BD421C10F8011B74
:100390000029FBD1801A704730B50446002003467F
:1003A00000E05B1C934203D2E05CCD5C401BF8D0C4
:1003B00030BD034611F8012B00F8012B002AF9D1BA
:1003C00018467047064C074D06E0E06840F0010310
:1003D00094E8070098471034AC42F6D3FFF714FFB7
:1003E000449603006496030070B58C1810F8015B06
:1003F00015F0070301D110F8013B2A1106D110F8BE
:10040000012B03E010F8016B01F8016B5B1EF9D1C1
:100410002B0705D40023521E0DD401F8013BFAE747
:1004200010F8013BCB1A921C03E013F8015B01F8B2
:10043000015B521EF9D5A142D8D3002070BD000047
:100440002DE9F8439DF82C509DF83060002800F00D
:10045000A080012900F28880002A00F08A800A9C8E
:10046000002C00F08680002B40F09680C5F10F0331
:10047000DFB20D9B002B7AD1331F0C2B00F286804C
:10048000F30700F18380C5F10D03DBB2062B7DD8A5
:10049000032F40F2ED80062D78D9C7F10F039D425E
:1004A00074D104468846982191460AF043F9032204
:1004B0000123002022621022A362C4E90D334946C1
:1004C00060622063A0180AF02FF9102120460AF07C
:1004D00031F9089BC4F8808084F8845084F88560E2
:1004E00004F18608002B40F0CA8094F986302EB1C2
:1004F000023E06EBD6767610F60076B2C5F10E090E
:100500005FFA89F943EA0903334304F1870084F869
:1005100086302A460A990AF007F9032F94BFC7F1DB
:1005200010000C20042F3A4609A928BF0422404499
:1005300000F036FD414600221023204609F0E0F984
:1005400010220646214604F14C000AF0EDF8002E78
:1005500000F09780A6F57106042E00F2BD80DFE85A
:1005600006F0184F035351005D48BDE8F883012B96
:1005700015D05C48BDE8F88303240D2D06D1A342B5
:100580003ED1099CFB0034FA03F386D05648BDE8FF
:10059000F8835648BDE8F8835548BDE8F883237BC7
:1005A000032B33D8102EF1D801A454F826F000BF45
:1005B000FD0500008D0500008D0500008D05000083
:1005C000F90500008D0500008D0500008D05000077
:1005D000F50500008D0500008D0500008D0500006B
:1005E0008D0500008D0500008D0500008D050000C3
:1005F000790500000224C0E70124BEE73446BCE7C9
:100600003C48B2E73C48B0E73C48AEE7072BBDD8D2
:10061000102EBBD801A454F826F000BF61060000DC
:100620008D0500008D0500008D0500006D060000A1
:100630008D0500008D0500008D0500006906000095
:100640008D0500008D0500008D0500008D05000062
:100650008D0500008D0500008D0500006506000079
:1006600004248AE7072488E7062486E7052484E72C
:10067000099CFB0034FA03F33FF40DAF86E74023F7
:1006800035E7089BB3F57F4F10D2E3B91A46134400
:10069000E36704F15D0084F85C902A460A990AF049
:1006A00043F8012384F86B3000205EE74FF6FF63C8
:1006B000A4F86C30042208A904F16E0000F070FC6C
:1006C000089B0622E3E7022208A904F16C0000F06F
:1006D00067FC089B0222DAE74FF4750045E700BF8C
:1006E0000315F0000D15F0000C15F0000015F000DA
:1006F0000115F0001115F0000615F0000515F000C9
:1007000078B32DE9F0410E4641B322B3C76F57B31A
:10071000BA4220D2BF1AC7F11008904528BF9046B0
:1007200005466C3014463844424609F0FDFFA4EB00
:10073000080206EB0801284609F022FA124B9842FB
:100740001BD013D9114B984208D018D301339842CB
:1007500017D10F4800E00F48BDE8F0810E48BDE812
:10076000F0810E4870470E48BDE8F0810028F3D0B4
:10077000B0F5710F05D10948EEE70A48ECE70A48E1
:10078000EAE74FF47500E7E70100F1000300F1002C
:100790000615F0000715F0000515F0000015F00033
:1007A0000E15F0001115F0000315F000002800F000
:1007B000948070B5059C002C00F0918091B1049C50
:1007C000002C00F08E80044653B390F88460994268
:1007D000C6F10F06F6B20CD008D88818834208D2AA
:1007E000434870BD002AEAD0424870BD9818814243
:1007F000F6D3E2B1204609F015FA0546B8B1A5F5E1
:10080000710004286FD801A353F820F0ED08000010
:10081000D3080000D7080000E9070000CF08000057
:10082000002A54D190F88460C6F10F06F6B2022374
:10083000D4F88020236200232363626204F15C0108
:100840001022204609F070FFC6F110002044314606
:1008500009F070FFD4F88030BBB91023049A04F17A
:100860004C01204609F04CF805460028C7D194F801
:100870008500049BC0F11001184409F05BFF059A44
:1008800094F885301370284670BD04F18606304612
:10089000102109F04FFF304694F88520049909F0A3
:1008A00043FF324631461023204609F029F8054619
:1008B0000028A4D1314694F8852004F14C0009F0B9
:1008C00031FF80B9059A94F88530137070BD0A48DD
:1008D00070BD0A4870BD0A4870BD0A4870470A4892
:1008E00070BD0A4870BD4FF4750070BD054870BDFD
:1008F0000815F0000515F0000615F0001115F000C0
:100900000315F0000015F0000C15F0000D15F000B7
:100910002DE9F04192B0199C002C57D01A9D002D62
:1009200047D0002858D0002947D0012952D1189D1E
:10093000012D4FF00C0845D8002A51D006461898D2
:100940000E901F460D460123114606A82022CDE930
:100950000F33119509F0E8FE4246314601A809F02F
:10096000E3FE0023CDE904731B9B002B36D0A3428A
:1009700003D91A9A1B1B9A4230D81B9BA34203D25D
:100980001A9AE31A9A4229D82146DDE91A3201A8B7
:1009900009F024FA194B9842044613D022D9184B77
:1009A00098421BD012D30233984213D04FF47500F3
:1009B00000E0144812B0BDE8F081189D012D4FF001
:1009C0000808B9D9104812B0BDE8F0810F4812B03C
:1009D000BDE8F0810E48EDE70E48EBE70E48E9E789
:1009E0000E48E7E720B1B0F5750FDFD10C48E1E71D
:1009F00001A8442109F09EFE2046DBE70100F50036
:100A00000300F5000A22F0000422F0000522F000A5
:100A10000122F0000922F0000622F0000322F0007B
:100A20000722F0002DE9F0414024B0B00746884687
:100A30001646002122460DEB04001D46FFF79CFCE4
:100A40002246002120A8FFF797FC08A820220021B9
:100A5000FFF792FC0023CDE90433CDE9063375B3EB
:100A6000369B63B3379B2BB3399B1BB3389B0BB3BC
:100A70003A9BFBB1F7B1B8F1000F1BD026B3012EA2
:100A800058D1402220A9002303910DEB0201CDE9AA
:100A900001120093424601213846FFF739FF002832
:100AA0004AD03C4CDDE9381009F044FE204630B015
:100AB000BDE8F081384C204630B0BDE8F081374CBD
:100AC000204630B0BDE8F08120ABCDE9024310AB49
:100AD000CDE900634246334601213846FFF718FF4F
:100AE0000028DED120220DEB020020A909F01CFE17
:100AF000399A0392389A02920021379A019201237F
:100B00000091424638461946FFF702FF002836D1C9
:100B100004AB0193389B0093294608A8399B369A69
:100B200008F0AAFD0446C0B904A910223A9809F0B9
:100B3000FBFDC0E71A4CBEE720220DEB020020A906
:100B400009F0F2FD04AB0193389B0093294608A8F5
:100B5000DDE9362308F090FD98B1124CA2E7399AEE
:100B60000392389A02920123379A019238464246FC
:100B700000931946FFF7CCFE044600289BD00A4C90
:100B800090E704A910223A9809F0CCFD0028E6D09D
:100B9000064C87E70524F0000224F0000124F00051
:100BA0000324F0000724F0000624F0000824F000DD
:100BB00099422DE9F04F0ED801EB03044FEA54049B
:100BC0006BD3002C00F082804FF0000C2146151FE3
:100BD000041F664632E003F18045013D041F00EB2F
:100BE000850504EB810E4FF0000A4FF0000B55F81D
:100BF00004CFAE454AEA0C0AF9D11AF1FF384BF19D
:100C0000FF396FEA090C99420CF0010C40D201F156
:100C10008044151F013C02EB840205EB830352F86C
:100C2000044F93424AEA040AF9D11AF1FF364BF114
:100C3000FF37FE4306F00106C1B3041F204600241F
:100C400000EB8101224655F8043F50F8047F9F4293
:100C50000CBF0123002302EA030203EA040388BF56
:100C600042F001022CBF1C4643F001048142EAD14C
:100C7000D2B186F00100BCF1000F00D110408CF021
:100C8000010C0EB904EA0C0C00EB4C00BDE8F08F2F
:100C9000C3B11946151F0026D0E74FF0000A4FF0E8
:100CA000000B4FF0000CB2E7002CE2D1BCF1000FBA
:100CB00004D176B160464FF0010CE5E786F0010003
:100CC0000024DCE760461C469C46DBE72046A44641
:100CD000D8E730463446B446D4E700BFF0B4002924
:100CE00057D04C1E0519065D76B9294634B111F866
:100CF000015D661E4DB93446002CF8D1B3B15D1EBE
:100D0000515D39B11D4617E00C46002B39D05D1EF0
:100D1000515D71B9531935B113F8011D6E1E49B9F2
:100D20003546002DF8D1231C18BF01231846F0BC0E
:100D300070471D46AC4224D8A54226D8611E6B1EC2
:100D4000994228BF194600292CDB01310A440023AF
:100D5000014404E0002B08BF012388420BD011F8A6
:100D6000017D12F8016DB742F4D8F6D2002B08BF0E
:100D700002238842F3D1A54218BF00231846F0BCD5
:100D8000704701231846F0BC704702231846F0BC98
:100D90007047002BCAD05D1E545D002CBAD01D4692
:100DA0000C46C9E70023E6E788420CD030B413466E
:100DB0006FF04045033305EB9303002540F82350C3
:100DC00030BC09F0B3BC7047814202D0920009F0F8
:100DD000ADBC7047B2B1A8B193B113F0030F0FD1FE
:100DE0008B420DD361B190420ED002D91344984288
:100DF00004D3904208D243189A4205D80748704756
:100E000007487047074870471144013811F8013D01
:100E100000F8013F8A42F9D100207047060DF0002A
:100E2000050DF000040DF0001AB310B3F8B55C1E08
:100E300005341CD811F0030519D18B4217D8CE1CEC
:100E400026F003078F4216D8FF1A114604461A46A9
:100E5000384409F06BFC39462046B70809F06AFCB3
:100E6000012F0AD123681BBA23602846F8BD114818
:100E7000F8BD114870471148F8BDF60804EB860527
:100E8000043D221F04EB870352F8041F53F8040D9E
:100E900009BA00BAAA4210601960F5D117F001032F
:100EA00006D054F826301BBA44F826300020F8BD8E
:100EB0001846F8BD050DF000040DF000090DF00016
:100EC00091B310B44B1EC418C25C62B9214633B151
:100ED00011F8012D581E3AB90346002BF8D11846D7
:100EE0005DF8044B70470B4614064FEAC300F7D475
:100EF000510600F1FF33F2D49406A0F10203EED4C0
:100F0000D106A0F10303EAD41407A0F10403E6D448
:100F10005107A0F10503E2D49207A0F10603DED445
:100F200007385DF8044B70470846704749B301F134
:100F30008042013A00EB820350F8222022BB1A467D
:100F40004B1E1FD010B452F8044D34B91946013B62
:100F500013D052F8044D002CF8D001F18041023931
:100F60005B0150F82120A3F1200102E0013B8B42FC
:100F700003D0002A4FEA4202F8DA18465DF8044B23
:100F800070470B46184670474B01A3F1200102E061
:100F9000013B8B42F6D0002A4FEA4202F8DAF1E731
:100FA0003AB10A44013812F8013D00F8013F8A4283
:100FB000F9D10020704700BF2DE9F843002941D046
:100FC0002D4C0D68A54235D100283FD00568013C65
:100FD000A54233D1002A3FD0002B43D0089C002CDF
:100FE0003CD00C460546164600F194014FF437728A
:100FF00004F150001F46043504F1040909F092FB86
:1010000070BBD4F808333A6803F107084FEAD808F0
:1010100042451DD349462846089B324602F0BEFE93
:10102000044608BBC7F800804FF45371089809F0D4
:1010300081FB00E0114C2046BDE8F883104C2046AF
:10104000BDE8F8830F4C2046BDE8F8830E4CF2E76C
:10105000C7F800800D4CEEE70D4CECE70D4CEAE7CD
:101060000D4CE8E70D4CE6E73046396809F062FBC5
:1010700000233B60D8E700BF020000EC3408F0001A
:101080003208F0003308F0003108F0003808F000B2
:101090003508F0003708F0003A08F0003608F00094
:1010A0002DE9F04F89B0DDF84880002A00F0D880A3
:1010B000002B00F0DA80B8F1090F0DD88F4C1D68B5
:1010C000A5420ED08E4B184609B0BDE8F08F2046E1
:1010D0004FF40D6109F02EFB8A4B184609B0BDE8AC
:1010E000F08F0E46054640F6CC0110461F461446CA
:1010F00009F020FB844B13F80830002BE7D0DFF811
:101100003C92C4F8648409EBC80239F8383051685D
:10111000C4F86034052907D804F54C7000F00EFFC0
:101120000346002840F0948039464FF44C72204624
:1011300009F0FAFA754BC4F8CC38139B002B00F079
:10114000A380149BB3F1005F09D320464FF40D61D7
:1011500009F0F0FA6E4B184609B0BDE8F08FD4F8EC
:10116000643409EBC3035B68052B40F28380D4F839
:101170006034149AB2EB830FE7D1139904F58460BD
:1011800009F0D2FA002D00F08C80002E00F08B8048
:101190005E4BD4F8CC289A4240F08180159B002BFE
:1011A00000F08380169B002B00F08380D4F8643419
:1011B000092B91D8D4F80C73169A07F10708126816
:1011C0004FEAD8084FEA48094A4570D3042BD4F8AF
:1011D00060B404F5846A06D8514604F54C7000F0FA
:1011E0005DFE034670BB1F377F0904F58D63BF00AA
:1011F00018463946079309F09DFAD4F80C23079B4B
:10120000B2EB4B1F57D318464FEA8B025146079358
:10121000FFF7C6FE079B03EB070A0AEB070B012249
:101220005F444FF0000CCDE9002C31462846CDF844
:1012300008A00497CDF80CB0221D02F0EBFD0028A9
:1012400040D0344B15980793494609F073FA079B31
:10125000079320464FF40D6109F06CFA079B32E7C3
:101260002D4B184609B0BDE8F08F2C4B184609B03D
:10127000BDE8F08FDDE9131204F54C7000F0C2FEFA
:1012800003460028E4D17DE7149B002B3FF467AFB1
:1012900020464FF40D6109F04DFA214B13E7214B25
:1012A00011E7214B0FE7214B0DE7214B0BE7214BBA
:1012B00009E7214B07E718465146079302F06CFFF8
:1012C000079BA8E708F1030525F0030552462B46C6
:1012D00041461598FFF77EFD08B1164BB2E7159809
:1012E0002B465A4641464044FFF774FD034600280A
:1012F000F3D1169AC2F80090AAE700BF020000ECF2
:101300005808F0005308F00084760300030000EC56
:101310005508F0006708F0005108F0005208F0008E
:101320005408F0005708F0006508F0006608F00067
:101330006008F0006208F0006108F00034760300F5
:101340002DE9F04F85B0002860D0002963D0092A2C
:101350000DD8784C0D68A5420ED0774C204605B0CC
:10136000BDE8F08F30464FF4B16109F0E3F9734CFA
:10137000204605B0BDE8F08F14460D4640F2845279
:1013800000211F46064609F0D3F96D4B1B5D002B6B
:10139000E8D0DFF8D481C6F8A84408EBC40238F8D6
:1013A00034305168C6F8A434052905D806F55D70B7
:1013B00000F0C4FD044618BB29464FF45D72304668
:1013C00009F0B2F95F4BC6F884350F9B43B3109B0D
:1013D000B3F1005F29D2D6F8A83408EBC3025268F3
:1013E000052A24D938F83330109AB2EB830F00F075
:1013F000948030464FF4B16109F09CF9524CADE74E
:1014000030464FF4B16109F095F9A7E74F4C2046FB
:1014100005B0BDE8F08F4E4C204605B0BDE8F08F1A
:10142000109B002BD7D04B4C98E7474C96E7DDE953
:101430000F1206F55D7000F0E5FD04460028DFD1CF
:10144000404BD6F884259A4261D1002F61D0D6F85E
:10145000A834092B8BD8D6F850830E9A08F10705CB
:10146000ED08B2EB450F56D1042B06F2644908D8BB
:10147000494606F55D7000F011FD044600287FF432
:101480006DAF08F11F0464094FEA840806F2AC4B03
:101490000BEB080AD6F8A42403920AEB0803E10038
:1014A0005846029309F046F94146029809F042F97C
:1014B000D6F85013039AB1EB421F34D39200494639
:1014C0000298FFF76DFDA8F104084FF000092A46C5
:1014D00039464BF808905846FFF762FD79192A46BD
:1014E0004AF808905046FFF75BFD22460299CDF876
:1014F00000A05B46301D02F077FE174C4FF4B1613F
:10150000484508BF4C46304609F014F926E7134C0D
:1015100024E7134C22E7134C20E70F9906F26440AE
:1015200009F002F98CE70A460298494602F034FEB7
:10153000C9E700BF010000EC8308F0007308F00069
:1015400084760300040000EC8108F0007108F000CC
:101550007208F0008008F0008408F0008208F000B3
:101560007608F0007708F000347603002DE9F04F9C
:1015700083B058B351B34AB343B30E9C34B30C9CFD
:1015800024B30D9C4CB3984617460D46064601F011
:1015900007FD426A2B684FEAC20A534583464FEA69
:1015A000820918D3D8F800304B4514D31FFA89F1BB
:1015B0000E9ADDE90C039847044680B10E9849461F
:1015C00009F0B8F8204603B0BDE8F08F0D4C204676
:1015D00003B0BDE8F08F0C4CF9E70C4CF7E70E9B1D
:1015E00003F1200200925B46314638460E9A01F024
:1015F00099FD04460028E1D1C5F800A0C8F8009084
:10160000DCE700BF0023F0000123F0000523F00019
:1016100060B35AB353B370B582B0069C04B3079C51
:10162000F4B1089CE4B11C683F2C1CD9079C2468C9
:101630001F2C18D9202916D1164605461C4601F044
:10164000AFFC089B00932A4603463146069801F0FA
:1016500069FD30B940222260079A2023136000E020
:10166000034802B070BD034802B070BD0048704727
:101670000023F0000123F00030B329B322B3F0B50A
:1016800083B0089C14B30A9C04B3B3F1005F18D272
:10169000099C402C15D10C683F2C12D91F461646C8
:1016A00004460D4601F07CFC0A9B3A46CDE9000356
:1016B00031462046089B01F0A9FD18B9099B2B6013
:1016C00000E0044803B0F0BD03487047024803B08F
:1016D000F0BD00BF0123F0000023F0002DE9F04130
:1016E000089FDDE90664B8B1B2B1AEB1A7B1402937
:1016F00015D1B4F1005F12D8202B10D115468046C9
:1017000001F04EFC2B46CDE9060722463146404605
:10171000BDE8F04101F00ABF0248BDE8F08102488F
:10172000BDE8F0810023F0000123F0002DE9F0472F
:1017300082B0AAB3A3B398B391B30A9C84B30C9CB0
:1017400074B30B9C9CB315461E468846074602F0B0
:10175000D7F8D0F88C2033684FEA82094B4524D360
:10176000D8F800304B4520D3436A0A981FFA89F114
:101770002A464FEA830A0B9B98470446C8B10C9847
:101780004FF4B07108F0D6FF5146384608F0D2FF4A
:101790002846494608F0CEFF204602B0BDE8F08753
:1017A0000E4C204602B0BDE8F0870D4CF9E70D4C19
:1017B000F7E70C9BC8F800A0414600932A464B4629
:1017C000384600F0A1F804460028D8D1C6F80090A9
:1017D0004FF4B0710C9808F0ADFFE2E73023F00051
:1017E0003123F0000523F00030B329B322B32DE9F3
:1017F000F04F85B00E9CD4B1109CC4B199460C46F4
:101800000546164602F07CF8476A2368BF00BB42D3
:10181000804607D30F9B9F4204D1D0F88C209200C2
:101820004A450CD0354B184605B0BDE8F08F344B17
:10183000184605B0BDE8F08F314B18467047109B35
:10184000314603F140091846A2F1040BFFF7ACFA48
:101850003A460E994846FFF7A7FA109B109A53F89C
:101860000B3012680293019223F04043109A1099B2
:1018700043F0804342F80B30136802F1200A23F052
:101880000703136050464A46434602F055FA20B318
:101890001C4B109A964205D039461046019308F029
:1018A00049FF019B554505D050463946019308F044
:1018B00041FF019B0E9A4A4505D03946484601939F
:1018C00008F038FF019B0193109B4FF4807103F1E6
:1018D000600008F02FFF019BA5E7109B03901A46BC
:1018E000019B1360029B42F80B305146D8F824202C
:1018F0002846FFF769FA2760039BCAE73123F00007
:101900003023F0003423F0002DE9F04F85B00E9F16
:10191000C8B1C1B1BAB1B7B19A4616460C46054630
:1019200001F0EEFF426A23684FEA8208984581463B
:1019300004D8D0F88C30BAEB830F09D0254B184669
:1019400005B0BDE8F08F244B184605B0BDE8F08F18
:10195000AAF1040B524631463846FFF725FA57F8EC
:101960000B30029323F0404343F080433A6847F83A
:101970000B303B68019223F0070307F1200A3B601C
:1019800050464B4609F12802394602F0D5F988B194
:10199000124BBE4205D038464146019308F0CAFEBC
:1019A000019B5545D0D041465046019308F0C2FEF8
:1019B000019BC9E7019B3B60029B47F80B300390FA
:1019C0005146D9F824202846FFF7FEF9C4F80080D4
:1019D000039BDEE73123F0003023F0003423F000D6
:1019E0002DE9F047002950D0002B52D0002854D0C8
:1019F000D0F8B842B4F5107F2BD8D0F8BC620134CF
:101A0000A64226D84AB30736F608B24225D817466A
:101A100003F104090A461D4682463B4648464C21CE
:101A2000FFF702FA044648BB07F10308B7424FEA42
:101A3000980816D041464846FFF778FAF0B151466B
:101A40004FF4377205F1500008F06EFE154B2B6015
:101A500000E0154C2046BDE8F087144C2046BDE858
:101A6000F087DAF8BC321F33C3F34F130AF1D80200
:101A700041464846FFF79CF80228DBD028464FF441
:101A80004C7108F057FE0A4CE4E70A4C2046BDE8CA
:101A9000F087094C2046BDE8F087084C2046BDE899
:101AA000F08700BF020000EC9508F0000B08F00082
:101AB0000C08F0000908F0000A08F0000208F00025
:101AC000F0B1F9B110B5114B04689C4214D1DAB1F0
:101AD000D0F80C3314680733B4EBD30F0ED302469F
:101AE000043208464C232146FFF774F9084B0028BE
:101AF00014BF1846002010BD064810BD064810BD92
:101B00000648704706487047064810BD020000ECC2
:101B1000C508F000C208F000C408F000C008F000DA
:101B2000C108F000C308F00030B33AB32DE9F84320
:101B3000334C0568A5421CD113B3052916D00729DB
:101B400014D81E46D0F84C331546C26CDF1D04294C
:101B500003F11F0304464FEAD7074FEA531302F07D
:101B6000010227D0062925D002290BD02548BDE83F
:101B7000F8832548BDE8F883244870472448704717
:101B80002448F7E7316807F10108414536D3284674
:101B900042F0020200F8012B9B00221D3946FFF79C
:101BA00019F940B32846316808F0C4FD00233360BA
:101BB0001948DFE74FEA4708306808F10108404557
:101BC0001CD30429284618BF42F006014FEA8309B6
:101BD00000F8011B4B46221D3946FFF7FBF8002891
:101BE000E0D1781C4B4604F14C0228443946FFF7FB
:101BF000F1F80028D6D1C6F80080BBE70748B9E75E
:101C0000010000EC1508F0001A08F0001408F000BC
:101C10001608F0001708F0001B08F0001808F00084
:101C20002DE9F04182B0002A59D0002B5CD0089CED
:101C3000002C63D0099C002C4FD0002863D00029D1
:101C400057D015460F4680464FF44C7118461E4635
:101C500008F070FD4FF45D71089808F06BFDD5F841
:101C6000BC4209981F346409A200013C05F1D80167
:101C700006EB840408F058FD00236360331DD5F89B
:101C8000BC22009339464046099B00F0FFFC044605
:101C9000C8B130464FF44C7108F04CFD4FF45D7103
:101CA000089808F047FD0A9B23B140F668111846D2
:101CB00008F040FD4FF45371099808F03BFD2046B1
:101CC00002B0BDE8F0812846DDE90823314602F084
:101CD00053FB04460028DCD1E5E70C4CEFE70C4C45
:101CE000204602B0BDE8F0810A4C204602B0BDE8B3
:101CF000F081094C204602B0BDE8F081074C204637
:101D000002B0BDE8F081064CD9E700BF0508F0003D
:101D10000208F0000308F0009008F0000408F0004A
:101D20009108F0000B2804D8034B53F8203003B17E
:101D300018470020704700BF04760300F0B5BDB01F
:101D400004460F466846F0211D46164608F0F2FC90
:101D5000042C3DD8DFE804F03732213C0300032295
:101D60000092802240491792404A414B3993CDE975
:101D70003A1268469847B0F5720F1DD036D93D4BE0
:101D8000984225D0013398422DD13B4C6846F02132
:101D900008F0D0FC20463DB0F0BD384B38493993AF
:101DA0000122009240221792364A6846CDE93A1243
:101DB0009847B0F5720FE1D1334CE7E72F4B30492C
:101DC00039930222EDE72D4B2D4939930022E8E7A4
:101DD0002E4CDBE7274B9842FAD001339842D4D0FF
:101DE000B0F5720FE8D04FF47504CFE70028FAD1B0
:101DF0006EB147B3019B13BB32463946684608F0C3
:101E00001BFFB0F5720FD7D0B9D80028EBD14DB376
:101E1000189AB2B911460123019368463A9B984734
:101E20000028D7D13B9B684698470028D2D1009B19
:101E30001890032BCCD8DFE803F01311080F144CD3
:101E4000A4E719A9E7E7134CA0E71C22284602A93A
:101E500008F06AFC002499E74022F7E72022F5E722
:101E60001422F3E70C4C91E7D1A10000754B000060
:101E7000A14D00000100F2000202F0004D4D0000F3
:101E8000FD9F0000F14A00000002F0000102F00096
:101E90000C02F0000302F0000502F00000283AD026
:101EA00000293CD070B5026EB2B9164601230D462A
:101EB00043603146D0F8E8300446984778B9D4F802
:101EC000EC302046984750B923682066032B24D86D
:101ED000DFE803F01D19111B00F16406E6E7124B61
:101EE00098421AD0013398421BD0B0F5720F10D02F
:101EF0004FF4750070BD1C22284604F1080108F05B
:101F000013FC002070BD2022F6E74022F4E71422E3
:101F1000F2E7064870BD05487047054870BD0548A2
:101F20007047054870BD00BF0100F2000002F000DC
:101F30000102F0000502F0000202F00070B138B5B5
:101F40000D46F021044608F0F5FB042D04D8DFE827
:101F500005F0203239030700204838BD204870477B
:101F60002049214A214BC4F8E43080200325E06554
:101F70002560C4E93A1220469847B0F5720F18D090
:101F800027D91B4B9842E7D00133984223D11948F7
:101F900038BD194B19491A4AC4F8E43000254020CD
:101FA000E0652560C4E93A1220469847B0F5720F03
:101FB000E6D10B4838BD104B1049114AC4F8E43043
:101FC0000225ECE70C4B0D490D4AC4F8E43001251D
:101FD000E5E70028C1D04FF4750038BD0102F000DC
:101FE0000002F000D1A10000754B0000A14D0000DF
:101FF0000100F2000202F0004D4D0000FD9F0000C4
:10200000F14A000088B3F8B5154652B30F460029CF
:102010003BD04368044633BBD0E91723D01AB0FB4A
:10202000F2F602FB1606AE4228BF2E467EBB9A424F
:1020300008D1D4F8E83004F1640120469847B0B9DB
:10204000E26D2066B5FBF2F602FB06F646B1D4F867
:10205000E830324639462046984740B93744AD1BF0
:1020600015BB0020F8BD1848F8BD18487047184B3C
:10207000984227D00133984222D0144BB0F5720F0A
:102080000CBF18464FF47500F8BD1248F8BD04F1B6
:1020900064001844324608F047FBD4E91723334460
:1020A0003744AD1B2366C2E7206E19302A463946F5
:1020B00004EB800008F038FB236E1D442566D0E752
:1020C0000548F8BD0548F8BD0C02F0000002F0001C
:1020D0000100F2000302F0000202F0000102F00031
:1020E000C8B1254B02689A4213D169B3F0B5D0F854
:1020F000843091B000F18806022B04460D4630462C
:1021000069468CBF80274027FFF7C8FE28B111B071
:10211000F0BD1A4870471A487047D4F8841030460A
:10212000FFF70CFF0028F2D13A46211D3046FFF799
:1021300069FF0028EBD1D4F88430042B1AD8DFE8EB
:1021400003F01105171513000E4870471C2269464D
:102150003046FFF757FF0028D9D129463046FFF710
:102160009DFED4E71422F2E74022F0E73022EEE7AA
:102170002022ECE70448CAE7896745230203F00000
:102180000003F0000503F0000103F000002857D021
:10219000002A57D0002B3ED02DE9F041B0B00429E1
:1021A0004AD8DFE801F03A3A3A03030080260D46A8
:1021B0004FF4BC711F469046044608F0BBFA8021DC
:1021C00010A808F0B7FAB7423A46414627D810A8F7
:1021D00008F0AAFAB708201D10A9002251F8043B04
:1021E000013283F05C33BA4240F8043BF6D300215D
:1021F00010AA1368013183F036338F4242F8043B52
:10220000F7D804F1880738462946FFF797FED8B17A
:1022100030B0BDE8F081194870474026C7E76B46EB
:102220002846FFF78BFD0028F2D1042D04D8DFE803
:1022300005F01F1723211D00114830B0BDE8F081C3
:102240001048704710487047324610A93846FFF7CB
:10225000D9FE0028DCD10D4BC4F884502360D7E7A9
:102260001C22694610A808F05FFAB3E74022F8E79D
:102270001422F6E73022F4E72022F2E70703F00009
:102280000103F0000003F0000603F0008967452316
:1022900080B170B40B4C0568A54204D161B12AB974
:1022A000104670BC7047084870BC7047883070BCDE
:1022B000FFF7A8BE05487047002A054870BC08BF54
:1022C00000207047896745230203F0000003F000F7
:1022D0000303F0002DE9F84360B3054614460E46AB
:1022E00039B1302A01D8930728D0254F3846BDE8A8
:1022F000F883EAB9DFF89C804FF0FF31D8F800008E
:1023000008F038FA074678BB402105F1840008F050
:1023100011FAA408C5F8C440D8F8000008F04CFA37
:102320000028E3D0174808F0A9F93846BDE8F8833B
:10233000154FDBE7154F3846BDE8F883DFF85480CA
:102340004FF0FF31D8F8000008F014FA074658B9EA
:1023500005F184094846402108F0ECF93146484629
:10236000224608F0E1F9D4E7094805F1840908F0AC
:1023700085F94846402108F0DDF9002EEED1C8E786
:10238000040CF000D86A0300030CF000250CF000E8
:10239000C06A0300783401202DE9F04F9BB000287B
:1023A0003FD0002A43D021B98B4658461BB0BDE828
:1023B000F08FA94F04460D4638684FF0FF3116469E
:1023C00008F0D8F948BBA54BD4F8DC209A4212D1CA
:1023D000D4F8D430DA0739D5D4F8CC30113338D822
:1023E000D4F8D080B8F1040F36D0B8F1080F33D04C
:1023F000DFF878B201E0DFF878B22946304608F01D
:1024000099F9D4F8C430C3B9386808F0D5F9002870
:10241000CBD0934808F032F9C7E7924808F02EF97C
:10242000D1E7DFF850B258461BB0BDE8F08FDFF8B7
:1024300048B258461BB0BDE8F08F0023C4F8C43042
:1024400004F18400402108F075F9DDE7DFF82CB2D3
:10245000D3E7DFF82CB2D0E7D4F8C4200C2A60D838
:1024600004F14003029304F1840A002A5CD0920034
:10247000514604F1480008F057F9D4F8C4200299F5
:1024800008F104039B00009392005346204608F095
:10249000D5F983460028B0D103462246514620464E
:1024A00008F0C4FA83460028A7D14FEA880B04EB52
:1024B0000B090122D9F80C301BBA9B184FF0000110
:1024C0001BBA28BF1146C9F80C3001B3D9F808303F
:1024D00001221BBA9B184FF000011BBA28BF1146FE
:1024E000C9F8083099B1D9F8043001221BBA9B18F9
:1024F0004FF000011BBA28BF1146C9F8043031B1B2
:1025000054F828301BBA01331BBA44F82830002392
:1025100007A81946032207F0AFFF50B1DFF864B1F6
:102520006BE7DFF864B168E74021504608F002F934
:10253000BBE70146082305AA07A8CDE9054B07F02C
:10254000F3FF0028EAD1494607A807F0D5FF002885
:10255000E4D1454AD4F8D4301A4266D015F00F0BB6
:102560004FEA151303930EBF4FF0100B0133039383
:102570005D450DD0A5EB0B084146304608F0DAF872
:1025800033464246314607A807F096FE0028C5D1DB
:1025900004F1300810224146029808F0C5F8404680
:1025A000102108F0C7F81AAA102342F8583D07A8CE
:1025B0000192CDF800801946424607F0C3FE00287C
:1025C000ACD1A5EB0B0030445A46414608F0ACF8BC
:1025D000D4F8D430DB0509D44246DDE902033146A4
:1025E00003F054F8834600287FF407AF09F1100286
:1025F000039901E0914508D052F8043D1BBA5B18DD
:102600001BBA4FF001011360F4D251460123224658
:10261000204608F00BFA834600287FF4EEAED4F88B
:10262000CC300133C4F8CC30EBE604F1300840463E
:10263000102108F07FF843464146102207A807F012
:102640003BFE00287FF46AAFD4F8D43043F48033E3
:10265000C4F8D43082E700BF78340120CDAB230129
:10266000D86A0300C06A030000010100210CF000D9
:102670000E0CF000270CF000000CF000080CF0002D
:10268000070CF000360CF000040CF0002DE9F04FC0
:1026900087B0109C002C00F08C806F4EA2F1020CD1
:1026A000B4457FD80746002800F08180002900F05B
:1026B0008E8002F107081D4691460E464FEAD80863
:1026C000B3B922461FFA88F1B047034600285FD10C
:1026D00008F1FF3819F0070F14F8082042F08001C4
:1026E0006CD104F808100023184607B0BDE8F08F3D
:1026F0001FFA88F11846FEF7E3FB0228814668D9E5
:10270000032802D12B78032B63D909F107034FEA81
:10271000D30BA8EB0B0104EB0B00C9F1000908F087
:1027200009F809F00709FF2343FA09F90BF1FF3310
:102730005FFA89F204EB03091FFA8BF30393ABF101
:10274000100304934FF6FF73CDF814800193904665
:102750000295224603993846B047002877D199F868
:102760000030BBF10F0F08EA030389F8003032D8BC
:102770001FFA8BF31946029A2046FEF7AFFA022899
:1027800060D0019B013B0193E3D1DDF81480334B12
:1027900001934146204607F0CDFF019B184607B044
:1027A000BDE8F08F2E4B184607B0BDE8F08F2D4BDB
:1027B000F4E72D4B184607B0BDE8F08FC9F10002D1
:1027C00002F0070241FA02F204F80820E6E7274B7C
:1027D000E4E7274BDCE7049B029AE51802EB030AC7
:1027E00009E0002BC4D0B04788BB99F8003008EA54
:1027F000030389F800301023194652462846FEF795
:102800006DFA0346022B2A464FF010013846E8D1F4
:10281000029D013C04EB0B01012314F8012F13442A
:10282000A14223704FEA2323F7D1013D05EB0B03AF
:10283000022215F8011F0A449D422A704FEA222203
:10284000F7D150E7029DBBF1000FE2D14BE7DDF875
:10285000148003469CE700BFFDFF0700010CF00059
:10286000310CF000250CF000300CF000140CF000DE
:10287000320CF0002DE9F0418EB0002900F091807B
:1028800000287ED04E4F0D4604464FF0FF31386889
:1028900007F070FF002879D14A4BD4F8DC209A4227
:1028A00063D1D4F8D430DB0779D507A9204607F0E7
:1028B000D1FC0646002859D1D4F8D060042E01D0AE
:1028C000082E73D1D4F8C4300C2B71D80EAB720122
:1028D00043F8242D06A804AACDE90020029507A9F3
:1028E0000022204602F056FD002863D1069B049882
:1028F000D4F8C42023F00303083304F184081844F7
:102900009200414607F010FFD4F8C420069B0499BA
:10291000043603EB820CB60000966246434620461E
:10292000CDF818C007F08AFF0646002843D10346B9
:1029300022464146204608F079F8064600283AD15A
:10294000D4F8D430C4F8C40043F001030122404657
:10295000C4F8D430C4F8CC20402107F0EBFE284660
:102960004FF4BF5107F0E6FE00E0174E386807F05D
:1029700023FF10B1154807F081FE30460EB0BDE8C8
:10298000F081134E30460EB0BDE8F081114807F0DB
:1029900075FE0C4BD4F8DC209A4282D0E5E70E4E4F
:1029A000E4E70E4E30460EB0BDE8F0810C4EDDE798
:1029B0000C4EDBE70C4E2046E42107F0BBFECEE7D1
:1029C0007C340120CDAB23010E0CF000D86A03004B
:1029D000250CF000C06A0300080CF000200CF00089
:1029E000210CF000040CF000260CF0002DE9F0475B
:1029F0008EB0002800F0C680002900F0B6800446A2
:102A00000D46E42107F096FE07A9204607F022FCB8
:102A100020B1614E30460EB0BDE8F0875F4F4FF0F9
:102A2000FF31386807F0A6FE002840F0A7802A464C
:102A300007A9204602F056FE0646386807F0BCFE9D
:102A4000002840F09780002EE3D1E421204607F0D3
:102A500071FE4FF0FF31386807F08CFE002840F01F
:102A6000968007A9204607F0F5FB002874D1D4F81A
:102A7000D030042B01D0082B6ED1D4F8C4200C2AFE
:102A80006AD803F1040A0EAB4FEA4A1243F8242D28
:102A900006A804AACDE90020029507A90022204635
:102AA00002F078FC00284ED1069B0498D4F8C4208C
:102AB00023F00303083304F18408184492004146CC
:102AC00007F032FED4F8C420069B049903EB82067B
:102AD0004FEA8A0ACDF800A03246434620460696C1
:102AE00007F0ACFE814670BB5146204607F022FE3F
:102AF0004B4622464146204607F098FF064610BB4B
:102B0000D4F8D430C4F8C40023F4803343F0010374
:102B10000122C4F8D430224BC4F8CC204046C4F87B
:102B2000DC30402107F006FE28464FF4BF5107F085
:102B300001FE386807F040FE00283FF46BAF1948EB
:102B400007F09CFD66E72046E42107F0F3FD2846E8
:102B50004FF4BF5107F0EEFD386807F02DFE10B1BD
:102B6000104807F08BFD104E54E7104E30460EB063
:102B7000BDE8F0870B4807F081FD64E70C4807F0DB
:102B80007DFD54E70B4E30460EB0BDE8F087084897
:102B900007F074FD65E700BF110CF0007C340120E4
:102BA000CDAB2301D86A0300120CF000200CF0001A
:102BB000C06A0300250CF0002DE9F04F97B0DDE965
:102BC00020679C014FEA073848EA874744F0045ED3
:102BD0009D4D90464EEA070E2A680092009AD20751
:102BE000FAD59A4DDFF860C2C5F800E04FEA8812C6
:102BF000229D42F0104242EA05354FEA834945EAF8
:102C00000905DCF800200192019AD207F9D58F4A14
:102C1000DFF834C215604FEA811848F010421743BC
:102C2000DCF800200292029AD207F9D5320342EA78
:102C30008646864A844D176046F0045C4CEA040CD4
:102C40002A680392039AD707FAD5804A7E4FC2F8C2
:102C500000C044EA090545F004554FEA033C45EA43
:102C60000C053A680492049AD207FAD58A0442F015
:102C7000104EDFF8D8A1744FCAF800504EEA040E87
:102C80004EEA0C0E3D680595059DED07FAD56F4D92
:102C90006D4FC5F800E046F0104646F480763D687A
:102CA0000695069DED07FAD5DFF8A0E1664FCEF850
:102CB0000060850145F0045E4EF4821E3E68079672
:102CC000079EF607FAD5614EDFF888B15E4FC6F869
:102CD00000E04FEA003A4AEA0B0B3E680896089E6D
:102CE000F607FAD5594FDFF870E1C7F800B0239E18
:102CF00030374EEA864E3E680996099EF607FAD5A9
:102D000044EA0C06DFF844B14F4FCBF800E046F040
:102D1000245646F400169E463B680A930A9BDB073E
:102D2000FAD57346DFF824B1474FCBF8006045F081
:102D3000484E4EF4821E4EEA03033E680B960B9EED
:102D4000F607FAD545EA0A05404F3F4E3B6045F08D
:102D5000045545EA090533680C930C9BDB07FAD54B
:102D600044EA8040394B384E1D6040F0045040EA40
:102D70000C0033680D930D9BDF07FAD5334B344DB0
:102D8000186031484CEA050503680E930E9BDE0778
:102D9000FAD5080302432D4B2B4E1D6048EA02076B
:102DA00047F0045533680F930F9BDB07FAD5274B89
:102DB000254E1D6047F0104733681093109BDB07CA
:102DC000FAD5224B204E1F6033681193119BDB070D
:102DD000FAD51E4B1C4E1D6042F00452224333684C
:102DE0001293129BDF07FAD5239B174D44EA033455
:102DF000164B44F010441A6044EA09042B681393FC
:102E0000139BDE07FAD548EA0000104B0E4A1C60FF
:102E100040F0245040F4101013681493149BDC0706
:102E2000FAD541F04841094B074A186041F4A21114
:102E300041EA080113681593159BDB07FAD5034B8C
:102E4000196017B0BDE8F08FB0B0025080B00250EA
:102E50004001282900011021004100212DE9F04FF7
:102E60008BB00F46159D6C6A8246214638461E4639
:102E70009046FEF75BF8214683461498FEF756F815
:102E800023462A4607218146002003F0D1FA05F2A5
:102E9000D44205230721012003F0CAFA002E49D0AD
:102EA000424623460721092003F0C2FA2346324650
:102EB0000721082003F0BCFA149B0097CDE9039585
:102EC000CDE901B3082209230E210D2003F072FE83
:102ED000054618B128460BB0BDE8F08F0D222146FB
:102EE000504603F079FA294A13680893089BD907DA
:102EF000FAD5274B2749284A196013680993099B7B
:102F0000DB07FAD5254B1F680E22214650466FEA93
:102F1000173703F061FA002EDCD104F18044013C44
:102F200028465AF8243043EAC7734AF824300BB0D5
:102F3000BDE8F08F234605F1940207211A2003F023
:102F400077FA234605F294420721182003F070FA1D
:102F5000234605F2B4420721192003F069FA04F16F
:102F60008043013B424658F82310079121F000416D
:102F700048F8231009202346072103F059FA07983F
:102F80000921C20F082004F013F995E7B0B00250F0
:102F900080B00250C01F3647B4B0025088B0025013
:102FA00000487047086B03002DE9F843089C8146F0
:102FB0008846104619461646656AFDF7B7FF002891
:102FC00000F09C80224607462B460721002003F094
:102FD0002FFA04F2D44205230721012003F028FA36
:102FE00004F1D4022B460721102003F021FA04F14A
:102FF000F4022B460721112003F01AFA04F58A7215
:103000002B460721122003F013FA04F59A722B467F
:103010000721132003F00CFA04F5AA722B460721AE
:10302000142003F005FA04F5BA722B460721152087
:1030300003F0FEF904F5CA722B460721162003F0AF
:10304000F7F904F5DA722B460721172003F0F0F99F
:1030500004F5EA722B4607210C2003F0E9F904F588
:10306000FA722B4607210D2003F0E2F904F50572F0
:103070002B4607210E2003F0DBF904F50D722B46D9
:1030800007210F2003F0D4F904F555722B460721D0
:10309000022003F0CDF904F55D722B4607210320D1
:1030A00003F0C6F904F565722B460721042003F0EE
:1030B000BFF904F56D722B460721052003F0B8F91E
:1030C00004F575722B4607211C2003F0B1F904F5B5
:1030D0007D722B4607211D2003F0AAF9072104F277
:1030E000744208462B4603F0A3F93946304604F0F3
:1030F00077FA044630B12046BDE8F883084C2046F4
:10310000BDE8F88348462946102203F065F9404699
:103110002946112203F060F92046BDE8F88300BF7C
:103120000223F0002DE9F04F87B05E6A109D17462C
:10313000B4004FF0000C9A46814688462246394634
:103140002B460420CDF814C0FEF7F8FD834658B195
:1031500004EB4401284607F0EDFA059804F0FAFE66
:10316000584607B0BDE8F08F4FF0FF31244807F014
:1031700001FB002840D106AA1E2342F8043D00218D
:10318000DAF8200004F0EAFF98BB2B68CDF800A025
:10319000221F23F007032B60AB58039223F0404318
:1031A00043F0804305EB040AAB5051460AEB0400A0
:1031B00033462A4600F0C6FA83460028C8D1039B4E
:1031C0005AF826105AF8032042EAC1724AF803203E
:1031D00039462246404607F0A7FA3246514648464D
:1031E000FDF7F2FD2246494608EB040007F09CFA81
:1031F000AEE7DFF814B0ABE7024807F03FFABAE7F2
:1032000080340120107003003323F0002DE9F04FCB
:1032100091B0DDE91A54D5F88C700290BE00984642
:103220008A4691461946324623460420FEF786FD1B
:10323000054660B120464FF40C7107F07BFA4FF061
:10324000FF3004F087FE284611B0BDE8F08F2378E8
:10325000721E23F007032370A35CA1194FEAC70B6A
:10326000881904910BF14001411803F03F030691C6
:1032700043F040035944059003910846A3540421A8
:10328000FEF75CFE05460028D4D1B9F1000F21D02D
:10329000C6F180034B4580F018811A4651460598C7
:1032A0000893A9F1800507F03FFAAB198022DDE908
:1032B00003010793FEF7A6FE05460028BAD1DDE913
:1032C00007237AB10AEB03010398FEF79BFE05463C
:1032D00040B1AFE73246DDE90301FEF793FE054654
:1032E0000028A7D1DDE90301FEF7D8FD0546002837
:1032F000A0D14FF0FF31814807F03CFA002840F0A0
:10330000EE80BB01002218461146079304F026FF09
:10331000002840F0E2801A9B68331A460893012186
:103320003B4603F085F8049A10230121022003F0A4
:103330007FF8734A13680B930B9BDB07FAD5714B2D
:10334000714A1A60049D02223946284603F044F867
:103350001A9B0022D3E9080104F000FF002840F086
:10336000BC8005991A9800908B19099318462A4633
:103370003B46FFF719FE054600287FF45BAF059832
:10338000321F50F82710835883EAC17308EB0601F7
:10339000DDF8248083503246404607F0C5F9B9F184
:1033A000000F00F0A0807300C3F1800342464B453C
:1033B00002EB0600C0F099804A46514607F0B4F986
:1033C0000BEB0906A94604210398FEF7B7FD054655
:1033D00000287FF42FAF324605990398FEF712FEBE
:1033E000054600287FF426AFB9F1000F09D04A4600
:1033F0000AEB0B010398FEF705FE054600287FF453
:1034000019AF03980699FEF749FD054600287FF499
:1034100011AF2A462946079804F0A0FE0546002869
:103420005BD1089A3B46012103F002F8069A10236B
:103430000121032002F0FCFF3B462246012104202B
:1034400002F0F6FF3B46049A0121022002F0F0FF51
:103450001A9A01210523084602F59D6202F0E8FF51
:10346000274B1A680C920C9AD607FAD5254B274A97
:1034700027491A600B680D930D9BD807FAD51A9946
:10348000244BD1F888101960234A1D49BB1C5B01ED
:1034900013600B680E930E9BDA07FAD5194B1F4A7F
:1034A00017491A600B680F930F9BDB07FAD5154B72
:1034B0001B4A1A6039460998052202F08DFF5A46C8
:1034C0000599029807F030F9B4E64A465146059846
:1034D00007F02AF906EB0902FDE6124DAAE61248AA
:1034E00007F0CCF80DE75E466DE7CBF18002514660
:1034F000A9EB0B0907F018F9802664E78034012056
:10350000B0B0025080B00250000108A1C0010CA16F
:10351000B4B0025090B0025094B0025040410C88B8
:10352000402114303323F000107003002DE9F04FD8
:103530008BB00746149D7C48D5F824808A464FF00E
:10354000FF31934699464FEA880407F013F90028A3
:1035500053D16600BA192B6A12F8012C03F01F032D
:10356000023B52FA03F343D12146484605F02AFFB5
:10357000049000283CD1159B1598234422463946D7
:10358000029307F0D1F822464946029807F0CCF89A
:10359000BBF1000F35D06200029BC2F180022344D0
:1035A0005A45039358D35A461846049B05935146EF
:1035B000B318049307F0B8F8039B234407932344FC
:1035C00003EB060B584604210693FEF7B7FC0346AF
:1035D000E8B14FF40C711598029307F0ABF84FF077
:1035E000FF3004F0B7FC029B18460BB0BDE8F08F2B
:1035F0004E4B18460BB0BDE8F08F4D4807F03EF833
:10360000A7E7029B2344CDE9046B0393D5E7049A13
:1036100015995846FEF7F6FC03460028D9D1059BBC
:103620004BB11A46049B991B51445846FEF7EAFCDD
:1036300003460028CDD158461599FEF72FFC0346C6
:103640000028C6D1024601464FF4007004F086FD02
:10365000064680B1374BBCE71846C6F1800251469A
:10366000ABF1800B07F060F80BEB060305938023AA
:103670000493039BA1E71023159A0121032002F074
:10368000D7FE05F1680243463046012102F0D0FE24
:10369000294A13680993099BDB07FAD5274B284A67
:1036A0001A6041460322159802F096FE0022114648
:1036B000286A04F053FD06460028CBD1DDF80880C7
:1036C000494640462246FDF76FFB211FCDF8088092
:1036D00058F8013003F1004348F80130DDF80C8060
:1036E000224639194046FDF75FFB33460195CDF878
:1036F0000080029A15990698FFF7B0FB0346002850
:103700007FF467AF079D0290394622462846FDF7B1
:103710004BFB22462946069805F028FA034A029BED
:10372000002808BF134654E7803401202023F0000E
:10373000107003003323F000B0B0025080B002508C
:1037400000010CA12DE9F04784B09A460C9C8146FB
:103750008846104619461646656AFDF7E7FBBAF13A
:10376000000F00F0AC802B462246072107460020C0
:1037700002F05EFE052304F2D4420721012002F08C
:1037800057FE2B4604F5EA7207210C2002F050FE8A
:103790002B4604F5FA7207210D2002F049FE2B4654
:1037A00004F5057207210E2002F042FE2B4604F5B7
:1037B0000D7207210F2002F03BFE2B4604F5157217
:1037C0000721102002F034FE2B4604F51D7207215C
:1037D000112002F02DFE2B4604F525720721122040
:1037E00002F026FE2B4604F52D720721132002F06D
:1037F0001FFE2B4604F535720721142002F018FE37
:103800002B4604F53D720721152002F011FE2B46D0
:1038100004F545720721162002F00AFE2B4604F536
:103820004D720721172002F003FE2B4604F21442CA
:103830000721082002F0FCFD2B4604F23442072148
:10384000092002F0F5FD04F254422B4607210B201B
:1038500002F0EEFD234A13680093009BDB07FAD5C4
:10386000214B22491F4A196013680193019BD80715
:10387000FAD51D4B1E491B4A196013680293029B1F
:10388000D907FAD5184B1B49164A196013680393D8
:10389000039BDB07FAD5144B174A1A60072104F281
:1038A000744208462B4602F0C3FD3946304604F008
:1038B00031F8044640B1204604B0BDE8F0870F4C13
:1038C000204604B0BDE8F08748462946102202F0A1
:1038D00083FD40462946112202F07EFD204604B0B9
:1038E000BDE8F087B0B0025080B0025080022A4795
:1038F00080122A4F80010021806118210223F000EC
:1039000000487047287003002DE9F041069C0E46E0
:1039100015461F462246636A01218046002002F0B8
:1039200087FD012104F1B4020846052302F080FD61
:10393000636A04F194020121062002F079FD636AB2
:103940003A460121082002F073FD2946304600F076
:103950000DF8044630B905F11F0149094046072218
:1039600002F03AFD2046BDE8F08100BF2DE9F04F9E
:10397000A9B009230B220C460A210590079318468B
:1039800008920C230122099104210A9302F07EFC83
:10399000079BA1499A0142EA834242F0924242F4D3
:1039A00004320B680B930B9BDE07FAD59B4B9C48AC
:1039B0001A60089B984A40EA831013680C930C9B8A
:1039C000DD07FAD5954B944918600A9B9A0142EAA3
:1039D000834242F0924242F404320B680D930D9BF5
:1039E000D807FAD58D4B8C491A600B680E930E9B45
:1039F000DA07FAD5894B8B49874A196013680F9308
:103A00000F9BDB07FAD5854B874A1A6014F11E021B
:103A100048BF04F13D026FF0404303EB621304F131
:103A2000FF38059AB8F1000F52F823B0C0F26F8149
:103A300008AB029307AB01930AAB0493DFF8009243
:103A4000754C764DDFF8FCA109AB0027039308F015
:103A50001F061F2E04D14FEA6812059B53F822B0AF
:103A60002BFA06F606F0010677403A46DDE9010139
:103A700005F0A8F93A46DDE9030105F0A3F90A9A31
:103A800049EA023123681093109BDF07FAD52960B9
:103A9000089A664941EA824123681193119BD8072D
:103AA000FAD52960099A49EA023123681293129BD8
:103AB000DA07FAD52960079A5D4B43EA8241236809
:103AC0001393139BDB07FAD52960079A0998110312
:103AD00041EA804141F0045141EA82112368149384
:103AE000149BDF07FAD52960DDE908100A9A120352
:103AF00042EA814141F0045141EA80112368159363
:103B0000159BD807FAD529600A9A0798910141EACE
:103B1000003141F0104141F4002123681693169BB7
:103B2000DA07FAD52960099A910141EA023141F098
:103B3000104141F4402123681793179BDB07FAD506
:103B4000296023681893189BDF07FAD5394B2B603F
:103B5000079A110341EA824141F0104141F0C0014E
:103B600023681993199BD807FAD52960DDE9092143
:103B70001203089842EA814141F0045141EA801160
:103B800023681A931A9BDA07FAD52960099A49EA39
:103B9000023123681B931B9BDB07FAD52960DDE903
:103BA0000920910141EA804141F0045141F48041F2
:103BB00023681C931C9BDF07FAD52960079A4AEA01
:103BC000821123681D931D9BD807FAD529602368AD
:103BD0001E931E9BDA07FAD5174A2A6023681F93A3
:103BE0001F9BDB07FAD5154A2A60099A110341EA9F
:103BF000824141F0104141EA821123682093209BC9
:103C0000DF07FAD52960089A110341EA824141F0A1
:103C1000104141EA821117E0B0B0025080B002506A
:103C20000000224940010021405114218040002120
:103C3000C040002180300C9000211429C0400C218C
:103C40000001142900200C9023682193219BD807A0
:103C5000FAD5296023682293229BDA07FAD5314AE4
:103C60002A60DDE90902910141EA003141F0104189
:103C700041F4001123682393239BDB07FAD52960C5
:103C8000099A4AEA821123682493249BDF07FAD514
:103C900008F1FF38B8F1FF3F296037467FF4D7AE0F
:103CA000DDE90101324605F08DF83246DDE9030118
:103CB00005F088F8089B1C481C4A40EA83101368EA
:103CC0002593259BDC07FAD5194B18491860DDE9C7
:103CD00008301A0342EA804242F0184242F0800261
:103CE0000B682693269BD807FAD5114B11491A6009
:103CF000079B0E4A41EA834113682793279BDB0702
:103D0000FAD50B4B0020196029B0BDE8F08F08AB45
:103D1000029307AB01930AAB049309AB002603930C
:103D2000BEE700BF823018C800200229B0B00250A0
:103D300080B00250C02100882DE9F04184B00746D0
:103D40000E460D244FF0FF311248039490461D4655
:103D500006F010FDD0B903AA0021286A04F0FEF98C
:103D6000044660B9D5F88C103046FDF7DFF80095B1
:103D70000246434631463846FFF7C6FD04460398DF
:103D800004F0E8F8204604B0BDE8F081024806F0EF
:103D900075FCE0E780340120207103002DE9F04339
:103DA000D0F848431F3464091D464FEA8408D0F810
:103DB0004C3385B005EB080600F1480706EB080C0C
:103DC0001F33009701959146CDE9026C5A090346CD
:103DD000903003F0A1FE074640B128464FF45371DE
:103DE00006F0A8FC384605B0BDE8F0833046214611
:103DF000FDF79CF850B121462846FDF797F828B109
:103E0000424648462946FDF7CBF8E6E7004FE4E78F
:103E10002008F1002DE9F04FA5B0002800F0AB809C
:103E2000002900F0AD80D2F808431F344FEA541B3C
:103E3000BBF1130F00F29580D2F804431F346409DC
:103E4000122C00F28E800D93329BCDF81CB0A40092
:103E500003EB04084FEA8B03924608EB030202EBE4
:103E600004090593043B069209EB030243440993BA
:103E70002E9B0B90C3460A91444E08920027C846D9
:103E8000002B56D1002F71D1059A2F99584606F074
:103E90004BFC069A0292329ACDF80C800AF5DC733C
:103EA000CDE9003259460AF5B873079A0AF14C0079
:103EB00003F032FE0546002854D1DAF8080300F179
:103EC0001F034FEA5319B9F1130F4FF02003169354
:103ED00047D8DAF804431F346309122B0C9340D8F7
:103EE0002B4B93F90220144693F903200F9293F978
:103EF0000420109293F90520119293F90620139251
:103F000016A993F9072093F908301492129304F03C
:103F1000FFF80546002847D01E4B984222D12E9B21
:103F2000002B00F02C81652F00F029810137002B38
:103F3000A8D0089B059A00241C600AF5927140469F
:103F400006F0F2FB099B1C60DAF80823CDF800B0FC
:103F50004346DDE90A10FEF799FB0546002898D094
:103F600000E00D4D284625B0BDE8F08F0B4D2846EA
:103F700025B0BDE8F08F0A4D284625B0BDE8F08F8A
:103F8000084D284625B0BDE8F08F00BFB0B0025004
:103F9000B07603001008F1003108F1001108F100BB
:103FA0009108F0009008F0004B460AF5927201214A
:103FB00002F03EFA0121E3B208469DF83C400E9320
:103FC0000AF5067205230F94159402F031FA0C9B42
:103FD0009DF84040329A0E980C94012102F028FA84
:103FE0009DF844400F980D9A0F944B46012102F022
:103FF0001FFA4B465A460C98012102F019FA4B461B
:1040000052462046012102F013FA9DF848100C9BFD
:104010008A014FEA834C4CEA020444F02744336897
:104020001793179BD807FAD5564B4CF0AE401C603F
:1040300040F4023033681893189BDB07FAD5514BD4
:104040001860514B1B681993199BDC07F9D54F4B2E
:104050001B68D80400F18F8042F0245242F40832E9
:1040600033681A931A9BDB07FAD59DF84C00454B31
:104070004CEA013141F0184141EA80111A6033687D
:104080001B931B9BDC07FAD5414A3E4B42EA804218
:10409000196033681C931C9BD907FAD5394B1A60F9
:1040A000394B1B681D931D9BDB07F9D5374B1B68EC
:1040B000DC0460D40E9B9DF850401A030F9B42EA2B
:1040C000834242F008424FEA841C42EA0C02336801
:1040D0001E931E9BD907FAD5159B990141EA83418E
:1040E000284B41F058411A6033681F931F9BDB0730
:1040F000FAD5159BA2044CEA020C4CEA033E214B74
:1041000019604EF04453316820912099C907FAD5BF
:104110001C494CEA003040F008400B6033682193A2
:10412000219BDB07FAD5174B42F0A24242F4023240
:10413000186033682293229BD907FAD5114B1A6075
:10414000114B1B682393239BDA07F9D50F4B1B6890
:10415000DB0410D40E9A3098494602F03DF922460D
:104160004946319802F038F9169803F0F3FE2846D4
:1041700025B0BDE8F08F169803F0ECFECFE6054DB4
:10418000F0E600BF80B00250B4B0025088B00250D8
:10419000000802511008F100F8B514460732D208A1
:1041A0000546FCF7FDFE604210F007001AD01F34F0
:1041B0006409012C12D0A4002F1F29682744C0F1E4
:1041C000200C2B4621FA00F6596801FA0CF2324312
:1041D00043F8042B9F42F5D1043C25442B6823FA75
:1041E00000F02860F8BD00BF2DE9F04FD0F84C6317
:1041F00085B02024039416F11F0448BF06F13E0445
:104200006411132C78DCD0F848B31BF11F0748BFAA
:104210000BF13E077F11122F6EDCB3458846054631
:1042200003A95846B8BF30469A46914603F070FF3E
:104230000346002861D1334B334A1E6001212346D7
:10424000C2F800B005F5B47202F0F2F80121084698
:1042500005F51772052302F0EBF8234652460121BB
:104260001C2002F0E5F823460E9A0121032002F0FB
:10427000DFF805F190044B4642460121022002F08E
:10428000D7F83B46224601211A2005F5127402F0A8
:10429000CFF82246052301211B2002F0C9F83B4636
:1042A00005F5DA720121142002F0C2F83B4605F54B
:1042B000FE720121152002F0BBF83B462A4601217F
:1042C000162002F0B5F83B4605F1480201211720FF
:1042D00002F0AEF83B4605F1D80201210B2002F0B6
:1042E000A7F803F0ADFC0190039803F033FE019BA7
:1042F000184605B0BDE8F08F044B184605B0BDE880
:10430000F08F00BF90B0025098B002503108F10019
:10431000F0B5D0F84843D0F84C2385B01F3403469D
:10432000640901EBC40001EB84070D4601911F32C3
:1043300003F14801CDE902700091520903F5B4710F
:1043400003F1900003F0E8FB70B9064621463846B9
:10435000FCF7ECFD20B921462846FCF7E7FD00B14B
:10436000034E304605B0F0BD024E304605B0F0BDFC
:104370001008F0003008F0002DE9F04385B0002867
:1043800039D000293CD0002A51D07BB31646D0F852
:10439000BC22039306F14C0400F5B6731F3201F101
:1043A000040906F10408CDE9018400930D46520981
:1043B000494600F59273074603F0AEFB044620BB66
:1043C000394605F150004FF4377206F0ADF91A4B3B
:1043D0002B6006F1940039464FF4377206F0A4F9C9
:1043E000164B3360204605B0BDE8F083144C2046E0
:1043F00005B0BDE8F083134C204605B0BDE8F0835E
:10440000114C204605B0BDE8F08300242C604846DE
:10441000214634604C2206F08BF92146404690221A
:1044200006F086F9094C204605B0BDE8F083084C3B
:10443000204605B0BDE8F083020000EC010000EC6E
:104440000508F0000208F0000308F0003008F00052
:104450000408F000F0B5D0F8483303F11F048DB024
:1044600064092022122C00920AD80E46054669469D
:10447000184603F04DFE074630B138460DB0F0BD8A
:10448000524F38460DB0F0BD234605F19002012190
:1044900001F0CEFF01210846052305F5127201F057
:1044A000C7FF23462A460121022001F0C1FF23460F
:1044B00005F1D8020121042001F0BAFF05F5907240
:1044C00023460121052001F0B3FF414A13680193FF
:1044D000019BDB07FAD53F4B3F493D4A1960136802
:1044E0000293029BD807FAD53A4B3C49384A1960E7
:1044F00013680393039BD907FAD5364B3849344ADE
:10450000196013680493049BDB07FAD5314B354AD5
:104510001A6006F00603022B2BD005F14802234651
:104520000121032001F084FF294A13680593059BAC
:10453000DC07FAD5274B2C49254A196013680693E6
:10454000069BD807FAD5234B2849294A19601368D6
:104550000793079BD907FAD5264A274B126812F40E
:10456000805F08BF1F46009803F0F4FC38460DB08A
:10457000F0BD04F04FFC002826D01D4A13680893B4
:10458000089BDB07FAD51D4B194A196813680A9373
:104590000A9BD807FAD51A4A1A4B11601B6809936F
:1045A000099B5E40F10708D5343A13680B930B9BC7
:1045B000DB07FAD5074B144A1A60214605F148007B
:1045C000032201F009FFCEE7104FCCE70F08F000FF
:1045D000B0B0025080B0025080210888804118316C
:1045E000806108880051183180310C8800681051B2
:1045F000B4B0025088B002501008F0000CB0025065
:10460000E4B00250DCB00250C03000294021F0007C
:10461000F0B583B0002800F037811D46036A072BF0
:104620000E4604460AD01746002D40F08780032B23
:1046300000F094800024204603B0F0BD436B002BB3
:1046400000F08780012B02D1B5F5803F7DD215B9EE
:10465000236B002B79D14FF0FF319C4806F08AF88C
:10466000002840F0CE819A4B01221A60236A072B62
:1046700000F2178102FA03F313F08F0F00F011819B
:10468000636A934200F21F81636B934200F2E381FD
:10469000A36B934200F2FD818E4B8F491A600B6829
:1046A000002BFCD18D4A1368002BFCD18C4A136877
:1046B000002BFCD18B4A1368002BFCD18A4B1F685E
:1046C000002FFCD14FF0FF3005F080FF236A23F06C
:1046D0000403032B14BF4020802005F07FFF834B91
:1046E0001F60236A23F00402032A18BF676A804A06
:1046F0004FEA830318BF07F0010703F01C031F43B1
:104700001760236A072B02D17A4B01221A60A36A31
:10471000012B00F0A881C0F0A081022B00F09D8148
:10472000236A013B062B00F23F81DFE813F03401DE
:10473000560134013D013D013D013401436B002B25
:1047400040F0A780B5F5805F13D36B4C204603B0D3
:10475000F0BDB5F5805FFFF47AAFF6E7036B002B91
:104760007FF468AFC0E90F55C0E9115500F13C0670
:1047700010254FF0FF31554805F0FCFF002840F0B0
:104780009E80534B01221A60236A072B6AD802FAD3
:1047900003F313F08F0F65D0636A934262D8636BA3
:1047A00093425FD8A36B93425CD84A4B4A491A6044
:1047B0000B68002BFCD1494A1368002BFCD1484AF6
:1047C0001368002BFCD1474A1368002BFCD1464AE2
:1047D0001368002BFCD14FF0FF30019305F0F6FE7B
:1047E000226A22F00402032A14BF4020802005F030
:1047F000F5FE3E4A019B1360226A22F00401032960
:1048000018BF636A3A494FEA820218BF03F00103F6
:1048100002F01C0213430B60236A072B02D1354BB5
:1048200001221A60A36A012B00F00B81C0F0038102
:10483000022B00F00081236A5A1E062A76D8DFE890
:1048400002F06BA56B7575756B002C4A2C4B1268CA
:1048500022601A6862605A68A26008331B68E360CD
:1048600001232363274B1C68002CFCD1184B1748ED
:104870001C6005F0A1FF00283FF4DCAE224805F0E3
:10488000FDFE204603B0F0BD4FF47104204603B096
:10489000F0BD012B7FF46DAFB5F5803FBFF455AF90
:1048A00067E71A4C174A1368002BFCD1084A0748DF
:1048B000136005F081FF00283FF4BDAEDEE7144829
:1048C00005F0DCFE5DE7134CECE700BF8834012007
:1048D00010B8025000B9025070B4025020BD02500E
:1048E00020BC025038BD025038BC0250BCB402504B
:1048F000C0B402507CB402500500F10060B4025014
:1049000064B4025010B90250707403000100F10049
:10491000587403000200F1005F4B22681A6062685D
:104920005A60A2689A60E268DA60236A23F004039E
:10493000032B6AD0A36B012B00F0A580574A584B7C
:10494000176020201D60636B012B6FD0554A564BBA
:1049500016601D6005F04AFE544A1368002BFCD116
:10496000236A013B062B3FF67BAF01A252F823F0EE
:10497000914900004B480000914900006148000047
:10498000614800006148000091490000484BC4E7BD
:10499000414A484B5BE7404B22681A6062685A60A4
:1049A000A2689A60E268DA604349444A01230B60D6
:1049B0001560002D2ED1226B0AB9414A13603B4A83
:1049C0001368002BFCD1236A013B062B07D8DFE8D4
:1049D00003F01508150606061500354BDCE7002424
:1049E00060E7334A374B126822601A6862605A687F
:1049F000A26008331B68E360002453E7264A2D4B6E
:104A0000F1E7314805F03AFE2DE6636B012B0CD03F
:104A100010209BE7636B012B2FD0224A224B16609C
:104A200010201D6005F0E2FDC9E74020274A284B11
:104A300016601D608EE72749274A0B60012313602B
:104A4000F9E6264B22691A6062695A60A2699A6087
:104A5000E269DA60EFE6224C24E71E491E4A0B6049
:104A6000012313605CE61D4B22691A6062695A607B
:104A7000A2699A60E269DA6052E6144A144B166041
:104A800040201D60CEE7174A174B176080201D603D
:104A900059E7164C06E700BF40B4025030BD025043
:104AA00034BD025030BC025034BC025010B9025028
:104AB00060B4025044B402507CB40250BCB4025002
:104AC00024B5025064B402505874030028BC02504C
:104AD0002CBC025038BA025078B4025000B40250D4
:104AE0000300F10028BD02502CBD02500400F1006B
:104AF00000283BD0F0B482B0436A0193836893FAF4
:104B000083FC019BD0E90712D0E90376D0E9055474
:104B10001BBA4362436C019309BA836AC16112BA3A
:104B200002623FBAD0E90F1236BA2DBA24BAC0E9F0
:104B300002C7C0E90465C76A8461066B456B846B74
:104B400093FA83FC019B3FBA36BA2DBA24BA09BA4C
:104B500012BA1BBAC0E90AC7C0E90C65C0E90E4128
:104B6000C0E91023002002B0F0BC70474FF472007F
:104B7000704700BF002800F08A804C4B826D9A423B
:104B800001D04B4870472DE9F041016E804600F19D
:104B90004805E0B02846C900042200F08BF8D8F898
:104BA000543020A84FF4807200211CBA05F0C0FDDB
:104BB000D8F85C20E308B3FBF2F402FB1434141BB6
:104BC000102C98BFA41820ABA4F11000184429465B
:104BD000102280258DF8805005F0A6FD2A466846F3
:104BE00008F1640105F0A0FDD8E917230DEB0501DC
:104BF0000DEB0300D21A05F097FDD8E91753ED1A13
:104C0000ADB26946404600F0E5F8A54242D3D8E986
:104C10000641D8E90823D8E90207D8E9046500BAB3
:104C20003FBA24BA09BA12BAC8E9027036BAD8F83B
:104C30003400C8F81C402DBAD8F83040C8F8181015
:104C40001BBAC8F82420D8E90F12D8F83870C8F871
:104C50001460C8F81050D8F82860D8F82C50C8F85C
:104C60002030D8F8443024BA00BA36BA2DBA3FBA48
:104C700009BA12BA1BBAC8E90C040020C8E90A56DE
:104C8000C8E90E17C8E9103260B0BDE8F0814FF4F2
:104C90007200704720AB59196846D8F85C2005F0BF
:104CA00043FD6946404600F095F8B0E77856341267
:104CB0000200F200F0B40AB3031F1C4603EB8206A5
:104CC00054F8045F2DBAA6422560F9D102F1804460
:104CD000013CA60050F82440871909194FF000053F
:104CE00028BF01253960ADB9311D194453F8042F8F
:104CF00012BA8B421A60F9D1F0BC704750F8043CEC
:104D00005918144628BF012440F8041C6FF003060C
:104D1000002CF1D0911E50F821305C1C9C4240F8D0
:104D200021400FD881B102F18043023B00EB8303A5
:104D300000E039B153F8044D651CA54201F1FF3183
:104D40001D60F6D9002AD7D0031FCDE7E8B110B512
:104D50000468012C12D0022C02D044B10C4810BDC2
:104D6000083020220B4905F0DFFC002010BD083080
:104D70001422094905F0D8FC204610BD0830202235
:104D8000064905F0D1FC002010BD4FF472007047B9
:104D90000100F2004C710300387103006C710300D4
:104DA00078B10368032B01D00748704710B5402243
:104DB00004460649083005F0B7FC054BA365002002
:104DC00010BD4FF4720070470100F200806A0300CA
:104DD000785634122DE9F04F00F10803ADF55D7DF2
:104DE0001D460C46402200212CA82393FBF7C4FA51
:104DF00029462CA8402205F097FCDDE93256CDE982
:104E00001E56DDE93467CDE91867DDE93678DDE95E
:104E10001E56DDE92C23CDE91A78CDE90056DDE9EF
:104E20003889DDE918679346DDE92E12CDE91C8942
:104E30003D46DDE93A9ADDE91A78CDE91412DDE95B
:104E40003001CDE9209ACDE90478DDE91C89CDE96E
:104E500016019C46201DDDE91412DDE91634CDE96A
:104E60000C89DDE9209ACDE90634CDE90812DFF896
:104E7000D881CDF83C803CA95CABCDE924BCCDE920
:104E800002BC3446CDE90A9A129386468C4611E05C
:104E9000DDE90423CDE90C23DDE90823CDE9044550
:104EA000CDE90623DDE90234CDE902ABCDE90834D2
:104EB0000D4604464FEA844A4FEA854BA803A603F1
:104EC000DDE90C234BEA943B4AEA953746EA9546DE
:104ED00040EA9440E1054FEAC55887EA060A8BEAA2
:104EE000000048EA5428049F059E41EA55214140AC
:104EF0008AEA0800CDE9281057405E4027402E403E
:104F000057405E40DDE928ABCDE928765EE9011027
:104F1000DDE90289DDE9286700BACCF800004846DF
:104F20003B4609BA07014046CCF80410810741EA24
:104F3000990147EA18774F40414632460E014946EB
:104F400046EA19708E0746EA980180EA0106114682
:104F500011EB0A0143EB0B020F9B8A46F3E90201B6
:104F60000F93039B4FEA486848EAD31887EA08077B
:104F7000DDE902894B4628975F0647EAD817DDE945
:104F800006899346089A029B7E4048EA0207099ADE
:104F9000299610EB0A0849EA020641EB0B09DDE904
:104FA0000601089A1F40039BCDE9108900EA020818
:104FB000099A47EA08071E400B46269703EA0207AC
:104FC0003E43FCE802AB2796DDE9108918EB0A089E
:104FD00049EB0B09DDE90AABDDE92667DDE92812BB
:104FE00018EB0A0849EB0B0989190E46DDE90001A7
:104FF0007A41174618EB000249EB010310461946A7
:10500000DDE90623CDE90023DDE90C23CDE90A2300
:10501000129B18EB060A49EB070B63450EF1080ECD
:10502000CDE926677FF434AF064B0F93BAABCDE9D9
:105030000A450DF1E80C2293CDE9000104460D4626
:1050400018E000BF0872030088710300DDE90A451B
:10505000CDE90445DDE90245CDE90845DDE9004536
:10506000CDE90001CDE90A45CDE902AB04469246FF
:105070009B460D46DCE91EE04FEACE08460348EAAF
:10508000507846EADE464FEA4E3186EA08064FEA95
:10509000C00848EA5E7841EAD041820642EA9E12A0
:1050A00081EA0801564081EA9011CDE92A61AA04FB
:1050B000A90341EA944142EA94324A400099DDE969
:1050C0002A898E04019946EA9136009944464D4654
:1050D000DCE914894FEA813E019914EB08004EEA9D
:1050E000914186EA010E45EB0901DDE9008944465C
:1050F000DCE90473E60546EA59264C467240E605AB
:1051000046EA58262892DA078EEA060642EA570E41
:105110001A06299642EA1722FE078EEA020246EA9A
:10512000530E3E0646EA13268EEA0606DDE90A45D8
:1051300086EAD3165B0643EAD717059B109283EAEB
:105140000508019B049A2B9608EA0308059B9646DE
:1051500088EA0308009A109B8EEA0409CCE9220130
:105160005F4009EA0209FCE9022389EA0E091418E2
:105170002A974FEA0B1E4FEA8A7643EB010546EA6F
:105180009B06DDE92A234EEA1A7E8EEA060E4FEAD6
:105190004A614FEA0A1646EA1B77CDE9104541EA13
:1051A000DB11DDE908454FEA8B76CDE912238EEA63
:1051B000010E029A46EA9A064FEA4B617E4041EAA6
:1051C000DA114E4044EA0207DDE91223DDE910015D
:1051D0008018594102460B46DDE92801CDE928989F
:1051E000CCE92023DDE92823A0461418A94643EB87
:1051F00001050F9BF3E9020122180F9345EB010310
:10520000DDE9024541462140CDE928E607EA0A07E3
:10521000039E0F434946294049EA0606DCE920453A
:1052200006EA0B060E43A418CDE926765D41224618
:105230002B46DDE90C45DDE92667DDE92801A418E8
:105240005D41224634182B4647EB0105DDE9060196
:10525000161843EB010730463946DDE90467CDE90E
:105260000C67229E12196B416645CDE92645CDE9B2
:1052700006897FF4EBAEDDE92456AD185E41DDE929
:10528000143413EB0A0344EB0B04CDE906569A469B
:10529000DDE90267A346DDE916349B197C41DDE9AF
:1052A0001E6716EB080647EB0907CDE90267DDE943
:1052B00018783F1848EB0108CDE90878DDE91A12A3
:1052C000DDE9008911EB080142EB0902CDE9361254
:1052D000DDE90A89DDE91C1211EB080142EB090244
:1052E000DDE90656DDE92089CDE93812DDE9041251
:1052F000CDE92C56CDE93034DDE90267DDE908342B
:1053000018EB010849EB02093CA84FF42072002178
:10531000CDE93434CDE92EABCDE93267CDE93A8918
:1053200005F006FA2CA92398402205F0FDF90DF5A9
:105330005D7DBDE8F08F00BF0B6802E0082B0B60BD
:1053400006D8426813424FEA4303F7D00020704763
:1053500000487047310CF1000138072815D8DFE804
:1053600000F0100C1408141414048B698B600020D6
:1053700070474B698B60002070470B698B60002081
:105380007047CB688B60002070470148704700BFB2
:10539000310CF1002DE9F04F93B080460C461646D3
:1053A00006A830220021DDE91C59FAF7E5FF1E9B13
:1053B00003F5C16200232A60C9F80030D8F8D43060
:1053C00013F4407F13D02B681B68C9F80030002B02
:1053D00000F0AE80D8F8D40010F4007040F088805F
:1053E000039000F007FA039813B0BDE8F08F002E89
:1053F00000F088809349944A0868A1681268914235
:1054000040F09A80002840F0978098F8DB300493B1
:105410008E4E8F4DDFF848B24FF0040A00230593FB
:1054200001270CE09A0700F18980DB0600F19A80E1
:10543000A36803EB43031B049B0933602F6005A89B
:1054400000F0F4F9059BD907ECD54FF0FF33CBF80A
:105450000030804B1B6806937F4B1A6807925A688E
:10546000089208337D4A1B680993A36811680A9162
:1054700003EB430351680B91203A1B049B0912680C
:105480003360012700232F6005930AE0990755D464
:10549000DA0667D4A36803EB43031B049B0933605C
:1054A0002F6005A800F0C2F9059BD807EED56C4A1D
:1054B000684B4FF0FF3111601A680C925A680D92D8
:1054C0009A680E92DA680F921A6910925A691192CC
:1054D000103B1B681E9B06A903F5C260302205F035
:1054E00023F93023C9F80030D8F8D430002019E06F
:1054F0002B685C485A685C4B002A08BF184613B0FA
:10550000BDE8F08F23F00F03C8F8D43001220096D5
:1055100004AB2146404600F0E7F800283FF478AF9E
:10552000D8F8D4309B057FF55BAF13B0BDE8F08FA2
:105530004D4813B0BDE8F08F4C48F3E74FF0FF3310
:10554000CBF80030049B082B72D05B000493E4B1CD
:1055500083B9D8F8D43061684548464A002918BF55
:105560001046DFE710224FF0FF33CBF80020CBF8D6
:105570000030E7E704A92046FFF7DEFE48B13C4AC9
:10558000D8F8D4309042CDD1E5E7D8F8D4303A48B5
:10559000C8E721460498FFF7DFFE0028EFD1049BFF
:1055A000082B49D0042B4AD0A3F1020EBEFA8EFE7E
:1055B0004FEA5E1E3148324F234A012303601946E9
:1055C0003B6084461F46CCF80070A36813601368E4
:1055D000A0688342F7D100231A4A2A4F2A482B6039
:1055E0004FF0FF3CCBF800C06FF0130CC7F800C0C1
:1055F000C0F800E01360A36803EB43031B049B099E
:1056000033602960049AD8F8D810130243EA026381
:1056100021F07F421A43130A03F47F03134323F05C
:105620007F43BAF1010AC8F8D8307FF4F7AE51E7EA
:10563000D8F8D4300F4875E74FF0030EBAE74FF0B3
:10564000020EB7E738B1025030B10250D8B1025063
:105650002CB1025014B1025018B1025024B10250C2
:1056600008B10250340CF000330CF000300CF100A3
:10567000310CF100320CF100350CF100C4B10250D4
:1056800040B1025000B102500CB10250012BF8B5EC
:1056900017461CD010221D460C4605F043F8E0B119
:1056A000AE1E394604EB0610102205F03BF8A0B1FF
:1056B000022D0ADD00252046103421461022013536
:1056C00005F030F848B1B542F5D10020F8BD1146DB
:1056D000102205F027F80028F7D10148F8BD00BFD7
:1056E000020CF00000207047002867D0002965D028
:1056F000002B63D02DE9F04722B1012400221C6069
:10570000C0F8D8201A68002A55D00D46064619461A
:1057100028461C46FFF710FE00284DD12946206878
:10572000FFF71AFE002847D12368082B48D0042B26
:1057300049D0A3F10208B8FA88F84FEA5818234F65
:105740002349244B01223A6094460A609646C7F8E2
:1057500000E0A96819601968AA689142F7D11E4A49
:10576000DFF888901D49DFF888E01D4F00234FF0D7
:10577000FF3A1360C9F800A06FF01309CEF800904B
:10578000C7F800800B60AB6803EB43031B049B0965
:10579000C1F8A030C2F800C0D6F8D830226823F093
:1057A0007F4343EA0263C6F8D830226843EA022303
:1057B000C6F8D83000E00B48BDE8F0870A487047CB
:1057C0004FF00308BBE74FF00208B8E7C4B102503E
:1057D00040B1025030B102502CB1025038B10250E9
:1057E0000CB10250310CF100350CF10008B102503F
:1057F00000B10250084B094A002119601368002BC0
:10580000FCD107480749084A03604FF480604FF015
:10581000FF330860136070472CB1025010B902507A
:10582000C4B1025008BA025008B1025038B504465B
:105830004FF4806004F0DAFE054D06480649074A39
:1058400000232B6003600B682360136038BD00BF2A
:10585000C8B102502CB1025004B1025008B102503C
:10586000F0B58FB08601DDE914C746F02454564DDB
:1058700044EA02322C680094009CE407FAD5534DA8
:10588000DFF84CE1504CCEF8002045EA0C3C850492
:105890004CEA050C22680192019AD207FAD54C4CC9
:1058A0004C4AC4F800C0303442EA073C22680292F5
:1058B000029AD707FAD5464A474F434CC2F800C070
:1058C00047EA834722680392039AD207FAD5404AEF
:1058D0003D4C176022680492049AD707FAD53C4AD7
:1058E0003E4F394C176022680592059AD207FAD5C7
:1058F000374A3B4F344C176022680692069AD70706
:10590000FAD58C01324FDFF8E0C0C7F800C044F090
:10591000104242F44022303742EA03333A68079299
:10592000079AD207FAD52A4F274A3B6045F0104C18
:105930004CF4824C13680893089BDF07FAD5244B7C
:10594000284F214AC3F800C0374313680993099BC5
:10595000DB07FAD546EA00361D4B1B4A1F6046F0AE
:10596000045646F4801613680A930A9BDB07FAD59F
:10597000174B154A1E6013680B930B9BDF07FAD574
:10598000134B114A1E6045F0045545F482451368D7
:105990000C930C9BDE07FAD541F048430C4E0A4AA3
:1059A000356043F404231C4313680D930D9BDB0700
:1059B000FAD5074B0A461C6001460D2300200FB0A4
:1059C000BDE8F04002F060BCB0B0025040030021DE
:1059D00080B00250800000298020002100D1349046
:1059E000C0403490032008C8C03020292DE9F04F72
:1059F00099B0DDE923B64FEA831E4FEA864C4EF09C
:105A000010444CEA0636A14D019446EA04082C687D
:105A10000394039CE407FAD59D4C9C4EC4F8008087
:105A2000850145F02457229C47F4201747EA0434A7
:105A300037680497049FFF07FAD5259EDFF84C824C
:105A400040EA8647924E47F04847346047F0C00727
:105A50001C032743D8F800600596059EF607F9D584
:105A6000DFF82C92DFF82482C9F800704EEA0406B1
:105A70004CEA060949F01049D8F800700697069FCD
:105A8000FF07F9D5269FDFF808A2DFF80082CAF8E1
:105A900000904EEA874747F0104747EA040AD8F8D3
:105AA00000700797079FFF07F9D5DFF8E481DFF85B
:105AB000DC91C8F800A046F0245848F40018D9F842
:105AC00000700897089FFF07F9D54EEA8B49DFF869
:105AD000C0A16E4FCAF8008049F0045949EA040990
