:020000040000FA
:1000000090730020490300005103000031020000FA
:1000100055030000570300005903000000000000D2
:100020000000000000000000000000005B03000072
:100030005D030000000000005F030000610300009A
:10004000D91E0000630300005D210000630300006F
:100050006303000063030000251B0000630300002E
:1000600063030000630300006303000063030000F8
:1000700063030000E91E0000630300006303000047
:1000800063030000111F000063030000630300000E
:1000900063030000630300006303000063030000C8
:1000A00063030000630300006303000063030000B8
:1000B0006303000063030000000000000000000074
:1000C0006303000063030000630300006303000098
:1000D0006303000063030000630300006303000088
:1000E0006303000063030000AD0400000000000093
:1000F0000000000063030000000000006303000034
:1001000000000000000000000000000000000000EF
:1001100000000000000000000000000000000000DF
:1001200000000000000000000000000000000000CF
:1001300000000000000000000000000000000000BF
:1001400000000000000000000000000000000000AF
:10015000000000000000000000000000000000009F
:10016000000000000000000000000000000000008F
:10017000000000000000000000000000000000007F
:10018000000000000000000000000000000000006F
:10019000000000000000000000000000000000005F
:1001A000000000000000000000000000000000004F
:1001B000000000000000000000000000000000003F
:1001C000000000000000000000000000000000002F
:1001D000000000000000000000000000000000001F
:1001E000000000000000000000000000000000000F
:1001F00000000000000000000000000000000000FF
:10020000DFF80CD000F014F900480047A5320000D8
:100210009073002000B583B002900091019244F2E7
:10022000010071466A4602F0BBF803B000BD000051
:10023000094B1EF0040F1CBFEFF309801847EFF3C2
:1002400008800649064A884201D8904202D88D4665
:100250004FF0000018470000D91C000090730020E8
:100260009053002030B4044654E8000F0D4644E893
:100270000053002BF8D1156030BC704730B40446F1
:1002800054E8000F40EA010544E80053002BF7D181
:10029000156030BC704730B4044654E8000F00EAE3
:1002A000010544E80053002BF7D1156030BC7047BE
:1002B00030B4044654E8000F80EA010544E80053D6
:1002C000002BF7D1156030BC704730B4044654E8B9
:1002D000000F00EB010544E80053002BF7D1156037
:1002E00030BC704730B4044654E8000FA0EB010561
:1002F00044E80053002BF7D1156030BC704770B450
:1003000004464FF0000054E8006F0D68AE4207BF8E
:1003100044E80023012044E800630E60002B1CBF6A
:100320000020F0E770BC704730B4044654E8000F7A
:1003300088422CBF451A054644E80053002BF5D1EE
:10034000156030BC704700000648804706480047EB
:10035000FEE7FEE7FEE7FEE7FEE7FEE7FEE7FEE775
:10036000FEE7FEE7811F0000010200000048704721
:100370001460000010B5441A0346944209D2841850
:10038000114403E011F8013D04F8013D521EF9D279
:1003900010BD40EA0104A40703D009E010C9121FF0
:1003A00010C3042AFAD203E011F8014B03F8014B01
:1003B000521EF9D210BDD2B201E000F8012B491E45
:1003C000FBD270470022F6E710B513460A460446F2
:1003D0001946FFF7F0FF204610BD421C10F8011B24
:1003E0000029FBD1801A704730B50446002003462F
:1003F00000E05B1C934203D2E05CCD5C401BF8D074
:1004000030BD034611F8012B00F8012B002AF9D169
:100410001846704710B54843044601F089FF00288C
:1004200005D00021002C02D0641E0155FAE710BD52
:10043000064C074D06E0E06840F0010394E8070031
:1004400098471034AC42F6D3FFF7DEFE107300007D
:100450003073000070B58C1810F8015B15F00703BD
:1004600001D110F8013B2A1106D110F8012B03E04D
:1004700010F8016B01F8016B5B1EF9D12B0705D455
:100480000023521E0DD401F8013BFAE710F8013B9E
:10049000CB1A921C03E013F8015B01F8015B521EBA
:1004A000F9D5A142D8D3002070BD00000B490C4BF8
:1004B0000C4A4FF0FF3008601B68BFF35B8F52E8B7
:1004C000001F42E800300028F9D1BFF35B8F99424A
:1004D000F3D1BFF35F8F044A1360704704BA025030
:1004E00000BA02508833002008BA02502DE9F047C4
:1004F0008EB0002800F0C680002900F0B6800446C7
:100500000D46E42101F054F907A9204600F0ECFE65
:1005100020B1614E30460EB0BDE8F0875F4F4FF01E
:10052000FF31386801F064F9002840F0A7802A46BE
:1005300007A9204600F0DAFC0646386801F07AF98F
:10054000002840F09780002EE3D1E421204601F0FE
:100550002FF94FF0FF31386801F04AF9002840F0D8
:10056000968007A9204600F0BFFE002874D1D4F879
:10057000D030042B01D0082B6ED1D4F8C4200C2A23
:100580006AD803F1040A0EAB4FEA4A1243F8242D4D
:1005900006A804AACDE90020029507A9002220465A
:1005A00000F028FB00284ED1069B0498D4F8C42004
:1005B00023F00303083304F18408184492004146F1
:1005C00001F0F2F8D4F8C420069B049903EB8206EC
:1005D0004FEA8A0ACDF800A03246434620460696E6
:1005E00001F06AF9814670BB5146204601F0E0F8FF
:1005F0004B4622464146204601F056FA064610BBBD
:10060000D4F8D430C4F8C40023F4803343F0010399
:100610000122C4F8D430224BC4F8CC204046C4F8A0
:10062000DC30402101F0C4F828464FF4BF5101F0FE
:10063000BFF8386801F0FEF800283FF46BAF1948A6
:1006400001F05EF866E72046E42101F0B1F82846A3
:100650004FF4BF5101F0ACF8386801F0EBF810B17D
:10066000104801F04DF8104E54E7104E30460EB0D1
:10067000BDE8F0870B4801F043F864E70C4801F04F
:100680003FF854E70B4E30460EB0BDE8F0870848FF
:1006900001F036F865E700BF110CF00094730020FC
:1006A000CDAB230194710000120CF000200CF0007F
:1006B0007C710000250CF000F0B583B0002800F03C
:1006C00037811D46036A072B0E4604460AD017469B
:1006D000002D40F08780032B00F0948000242046FA
:1006E00003B0F0BD436B002B00F08780012B02D1DB
:1006F000B5F5803F7DD215B9236B002B79D14FF032
:10070000FF319C4801F074F8002840F0CE819A4BEC
:1007100001221A60236A072B00F2178102FA03F301
:1007200013F08F0F00F01181636A934200F21F8172
:10073000636B934200F2E381A36B934200F2FD816D
:100740008E4B8F491A600B68002BFCD18D4A1368C1
:10075000002BFCD18C4A1368002BFCD18B4A136808
:10076000002BFCD18A4B1F68002FFCD14FF0FF30CB
:1007700000F04AFF236A23F00403032B14BF402038
:10078000802000F04DFF834B1F60236A23F004029A
:10079000032A18BF676A804A4FEA830318BF07F02D
:1007A000010703F01C031F431760236A072B02D1C4
:1007B0007A4B01221A60A36A012B00F0A881C0F0D5
:1007C000A081022B00F09D81236A013B062B00F2E1
:1007D0003F81DFE813F03401560134013D013D0152
:1007E0003D013401436B002B40F0A780B5F5805FDD
:1007F00013D36B4C204603B0F0BDB5F5805FFFF41A
:100800007AAFF6E7036B002B7FF468AFC0E90F55B2
:10081000C0E9115500F13C0610254FF0FF31554855
:1008200000F0E6FF002840F09E80534B01221A6042
:10083000236A072B6AD802FA03F313F08F0F65D0EF
:10084000636A934262D8636B93425FD8A36B93420F
:100850005CD84A4B4A491A600B68002BFCD1494AC4
:100860001368002BFCD1484A1368002BFCD1474A7F
:100870001368002BFCD1464A1368002BFCD14FF0C3
:10088000FF30019300F0C0FE226A22F00402032A26
:1008900014BF4020802000F0C3FE3E4A019B13603D
:1008A000226A22F00401032918BF636A3A494FEA19
:1008B000820218BF03F0010302F01C0213430B6015
:1008C000236A072B02D1354B01221A60A36A012B40
:1008D00000F00B81C0F00381022B00F00081236A3D
:1008E0005A1E062A76D8DFE802F06BA56B7575757F
:1008F0006B002C4A2C4B126822601A6862605A689E
:10090000A26008331B68E36001232363274B1C6844
:10091000002CFCD1184B17481C6000F08BFF0028FE
:100920003FF4DCAE224800F0EBFE204603B0F0BD01
:100930004FF47104204603B0F0BD012B7FF46DAF7E
:10094000B5F5803FBFF455AF67E71A4C174A1368F7
:10095000002BFCD1084A0748136000F06BFF002809
:100960003FF4BDAEDEE7144800F0CAFE5DE7134C6D
:10097000ECE700BFA073002010B8025000B902508D
:1009800070B4025020BD025020BC025038BD02504D
:1009900038BC0250BCB40250C0B402507CB4025007
:1009A0000500F10060B4025064B4025010B9025066
:1009B000DC7100000100F100C47100000200F100D0
:1009C0005F4B22681A6062685A60A2689A60E268A7
:1009D000DA60236A23F00403032B6AD0A36B012B94
:1009E00000F0A580574A584B176020201D60636BAC
:1009F000012B6FD0554A564B16601D6000F018FE53
:100A0000544A1368002BFCD1236A013B062B3FF6A6
:100A10007BAF01A252F823F0390A0000F30800006E
:100A2000390A00000909000009090000090900004D
:100A3000390A0000484BC4E7414A484B5BE7404B4A
:100A400022681A6062685A60A2689A60E268DA6096
:100A50004349444A01230B601560002D2ED1226BBF
:100A60000AB9414A13603B4A1368002BFCD1236A40
:100A7000013B062B07D8DFE803F01508150606062C
:100A80001500354BDCE7002460E7334A374B12682A
:100A900022601A6862605A68A26008331B68E360CB
:100AA000002453E7264A2D4BF1E7314800F028FE99
:100AB0002DE6636B012B0CD010209BE7636B012BA1
:100AC0002FD0224A224B166010201D6000F0B0FD8E
:100AD000C9E74020274A284B16601D608EE727494A
:100AE000274A0B6001231360F9E6264B22691A603E
:100AF00062695A60A2699A60E269DA60EFE6224CA4
:100B000024E71E491E4A0B60012313605CE61D4B5F
:100B100022691A6062695A60A2699A60E269DA60C1
:100B200052E6144A144B166040201D60CEE7174A67
:100B3000174B176080201D6059E7164C06E700BF71
:100B400040B4025030BD025034BD025030BC02509F
:100B500034BC025010B9025060B4025044B4025088
:100B60007CB40250BCB4025024B5025064B40250AC
:100B7000C471000028BC02502CBC025038BA02508C
:100B800078B4025000B402500300F10028BD0250B6
:100B90002CBD02500400F1000B6802E0082B0B6032
:100BA00006D8426813424FEA4303F7D0002070474B
:100BB00000487047310CF1000138072815D8DFE8EC
:100BC00000F0100C1408141414048B698B600020BE
:100BD00070474B698B60002070470B698B60002069
:100BE0007047CB688B60002070470148704700BF9A
:100BF000310CF1002DE9F04F93B080460C461646BB
:100C000006A830220021DDE91C59FFF7DDFB1E9B01
:100C100003F5C16200232A60C9F80030D8F8D43047
:100C200013F4407F13D02B681B68C9F80030002BE9
:100C300000F0AE80D8F8D40010F4007040F0888046
:100C4000039000F0DBF9039813B0BDE8F08F002E9D
:100C500000F088809349944A0868A168126891421C
:100C600040F09A80002840F0978098F8DB30049399
:100C70008E4E8F4DDFF848B24FF0040A00230593E3
:100C800001270CE09A0700F18980DB0600F19A80C9
:100C9000A36803EB43031B049B0933602F6005A883
:100CA00000F0C8F9059BD907ECD54FF0FF33CBF81E
:100CB0000030804B1B6806937F4B1A6807925A6876
:100CC000089208337D4A1B680993A36811680A914A
:100CD00003EB430351680B91203A1B049B091268F4
:100CE0003360012700232F6005930AE0990755D44C
:100CF000DA0667D4A36803EB43031B049B09336044
:100D00002F6005A800F096F9059BD807EED56C4A30
:100D1000684B4FF0FF3111601A680C925A680D92BF
:100D20009A680E92DA680F921A6910925A691192B3
:100D3000103B1B681E9B06A903F5C260302200F021
:100D400033FD3023C9F80030D8F8D430002019E042
:100D50002B685C485A685C4B002A08BF184613B0E1
:100D6000BDE8F08F23F00F03C8F8D43001220096BD
:100D700004AB2146404600F0BBF800283FF478AFB2
:100D8000D8F8D4309B057FF55BAF13B0BDE8F08F8A
:100D90004D4813B0BDE8F08F4C48F3E74FF0FF33F8
:100DA000CBF80030049B082B72D05B000493E4B1B5
:100DB00083B9D8F8D43061684548464A002918BF3D
:100DC0001046DFE710224FF0FF33CBF80020CBF8BE
:100DD0000030E7E704A92046FFF7DEFE48B13C4AB1
:100DE000D8F8D4309042CDD1E5E7D8F8D4303A489D
:100DF000C8E721460498FFF7DFFE0028EFD1049BE7
:100E0000082B49D0042B4AD0A3F1020EBEFA8EFE65
:100E10004FEA5E1E3148324F234A012303601946D0
:100E20003B6084461F46CCF80070A36813601368CB
:100E3000A0688342F7D100231A4A2A4F2A482B6020
:100E40004FF0FF3CCBF800C06FF0130CC7F800C0A8
:100E5000C0F800E01360A36803EB43031B049B0985
:100E600033602960049AD8F8D810130243EA026369
:100E700021F07F421A43130A03F47F03134323F044
:100E80007F43BAF1010AC8F8D8307FF4F7AE51E7D2
:100E9000D8F8D4300F4875E74FF0030EBAE74FF09B
:100EA000020EB7E738B1025030B10250D8B102504B
:100EB0002CB1025014B1025018B1025024B10250AA
:100EC00008B10250340CF000330CF000300CF1008B
:100ED000310CF100320CF100350CF100C4B10250BC
:100EE00040B1025000B102500CB1025000207047D6
:100EF000002867D0002965D0002B63D02DE9F0478A
:100F000022B1012400221C60C0F8D8201A68002AEF
:100F100055D00D460646194628461C46FFF73CFEAE
:100F200000284DD129462068FFF746FE002847D10A
:100F30002368082B48D0042B49D0A3F10208B8FA43
:100F400088F84FEA5818234F2349244B01223A606E
:100F500094460A609646C7F800E0A96819601968C7
:100F6000AA689142F7D11E4ADFF888901D49DFF840
:100F700088E01D4F00234FF0FF3A1360C9F800A02E
:100F80006FF01309CEF80090C7F800800B60AB68D3
:100F900003EB43031B049B09C1F8A030C2F800C057
:100FA000D6F8D830226823F07F4343EA0263C6F8BC
:100FB000D830226843EA0223C6F8D83000E00B4854
:100FC000BDE8F0870A4870474FF00308BBE74FF0D1
:100FD0000208B8E7C4B1025040B1025030B102502B
:100FE0002CB1025038B102500CB10250310CF1005A
:100FF000350CF10008B1025000B10250084B094A0B
:10100000002119601368002BFCD107480749084AE2
:1010100003604FF480604FF0FF3308601360704747
:101020002CB1025010B90250C4B1025008BA02509B
:1010300008B1025038B504464FF4806000F0F8FA69
:10104000054D06480649074A00232B6003600B68DC
:101050002360136038BD00BFC8B102502CB10250EC
:1010600004B1025008B10250002800F0A080F0B591
:10107000446B83B0002C72D0012C02D1B3F5803FB9
:1010800070D204460E467A484FF0FF311D4617468F
:1010900000F0AEFB002840F08680764B01221A60FB
:1010A000236A072B6ED802FA03F313F08F0F69D06F
:1010B000636A934266D8636B934263D8A36B93428F
:1010C00060D86D4B6D491A600B68002BFCD16C4ADF
:1010D0001368002BFCD16B4A1368002BFCD16A4AC1
:1010E0001368002BFCD1694A1368002BFCD14FF028
:1010F000FF30019300F088FA226A22F00402032AEA
:1011000014BF4020802000F08BFA614A019B1360DD
:10111000226A22F00401032918BF636A5D494FEA7D
:10112000820218BF03F0010302F01C0213430B609C
:10113000236A072B02D1584B01221A60A36A012BA4
:1011400000F086807ED3022B7CD0236A5A1E062AAA
:101150003AD8DFE802F02F672F3939392F00B3F57D
:10116000805F8ED34D4803B0F0BD4D4A4D4B1268A1
:1011700022601A6862605A68A26008331B68E360E4
:1011800001232363484B1C68002CFCD1394B3848A1
:101190001C6000F04FFB0028E5D0444800F0B0FA96
:1011A000204603B0F0BD424800F0AAFA75E74FF4BC
:1011B000710070473F4B22681A6062685A60A268EB
:1011C0009A60E268DA60236A23F00403032B2ED0CE
:1011D000A36B012B46D0384A384B176020201D6086
:1011E000636B012B29D0364A364B16601D6000F028
:1011F0001FFA2D4A1368002BFCD1236A013B062BF2
:10120000BED801A252F823F0291200006B11000091
:1012100029120000811100008111000081110000DD
:10122000291200001E4BC6E7224A274B9FE7636B3B
:10123000012B01D01020D6E74020244A244B166011
:101240001D60D4E72349244A0B60012313607CE727
:10125000224B22691A6062695A60A2699A60E26947
:10126000DA6072E71E4A1F4B176080201D60B7E7E7
:10127000A073002010B8025000B9025070B40250A0
:1012800020BD025020BC025038BD025038BC025074
:10129000BCB40250C0B402507CB402500500F1004E
:1012A00060B4025064B4025010B90250DC71000006
:1012B000C471000040B4025030BD025034BD025031
:1012C00030BC025034BC025044B4025028BC02501E
:1012D0002CBC025038BA025078B4025000B402500C
:1012E00028BD02502CBD025030B5042385B0012228
:1012F000C0F8D03000230A6068460C46CDE90033C0
:10130000CDE9023300F0CCFA0546C8B9DDE900307A
:10131000DDE90212E360003318BF0123C4E90401D0
:10132000A26108B143F0020309B143F004030AB11A
:1013300043F00803002228466360A26005B030BD78
:10134000014800F0DDF9E1E7F471000020B331B3AA
:10135000C2B138B512F00F041CD1056A25F004059E
:10136000032D01D0FBB11C4613462246FFF77CFE3D
:10137000124B98421FD007D8B0F5710F18D010D873
:1013800098B938BD0E4870470E4B984209D90133C1
:1013900098420AD10A4838BD4FF4700070470A4895
:1013A00070470A4838BD0A4838BD4FF4750038BD4B
:1013B0004FF4700038BD074838BD00BF0200F1008F
:1013C0000A00F0000400F1000800F0000200F00044
:1013D0000900F0000600F00000284AD0AAB19942A6
:1013E00011D870B5059B002B38D0036A23F0040494
:1013F000032C049C0DD0002C32D0059C24688C4218
:101400000CD2274870BD274870470029E9D02648EC
:1014100070473CB3059C24680F2CF2D90C0703D00D
:10142000012B21D9032B1FD00E4633461146049AB7
:101430000446FFF741F9054638B9236A23F004034F
:10144000032B20D0059B1E6070BDA0F57100052800
:1014500023D8DFE800F013111611110C134870BDEA
:101460000029E1D0124870BDC36A002BDCD11148BD
:1014700070BD4FF4700070470F4870BD4FF470009E
:1014800070BD0E4870BD04982146102200F08CF902
:10149000059A10231360284670BD4FF4750070BD87
:1014A0000D00F0000C00F0000800F0001100F0004A
:1014B0000900F0000A00F0000200F0000600F00051
:1014C00028B108B54C2100F073F9002008BD4FF495
:1014D0007000704798B108B5036A5A1E022A01D9F4
:1014E000072B08D149B1034610220846194600F0DF
:1014F0005BF9002008BD034808BD034808BD4FF450
:10150000700070470200F0000100F00060B1032A93
:1015100001D9052A06D1012902D843B116487047DE
:1015200016487047164870474FF470007047022AFB
:1015300070B5044615460E4612D0052A10D04C212F
:1015400000F036F9052D88BF4FF0FF320DD900208D
:101550000123C4E90826C4E90B00C4E90D3370BDBA
:101560003EB94C21204600F023F9064B53F82520C4
:10157000EDE7054870BD00BF0E00F0000600F0006A
:101580000200F000AC7100001200F00070B108B56C
:10159000036A013B022B05D831B1102200F004F997
:1015A000002008BD034808BD034808BD4FF4700083
:1015B000704700BF0200F0000100F000D0B1AAB1F6
:1015C00091B9082B12D15368102B11D113686BB14C
:1015D00010B51346012282620C461030D3E9001286
:1015E00000F0E2F8204610BD0448704704487047F8
:1015F000044870474FF47000704700BF0500F000CA
:101600000400F0000300F000014B1860704700BFB9
:1016100008BA0250014B0020186070478833002040
:10162000014B1860704700BF04BA02500020704799
:1016300010B5044682B0C0B11249134AC3430B60CF
:1016400013680193019B18420AD1104A20BFBFF3CF
:101650005B8F1368BFF35B8F0193019B2342F5D02F
:101660000B4B1C60019802B010BD0A4800F048F80E
:10167000044A054B4FF0FF3111601B680193019B39
:10168000E3E700BF04BA025000BA025088330020DA
:1016900008BA02502472000008B5FFF7C7FFBDE882
:1016A000084000F0D9B800BF10B500F03FF898B975
:1016B000FFF7B0FF98B90E4B1B681B0EF02B10D133
:1016C0000C4A0D4B12689A420DD00624FFF7AEFF6C
:1016D00000F0C2F8204610BD0424204610BD0324AB
:1016E000F6E70524F2E7054B04461860F5E700BF6E
:1016F00028B9025024BA02500000E0200CBA02506F
:10170000BFF34F8F0549064BCA6802F4E0621343EA
:10171000CB60BFF34F8F00BFFDE700BF00ED00E0DF
:101720000400FA0500207047704700BF08B500218B
:101730004FF40040FFF7F6FF08B1012008BD124842
:1017400000F03AF878B9114800F036F898B9104B23
:101750000E4A10481A6000F02FF880B90E4B0D4A5F
:101760001A60002008BD0D48FFF7CAFF074800F0C7
:1017700023F80028EBD00A48FFF7C2FFE7E7094843
:10178000FFF7BEFFEAE700BFA073002098730020B8
:10179000947300209C73002090730020547200000A
:1017A000707200008C720000FEF7E4BDFEF70CBE04
:1017B0000A460021FEF708BE10B5044610B100200D
:1017C000206010BD0248FFF79BFF0020206010BD85
:1017D000AC72000010B5044610B10020206010BDAE
:1017E0000248FFF78DFF0020206010BDAC720000A2
:1017F00010B50446B8B1BFF35B8F2368BFF35B8FAE
:10180000012BF8D00122BFF35B8F54E8003F44E87E
:1018100000210029F9D1BFF35B8F012BF3D1BFF376
:101820005F8F002010BD0248FFF76AFFE3E700BFAB
:10183000D072000010B5044620B1BFF35F8F0020C6
:10184000206010BD0348FFF75BFFBFF35F8F0020F0
:10185000206010BDF072000070B50E4E0E4D0F4CA2
:10186000FFF762FF3046FFF7B5FF30460421FFF770
:101870009FFF2846FFF7AEFF28460421FFF798FF99
:101880002046FFF7A7FF20460421BDE87040FFF780
:101890008FBF00BFA0730020987300209C730020AE
:1018A00003464FF4FA714FF47A7200209960C3E94D
:1018B0000022D860704700BF2DE9F04F764C80467B
:1018C000894694469E460FCCB7B007AF3D460FC53C
:1018D00094E80F0004F1100685E80F000FCE0FAD5D
:1018E0000FC596E80F00303485E80F000FCC17AD18
:1018F0000FC50FCC0FC594E80F00D8F8D040042CCA
:1019000085E80F0001D0082C08D1251D409BAD00B3
:101910009D4207D0614837B0BDE8F08F604837B0CE
:10192000BDE8F08F09EB0C019CFA8CF30CF1180860
:101930000CF10900C9F800302EBA802328F00F08F6
:10194000A8EB0002C9F8046048440B720021CDF8EE
:101950000CE0FFF72BFF409B1B09A5F1100508BF0A
:1019600023AC6DD0042CDDF80CA04FF0000623ACA6
:10197000AB461FD153E02046CDE9057BFFF71EFEA5
:10198000294630BB2046FFF701FE36AD4FF0100C64
:1019900043464A464146E0B945F8C8CD2046CDE920
:1019A00000A5FFF719FD0AF1100A90B9409BB6EBAC
:1019B000131F44D20023194602222046FFF7A6FD3A
:1019C000014617A800EB0615082305AA01360029D1
:1019D000D1D0344837B0BDE8F08F2046CDE9057B43
:1019E000FFF7ECFD29460028F3D12046FFF7CEFD96
:1019F00036AD4FF0100C43464A4641460028E8D128
:101A000045F8C8CD2046CDE900A5FFF7E5FC0AF171
:101A1000100A0028DDD1409BB6EB131F0FD2002324
:101A2000194602222046FFF771FD01460FA800EB80
:101A30000615082305AA01360029CED0C9E75D4660
:101A40000023039E194601222046CDE90565FFF7D4
:101A50005DFD0028BDD10146082305AA2046FFF7F9
:101A6000ADFD0028B5D171192046FFF78FFD002884
:101A7000AFD10146409A3046FFF798FE409B009652
:101A800040A90191324620461946FFF7A5FC0028DF
:101A90003FF441AF9DE700BF0C710000230CF00044
:101AA000210CF000360CF000F0B51F4699B0002371
:101AB0000E461546D0F8D040194605A80322FFF778
:101AC00025FD48BBA4000146082303AA05A8CDE9CB
:101AD0000354FFF773FDF8B9291905A8FFF756FD60
:101AE000D0B937B92B461022314605A8FFF72EFC96
:101AF00090B918A904F1100341F8583D32460191FC
:101B00000095194605A8FFF767FC054B002814BF90
:101B10001846002019B0F0BD014819B0F0BD00BF53
:101B2000360CF0002DE9F04F00268DB0DFF8A081D3
:101B3000B14604964FF48075012437460596284631
:101B400002F0BEFA38B1D8F80403204203D0284688
:101B500002F0ACFA26432D1D64007F1CADB2082FA5
:101B6000EDD34FF4BE74204602F0AAFA48B12046E5
:101B700002F09CFA46F0004604AA0221002002F07E
:101B80005DFA544C16F0FF0F15D00127002537429F
:101B90000DD008EB8501D1F81005D1F81015C0F370
:101BA000052054F82520C1F3014102B190477F0080
:101BB0006D1C082DEBD3002E7EDA0020CDF8289086
:101BC000411E0DF1100B07AACDF82C9042F8201001
:101BD000401C91460228F9D300252E46A11911F880
:101BE000607F91F9000027F0C008401C40D007A991
:101BF000404601F0F1FC40B34FEA971A404601F02D
:101C000007F854F820701FB1BAF1030F03D006E0B3
:101C1000BAF1030F2CD10AA9404601F0E5FC02A855
:101C2000CDF8088002F060F9029900EB8100D0F84D
:101C3000000704A9C0F301400290404601F0CCFC2B
:101C40000028029802D0022802D011E003280FD108
:101C5000BAF1030F08D10298022833D0022140467E
:101C600002F02AF96D1CEDB217B151464046B84753
:101C7000761C042EB2D3002D21D001AA022100200F
:101C800002F0DCF900205A460DF1040152F8206000
:101C900051F82030B34217D000200AAE4FEA0903B2
:101CA00051F8207042F8207056F8207043F82070E8
:101CB000401C0228F4D300E001E0002D8CD10DB0CF
:101CC000BDE8F08F0321CAE7401C0228DED3F6E707
:101CD00000600040281B00201CB5814602F0DAFCA1
:101CE00002F0FEFA0028FBD130485FEA09050768D8
:101CF0002F4830494FF00106A0EB01004FEAD00019
:101D000006EB004417D020462BA1AA6902F004FC80
:101D1000D5E90201CDE90001D5E9002320462CA137
:101D200002F012FCE8690090D5E90423204636A1B0
:101D300002F001FC03E020463DA102F0E9FB1B4854
:101D4000001D0068800703D52046464902F0E0FBED
:101D5000DFF81481002500BF06FA05F0384206D0EE
:101D600058F825201AB1204640A102F0D5FB6D1C81
:101D70001A2DF1D3380606D50C480C3002682046DF
:101D80003DA102F0C9FB380406D5084810300268AE
:101D9000204641A102F0C0FB0448C8300068C007DB
:101DA00000D000BE484600F085F8000028ED00E0B5
:101DB000B073000060730000484152442046415512
:101DC0004C542061742030782530385800000000D1
:101DD000202052303A2020307825303858202052A8
:101DE000313A2020307825303858202052323A209D
:101DF00020307825303858202052333A202030784F
:101E0000253038580000000020205231323A20306E
:101E1000782530385820204C523A20203078253010
:101E2000385820205053523A203078253038580006
:101E3000537461636B2076696F6C6174696F6E3A7D
:101E400020737461636B20706F696E746572206FAC
:101E500075747369646520737461636B2061726566
:101E6000612E0000A8660000FC000020436175732D
:101E7000653A2025732E00004D656D4D616E6167DA
:101E800065204661756C7420416464726573733AB1
:101E90002030782530385800427573204661756CC3
:101EA0007420416464726573733A20307825303849
:101EB00058000000BFF34F8F05480168054A01F440
:101EC000E06111430160BFF34F8F00BFFDE70000E9
:101ED0000CED00E00400FA0510B502F09DFEBDE82F
:101EE000104002F015BE0000064882B000210160DB
:101EF00000680090044800680449C0B2496802B014
:101F00000847000000D1004008D50040E400002050
:101F100002490248091F096800680847F4000020C8
:101F200000F04AB970B50E46144900EB400001EBD1
:101F3000C0051446E86A183520B101280FD00228E0
:101F400005D113E0284600F06BF9A04201D200242D
:101F500011E022463146284600F09AF90BE0284667
:101F600000F05EF9A042F4D20446F2E7314628467A
:101F700000F061F90446204670BD0000002B0020EF
:101F800030B54FF0805000228300D0F83011C3F8F4
:101F90000C21C3F81021624B1A60624B1B68624C23
:101FA0002360604B1B1D1B68241D23605D4B0833A1
:101FB0001B68241D23605B4B0C331B68241D2360AE
:101FC000584B10331B68241D2360564B14331B6879
:101FD000241D2360534B18331B68534C203423605B
:101FE000504B1C331B68241D23604E4B20331B6851
:101FF000241D23604B4B24331B68241D2360494B55
:1020000028331B68241D2360464B2C331B68241D7A
:102010002360444B30331B68434C40342360414BB6
:1020200034331B68241D23603E4B38331B68241D4A
:1020300023603C4B3C331B68241D2360394B4033E9
:102040001B68241D23600123082902D1D0F83441E4
:1020500014B1082904D006E0354C3449216005E06C
:10206000D0F8344114B1082904D006E0314CFB21EA
:10207000216005E0D0F8344114B1082908D00EE001
:1020800090F858422C48016864F30301016002E0B3
:10209000D0F834411CB929494FF400700860284831
:1020A0000168C90702D06FF001010160254801688D
:1020B00041F470010160BFF34F8FBFF36F8F4FF09A
:1020C0001021D1F80002002803DBD1F80402002817
:1020D00022DA1D4C23601D480368002BFCD012231C
:1020E000C1F800320568002DFCD0C1F80432016847
:1020F0000029FCD0226001680029FCD0BFF34F8F7B
:1021000010487C380168124A01F4E0611143016013
:10211000BFF34F8F00BFFDE70F490E48086030BD89
:10212000380500400404001020C500404881030029
:102130008C56004018F50040E40E004040960240E6
:102140000004004088ED00E004E5014000E40140A7
:102150000400FA050090D003F001002010B5054CF2
:10216000206818B904A12B2000F07AFA2068BDE895
:1021700010400047DC0000202E2E5C2E2E5C2E2E00
:102180005C2E2E5C2E2E5C2E2E5C2E2E5C2E2E5C5B
:102190006D6F64756C65735C6E7266785C64726991
:1021A000766572735C7372635C7072735C6E726678
:1021B000785F7072732E630010B5124C022020619C
:1021C000606111A0A06104F17800E0614FF400604B
:1021D00020620020A06260620BA1A164E06204F6AC
:1021E0007801E1641021A065C4E91410E06509A13B
:1021F000E01DFEF706F908A12046FEF702F92020AF
:10220000A07110BD002B00205465726D696E616C69
:102210000000000052545400534547474552000007
:102220000269C1688A4203D88068401A104400E0FD
:10223000501A401E70472DE9F047C468174689467A
:1022400006464FF000083069A04201D9051B02E0A4
:10225000B168201A0D1AB0686D1E001BA84200D884
:102260000546BD4200D33D4670682A462044494693
:10227000FEF780F8B0687F1B2C44A844A944A04214
:1022800000D10024F460002FDDD14046BDE8F08786
:102290002DE9F04104468846D4E90207C51BE168F0
:1022A000606816460844B54206D94146FEF762F812
:1022B000B819E060BDE8F0812A464146FEF75AF8B9
:1022C000761B08EB050132466068FEF753F8E660BE
:1022D000F0E7000030B528B1144C031F002021683E
:1022E0000A4605E0084630BD9A4203D810465268B7
:1022F000002AF9D1002800D041680BD00468A3EB74
:102300000005A54204D11B681C440346046002E09A
:10231000436000E023603AB11C68D51AA54203D19E
:1023200015682C441C6052685A6030BDF4010020CE
:102330002DE9F04782460F4C10480D4E0E4F001B02
:102340004FF0000820F007054FF001090022114668
:10235000504600F049FE002802D1306810B100203C
:10236000BDE8F0873C60C4E90058C6F80090EDE78E
:10237000F801002094330020F40100209053002045
:1023800002E008C8121F08C1002AFAD1704770473E
:10239000002001E001C1121F002AFBD1704700009C
:1023A000FEB514460E46074672B602F073F900BF3A
:1023B00001F096FF0028FBD11D4A1E496FF48040B2
:1023C0003B18A2EB01014FF001004FEAD10100EBF5
:1023D00001451AD0012B11D02846324616A102F031
:1023E0009BF81B480068C00700D000BE224603B01F
:1023F00031463846BDE8F04000F058B823882846FA
:1024000014A1626802F08FF8EBE7A06802F0EEFA20
:102410000346D4E90001CDE900100296284614A134
:10242000A26802F09BF828461BA102F071F8D8E7D9
:10243000C873000060730000554E4B4E4F574E203E
:102440004641554C5420617420307825303858006E
:10245000F0ED00E0415353455254494F4E20464160
:10246000494C45442061742025733A2575000000CD
:102470004552524F52202575205B25735D206174B3
:102480002025733A25750D0A50432061743A203097
:102490007825303878000000456E64206F6620652E
:1024A00072726F72207265706F72740008B50123CA
:1024B0008DF800309DF80030144B186059609A6018
:1024C0006FF48041401807D001280FD1DA60D86836
:1024D00000889861D86807E01A61186980685861B7
:1024E00018690068986118694068D8611868586868
:1024F0009868D868186958699869D86972B600BF31
:102500009DF800000028FBD162B608BDE41B002046
:1025100010B502F0B9FF012803D004491D2000F0D6
:102520009FF8BDE8104000F013B800008865000077
:1025300010B502F0A9FF012803D004492B2000F0B8
:102540008FF8BDE8104000F00BB80000886500006F
:1025500072B602480168491C01607047EC00002017
:1025600003490868401E086000D162B67047000049
:10257000EC00002070B5054608680C46411C04D0EC
:1025800001F048FD206801F083FC6068411C02D026
:10259000002101F06BFC2968A069C1F82405607D69
:1025A000227D29681043C1F86C05D4E9001228681F
:1025B000C0F81425C0F80C15207D012814D1A0689E
:1025C000411C02D0002101F051FCE068411C04D004
:1025D00001F020FDE06801F05BFCD4E902122868FC
:1025E000C0F80825C0F8101570BD70B5054608681C
:1025F0000C46411C04D001F017FD206801F052FC8C
:102600006068411C02D0002101F039FC2968A069F2
:10261000C1F82405607D217D2A680843C2F86C0555
:10262000D4E900122868C0F80C15C0F81425207DE4
:10263000012814D1A068411C02D0002101F01FFC28
:10264000E068411C04D001F0EFFCE06801F02AFCD6
:10265000D4E902122868C0F80825C0F8101570BD2A
:102660001CB56A46ADF800000191002144F2020059
:10267000FFF796FE1CBD2DE9F0410D46064600F021
:1026800039FA60B106F10800074602F0A5FA50B128
:1026900070684188802909D048F2185432E048F225
:1026A0000450BDE8F08148F212542BE0007848F263
:1026B0001754092817D2DFE800F0070716090505A7
:1026C00010101200002202E0012200E003226DB18E
:1026D000012D0DD0022D0BD014E0022200E00522C6
:1026E000022D0FD104E048F203540BE0012100E079
:1026F000002186F8545000233846FEF707FF02F009
:10270000DDFE044600F012FA2046CAE770B50E4618
:1027100048F21655044600F0EDF9F8B1304602F0E3
:102720005BFAF0B1314604F10800FEF7D3FEA0F5E4
:102730007001891E06D002F0C1FE054600F0F6F9D0
:10274000284670BD084920688842F7D1102204F15C
:1027500055013046FDF70EFE0025EFE748F2045024
:1027600070BD48F21255E9E75345416370B50D4617
:10277000044600F0BFF978B1284602F02DFA70B196
:10278000294604F10800FEF701FF02F097FE044617
:1027900000F0CCF9204670BD48F2045070BD48F2FC
:1027A0001254F5E77CB50D46044600F0A3F9B8B124
:1027B000284602F011FAB0B10095606808236A4615
:1027C00040880021C008019004F10800FEF7F6FEE1
:1027D00002F074FE4FEA000400F0A8F920467CBD28
:1027E00048F204507CBD48F21254F5E72DE9FE4F43
:1027F0009B461646894600270446DDF8308000F0E7
:1028000079F930B1D8F80000102806D248F21455F2
:1028100058E048F20450BDE8FE8F484602F0DCF96B
:1028200040B3584602F0D8F920B331074FF6F070A4
:1028300003D06168097806291FD0824604F1080098
:1028400002905546AE421BD9A6F57F46F03E00F0F9
:1028500023F909EB07015B462A460298FEF776FD4D
:10286000009000F005F92F44009802F027FE0500C3
:10287000E7D027E048F2125524E048F2115521E054
:1028800000F00AF9CDE900B8334609EB0702194612
:102890000298FEF7A1FD054600F0EAF8284602F08E
:1028A0000DFE050002D11021C8F800106068007804
:1028B000072807D104F155010298FEF70BFE02F03C
:1028C000FDFD054600F032F92846A4E710B50446A0
:1028D00000F010F950B104F10800FEF7F1FD02F02C
:1028E000EDFD044600F022F9204610BD48F20450E8
:1028F00010BD2DE9F84F9B46144689460027064631
:1029000000F0F8F898B1484602F066F998B15846D8
:1029100002F062F978B106F108004FF6F07A009003
:102920005546AC420AD9A4F57F44F03C08E048F291
:102930000450BDE8F88F48F212551AE025460024ED
:1029400000F0AAF896F85400022816D00BEB070303
:1029500009EB07012A460098FEF7F8FC804600F0D4
:1029600087F82F44404602F0A9FD05460CB1002D22
:10297000D6D000F0DBF82846DBE709EB07015B4621
:10298000E8E7000041094A4200EB421010B5044A52
:102990000124844052F82130234342F8213010BDF5
:1029A000680100202DE9F0470546861C90460F4639
:1029B0004FF001090020FFF7ABFD1B4C2068386089
:1029C000D4E90001401AA16804F21C47081A0EE07D
:1029D0000121384600F056FD00F00EFC0146384655
:1029E00000F050FDD4E90001401AA168081A401C0B
:1029F0008642EDD8B8F1000F03D0052065F38910A9
:102A000002E0062065F39F50A2682168114004EBA4
:102A10008101C8602068304420600020FFF788FDF5
:102A20004846BDE8F0870000DC26002070B50D4662
:102A300004460A2902D10D21FFF7F8FFA068226899
:102A4000411CA1601554D4E90101814204D3204600
:102A5000BDE8704001F04AB870BD0000034803C8EB
:102A6000814201D10120704700207047DC26002000
:102A700006490868401E086006D1054908600549F6
:102A80004FF48060C1F8800170470000A80000206A
:102A900000A5025004E000E006490868401C0860F8
:102AA000012805D10449086004498002C1F80001E9
:102AB00070470000A800002000A5025004E000E0DC
:102AC00070B50A4800240460BFF35F8F084D0120F1
:102AD0002860FEF7E9FD2C6001004FF0030004D1EF
:102AE000BDE87040084600F09DBE70BDA400002007
:102AF00000A5025010B50548012100F0CEFCBFF33F
:102B00005F8F08B1002010BD012010BDA40000207F
:102B100010B50548012100F0C0FCBFF35F8F08B17C
:102B2000002010BD012010BDA400002010B5064CEF
:102B30002068012803D005A16D20FFF791FDBFF3A8
:102B40005F8F0020206010BDA40000202E2E5C2E80
:102B50002E5C2E2E5C2E2E5C2E2E5C2E2E5C2E2EAF
:102B60005C2E2E5C636F6D706F6E656E74735C6C43
:102B700069627261726965735C6D757465785C6EAB
:102B800072665F6D74782E680000000010B5064C08
:102B90002068012803D005A16D20FFF761FDBFF378
:102BA0005F8F0020206010BDA40000202E2E5C2E20
:102BB0002E5C2E2E5C2E2E5C2E2E5C2E2E5C2E2E4F
:102BC0005C2E2E5C636F6D706F6E656E74735C6CE3
:102BD00069627261726965735C6D757465785C6E4B
:102BE00072665F6D74782E680000000010B50021D9
:102BF000084600F017FE002806D1044C0120206092
:102C0000FEF74AFD0020206010BD000000A5025024
:102C10000249084490F9300070470000281B00204A
:102C200070B5084C050009D010342168002907D080
:102C300008682060496828468847F6E70834F4E7C2
:102C400070BD0000C41A0020054A012120B10128EE
:102C500005D19170FFF7E4BF51700020FAE770478B
:102C6000C41A002030B100680549884205D048F2F6
:102C70000250704748F20150704700207047000032
:102C80006341455370B5D8B0002653965496559677
:102C900033485696FDF7A1FB04460246304931A061
:102CA00002F0A2FD22462E4931A000F0E5F80222F2
:102CB000344901A800F0DCFC050033483349A0EB9F
:102CC00001004FEAD0004FF0050101EB004401D0B4
:102CD000284624E0224901A8203900F0FBFC050029
:102CE0001DD14F96509651964FA901A8529600F0CB
:102CF000DBFC050013D11A48FDF76FFB02461020DC
:102D0000579057A8009053AB154901A800F086FCD6
:102D1000050004D101A800F0EFFC050009D000F087
:102D200003FD034620462A4619A101F0FCFB58B0DA
:102D300070BD579853A9C2B21BA000F09DF8084976
:102D40001022643153A8FDF74FFB0028204604D021
:102D50001BA100BF01F0DCFBE9E721A1FAE70000BD
:102D600020000020506C61696E207465787400004A
:102D7000506C61696E2074657874202868657829C4
:102D800000000000645D0000C87300006073000074
:102D90000D0A4572726F72203D20307825780D0A39
:102DA00025730D0A0000000043616C63756C61744B
:102DB0006564204D414320286865782900000000A3
:102DC000414553204342435F4D4143206578616D47
:102DD000706C65206661696C65642121210D0A00B3
:102DE000414553204342435F4D4143206578616D27
:102DF000706C6520657865637574656420737563B0
:102E00006365737366756C6C792E0D0A00000000A3
:102E100010B50021024800F040FB80F3100010BD07
:102E2000F82A0020F0B50D4C0246002004F11C05E4
:102E300004F138034AB154F82060964205D353F8A0
:102E4000206055F82070BE4207D153F820608E42B2
:102E500003D8401C0728EDD30020F0BD985D00008A
:102E600010B501460020FFF7DDFF024951F82000B0
:102E700010BD0000985D00002DE9F0410F4680462E
:102E80001D481E491646401AC108052000EB0140A6
:102E90001346044642461AA101F045FB01F020FA10
:102EA0000028FBD1002516E0280709D145B12046AE
:102EB0001AA101F02DFB00BF01F012FA0028FBD18E
:102EC0007A5D204616A101F027FB00BF01F008FA49
:102ED0000028FBD16D1CB542E6D320460FA101F0BE
:102EE00017FB2046424610A101F016FB01F0F8F94D
:102EF0000028FBD1BDE8F081C873000060730000BA
:102F00002D2D2D2D20257320286C656E6774683A51
:102F100020257529202D2D2D2D0D0A000D0A0000CC
:102F200025303278200000002D2D2D2D20257320F6
:102F3000656E64202D2D2D2D0D0A0D0A0000000058
:102F40002DE9FC5F0E008346DDE90C47C6F1000069
:102F500098469246814600D40846012503E000BF0A
:102F600090FBFAF06D1C5045FADAA84500D94546A9
:102F700024B1002E01DB780700D5641EB80702D506
:102F8000B8F1000F0AD0F80708D13CB1A54205D22C
:102F900020215846641EFFF749FDF6E7002E02DAAD
:102FA0004E462D2102E0780703D52B215846FFF726
:102FB0003DFD07F0030002280BD1B8F1000F08D146
:102FC0003CB1A54205D230215846641EFFF72EFDC4
:102FD000F6E7CDE90047434652463146584602F0EF
:102FE00003FEBDE8FC9F00002DE9F0410B3020F00E
:102FF0000706104D19E02068B04215D3B0420AD937
:10300000871B201DD4F80480FDF7B4F9A019C0E98E
:103010000078286004E060682860201DFDF7AAF9A8
:10302000201D2660BDE8F081251D2C68002CE2D112
:103030000020F7E7F401002070B50E460546006851
:103040004FF48E7101F0E1FC4FF4A271286801F099
:10305000DCFC28681449C0F804132868082E40F3E3
:10306000073403D311A14520FFF7FAFA7007000EC9
:10307000002C06DA04F00F0101F1E02181F8140DB3
:1030800003E004F1E02484F800042868012140F3FF
:10309000073000F01F0291404009800000F1E0205D
:1030A000C0F8001170BD0000800002002E2E5C2EC2
:1030B0002E5C2E2E5C2E2E5C2E2E5C2E2E5C2E2E4A
:1030C0005C2E2E5C696E746567726174696F6E5CEC
:1030D0006E7266785C6E7266785F676C75652E6876
:1030E0000000000070B50E46044600684FF4887179
:1030F00001F09CFC4FF49071206801F097FC4FF4B4
:103100009271206801F092FC4FF4A271206801F0E6
:103110008DFC4FF4AC71206801F088FC20681449E4
:10312000C0F804132068082E40F3073503D311A11B
:103130004520FFF795FA7007000E002D06DA05F01E
:103140000F0101F1E02181F8140D03E005F1E02504
:1031500085F800042068012140F3073000F01F02C9
:1031600091404009800000F1E020C0F8001170BDDE
:10317000100342002E2E5C2E2E5C2E2E5C2E2E5C1A
:103180002E2E5C2E2E5C2E2E5C2E2E5C696E7465AF
:1031900067726174696F6E5C6E7266785C6E72667F
:1031A000785F676C75652E6800000000024600209D
:1031B0001268530713D502F00300012802D0022839
:1031C0000CD105E0C2F383100B68801C184404E0A6
:1031D0000223086803EB92521044086001207047F4
:1031E0000268134602E08A4204D01268002AFAD12B
:1031F0000B600160704700002DE9FF410026264862
:1032000000F03DF92448001F074600F038F9234C30
:1032100060680090A56800E000986946284004EBCB
:1032200080000C30FFF7C2FF0028F5D101AA0099F9
:1032300001EA050304EB8303491CDB6842F82030F4
:10324000401C00910228F2D3019800F003000128ED
:103250001AD002280ED012494FF4AC70FFF700FAD2
:10326000384600F009F908B10098606004B03046B3
:10327000BDE8F0810198032101EB90500099BDF861
:103280000A6001EB900005E00198BDF80A60C0F308
:10329000831008440090E3E7F42A0020DC26002095
:1032A000CC6F00004FF48041002001F0BDF918B14F
:1032B0001AA2B321FCF7AEFF00F0EAFF1B481C493D
:1032C000401AC008052101EB00401AA101F020F9C5
:1032D00001F006F80028FBD100F0F6FA18B10FA2B1
:1032E000BA21FCF797FF002000F008FB00F04CFA31
:1032F00018B10AA2BE21FCF78DFF01F049FA18B1FE
:1033000006A2C121FCF786FFFFF7BCFC00F0E8FF36
:103310000028FBD100F0E4FFF8E700002E2E5C2E21
:103320002E5C2E2E5C6D61696E2E6300C8730000EA
:1033300060730000414553204342435F4D414320A9
:103340006578616D706C6520737461727465642E4C
:103350000D0A0D0A0000000070B54843044601F054
:103360000AFA050002D02146FDF72CF8284670BD68
:1033700000F018BD10B50349034800F009F800201B
:1033800010BD000071330000593300000020704769
:10339000024AC2E90001002070470000E801002055
:1033A0002DE9F05F1E46DDF828B091468A460400FC
:1033B00003D124499020FFF753F9B4F806806079CF
:1033C00008FB00F8A8F10408464503D31D499E20D8
:1033D000FFF746F9E788301DB0FBF7F1B0FBF7F2D5
:1033E00007FB1200D9F80050AA19424501D9A8EBF1
:1033F0000605C9F8005001E02468491E0029FBD1E8
:103400003E1A8846AE4215D817E000BF2044001D82
:103410000AEB0803BBF1000F324602D00146184602
:1034200000E01946FCF7A6FF00202468AD1BB0445D
:10343000AF4201D92E4600E03E46002DE6D1BDE860
:10344000F09F00002C6B000030B5024651B101F036
:1034500009F90021074C08E034F821301568AB4227
:1034600002D11160002030BD491C8142F4D30520F7
:1034700030BD000000000000002100F009B801216B
:1034800000F010B808B56A46FCF71FFF009808BDA9
:1034900008B56A46FCF7FFFE08BD08B56A46FCF7AA
:1034A000E1FE08BD08B56A46FCF7E8FE009808BDD5
:1034B00008B56A46FCF716FF009808BD70B5040011
:1034C00003D11349FE20FFF7CBF800252846FFF76C
:1034D0001FF8206862680168914214D9491E016092
:1034E0000D781CB90A49C220FFF7BAF8208AE168B2
:1034F00005FB00152068217A0278891A0279C9B281
:103500008A4200D201710020FFF712F8284670BDF0
:10351000E86A000070B50C46050004D1104940F27D
:103520002110FFF79DF824B90D494FF49170FFF772
:1035300097F80020FEF7ECFF1DB90949CF20FFF7EF
:103540008FF8E8682A68211A288AB1FBF0F1106820
:10355000431C13600170BDE870400020FEF7E8BF17
:10356000E86A000010B5040002D0206830B901E01C
:103570000E2010BD1749D920FFF772F8606818B9FE
:103580001449DA20FFF76CF8A06818B91149DB205C
:10359000FFF766F8E06818B90E49DC20FFF760F81D
:1035A000208A18B90B49DD20FFF75AF8207A6168A4
:1035B0002268401AC0B2116004E0226811684B1CF6
:1035C00013600870401EC0B2F7D221680020087155
:1035D00010BD0000E86A0000C20800F007030120E7
:1035E000895C98400840704710B5C20800F0070396
:1035F000885C01249C402043885410BD00F1804029
:103600000068002800D00120704708B500F1804014
:10361000002101600068009008BD00002DE9F8431A
:103620001E4690460F460446089DFFF71BFB0028E8
:1036300017D1C7B148F21350002E12D0002D10D070
:103640000095606833464246056A39462046A847D9
:10365000002806D1204600F04FF8002801D1034988
:103660002160BDE8F88348F21050FAE75345416302
:1036700070B516460D460446FFF7F4FA18B1A0F5EA
:103680000541023909D14DB16560AA68204631462D
:103690009047002801D10349216070BD48F21050C5
:1036A00070BD00006341455370B50D460446FFF7F9
:1036B000D9FA00280AD1606842692AB13DB1294689
:1036C0002046BDE87040104748F2035070BD48F2F4
:1036D000105070BD70B50D460446FFF7C3FA0028C0
:1036E00009D135B16068294602692046BDE87040BD
:1036F000104748F2105070BD10B50446FFF7B2FAFB
:10370000A0F50541023908D0002805D16068C168DC
:10371000204688470021216010BD024A216891425D
:10372000F4D010BD5345416350B1094A002100BF98
:1037300052F83130834205D102EBC1004068704736
:1037400004A07047491C1929F2D305A07047000056
:103750009C5C00004E6F206572726F72000000006A
:103760004572726F72206E6F742072656C61746541
:103770006420746F206E72665F63727970746F205C
:103780006C696272617279002DE9F0410B480C4D51
:103790000C4F401BC60801203870002406E000BF13
:1037A00055F834008047002805D1641CB442F7D393
:1037B000022038700020BDE8F08100004073000056
:1037C000307300009400002005480178022904D0DD
:1037D0000078012801D000207047012070470000C8
:1037E0009400002070B50D46044600680C498842DC
:1037F00001D1002070BDFFF78BF970B1FFF74CF9D4
:103800002946201DFCF772FE01F0A6FE0446FFF7D4
:103810002FF9FFF7BBF9204670BD48F2045070BD88
:103820006169614D2DE9F0410F46064601F0B8F897
:1038300068B118481849401AC008012101EB00403E
:1038400016A100F065FE48F21950BDE8F081FFF7BF
:10385000BBFF40B1184C194D606838B1A068A84250
:1038600004D10020F1E74FF40540EEE748F217508D
:10387000002EEAD1002FE8D11148606000F1E80184
:10388000FFF7B0FF0028E0D1A56062680D49116024
:10389000DBE70000C87300006073000053746163CD
:1038A0006B206F766572666C6F77206465746563F4
:1038B0007465642E00000000980000206572E54BDE
:1038C000FC0100206169614D70B50A4C207808B197
:1038D00085250CE00020A06060602061E060064863
:1038E00001F0E0F8054601F0A7F801202070284615
:1038F00070BD0000C41A0020492C000070B5174CA0
:103900000546207818B916A1C320FEF7A9FEA078B5
:1039100038B115B16968012088470020FEF7F8FD2D
:103920000CE00020FEF7F4FD25B10C4829461030CC
:10393000FFF756FCE06808B901F016F9E068401C92
:10394000E0600020FEF7F4FDE068002805D1BDE846
:10395000704003A1DF20FEF783BE70BDC41A0020B3
:103960002E2E5C2E2E5C2E2E5C2E2E5C2E2E5C2E91
:103970002E5C2E2E5C2E2E5C696E746567726174EF
:10398000696F6E5C6E7266785C6C65676163795CAA
:103990006E72665F6472765F636C6F636B2E63003A
:1039A0002DE9F041054604781C4888B00F4640F8E0
:1039B00024200869194916460831012C41F82400D1
:1039C00005D1787F18B916A15020FEF749FEDFF81F
:1039D0004C80797FA8F10408202208F804103946A9
:1039E0006846FCF7C7FC0494297818F8010050B128
:1039F0000EB11B4A00E000226946281D01F06CFB55
:103A000008B0BDE8F0810EB1164A00E00022694618
:103A100005F10C0001F008FAF2E70000B000002008
:103A20002E2E5C2E2E5C2E2E5C2E2E5C2E2E5C2ED0
:103A30002E5C2E2E5C2E2E5C696E7465677261742E
:103A4000696F6E5C6E7266785C6C65676163795CE9
:103A50006E72665F6472765F756172742E630000C9
:103A6000A55A0000E55800000FB438B5040003D192
:103A700010A11C20FEF7F4FD606918B90DA11D20EE
:103A8000FEF7EEFD206818B90AA11E20FEF7E8FD3A
:103A9000606818B907A11F20FEF7E2FD059900290B
:103AA00005D006A800906A46204600F04DF838BCC4
:103AB0005DF814FB2E2E5C2E2E5C2E2E5C2E2E5CC2
:103AC0002E2E5C2E2E5C2E2E5C2E2E5C6578746560
:103AD000726E616C5C667072696E74665C6E726642
:103AE0005F667072696E74662E63000010B5040024
:103AF00003D107A10B20FEF7B3FDA268002A05D071
:103B0000D4E90403216898470020A06010BD00009C
:103B10002E2E5C2E2E5C2E2E5C2E2E5C2E2E5C2EDF
:103B20002E5C2E2E5C2E2E5C65787465726E616C38
:103B30005C667072696E74665C6E72665F667072E7
:103B4000696E74662E6300002DE9FC4791460C46B1
:103B50005FEA000804D183A140F25220FEF780FD05
:103B6000D8F8140020B97FA14FF41570FEF778FD46
:103B7000D8F8000020B97BA140F25520FEF770FD77
:103B8000D8F8040020B977A140F25620FEF768FD6E
:103B9000002C76D014F8011B39B125290ED04046EF
:103BA000FEF744FF20780028F4D198F80C00002894
:103BB00067D04046BDE8FC47FFF798BF00200122D0
:103BC00021782B291BD02D2902D0302908D102E0E1
:103BD00040F0010001E040F00200641C002AEFD137
:103BE00000252A290ED02178A1F130020A2A11D20B
:103BF00005EB850201EB4205641C303DF1E740F026
:103C00000400EAE7D9F800100B1DC9F80030096874
:103C1000641C0D44217800232E290BD114F8011FB8
:103C2000A1F130020A2A05D203EB830201EB420321
:103C3000303BF3E76C290DD068290BD0692921D0DE
:103C40000BDC252918D0582931D063290ED06429DE
:103C500015D117E014F8011FECE7702969D073291A
:103C600032D075291BD0782909D120E0D9F800007D
:103C7000011DC9F8001001784046FEF7D7FE641C0C
:103C800090E76CE0D9F800100A1DC9F80020096817
:103C9000CDE900500A224046FFF752F9EFE7D9F884
:103CA00000100A1DC9F8002009680A2206E0D9F8A8
:103CB00000100A1DC9F8002009681022CDE9005043
:103CC000404601F091FFDAE7D9F8001000270A1DFD
:103CD000C9F800200E68C00705D112E04046761CE6
:103CE0007F1CFEF7A3FE31780029F7D104E02021E4
:103CF00040466D1EFEF79AFEBD42C0D9002DF6D19A
:103D0000BDE74EB13046FCF768FB074604E02021D2
:103D100040466D1EFEF78AFEBD4206D9002DF6D143
:103D200003E04046761CFEF781FE31780029F8D189
:103D3000A5E7D9F80000011DC9F800100568302179
:103D40004046FEF773FE78214046FEF76FFE0820DE
:103D50000021CDE90001034610222946B0E7BDE865
:103D6000FC8700002E2E5C2E2E5C2E2E5C2E2E5CF0
:103D70002E2E5C2E2E5C2E2E5C2E2E5C65787465AD
:103D8000726E616C5C667072696E74665C6E72668F
:103D90005F667072696E74665F666F726D61742EB5
:103DA000630000002DE9F04106460C480078002829
:103DB00012D0002E10D00025094F2C467819B042A1
:103DC000204603D1BDE8F041FEF7DCBDFFF748F81F
:103DD000641C05441A2CF1D3BDE8F0816401002075
:103DE000041C00202DE9FF411C46DDE90A78154638
:103DF0000E46684600F0AAF846EA450141EA840109
:103E000041EA072242EA0841009A00EB8200C0F82A
:103E10000017BDE8FF812DE9FF411C46DDE90A7866
:103E200015460E46684600F0C3F846EA450141EAE9
:103E3000840141EA072242EA0841009A00EB82002D
:103E4000C0F80017BDE8FF811CB5002100910B46AA
:103E500001220191FFF7C6FF1CBD1CB50021009196
:103E60000B4601220191FFF7D6FF1CBD1CB50022B5
:103E70000B46009211460192FFF7B4FF1CBD1CB522
:103E800000220B46009211460192FFF7C4FF1CBDB1
:103E90001CB5002100910B46012201911146FFF74C
:103EA000A1FF1CBD1CB5002100910B460122019110
:103EB0001146FFF7B0FF1CBD13B50C46684600F075
:103EC00013F8009900EB8101D1F8002722F4403269
:103ED000C1F80027009900EB8100D0F8001741EAF3
:103EE0000441C0F800171CBD10B504460068302816
:103EF00004D308A140F2A710FEF7B2FB20682028E7
:103F000002D24FF0A04010BD00F01F0020600E480C
:103F100010BD00002E2E5C2E2E5C2E2E5C2E2E5CF4
:103F20002E2E5C2E2E5C2E2E5C2E2E5C6D6F6475FC
:103F30006C65735C6E7266785C68616C2F6E72661D
:103F40005F6770696F2E68000003005010B504466B
:103F50000068302804D308A140F2A710FEF780FBC8
:103F60002068202802D24FF0A04010BD00F01F00B2
:103F700020600E4810BD00002E2E5C2E2E5C2E2ED2
:103F80005C2E2E5C2E2E5C2E2E5C2E2E5C2E2E5C3D
:103F90006D6F64756C65735C6E7266785C68616C7D
:103FA0002F6E72665F6770696F2E680000030050A5
:103FB00010B504460068302804D308A140F2A710C9
:103FC000FEF74EFB2068202802D24FF0A04010BD23
:103FD00000F01F0020600E4810BD00002E2E5C2E49
:103FE0002E5C2E2E5C2E2E5C2E2E5C2E2E5C2E2E0B
:103FF0005C2E2E5C6D6F64756C65735C6E7266789A
:104000005C68616C2F6E72665F6770696F2E680006
:104010000003005001B56846FFF798FF009A0121A0
:104020009140C0F8081508BD01B56846FFF7C0FF0C
:10403000009A01219140C0F8081508BD7CB51546CD
:1040400004460C4A6618022ED2E90002CDE90002AD
:1040500004D909A140F2D720FEF702FB694605E02A
:1040600051F82400D0F81005641C01C5A642F7D809
:104070007CBD0000885D00002E2E5C2E2E5C2E2E56
:104080005C2E2E5C2E2E5C2E2E5C2E2E5C2E2E5C3C
:104090006D6F64756C65735C6E7266785C68616C7C
:1040A0002F6E72665F6770696F2E6800034908B5EE
:1040B0000844002101600068009008BD00600040D5
:1040C00002494058012800D000207047006000409D
:1040D00030B5154A01460020D2F8104423460AE0C4
:1040E000DB681D79854205D1401C0A28F6DB4FF0BC
:1040F000FF3030BD1B68002BF2D1431CF9D0CB68D8
:104100001871D2F8103443B1DB68CC681B682360A7
:10411000D2F81024D268116030BDC2F81014C968FA
:1041200000220A6030BD0000DC2600207047FDF749
:10413000F7BE704708B5034A00924023024A00F0D8
:1041400005F808BDA956000004250020F0B595B07B
:104150001C4615460F4608461A9E00F0CCFB182157
:1041600009A8FCF72FF90E96CDE90954002308227F
:1041700003A9384600F0D4FB05980690BDF810005E
:10418000ADF81C00BDF81200ADF81E0000208DF83F
:1041900021000398082600F00300012802D002281D
:1041A00018D032E003983346850AC0F3C2008DF878
:1041B000200003980FA9C0F38314A200384600F032
:1041C000AFFB09A8009006AB22460FA9284600F0D5
:1041D00077FA1AE00398840DC0F3C2008DF820002E
:1041E000082C01D2254600E0082533462A460FA9AF
:1041F000384600F095FB2E44641B09AB06AA2946FD
:104200000FA800F0B9F9002CEAD1384600F079FB8C
:1042100015B0F0BD7047012001F082BB084810B511
:104220000178084A515C19B1001D01F053F802E011
:104230000C3000F0EFFEBDE81040002001F070BB34
:1042400074010020AC00002008B5034A009240230E
:10425000024AFFF77BFF08BDF95600004425002005
:104260000A4A012902EBC00007D0022907D003291E
:1042700007D0042907D0002070470220704704208F
:104280007047007970474079704700006073000004
:1042900010B5FFF74CFF04210F48FFF719FF002866
:1042A00003DA0E491B20FEF7DBF90B480124C06836
:1042B0004471FFF7B0FF084804211030FFF708FFF2
:1042C000002803DA05492220FEF7CAF90248103017
:1042D000C068447110BD0000407300007C6F000096
:1042E0002DE9F0478CB0FEF7B9FB18B100200CB0F7
:1042F000BDE8F0877D4C0020C4F81804BFF34F8F51
:1043000060680290A5684FF00008284004EB800028
:104310000CE000BFD4F8180470B9216802988142FB
:1043200001D86160E2E7284004EB80000C3002A96C
:10433000FEF73CFF0028EDD1002003AA029901EA14
:10434000050304EB8303491CDB6842F82030401C62
:1043500002910228F2D3039800F00300022802D051
:1043600001284DD0A7E003985022810D8946B2EB79
:10437000905F00D850210E4666F39F50039008319D
:104380005B4800F06FFA070078D000F0B4FA4346BB
:10439000082203A9384600F0D5FA029908F1080A64
:1043A0002940681A8000001D864222D94F4D0C35E5
:1043B00030B1C2B204EB8101301A90460C3104E0F6
:1043C0002946F2B2002590462846C6B253463846E2
:1043D00000F0B8FA0AEB080325B132462946384600
:1043E00000F0B0FA029909F1030001EB900002908D
:1043F0003BE004EB81015346324638460C31EFE78F
:104400000398C0F38310062800D30620039960F3B5
:104410008911C1F38310801C03918100344800F09E
:1044200021FA070047D000F066FA4346082203A9A4
:10443000384600F087FA08F1080800260FE00298D5
:10444000434600EA0501401C04EB8101029004226E
:1044500038460C3100F076FA08F10408761C03980F
:10446000C0F38310B042EAD847B1D4F81054D4F85E
:10447000180478B1384600F044FA31E01BE0E868EF
:104480004079012804D12A682846394612689047A5
:10449000E8680568002DF2D1384600F032FA0020B5
:1044A000FEF736F8D4F8180408B9029860600020C6
:1044B000FEF73EF814E0D4F8104405E021682046E9
:1044C00089688847E0680468002CF7D109480A49E0
:1044D000401AC008022101EB004008A100F018F8C2
:1044E000FEF7BCFA80F0010001E70000DC260020A6
:1044F000D0730000C8730000607300004261636BFA
:10450000656E647320666C757368656400000000F6
:1045100000231A4601F014B908B5012300926A4637
:1045200001F00EF908BD1CB5CDE9002302236A464F
:1045300001F006F91CBD3EB5069C8DE81C00032366
:104540006A4601F0FDF83EBD7FB5DDE908458DE81E
:104550003C0004236A4601F0F3F87FBD70B586B0D5
:104560000DF1280C9CE870008DE87C0005236A465C
:1045700001F0E6F806B070BD2DE9F0470E46804622
:104580001C469246082940D894F80C9000202073CD
:104590001946104600F02CFF0025B54206D218F847
:1045A00005201BA12046FFF75FFA03E01AA1204671
:1045B000FFF75AFA6D1C082DEFD318A12046FFF71C
:1045C00053FA0025B54212D218F805707E2F08D88C
:1045D000FBF7CCFE0068C05D10F03E0F01D03A46FC
:1045E00000E02E220EA12046FFF73EFA03E00DA1C7
:1045F0002046FFF739FA6D1C082DE3D3012221462E
:10460000504600F0D7FE84F80C90BDE8F08700001B
:104610002025303278000000202020007C0000009F
:1046200025630000200000000B4810B5FF218160C9
:10463000002101604160C0F81814C0F8141480F81B
:104640002014064800F05BF9002803D1044800F06C
:1046500099F9002010BD0000DC260020D073000076
:10466000845F000002480349401AC00870470000F8
:10467000D07300006073000013B56846FEF7E4FED7
:1046800008B100201CBD0248009950F831001CBD43
:104690006073000070B509480125D0F8104480F817
:1046A000205407E0E0684571216820464968884742
:1046B000E0680468002CF5D170BD0000DC26002005
:1046C0002DE9FF4781460C9D00200C462F7B287367
:1046D000984616462946184600F08AFE072E42D212
:1046E000DFE806F004090F161F2A3600494628465F
:1046F000FFF7BAF937E0494628462268FFF7B4F9D0
:1047000031E0D4E9002349462846FFF7ADF92AE015
:10471000A0680090D4E9002349462846FFF7A4F991
:1047200021E0D4E90201CDE90001D4E900234946A2
:104730002846FFF799F916E004F1080007C88DE84C
:104740000700D4E9002349462846FFF78DF90AE01F
:1047500004F108000FC88DE80F00D4E90023494692
:104760002846FFF781F900222946404600F022FE44
:104770002F73BDE8FF871CB50024CDE9004001A9D7
:10478000684600F015F800B1009400981CBD0000C8
:1047900010B500242046FEF7F5F8641C1A2CF9D356
:1047A000024901200870002010BD000064010020B3
:1047B0002DE9F047804628480E46007878B148F247
:1047C0000E10B8F1000F08D0002E06D0306810B1DE
:1047D000B0F5807F06D948F20710BDE8F08748F2AF
:1047E0000810FAE71A21FEF71DFB1C49DFF8689054
:1047F00048F2041751F82040383109F1040951F802
:10480000205025E02046FEF72BFB0146600942427E
:1048100059F8200004EB4212D0404B4610F0010F33
:1048200014D06009424204EB421253F820404FF08A
:10483000010C0CFA02FC24EA0C0449F82040084858
:1048400000274219C8F80020316003E00D44641CC1
:104850001A2CD7D33846C0E764010020B45D0000AD
:10486000041C00202DE9F041058A80462D1F4819BF
:10487000C01CB0FBF5F0C6B24046FEF71FFE041E9A
:1048800019D00020207101206071E58000272546A5
:10489000761EC4F800800BE04046FEF70FFE60B1C4
:1048A0006179491C6171286005467F1CC0F8008051
:1048B000B742F1D32046BDE8F081204600F002F86F
:1048C0000020F8E72DE9F041457901466B1E0022F2
:1048D00001E00968521C9A42FBD30F68014600268A
:1048E00005E038460C68FEF715FE2146761CAE4200
:1048F000F7D3BDE8F0810121001DFEF7C3BDFEF72F
:1049000031BE10B504460121001DFEF7D1FD10F0A7
:10491000FF0F04D12046BDE81040FFF7D3BF10BD04
:104920001CB514460122CDE9002401AAFEF738FD8A
:104930000198A04203D00249DA20FDF791FE1CBD88
:104940002C6B00001CB514460022CDE9002401AAFE
:10495000FEF726FD0198A04203D00249D020FDF7C2
:104960007FFE1CBD2C6B000008B500F180400146A5
:104970000068002220B101200A600968009108BD8A
:10498000104608BD826800219160826811618268CA
:1049900051618268D16082685160806801607047AF
:1049A00003496846884201D20120704700207047C1
:1049B000905300200C4A10B502F58C730EE0991A42
:1049C000C91001EBD171491002EBC1010C6884429E
:1049D00001D90B4602E005D201F108029A42EED35A
:1049E000002010BD486810BD2C5E000000B5FFF728
:1049F000E1FF002800D1014800BD0000185E000062
:104A00004058002800D00120704708B500224250CD
:104A10004058009008BDD0F80403084000D00120A1
:104A200070474058002800D00120704708B5002288
:104A300042504058009008BD084810B5007918B998
:104A400007A19720FDF70CFE00F0D6F814490120CD
:104A500008600249091F087010BD0000C400002052
:104A60002E2E5C2E2E5C2E2E5C2E2E5C2E2E5C2E80
:104A70002E5C2E2E5C2E2E5C6D6F64756C65735CE7
:104A80006E7266785C647269766572735C73726369
:104A90005C6E7266785F636C6F636B2E6300000000
:104AA0001805004010B5040003D108A17E20FDF7D1
:104AB000D7FD164900200A790AB1852010BD0122D0
:104AC0000C600A7100224A7110BD00002E2E5C2E6F
:104AD0002E5C2E2E5C2E2E5C2E2E5C2E2E5C2E2E10
:104AE0005C2E2E5C6D6F64756C65735C6E7266789F
:104AF0005C647269766572735C7372635C6E726615
:104B0000785F636C6F636B2E63000000C40000204D
:104B100070B54FF480763046FEF770FD114CB50548
:104B200060B13046FEF771FD0120C5F808036079D9
:104B300020B9012060712168002088474FF48276F7
:104B40003046FEF75BFD00280AD03046FEF75DFDDB
:104B50000220C5F808032168BDE87040012008471D
:104B600070BD0000C4000020094810B5007918B9D4
:104B700008A1C420FDF774FD4FF48270FEF745FDD7
:104B800002204107C1F8040312490120086010BD4A
:104B9000C40000202E2E5C2E2E5C2E2E5C2E2E5C51
:104BA0002E2E5C2E2E5C2E2E5C2E2E5C6D6F647570
:104BB0006C65735C6E7266785C647269766572733C
:104BC0005C7372635C6E7266785F636C6F636B2E8E
:104BD00063000000080000400121B1EB507F01D1CB
:104BE00001207047002070470121B1EB507F01D1B7
:104BF000012070470020704706480068012110F02E
:104C0000010F06D14FF0E020C02280F80024C0F848
:104C10000011704700E100E070B54FF08040D0F81F
:104C20000453344C68070CD54FF48470FFF79CFE96
:104C300038B1606818B930A1F020FDF711FD606847
:104C40008047A8060DD54FF48A70FFF78DFE40B15E
:104C5000A06818B928A1F920FDF702FDA16800207D
:104C6000884768060ED54FF48C70FFF77DFE48B17B
:104C7000A06820B920A14FF48070FDF7F1FCA16875
:104C80000120884728060ED54FF48E70FFF76CFE82
:104C900048B1E06820B918A140F20910FDF7E0FC26
:104CA000E16800208847E8050ED54FF49070FFF7C3
:104CB0005BFE48B1E06820B90FA14FF48870FDF7A2
:104CC000CFFCE16801208847A80511D54FF4927008
:104CD000FFF74AFE00280BD0E06820B906A140F299
:104CE0001710FDF7BDFCE168BDE8704002200847E1
:104CF00070BD0000CC0000202E2E5C2E2E5C2E2ECF
:104D00005C2E2E5C2E2E5C2E2E5C2E2E5C2E2E5CAF
:104D10006D6F64756C65735C6E7266785C647269E5
:104D2000766572735C7372635C6E7266785F706FC7
:104D30007765722E6300000070B50D46040003D144
:104D40000DA15120FDF78CFC204600F0ABFB0400C8
:104D50000FD00020FDF7DCFB207920B10020FDF70B
:104D6000E7FB112070BD0120256020710020FDF7B8
:104D7000DFFB002070BD00002E2E5C2E2E5C2E2E40
:104D80005C2E2E5C2E2E5C2E2E5C2E2E5C2E2E5C2F
:104D90006D6F64756C65735C6E7266785C64726965
:104DA000766572735C7372635C7072735C6E72664C
:104DB000785F7072732E630010B5040003D106A1F2
:104DC0007520FDF74DFC204600F06CFB002802D05A
:104DD00000210160017110BD2E2E5C2E2E5C2E2E46
:104DE0005C2E2E5C2E2E5C2E2E5C2E2E5C2E2E5CCF
:104DF0006D6F64756C65735C6E7266785C64726905
:104E0000766572735C7372635C7072735C6E7266EB
:104E1000785F7072732E63000149024800F0ACBDE8
:104E2000941B0020002000402DE9F04117460D00A2
:104E3000064603D11AA18420FDF712FC3079284AD6
:104E400000EB400101EBC00102EB810494F82A1051
:104E500011B10820BDE8F081224951F820103068D6
:104E6000FFF76AFF08B11120F4E729463046FDF745
:104E700081FB6760286920601FB1297F3046FEF7FB
:104E8000DBF830680421C0F800150020A061E06163
:104E900084F8290044F8140F0121A175DAE7000015
:104EA0002E2E5C2E2E5C2E2E5C2E2E5C2E2E5C2E3C
:104EB0002E5C2E2E5C2E2E5C6D6F64756C65735CA3
:104EC0006E7266785C647269766572735C73726325
:104ED0005C6E7266785F756172742E63000000000C
:104EE000941B0020905D00002DE9F05F05460079DD
:104EF0000F4600EB400101EBC0002D49164601EBC7
:104F0000800494F82A00012803D02AA1F220FDF79A
:104F1000A7FB1FB927A1F320FDF7A2FB1EB925A10E
:104F2000F420FDF79DFB284600F064F810B1112035
:104F3000BDE8F09F66614FF00009C4F82090A760BB
:104F400084F828904FF48E784E4641462868FFF743
:104F50005CFD28684FF0010AC0F808A021462868C7
:104F600000F096FC606800BBD5F800B067690EE001
:104F700094F8280008B10F2615E041465846FFF77F
:104F80003FFD0028F4D02146584600F081FC206AFD
:104F9000B842F2D3574641462868FFF731FD002852
:104FA000F9D02868C760C4F814903046C0E7000004
:104FB000941B00202E2E5C2E2E5C2E2E5C2E2E5C42
:104FC0002E2E5C2E2E5C2E2E5C2E2E5C6D6F64754C
:104FD0006C65735C6E7266785C6472697665727318
:104FE0005C7372635C6E7266785F756172742E6357
:104FF00000000000007900EB400101EBC000044913
:1050000001EB80004069002800D0012070470000BB
:10501000941B00202DE9F047044600794FF0000969
:1050200000EB400101EBC000254901EB800720683F
:10503000C0F80095786880B120682249C0F808134C
:105040002068012140F3073000F01F029140400921
:10505000800000F1E020C0F880112068D0F80C2515
:10506000D0F81485D0F80865D0F810554FF0FF310E
:10507000C0F81415C0F80C152068C0F80815C0F861
:105080001015501C02D01046FEF7DEFEB8F1FF3FAF
:1050900002D04046FEF7D8FE681C02D02846FEF734
:1050A000D3FE701C02D03046FEF7CEFE2068FFF71C
:1050B00083FE87F82A90C7F80490BDE8F0870000C7
:1050C000941B0020840202000149024800F002BD46
:1050D000C01B0020002000402DE9F04117460D00C4
:1050E000064603D118A1A920FDF7BAFA3079264A5D
:1050F00000EBC00102EB810494F8201011B10820EC
:10510000BDE8F081214951F820103068FFF714FE06
:1051100008B11120F4E729463046FDF766FA6760CA
:10512000286920601FB1297F3046FDF7DBFF30681A
:105130000821C0F800150020A061E0616061012134
:1051400084F82010DCE700002E2E5C2E2E5C2E2E24
:105150005C2E2E5C2E2E5C2E2E5C2E2E5C2E2E5C5B
:105160006D6F64756C65735C6E7266785C64726991
:10517000766572735C7372635C6E7266785F75617C
:105180007274652E63000000C01B0020945D000057
:105190002DE9F04704460F460079364900EBC00080
:1051A00001EB8005164695F82000012804D032A1B5
:1051B00040F20710FDF754FA27B92FA14FF484707D
:1051C000FDF74EFA26B92CA140F20910FDF748FA76
:1051D000207910B9B6F5803F04D327A14FF485702C
:1051E000FDF73EFA3846FFF7FFFC30B1204600F0ED
:1051F00063F820B11120BDE8F0871020FBE76E6155
:10520000AF604FF490774FF0000839462068FFF701
:105210000DFC4FF4AC7631462068FFF707FC2068A0
:10522000AA686969C0F84425C0F8481520684FF09D
:105230000109C0F808906868D0B9BA46514620689C
:10524000FFF7EFFB074631462068FFF7EAFB07430D
:10525000F4D010B14FF00F0808E02068C0F80C90AF
:1052600031462068FFF7DDFB0028F9D00020686197
:105270004046C0E7C01B00202E2E5C2E2E5C2E2E3A
:105280005C2E2E5C2E2E5C2E2E5C2E2E5C2E2E5C2A
:105290006D6F64756C65735C6E7266785C64726960
:1052A000766572735C7372635C6E7266785F75614B
:1052B0007274652E630000000079054900EBC000A0
:1052C00001EB80004069002800D0012070470000F9
:1052D000C01B00202DE9F04704460079334900EB5C
:1052E000C00001EB80070125786880B12068304953
:1052F000C0F80813206840F3073000F01F0105FADA
:1053000001F14009800000F1E020C0F88011206820
:10531000D0F8001221F02001C0F80012206845608A
:105320004FF4AC7631462068FFF780FB2068C560FB
:1053300031462068FFF775FB0028F9D020684FF050
:105340000009C0F800952068D0F80C25D0F8148525
:10535000D0F80865D0F810554FF0FF31C0F80C15A3
:10536000C0F814152068C0F80815C0F81015501CB6
:1053700002D01046FEF771FDB8F1FF3F02D0404663
:10538000FEF76BFD681C02D02846FEF766FD701C18
:1053900002D03046FEF761FD2068FFF70DFD87F86B
:1053A0002090C7F80490BDE8F0870000C01B0020E3
:1053B0001003420010B50C46017A052908D0407A46
:1053C00038B1084808A102682046FEF74DFB00E00E
:1053D0001AB106A12046FEF747FB2046BDE8104063
:1053E000FEF784BBC4010020257300000D0A0000F5
:1053F00038B5C3880D46044633B114A0009015A2F9
:1054000016A12846FEF730FB217A05291CD0607AC8
:1054100048B1A088FEF724FF164951F8202016A1B4
:105420002846FEF721FBA0880021FFF725F9034657
:105430001049207A143951F8202001B02846BDE8DF
:1054400030400EA1FEF710BB38BD00001B5B306D75
:10545000000000001B5B313B33316D0025734C6F46
:1054600067732064726F7070656420282564292535
:10547000730D0A00C4010020257300003C25733E13
:105480002025733A20000000EFF30580C005C00D11
:1054900001D001207047EFF3148040F30000401C5E
:1054A000704700000349884201D10348704700203B
:1054B0007047000000200040DC000020244A811AD0
:1054C000904241D01ADC234AA0EB020190422FD037
:1054D0000BDC002828D0B0F5700F26D06FF47001D7
:1054E000401828D001281DD128E0012923D0022905
:1054F00024D0032922D0052914D11CE006291DD06F
:1055000008DC012914D0032912D0042919D0052957
:1055100008D113E0082917D009290FD00C290DD084
:10552000F6290BD048F21650704748F201507047E8
:1055300048F21150704748F21050704748F203503B
:10554000704748F21450704748F2135070470000FB
:105550000900F0000300F000374A811A90424CD055
:1055600025DC364AA0EB020190425BD016DC344ABF
:10557000A0EB020190424CD009DC00283CD031491C
:10558000401840D001283BD0032851D13EE00129EA
:105590003FD0022940D003294AD146E0092947D209
:1055A000DFE801F046464646462E462E2B001529DA
:1055B0003ED012DC112929D008DC01291DD0032995
:1055C00036D00F2922D0102932D125E0122920D03F
:1055D00013290FD014292BD121E016390F2927D2F6
:1055E000DFE801F01D2626262626262626111A1774
:1055F000260E0E0048F21750704748F27050704760
:1056000048F20350704748F21350704748F2105068
:10561000704748F21150704748F21450704748F2F2
:105620000150704748F20250704748F2715070477D
:1056300048F2165070470000110CF000080CF00002
:10564000040CF00000F40FFF70B5054688690C46A5
:1056500000284FF4847128460AD0FFF7D6F9D5F810
:105660001805626AE1688854606A401C606270BD17
:10567000FFF7CBF9D5F8180570BD1FB501238DF8DC
:105680000030CDE90121D0E90012684690471FBDE6
:105690001FB501238DF80030CDE90121D0E90012BA
:1056A000684690471FBD00002DE9F0411400884670
:1056B00018D000250E4F032608EB050122460020D6
:1056C000FCF730FC0544241A40B93878002809D08A
:1056D00008494FF47A408847761E05D0012038707B
:1056E000002CE9D1BDE8F08100203870FAE7000015
:1056F0006C010020515F000070B50E4C0020D2B24A
:105700002070201D0C4D0378EB5C1BB1001DFFF7D2
:105710003FFD02E00C30FFF7E7FB18B1074A2D21EF
:10572000FAF778FD6078002802D021780029FAD0B5
:1057300070BD000070010020AC000020306F000040
:105740002DE9F84FDFF898809246894605461F46B6
:10575000012269461846D8F80860FDF723F9B0B36E
:10576000009800210446801C0AE000BF00EA0602FF
:105770005AF821C008EB8202401C491CC2F80CC038
:10578000B942F3D3BA462F0CFDF742FB8346FEF72E
:1057900069FFB84204D8134940F27D10FCF760FF5E
:1057A000601C304008EB8000344047EA0B4208EBB5
:1057B0008401C260C86865F3C5006AF3891069F3A3
:1057C0009F2020F00300401C20F00400C86098F8DF
:1057D000200401E0FEF784FD0028FBD1BDE8F88F2E
:1057E000DC260020CC6F00002DE9F0410F468046FA
:1057F000174818491646401AC108052000EB014019
:1058000013460446424614A1FEF78DFEFEF768FDDE
:105810000028FBD100250AE07A5D204615A1FEF79D
:105820007BFE00BFFEF75CFD0028FBD16D1CB5427E
:10583000F2D320460EA1FEF76BFE204642460EA193
:10584000FEF76AFEFEF74CFD0028FBD1BDE8F081B3
:10585000C8730000607300002D2D2D2D25732028A6
:105860006C656E6774683A20257529202D2D2D2DC5
:105870000D0A0000256300002D2D2D2D20257320FD
:10588000656E64202D2D2D2D0D0A0D0A00000000DF
:1058900070B50C4605464FF48E71FFF7B6F8216AD5
:1058A000A068415C206A401C2062C5F81C1570BDD0
:1058B0001FB500228DF8002002918168019142619C
:1058C000D0E90012684690471FBD1FB500228DF831
:1058D00000200291816801914261D0E9001268467E
:1058E00090471FBD1FB50A4601788DF8001041682A
:1058F0000191017A8DF80810C0680390044850F8AF
:105900002210083850F82220684690471FBD00003A
:10591000B800002001490120087070477001002084
:1059200010B588B0044620220F496846FAF722FDD8
:1059300006200090C01F0190029003904FF0EB7082
:1059400006900CB1094A00E0002269460848FEF7BB
:1059500027F818B1074A1D21FAF75CFC0448001F1C
:10596000447008B010BD0000645F000015590000CD
:1059700074010020306F00002DE9FF470C460546FA
:105980004FF40071FFF747F801274FF40178002624
:1059900018B34FF4927949462846FFF731F8E0B141
:1059A00049462846FFF731F8C5F8088394F82900DE
:1059B00000B96F6002208DF80000D5F88004C5F8AA
:1059C00080040390A0690290E0680190A661E661FE
:1059D000D4E900126846904728E004212846FFF7E2
:1059E0001AF818B34FF484712846FFF709F8E8B1A4
:1059F00021462846FFF728FE616AA069884215D132
:105A0000E06938B1E268616AA0612069E6616662B6
:105A1000E06008E094F8290000B96F60C5F80883D9
:105A2000A661E268616A2046FFF727FE4FF48E7890
:105A300041462846FEF7E4FF80B16069216A814251
:105A400002D294F8280028B341462846FEF7DDFF2D
:105A5000606918B161692046FFF72AFF4FF4A27808
:105A600041462846FEF7CCFF002818D0414628467C
:105A7000FEF7CBFF94F8290000B12F60A069002841
:105A80000DD0A661E268616A04B02046BDE8F04727
:105A9000FFF7F3BD21462846FFF7FAFEDEE7BDE833
:105AA000FF8700001FB50A4601788DF80010416895
:105AB0000191017A8DF80810C0680390044850F8ED
:105AC0002210083850F82220684690471FBD000079
:105AD000B80000202DE9FF410C464FF492770546AF
