:020000040000FA
:1000000010270020F9020000010300000303000094
:1000100005030000070300000903000000000000C2
:100020000000000000000000000000000B030000C2
:100030000D030000000000000F030000110300008A
:1000400013030000130300007508000013030000F1
:10005000130300001303000013030000C10300009A
:100060002508000013030000130300001303000021
:100070001303000013030000130300001303000028
:100080001303000013030000130300001303000018
:100090001303000013030000130300001303000008
:1000A00013030000130300001303000013030000F8
:1000B0001303000013030000000000000000000014
:1000C00013030000130300001303000013030000D8
:1000D00013030000130300001303000000000000DE
:1000E0000000000000000000000000000000000010
:1000F0000000000000000000000000000000000000
:1001000000000000000000000000000000000000EF
:1001100000000000000000000000000000000000DF
:1001200000000000000000000000000000000000CF
:1001300000000000000000000000000000000000BF
:1001400000000000000000000000000000000000AF
:10015000000000000000000000000000000000009F
:10016000000000000000000000000000000000008F
:10017000000000000000000000000000000000007F
:10018000000000000000000000000000000000006F
:10019000000000000000000000000000000000005F
:1001A000000000000000000000000000000000004F
:1001B000000000000000000000000000000000003F
:1001C000000000000000000000000000000000002F
:1001D000000000000000000000000000000000001F
:1001E000000000000000000000000000000000000F
:1001F00000000000000000000000000000000000FF
:10020000DFF80CD000F0CAF800480047790D000074
:100210001027002030B4044654E8000F0D4644E88F
:100220000053002BF8D1156030BC704730B4044641
:1002300054E8000F40EA010544E80053002BF7D1D1
:10024000156030BC704730B4044654E8000F00EA33
:10025000010544E80053002BF7D1156030BC70470E
:1002600030B4044654E8000F80EA010544E8005326
:10027000002BF7D1156030BC704730B4044654E809
:10028000000F00EB010544E80053002BF7D1156087
:1002900030BC704730B4044654E8000FA0EB0105B1
:1002A00044E80053002BF7D1156030BC704770B4A0
:1002B00004464FF0000054E8006F0D68AE4207BFDF
:1002C00044E80023012044E800630E60002B1CBFBB
:1002D0000020F0E770BC704730B4044654E8000FCB
:1002E00088422CBF451A054644E80053002BF5D13F
:1002F000156030BC7047000006488047064800473C
:10030000FEE7FEE7FEE7FEE7FEE7FEE7FEE7FEE7C5
:10031000FEE7FEE70905000001020000202A04DBD9
:10032000203A21FA02F00021704721FA02F3D0406E
:10033000C2F12002914008431946704700487047B7
:10034000742C000040EA01039B0703D009E008C9B0
:10035000121F08C0042AFAD203E011F8013B00F88A
:10036000013B521EF9D27047D2B201E000F8012BD6
:10037000491EFBD270470022F6E710B513460A4625
:1003800004461946FFF7F0FF204610BD421C10F846
:10039000011B0029FBD1801A70470000064C074D55
:1003A00006E0E06840F0010394E807009847103445
:1003B000AC42F6D3FFF728FF2C2D00004C2D000097
:1003C0002DE9FE434FF48278404601F037FB4C4F55
:1003D00000254C4C012600B3404601F037FB94F851
:1003E0002E0010B194F82F10D1B18DF80050616833
:1003F00001912189ADF80810E26832B1218B618347
:1004000062602181E56010B102E0257400E03E6089
:1004100021686846884784F82F5094F82E0060B30E
:100420004FF48077384601F009FB30B3384601F0CD
:100430000DFB628B94F82D108A420AD9A2EB0100C1
:1004400080B260832289A2EB0000626802EB400068
:1004500005E007D1E06828B184F82F60658301F0DA
:10046000DBFA04E08A4202D184F82F6065834046BB
:1004700001F0ECFA2248001D06604FF488773846F8
:1004800001F0DCFA48B1384601F0E0FA25740220A8
:100490008DF800002168684688474FF48A7738460F
:1004A00001F0CCFA28B1384601F0D0FA2574BDE845
:1004B000FE834FF000484FF48C7967691DE000BF60
:1004C000B7FA87F028FA00F109EB80058F43284638
:1004D00001F0B4FA88B1284601F0B8FAA5F58C7598
:1004E000E8088DF8040045F38000401C8DF800609A
:1004F0008DF80500216868468847002FE0D1D6E7CF
:1005000000700040BC000020F0B5B5480023021D7B
:100510000178101D01254FF0805406290BD1167863
:10052000360708D10678C6F30316032E06D0042E2C
:1005300004D0052E02D0062907D00EE0B4F82463BB
:10054000A84FC6F304263E6002E01678360704D1B1
:100550000678C6F30316032E02D0062904D00FE056
:10056000A24FA14E7E670EE01678360708D10678B6
:10057000C6F30316032E06D0042E04D0052E02D097
:10058000062907D00EE0D4F84462994FC6F34236EC
:100590003E6002E01678360704D10678C6F30316EB
:1005A000032E02D0062906D011E0924E376827F0BC
:1005B000807737600EE01678360708D10678C6F3E4
:1005C0000316032E06D0042E04D0052E02D00629D1
:1005D0000AD011E04FF08046C6F80C31C6F8103151
:1005E000834E361F336002E01678360704D1067852
:1005F000C6F30316032E02D0062905D00CE07C4F6B
:10060000032664373E600AE01678360704D1067880
:10061000C6F30316032E02D006290DD014E0764F40
:1006200005263E60744E78363560734E083633606A
:100630003F263F1D3E6002E01678360704D106785B
:10064000C6F30316052E02D0062957D062E06B4E82
:1006500036686B4F3E60694E361D36683F1D3E6002
:10066000664E083636683F1D3E60644E0C3636686E
:100670003F1D3E60614E103636683F1D3E605F4E46
:10068000143636683F1D3E605C4E183636685C4F47
:1006900020373E60594E1C3636683F1D3E60574E2F
:1006A000203636683F1D3E60544E243636683F1D66
:1006B0003E60524E283636683F1D3E604F4E2C3607
:1006C00036683F1D3E604D4E303636684C4F4037E1
:1006D0003E604A4E343636683F1D3E60474E3836DF
:1006E00036683F1D3E60454E3C3636683F1D3E60D5
:1006F000424E403636683F1D3E6002E016783607AF
:1007000008D10678C6F30316032E06D0042E04D0B3
:10071000052E02D0062907D019E0D4F85812394A1C
:1007200001F04F01116002E0117809070FD1007844
:10073000C0F30310032803D0042801D0052806D1F4
:1007400031480168C90702D06FF001010160D4F897
:100750003001062808D1D4F83401062804D12B48EA
:10076000016841F48061016022487438016841F4F5
:1007700070010160BFF34F8FBFF36F8F4FF01021F7
:10078000D1F80002002803DBD1F80402002822DAA5
:100790001F4A15601F480468002CFCD01524C1F8BE
:1007A00000420568002DFCD0C1F804420168002910
:1007B000FCD0136001680029FCD0BFF34F8F0D48B7
:1007C000F0380168144A01F4E06111430160BFF39D
:1007D0004F8F00BFFDE7124910480860F0BD0000D0
:1007E000E00F00F0403501400DF0ADBA00C0074009
:1007F0003C050040FCED00E01056004004040010F1
:1008000020C50040E40E0040000400403C170040BA
:1008100004E5014000E401400400FA050090D00323
:10082000A40000202DE9F047104E042700244FF4C7
:10083000A0784FF4803900BF08EB840509FA04F072
:10084000715961B1D6F80413014208D029463046E7
:1008500001F01DF90648D0E9002128469047641CA4
:10086000E4B2BC42E8D3BDE8F0870000008000405D
:10087000EC00002001480068004700002000002034
:1008800002E008C8121F08C1002AFAD17047704759
:10089000002001E001C1121F002AFBD170470000B7
:1008A00072B600F09DFF00BF00F0E8FD0028FBD10C
:1008B00011481249401AC408012000EB044010A15D
:1008C00000F0F4FE11480068C00700D000BE02200E
:1008D00000EB04400EA100F0E9FEBFF34F8F0B4880
:1008E000E43801680E4A01F4E06111430160BFF38E
:1008F0004F8F00BFFDE70000942D00005C2D00002D
:10090000466174616C206572726F7200F0ED00E0F8
:1009100053797374656D207265736574000000000F
:100920000400FA050EB500210091CDE901106A46D8
:1009300044F20100FFF7B4FF0EBD00F003B800F071
:1009400009B8000072B602480168491C016070478E
:100950002800002003490868401E086000D162B6E4
:1009600070470000280000202DE9F0410646086885
:100970000C46411C4FF0A0474FF0010506D005FA88
:1009800000F1C7F80815206800F086FC6068411C7B
:1009900002D0002100F06EFC3168A069C1F8240586
:1009A000607D227D31681043C1F86C05D4E90012E6
:1009B0003068C0F81425C0F80C15207D012815D129
:1009C000A068411C02D0002100F054FCE068411CEA
:1009D00005D08540C7F80855E06800F05DFCD4E913
:1009E00002123068C0F80825C0F81015BDE8F08183
:1009F0002DE9F041064608680C46411C4FF0A0471F
:100A00004FF0010506D005FA00F1C7F80815206877
:100A100000F04CFC6068411C02D0002100F033FC67
:100A20003168A069C1F82405607D217D32680843E2
:100A3000C2F86C05D4E900123068C0F80C15C0F893
:100A40001425207D012815D1A068411C02D0002169
:100A500000F019FCE068411C05D08540C7F8085536
:100A6000E06800F023FCD4E902123068C0F80825E1
:100A7000C0F81015BDE8F0812DE9F0470546861C49
:100A800090460F464FF001090020FFF756FF1B4C20
:100A900020683860D4E90001401AA16804F21C47BC
:100AA000081A0EE00121384600F000FA00F016F9AD
:100AB0000146384600F0FAF9D4E90001401AA1686D
:100AC000081A401C8642EDD8B8F1000F03D005206B
:100AD00065F3891002E0062065F39F50A268216843
:100AE000114004EB8101C860206830442060002080
:100AF000FFF725FF4846BDE8F0870000EC02002024
:100B000070B50D4604460A2902D10D21FFF7F8FF02
:100B1000A0682268411CA1601554D4E901018142FA
:100B200004D32046BDE8704000F075BA70BD0000E7
:100B3000034803C8814201D101207047002070475B
:100B4000EC02002010B50021024800F0BAF980F351
:100B5000100010BD080700202DE9FC5F0E00834641
:100B6000DDE90C47C6F1000098469246814600D464
:100B70000846012503E000BF90FBFAF06D1C5045CC
:100B8000FADAA84500D9454624B1002E01DB7807E2
:100B900000D5641EB80702D5B8F1000F0AD0F807D7
:100BA00008D13CB1A54205D220215846641EFFF76A
:100BB000A7FFF6E7002E02DA4E462D2102E0780765
:100BC00003D52B215846FFF79BFF07F003000228AF
:100BD0000BD1B8F1000F08D13CB1A54205D23021AC
:100BE0005846641EFFF78CFFF6E7CDE90047434601
:100BF00052463146584601F057FFBDE8FC9F0000C1
:100C000070B50D46044600684FF4887100F05BFF34
:100C10004FF49071206800F056FF4FF492712068F5
:100C200000F051FF4FF4A271206800F04CFF4FF428
:100C3000AC71206800F047FF20681149C0F8041328
:100C40002068690740F30730090E002806DA00F033
:100C50000F0000F1E02080F8141D03E000F1E02017
:100C600080F800142068012140F3073000F01F02D3
:100C700091404009800000F1E020C0F8001170BDF3
:100C800010034200024600201268530713D502F0F9
:100C90000300012802D002280CD105E0C2F3831022
:100CA0000B68801C184404E00223086803EB92528E
:100CB00010440860012070470121814003484068CA
:100CC000014201D001207047002070471800002029
:100CD00001218140080300D0012070472DE9FF4128
:100CE0000026234800F0DFF82148001F074600F0E7
:100CF000DAF8204C60680090A56800E0009869462A
:100D0000284004EB80000C30FFF7BCFF0028F5D131
:100D100001AA009901EA050304EB8303491CDB687F
:100D200042F82030401C00910228F2D3019800F0D4
:100D3000030001280BD0022810D10198032101EBF8
:100D400090500099BDF80A6001EB900005E0019811
:100D5000BDF80A60C0F3831008440090384600F0E4
:100D60009FF808B10098606004B03046BDE8F0819B
:100D700004070020EC0200200021084600F0FAFCE5
:100D800008B1FFF7CFFD00F06BFB00F009FE08B1E2
:100D9000FFF7C8FD01F0F2FB01F02AFC01F01AFC9C
:100DA00008480949401AC008032101EB004007A187
:100DB00000F07CFC00F008FE00F060FB0028FBD196
:100DC000F8E70000942D00005C2D000053414144E1
:100DD000432048414C2073696D706C6520657861D3
:100DE0006D706C6520737461727465642E00000010
:100DF0002DE9F047C5881E1DB6FBF5F78946B6FB01
:100E0000F5F1044605FB176C407916686843DDF878
:100E100020A0F718001F874200D9C61A166001E00B
:100E20002468491E0029FBD1A5EB0C078846B74270
:100E300016D818E004EB0C00001D09EB0803BAF10A
:100E4000000F3A4602D00146184600E01946FFF767
:100E500079FA2468F61B4FF0000CB844B54201D96A
:100E6000374600E02F46002EE4D1BDE8F0870000B1
:100E700030B5024651B100F09BFC0021074C08E060
:100E800034F821301568AB4202D11160002030BD2A
:100E9000491C8142F4D3052030BD00000000000051
:100EA000002100F009B8012100F010B808B56A4629
:100EB000FFF7E3F9009808BD08B56A46FFF7C3F9E4
:100EC00008BD08B56A46FFF7A5F908BD08B56A462A
:100ED000FFF7ACF9009808BD08B56A46FFF7DAF9E4
:100EE000009808BD70B5044600252846FFF725FD8B
:100EF00021686268086890420ED9401E0860017837
:100F0000238AE26801FB0325227A2168101AC0B205
:100F10000A79824200D208710020FFF710FD2846AE
:100F200070BD70B505460C460020FFF706FDE86869
:100F3000298A201AB0FBF1F12A681068431C13605B
:100F40000170BDE870400020FFF7F9BC10B530B16A
:100F5000017A42680368891AC9B21A6006E00E2055
:100F600010BD03681A68541C1C601170491EC9B278
:100F7000F7D2006800210171084610BD04480178CD
:100F800009B18520704701210170002070470000E1
:100F900008000020F0B505460478154889B01646CB
:100FA00040F82420124A0869121DA2F1080742F8ED
:100FB0002400487F385520226846FFF7C3F904947F
:100FC0002878385C48B10EB10A4A00E00022694630
:100FD000281D01F0E5F809B0F0BD0EB1064A00E0A9
:100FE0000022694605F10C0000F0ACFFF3E70000B9
:100FF0001000002065290000AD2700000FB408B5DF
:101000000399002904D004AA00926A4600F00FF860
:1010100001B05DF814FB10B582680446002A05D0C3
:10102000D4E90403216898470020A06010BD2DE991
:10103000FC4791460C00804676D014F8011B39B16C
:1010400025290ED04046FFF75BFD20780028F4D11B
:1010500098F80C00002867D04046BDE8FC47FFF731
:10106000DABF0020012221782B291BD02D2902D0A4
:10107000302908D102E040F0010001E040F0020018
:10108000641C002AEFD100252A290ED02178A1F175
:1010900030020A2A11D205EB850201EB4205641CDD
:1010A000303DF1E740F00400EAE7D9F800100B1DED
:1010B000C9F800300968641C0D44217800232E29EA
:1010C0000BD114F8011FA1F130020A2A05D203EB5B
:1010D000830201EB4203303BF3E76C290DD0682912
:1010E0000BD0692921D00BDC252918D0582931D003
:1010F00063290ED0642915D117E014F8011FECE71D
:10110000702969D0732932D075291BD0782909D16B
:1011100020E0D9F80000011DC9F800100178404610
:10112000FFF7EEFC641C90E76CE0D9F800100A1D94
:10113000C9F800200968CDE900500A224046FFF7AF
:101140000BFDEFE7D9F800100A1DC9F80020096867
:101150000A2206E0D9F800100A1DC9F80020096823
:101160001022CDE90050404601F09EFCDAE7D9F8A4
:10117000001000270A1DC9F800200E68C00705D11D
:1011800012E04046761C7F1CFFF7BAFC317800293C
:10119000F7D104E0202140466D1EFFF7B1FCBD42AF
:1011A000C0D9002DF6D1BDE74EB13046FFF7EEF8BD
:1011B000074604E0202140466D1EFFF7A1FCBD421A
:1011C00006D9002DF6D103E04046761CFFF798FCC7
:1011D00031780029F8D1A5E7D9F80000011DC9F838
:1011E0000010056830214046FFF78AFC7821404610
:1011F000FFF786FC08200021CDE9000103461022FC
:101200002946B0E7BDE8FC8770B541EA4201DDE957
:1012100004564FF0A04441EA830141EA052104EB62
:10122000800041EA0641C0F8001770BD70B541EA80
:101230004201DDE904564FF0A04441EA830141EA4E
:10124000052104EB800041EA0641C0F8001770BD9B
:101250001CB5002100910B4601220191FFF7D4FF3C
:101260001CBD1CB5002100910B4601220191FFF726
:10127000DDFF1CBD1CB500220B46009211460192F9
:10128000FFF7C2FF1CBD1CB500220B4600921146A1
:101290000192FFF7CBFF1CBD1CB5002100910B464E
:1012A000012201911146FFF7AFFF1CBD1CB50021C3
:1012B00000910B46012201911146FFF7B7FF1CBDBB
:1012C00030B5154A01460020D2F8104423460AE002
:1012D000DB681D79854205D1401C0A28F6DB4FF0FA
:1012E000FF3030BD1B68002BF2D1431CF9D0CB6816
:1012F0001871D2F8103443B1DB68CC681B682360E6
:10130000D2F81024D268116030BDC2F81014C96838
:1013100000220A6030BD0000EC020020F0B595B05C
:101320001C4615460F4608461A9E00F013FB18216E
:1013300009A8FFF720F80E96CDE9095400230822EA
:1013400003A9384600F01BFB05980690BDF8100075
:10135000ADF81C00BDF81200ADF81E0000208DF89D
:1013600021000398082600F00300012802D002287B
:1013700018D032E003983346850AC0F3C2008DF8D6
:10138000200003980FA9C0F38314A200384600F090
:10139000F6FA09A8009006AB22460FA9284600F0ED
:1013A00035FA1AE00398840DC0F3C2008DF82000CE
:1013B000082C01D2254600E0082533462A460FA90D
:1013C000384600F0DCFA2E44641B09AB06AA294615
:1013D0000FA800F077F9002CEAD1384600F0C0FAE7
:1013E00015B0F0BD7047012001F0FEB9084810B5F6
:1013F0000178084A515C19B1001D00F06BFF02E052
:101400000C3000F06BFEBDE81040002001F0ECB99C
:10141000380000200C00002008B5034A0092402349
:10142000024AFFF77BFF08BD892600005401002017
:101430000A4A012902EBC00007D0022907D003297C
:1014400007D0042907D000207047022070470420ED
:101450007047007970474079704700005C2D0000AC
:1014600010B5FFF7C0FF04210348FFF729FF024929
:101470000120C968487110BD4C2D00002DE9F047CE
:101480008CB0FFF755FB18B100200CB0BDE8F08719
:101490007D4C0020C4F81804BFF34F8F60680290A1
:1014A000A5684FF00008284004EB80000CE000BF66
:1014B000D4F8180470B921680298814201D861609B
:1014C000E2E7284004EB80000C3002A9FFF7DAFBCA
:1014D0000028EDD1002003AA029901EA050304EBDC
:1014E0008303491CDB6842F82030401C029102282B
:1014F000F2D3039800F00300022802D001284DD057
:10150000A7E003985022810D8946B2EB905F00D886
:1015100050210E4666F39F50039008315B4800F05F
:10152000D0F9070078D000F015FA4346082203A945
:10153000384600F02CFA029908F1080A2940681A86
:101540008000001D864222D94F4D0C3530B1C2B209
:1015500004EB8101301A90460C3104E02946F2B2C6
:10156000002590462846C6B25346384600F00FFA8A
:101570000AEB080325B132462946384600F007FA3F
:10158000029909F1030001EB900002903BE004EBAB
:1015900081015346324638460C31EFE70398C0F3D9
:1015A0008310062800D30620039960F38911C1F344
:1015B0008310801C03918100344800F082F90700F9
:1015C00047D000F0C7F94346082203A9384600F087
:1015D000DEF908F1080800260FE00298434600EA09
:1015E0000501401C04EB81010290042238460C31B5
:1015F00000F0CDF908F10408761C0398C0F38310BD
:10160000B042EAD847B1D4F81054D4F8180478B1ED
:10161000384600F0A5F931E01BE0E8684079012880
:1016200004D12A682846394612689047E868056858
:10163000002DF2D1384600F093F90020FFF77DF934
:10164000D4F8180408B9029860600020FFF777F911
:1016500014E0D4F8104405E02168204689688847E2
:10166000E0680468002CF7D109480A49401AC0080C
:10167000022101EB004008A100F018F8FFF758FA2A
:1016800080F0010001E70000EC0200209C2D00002A
:10169000942D00005C2D00004261636B656E6473E5
:1016A00020666C75736865640000000000231A46AC
:1016B00001F00AB808B5012300926A4601F004F867
:1016C00008BD00002DE9F0470E4680461C469246B4
:1016D000082940D894F80C90002020731946104631
:1016E00000F086FE0025B54206D218F805201BA1A1
:1016F0002046FFF783FC03E01AA12046FFF77EFC9B
:101700006D1C082DEFD318A12046FFF777FC0025AC
:10171000B54212D218F805707E2F08D8FEF70EFEDB
:101720000068C05D10F03E0F01D03A4600E02E2266
:101730000EA12046FFF762FC03E00DA12046FFF753
:101740005DFC6D1C082DE3D301222146504600F0BC
:1017500031FE84F80C90BDE8F0870000202530327F
:1017600078000000202020007C000000256300009D
:10177000200000000B4810B5FF21816000210160AE
:101780004160C0F81814C0F8141480F820140648FA
:1017900000F0E4F8002803D1044800F02FF90020FD
:1017A00010BD0000EC0200209C2D0000E42B000086
:1017B00002480349401AC008704700009C2D0000F1
:1017C0005C2D000013B56846FFF752FB08B10020FE
:1017D0001CBD0248009950F831001CBD5C2D000072
:1017E00070B509480125D0F8104480F8205407E06E
:1017F000E06845712168204649688847E0680468C8
:10180000002CF5D170BD0000EC0200202DE9FF474F
:1018100081460C9D00200C462F7B28739846164667
:101820002946184600F0E4FD072E42D2DFE806F014
:1018300004090F161F2A360049462846FFF7DEFB2B
:1018400037E0494628462268FFF7D8FB31E0D4E963
:10185000002349462846FFF7D1FB2AE0A068009004
:10186000D4E9002349462846FFF7C8FB21E0D4E924
:101870000201CDE90001D4E9002349462846FFF7DB
:10188000BDFB16E004F1080007C88DE80700D4E9A5
:10189000002349462846FFF7B1FB0AE004F108009F
:1018A0000FC88DE80F00D4E9002349462846FFF70A
:1018B000A5FB00222946404600F07CFD2F73BDE8C1
:1018C000FF872DE9F041058A80462D1F4819C01C6D
:1018D000B0FBF5F0C6B24046FFF704FB041E19D07A
:1018E0000020207101206071E58000272546761ECA
:1018F000C4F800800BE04046FFF7F4FA60B161796C
:10190000491C6171286005467F1CC0F80080B74201
:10191000F1D32046BDE8F081204600F002F8002017
:10192000F8E72DE9F041457901466B1E002201E000
:101930000968521C9A42FBD30F680146002605E055
:1019400038460C68FFF7EDFA2146761CAE42F7D315
:10195000BDE8F0810121001DFFF7A8BAFFF7F6BA34
:1019600010B504460121001DFFF7B6FA10F0FF0F75
:1019700004D12046BDE81040FFF7D3BF10BD1CB511
:1019800001920122009201AAFFF732FA1CBD1CB598
:1019900001920022009201AAFFF72AFA1CBD000062
:1019A000064910B500204870091D0860BFF35F8F1D
:1019B0000349044800F054F8002010BD2C0000201A
:1019C000AC2B00004801002010B50020FEF7B5FF49
:1019D000F1EE100A20F09F00E1EE100ABFF35F8FD6
:1019E00005494020C1F880020020FEF7A8FF20BF73
:1019F00040BF20BF10BD000004E000E0826800216D
:101A0000916082681161826851618268D1608268E8
:101A10005160806801607047024A1060101D0160CB
:101A2000704700002C760040030103481844C0F8BA
:101A30001425C0F810157047007000400249405846
:101A4000002800D00120704700700040034908B50D
:101A50000844002202600068009008BD0070004049
:101A6000016009684160AFF3008010B5D0E9002142
:101A70005368994201D1002104E0D1E90034A34226
:101A800002D01946816010BD08314160F0E708B509
:101A9000002242504058009008BD4058002800D015
:101AA0000120704708B5002242504058009008BD00
:101AB000D0F80403084000D00120704740580028A7
:101AC00000D00120704708B50022425040580090D5
:101AD00008BD0121B1EB507F01D1012070470020EA
:101AE000704700002DE9F0470427144E814600247A
:101AF0004FF001080020FEF720FF08FA04F53542F8
:101B000003D02046FFF7D8F858B10020FEF717FFA2
:101B100027B104F10104AE43E4B2EBD13846BDE88D
:101B2000F087074908FA04F000274A681043486024
:101B300089F800403846FEF702FFEFE7FFFF0F008D
:101B4000180000202DE9F04114460D00074612D080
:101B50008CB10026FFF7BCF878B13846FFF7ACF837
:101B600068B1084800EBC700C0F81055C0F814452C
:101B70003046BDE8F0810E20FBE70726F8E708268F
:101B8000F6E7000000F0014070B50446012600258C
:101B9000A640FFF79DF818B12046FFF78DF818B161
:101BA00002480660284670BD0825FBE704F50140A1
:101BB00070B50D4600F068FC04000FD00020FEF761
:101BC000BCFE207920B10020FEF7B9FE112070BDC7
:101BD0000120256020710020FEF7B1FE002070BDBD
:101BE00010B500F051FC002802D000210160017105
:101BF00010BD00002DE9F041254C064612200D468F
:101C0000C4F808032348017C022918D0027C01464D
:101C10004FF4807891F82E10012A12D00222C4F8D5
:101C2000042301270774466005810022C26021B3A6
:101C3000458390F82D103046FFF7EEFE25E0122088
:101C400002E0C2682AB10220C4F804031120BDE8F2
:101C5000F081C660058361B947463846FFF7EEFE5E
:101C60000028FAD03846FFF7F1FE29463046FFF744
:101C7000D3FE0220C4F8040307E029463046FFF7EC
:101C8000CBFE4046FFF7E2FE27600020DFE70000C2
:101C900000700040BC00002070B50C4626490A7C4C
:101CA0000AB1112070BD2279244D0AB1012A01D157
:101CB00000222A6001EB4002137F1BB911F82D3F6F
:101CC0005B1C0B70E1791177217A5177217862786A
:101CD000302301F0030103EA02121143A2784FF40A
:101CE000E06303EA02221143E2784FF4805303EAEF
:101CF0000232114322794FF4E02303EA02421143F6
:101D000062794FF4801303EA02521143A2791B0156
:101D100003EA02620A4B114303EB0012C2F81815E2
:101D2000227AE179FFF780FE207908B1012801D1FC
:101D300001202860002070BDBC000020007500401C
:101D4000007000402DE9F0411F4C054694F82C002E
:101D500010B10820BDE8F08144F8101B1B49287819
:101D60000860091D68780860E878A0770127277760
:101D70000020207060776060154EE0776FF00040C3
:101D8000C6F808034FF48270FFF760FEB015FFF746
:101D90005DFE4FF48A70FFF759FEA8780D494001A7
:101DA00081F800048020C91FC1F800010220C6F894
:101DB0000403A07F10B10120C6F804030348F038E3
:101DC00007600020C6E70000BC000020F07500405E
:101DD0000070004007E000E0044890F82E0008B1D1
:101DE000002000E00420024908447047BC000020A5
:101DF000007000402DE9F04106460D464FF4803456
:101E000000681746AC404BB14FF4A07101EB85015F
:101E1000FFF73DFE3068C0F8044301E0C0F8084316
:101E2000306800EB8500C0F84075BDE8F081000027
:101E3000016801220A600079034A00EB400002EBCE
:101E40008000022101727047EC000020F0B40468A9
:101E5000049E40F20115D4F800728D40AF43C4F8DF
:101E600000720468D4F800521D43C4F8005233468F
:101E7000F0BCFFF7BFBF00002DE9F04104460E465D
:101E800000792B4900EB400001EB8007387A10B154
:101E90000820BDE8F0813A60706800254FF4A07812
:101EA000786006E008EB85012068FFF7F0FD6D1C07
:101EB000EDB26079A842F5D82068F17840F3073098
:101EC00000284FEA411106DA00F00F0000F1E0208F
:101ED00080F8141D03E000F1E02080F80014206871
:101EE000012140F3073000F01F0201FA02F240091D
:101EF000800000F1E020C0F8002120687278D0F85E
:101F0000043562F30103C0F804352068B278D0F8D4
:101F1000083562F30103C0F8083520683278D0F83C
:101F2000103562F30303C0F8103539720020B0E7B2
:101F3000EC0000200149024800F07EBCF8000020BF
:101F4000002000402DE9F0410546007916460F4675
:101F500000EB40012C4A01EBC00102EB810494F834
:101F60002A1011B10820BDE8F081284951F820104D
:101F70002868FFF71DFE08B11120F4E7394628460E
:101F8000FEF7F2FC66603869206030004FF0010611
:101F90002DD03F7F4FF48E712868FFF783FD4FF4FB
:101FA000A2712868FFF77EFD28681949C0F804135C
:101FB00028684FEA471140F30730002806DA00F09E
:101FC0000F0000F1E02080F8141D03E000F1E02094
:101FD00080F80014286840F3073000F01F0106FA6B
:101FE00001F14009800000F1E020C0F800112868EC
:101FF0000421C0F800150020A061E06184F82900E8
:1020000044F8140FA675AEE7F80000207C2B000002
:10201000800002002DE9F05F054600790B4600EBD9
:10202000400101EBC000244901EB8004284600F088
:1020300045F810B11120BDE8F09F62614FF0000932
:10204000C4F82090A36084F828904FF48E784E4610
:1020500041462868FFF726FD28684FF0010AC0F8BE
:1020600008A02146286800F076FB606808BBD5F818
:1020700000B067690FE000BF94F8280008B10F2690
:1020800015E041465846FFF708FD0028F4D02146E8
:10209000584600F060FB206AB842F2D357464146EA
:1020A0002868FFF7FAFC0028F9D02868C760C4F850
:1020B00014903046BFE70000F8000020007900EBE4
:1020C000400101EBC000044901EB80004069002899
:1020D00000D0012070470000F80000202DE9F047F3
:1020E000044600794FF0000900EB400101EBC0000D
:1020F000254901EB80072068C0F80095786880B119
:1021000020682249C0F808132068012140F30730F5
:1021100000F01F0291404009800000F1E020C0F86B
:1021200080112068D0F80C25D0F81485D0F8086507
:10213000D0F810554FF0FF31C0F81415C0F80C1549
:102140002068C0F80815C0F81015501C02D01046C1
:10215000FFF77EF8B8F1FF3F02D04046FFF778F86E
:10216000681C02D02846FFF773F8701C02D0304676
:10217000FFF76EF82068FFF733FD87F82A90C7F85D
:102180000490BDE8F0870000F800002084020200FF
:102190000149024800F0FEBB24010020002000405D
:1021A0002DE9F0410546164600790F46154A00EB29
:1021B000C00102EB810494F8201011B10820BDE8A1
:1021C000F081114951F820102868FFF7F1FC08B19F
:1021D0001120F4E739462846FEF70AFC66603869A4
:1021E00020601EB1397F2846FEF70AFD28680821C5
:1021F000C0F800150020A061E0616061012184F851
:102200002010DCE724010020802B00002DE9F0479E
:1022100004460E460079274900EBC00001EB80051B
:1022200017463046FFF755FC30B1204600F044F821
:1022300020B11120BDE8F0871020FBE76F61AE6090
:102240004FF490774FF0000839462068FFF73BFCC9
:102250004FF4AC7631462068FFF735FC2068AA6859
:102260006969C0F84425C0F8481520684FF0010995
:10227000C0F808906868D0B9BA4651462068FFF7A0
:102280001DFC074631462068FFF718FC0743F4D0D1
:1022900010B14FF00F0808E02068C0F80C903146EC
:1022A0002068FFF70BFC0028F9D000206861404649
:1022B000C0E70000240100200079054900EBC000C0
:1022C00001EB80004069002800D001207047000029
:1022D000240100202DE9F04704460079334900EB42
:1022E000C00001EB80070125786880B12068304983
:1022F000C0F80813206840F3073000F01F0105FA0A
:1023000001F14009800000F1E020C0F88011206850
:10231000D0F8001221F02001C0F8001220684560BA
:102320004FF4AC7631462068FFF7CDFB2068C560DE
:1023300031462068FFF7C2FB0028F9D020684FF033
:102340000009C0F800952068D0F80C25D0F8148555
:10235000D0F80865D0F810554FF0FF31C0F80C15D3
:10236000C0F814152068C0F80815C0F81015501CE6
:1023700002D01046FEF775FFB8F1FF3F02D040468D
:10238000FEF76FFF681C02D02846FEF76AFF701C3C
:1023900002D03046FEF765FF2068FFF721FC87F882
:1023A0002090C7F80490BDE8F087000024010020C9
:1023B0001003420010B50C46017A052908D0407A76
:1023C00038B1084808A102682046FEF717FE00E071
:1023D0001AB106A12046FEF711FE2046BDE81040C6
:1023E000FEF719BE80000020257300000D0A0000D2
:1023F00038B5C3880D46044633B114A0009015A229
:1024000016A12846FEF7FAFD217A05291CD0607A2C
:1024100048B1A088FFF70CF8164951F8202016A102
:102420002846FEF7EBFDA0880021FFF7CBF9034615
:102430001049207A143951F8202001B02846BDE80F
:1024400030400EA1FEF7DABD38BD00001B5B306DD9
:10245000000000001B5B313B33316D0025734C6F76
:1024600067732064726F7070656420282564292565
:10247000730D0A0080000020257300003C25733E88
:102480002025733A200000000349884201D1034807
:10249000704700207047000000200040200000200E
:1024A00070B5054688690C4600284FF484712846AB
:1024B0000AD0FFF7F7FAD5F81805626AE168885480
:1024C000606A401C606270BDFFF7ECFAD5F8180531
:1024D00070BD1FB501238DF80030CDE90121D0E991
:1024E0000012684690471FBD1FB501238DF80030CC
:1024F000CDE90121D0E90012684690471FBD0000D8
:102500002DE9F04106460078002821D105217068A8
:10251000FFF770FB08B1FEF705FA0E480E490F4FA2
:10252000401AC108032000EB014005460CA17A685F
:10253000FFF7C0F8002470680FA130F91420284676
:10254000FFF7B8F8641C052CF5DB7868401C786050
:10255000BDE8F081942D00005C2D000000000020FB
:10256000414443206576656E74206E756D626572B8
:102570003A20256400000000256400000EB5124AD0
:1025800007CA8DE80700104810491438FFF7DAFB36
:1025900008B1FEF7C7F969460020FFF77DFB08B1D7
:1025A000FEF7C0F905210A48FFF724FB08B1FEF742
:1025B000B9F9074805210A30FFF71CFB002801D0B4
:1025C000FEF7B0F90EBD0000702B000001250000E1
:1025D000A8000020054810B50078FFF7D5FA0028BC
:1025E00003D0BDE81040FEF79DB910BD00000020EB
:1025F0003EB5FEF7C3FC08B1FEF794F91E491F4A29
:10260000D1E90301CDE9010103208DF806001A4844
:1026100001A9001DFFF730FC08B1FEF783F9164C45
:10262000241D2068D0F810050021C2B21448FDF71F
:1026300075FE024600200146009001232046FFF768
:1026400005FC2046FFF7F4FB246804F5A074FFF7AF
:10265000C3FB05460B48FFF745FA08B1FEF762F9E0
:1026600008482A4621460078FFF76CFA002801D076
:10267000FEF758F93EBD00005C2B00005527000016
:1026800000A861000000002070B50D4C0020D2B2FF
:102690002070201D0B4D0378EB5C1BB1001DFFF774
:1026A000B5FD02E00C30FFF7B5FC08B1FEF73AF9D2
:1026B0006078002802D021780029FAD070BD00008F
:1026C000340000200C0000202DE9F84F204D9246E8
:1026D000894606469846012269461846AF68FEF7C5
:1026E000CBF958B3009800210446801C09E000BFD4
:1026F00000EA07035AF8212005EB8303401C491C1C
:10270000DA604145F4D34FEA164AFEF71BFA4AEA6B
:102710000041601C384005EB80003C4005EB840222
:10272000C160D06866F3C50068F3891069F39F2023
:1027300020F00300401C20F00400D06095F8200435
:1027400002E000BFFEF79AFE0028FBD1BDE8F88F3B
:10275000EC020020704770B50C4605464FF48E71B0
:10276000FFF7A0F9216AA068415C206A401C206242
:10277000C5F81C1570BD1FB500228DF80020029110
:10278000816801914261D0E90012684690471FBDFF
:102790001FB500228DF800200291816801914261ED
:1027A000D0E90012684690471FBD00001FB50A46D9
:1027B00001788DF8001041680191017A8DF80810B8
:1027C000C0680390044850F82210001F50F82220DF
:1027D000684690471FBD00001400002001490120F9
:1027E000087070473400002010B588B004462022DD
:1027F0000E496846FDF7A6FD06200090C01F019017
:10280000029003904FF0EB7006900CB1084A00E084
:10281000002269460748FEF7BDFB08B1FEF782F8C3
:102820000448001F447008B010BD0000C42B000015
:10283000DD270000380000202DE9FF470C46054643
:102840004FF40071FFF734F901274FF401780026A7
:1028500018B34FF4927949462846FFF71EF9E0B1C4
:1028600049462846FFF71EF9C5F8088394F8290061
:1028700000B96F6002208DF80000D5F88004C5F81B
:1028800080040390A0690290E0680190A661E6616F
:10289000D4E900126846904728E004212846FFF753
:1028A00007F918B34FF484712846FFF7F6F8E8B13A
:1028B00021462846FFF7F4FD616AA069884215D1D8
:1028C000E06938B1E268616AA0612069E661666228
:1028D000E06008E094F8290000B96F60C5F808834B
:1028E000A661E268616A2046FFF7F3FD4FF48E7837
:1028F00041462846FFF7D1F880B16069216A8142DC
:1029000002D294F8280028B341462846FFF7CAF8B7
:10291000606918B161692046FFF72DFF4FF4A27876
:1029200041462846FFF7B9F8002818D04146284606
:10293000FFF7B8F894F8290000B12F60A0690028CB
:102940000DD0A661E268616A04B02046BDE8F04798
:10295000FFF7BFBD21462846FFF7FDFEDEE7BDE8D5
:10296000FF8700001FB50A4601788DF80010416806
:102970000191017A8DF80810C0680390044850F85E
:102980002210001F50F82220684690471FBD00000B
:10299000140000202DE9FF410C464FF492770546C4
:1029A0003946FFF78BF80026B8B139462846FFF7BD
:1029B0008AF802208DF80000D5F88004C5F880045C
:1029C0000390D5F83C050290E0680190A661E661AD
:1029D000D4E900126846904723E04FF488773946DF
:1029E0002846FFF76BF8E0B139462846FFF76BF849
:1029F000D5F83C15A069884213D1E06960B1E2685E
:102A0000D5F8000220F02000C5F80002E069A061BE
:102A10002069E661E06001E0A661E2682046FFF718
:102A200063FD4FF4A27739462846FFF747F868B1AF
:102A300039462846FFF747F8A06938B1A661E66134
:102A4000D5F83C152046E268FFF74EFD4FF490762E
:102A500031462846FFF732F860B131462846FFF785
:102A600032F80120E860606920B1D5F84C152046A5
:102A7000FFF78EFE4FF4AC7631462846FFF71EF87E
:102A800000280ED031462846FFF71DF8606900285F
:102A900007D0D5F84C1504B02046BDE8F041FFF74B
:102AA00077BEBDE8FF8100002DE9F05F8346DDE9D8
:102AB0000A4A994690460D460846012703E000BFA2
:102AC000B0FBF8F07F1C4045FAD2B94500D94F461B
:102AD0005FEACA7012D18CB15FEA8A7002D5B9F18F
:102AE000000F01D0202607E0302605E03146584689
:102AF000641EFEF705F80CB1A742F7D35FF001069C
:102B0000B9F1010F02D9A9F1010903E0B5FBF6F013
:102B1000404502D306FB08F6F2E7DFF83C9000BF21
:102B2000B5FBF6F000FB165519F800105846FDF7F6
:102B3000E7FFB6FBF8F6002EF2D15FEACA7009D0C3
:102B4000002C07D0A74205D220215846641EFDF76D
:102B5000D7FFF5E7BDE8F09F842B000001000600D9
:102B6000008000400004000000000006000000009B
:102B7000000000000200000100000000351F0000FE
:102B80009121000030313233343536373839414203
:102B90004344454600000000000000000000000023
:102BA000000000000000000000000000942B000066
:102BB000AC2B00000400000019140000ED1300000D
:102BC000E5130000FFFFFFFFFFFFFFFFFFFFFFFF19
:102BD000FFFFFFFF00000000000000000000D60122
:102BE00006010000540200207F000000D4020020F3
:102BF0000040404040404040404041414141414010
:102C000040404040404040404040404040404040C4
:102C10004005020202020202020202020202020253
:102C20000220202020202020202020020202020258
:102C300002029090909090901010101010101010B0
:102C400010101010101010101010101002020202BC
:102C50000202888888888888080808080808080800
:102C600008080808080808080808080802020202FC
:102C700040000000F12B00007761726E696E670002
:102C800064656275670000001B5B313B33306D008B
:102C90001B5B306D000000001B5B313B33316D006E
:102CA0001B5B313B33326D001B5B313B33336D00BB
:102CB0001B5B313B33346D001B5B313B33356D00A7
:102CC0001B5B313B33366D001B5B313B33376D0093
:102CD000696E666F000000006572726F720000001E
:102CE00050504900505253005341414443000000AA
:102CF00054494D4552000000554152540000000017
:102D000055415254450000007077725F6D676D74D5
:102D100000000000756172745F6C6F675F626163D1
:102D20006B656E640000000061707000B02D0000E3
:102D300000000020A800000080080000582E0000BD
:102D4000A80000206826000090080000B82B0000B2
:102D500000000000142D00004C000020E02C0000BA
:102D600000000000E42C000000000000E82C00003F
:102D700000000000F02C000000000000F82C000013
:102D800000000000002D000000000000082D0000E1
:102D900000000000282D0000000003035C0000205C
:102DA000540000205C000020940100201800000066
:102DB0000000000000000000000000000000000013
:102DC0000000000000000000000000000000000003
:102DD00000000000000000000000000000000000F3
:102DE0000000000000000000000000000020004083
:102DF0000000000000200040000000000000000073
:102E0000FF000000000000000000000000000000C3
:102E100000000000000000000000000000000000B2
:102E2000D82C0000782C0000D02C0000802C000052
:102E3000902C0000882C0000982C0000A02C000092
:102E4000A82C0000B02C0000B82C0000C02C000002
:082E5000C82C00000090D00323
:0400000500000201F4
:00000001FF
