:020000040000FA
:10000000202A0020C1030000C9030000CB03000028
:10001000CD030000CF030000D1030000000000006A
:10002000000000000000000000000000D3030000FA
:10003000D503000000000000D7030000D903000032
:10004000C5060000DB030000790A0000DB030000A6
:10005000DB030000DB03000061050000DB030000A0
:10006000DB030000DB030000DB030000DB03000018
:10007000DB030000DB030000DB030000DB03000008
:10008000DB0300004D070000DB030000DB03000082
:10009000DB030000DB030000DB030000DB030000E8
:1000A000DB030000DB030000DB030000DB030000D8
:1000B0001D070000DB03000000000000000000003E
:1000C000DB0300002D0700003D070000DB030000FC
:1000D000DB030000DB030000DB0300000000000086
:1000E0000000000000000000000000000000000010
:1000F0000000000000000000000000000000000000
:1001000000000000000000000000000000000000EF
:1001100000000000000000000000000000000000DF
:1001200000000000000000000000000000000000CF
:1001300000000000000000000000000000000000BF
:1001400000000000000000000000000000000000AF
:10015000000000000000000000000000000000009F
:10016000000000000000000000000000000000008F
:10017000000000000000000000000000000000007F
:10018000000000000000000000000000000000006F
:10019000000000000000000000000000000000005F
:1001A000000000000000000000000000000000004F
:1001B000000000000000000000000000000000003F
:1001C000000000000000000000000000000000002F
:1001D000000000000000000000000000000000001F
:1001E000000000000000000000000000000000000F
:1001F00000000000000000000000000000000000FF
:10020000DFF80CD000F06EF900480047B91F00007D
:10021000202A002030B450E8012F93B2C48923442F
:100220008489A34228BF1B1B0489A34202BFBFF3DA
:100230002F8F002007E0C3EA020340E80134002CBE
:10024000E9D14FF001000A6030BC704750E8012F3F
:10025000C2EA024240E801210029F7D1704730B4D8
:1002600050E8022F1FFAA2F3C488A34202BFBFF3D3
:100270002F8F00200DE0C48923448489A34228BF26
:100280001B1BC2EA034340E80234002CE8D14FF0C4
:1002900001000A6030BC704750E8022FC2EA2242D7
:1002A00040E802210029F7D17047034653E8022FA6
:1002B000D988B2EB324F4FF0000017BF92B241EA3B
:1002C000014142EA014104E05A68B2EB324F08BFF3
:1002D000012043E80212002AE8D1704730B40446F6
:1002E00054E8000F0D4644E80053002BF8D1156088
:1002F00030BC704730B4044654E8000F40EA0105B2
:1003000044E80053002BF7D1156030BC704730B47F
:10031000044654E8000F00EA010544E80053002BAE
:10032000F7D1156030BC704730B4044654E8000F74
:1003300080EA010544E80053002BF7D1156030BC7A
:10034000704730B4044654E8000F00EB010544E860
:100350000053002BF7D1156030BC704730B4044611
:1003600054E8000FA0EB010544E80053002BF7D13F
:10037000156030BC704770B404464FF0000054E87C
:10038000006F0D68AE4207BF44E80023012044E837
:1003900000630E60002B1CBF0020F0E770BC7047AC
:1003A00030B4044654E8000F88422CBF451A054675
:1003B00044E80053002BF5D1156030BC70470000B5
:1003C0000648804706480047FEE7FEE7FEE7FEE7EF
:1003D000FEE7FEE7FEE7FEE7FEE7FEE75D0700005B
:1003E000010200002DE9F05F0546002092469B4681
:1003F00088460646814640241BE02846414647463B
:10040000224600F05EF853465A46C01A914110D376
:1004100011461846224600F016F82D1A67EB01081F
:100420004F4622460120002100F00DF817EB00098D
:100430004E41201EA4F10104DFDC484631462A4625
:100440004346BDE8F09F202A04DB203A00FA02F17F
:10045000002070479140C2F1200320FA03F31943B2
:1004600090407047004870476443000040EA010331
:100470009B0703D009E008C9121F08C0042AFAD25A
:1004800003E011F8013B00F8013B521EF9D270471E
:10049000D2B201E000F8012B491EFBD270470022C6
:1004A000F6E710B513460A4604461946FFF7F0FF73
:1004B000204610BD421C10F8011B0029FBD1801AF8
:1004C0007047202A04DB203A21FA02F0002170470D
:1004D00021FA02F3D040C2F12002914008431946AC
:1004E00070470000064C074D06E0E06840F001034D
:1004F00094E8070098471034AC42F6D3FFF784FE27
:100500003C4400005C44000070B58C1810F8015B9E
:1005100015F0070301D110F8013B2A1106D110F89C
:10052000012B03E010F8016B01F8016B5B1EF9D1A0
:100530002B0705D40023521E0DD401F8013BFAE726
:1005400010F8013BCB1A921C03E013F8015B01F891
:10055000015B521EF9D5A142D8D3002070BD000026
:100560002DE9F04700268AB0DFF85091B0464FF4ED
:100570008075012437460696284602F0BFF838B148
:10058000D9F80403204203D0284602F0ADF82643F0
:100590002D1D64007F1CADB2082FEDD34FF4BE7447
:1005A000204602F0ABF848B1204602F09DF846F034
:1005B000004606AA0121002002F082F8404D16F004
:1005C000FF0F15D00127002437420DD009EB84011D
:1005D000D1F81005D1F81015C0F3042055F82420E7
:1005E000C1F3014102B190477F00641C082CEBD39A
:1005F000002E5FDA4FF0FF30CDF8108054E028195C
:1006000010F8507F90F9000027F0C008401C3BD044
:1006100007A9404601F01FFE10B34FEA9719404664
:1006200000F0E0FE55F820701FB1B9F1030F03D0C0
:1006300006E0B9F1030F27D104A9404601F013FEEB
:100640004FF0A04101EB8800D0F8000706A9C0F3E5
:10065000014A404601F0FFFD18B1BAF1020F03D084
:1006600012E0BAF1030F0FD1B9F1030F08D1BAF1BB
:10067000020F1DD00221404602F006F8761CF6B2A9
:1006800017B149464046B847641C042CB7D3002E26
:1006900010D06A460121002002F012F80699009855
:1006A000884207D006900498002634460790A6E7B3
:1006B0000321E0E70AB0BDE8F087000000600040D9
:1006C000E402002070B54FF48076304601F0D5FD8D
:1006D000114CB50560B1304601F0D6FD0120C5F8DA
:1006E0000803607920B901206071216800208847E3
:1006F0004FF48276304601F0C0FD00280AD0304623
:1007000001F0C2FD0220C5F808032168BDE8704071
:100710000120084770BD00008C00002001490248FC
:1007200001F080BB4003002000C0014001490248A5
:1007300001F078BB48030020001002400149024844
:1007400001F070BB50030020002002400249024823
:10075000091F096800680847E4000020F0B5B548A3
:100760000023021D0178101D01254FF08054062939
:100770000BD11678360708D10678C6F30316032E78
:1007800006D0042E04D0052E02D0062907D00EE094
:10079000B4F82463A84FC6F304263E6002E016783E
:1007A000360704D10678C6F30316032E02D00629B5
:1007B00004D00FE0A24FA14E7E670EE016783607F8
:1007C00008D10678C6F30316032E06D0042E04D0F3
:1007D000052E02D0062907D00EE0D4F84462994FC6
:1007E000C6F342363E6002E01678360704D106783A
:1007F000C6F30316032E02D0062906D011E0924E4E
:10080000376827F0807737600EE01678360708D112
:100810000678C6F30316032E06D0042E04D0052E48
:1008200002D006290AD011E04FF08046C6F80C31FC
:10083000C6F81031834E361F336002E01678360753
:1008400004D10678C6F30316032E02D0062905D07C
:100850000CE07C4F032664373E600AE016783607CA
:1008600004D10678C6F30316032E02D006290DD054
:1008700014E0764F05263E60744E78363560734E30
:10088000083633603F263F1D3E6002E0167836078B
:1008900004D10678C6F30316052E02D0062957D0D8
:1008A00062E06B4E36686B4F3E60694E361D3668AF
:1008B0003F1D3E60664E083636683F1D3E60644E02
:1008C0000C3636683F1D3E60614E103636683F1D5F
:1008D0003E605F4E143636683F1D3E605C4E1836F3
:1008E00036685C4F20373E60594E1C3636683F1DD7
:1008F0003E60574E203636683F1D3E60544E2436CB
:1009000036683F1D3E60524E283636683F1D3E60B9
:100910004F4E2C3636683F1D3E604D4E30363668A1
:100920004C4F40373E604A4E343636683F1D3E607D
:10093000474E383636683F1D3E60454E3C36366879
:100940003F1D3E60424E403636683F1D3E6002E02D
:100950001678360708D10678C6F30316032E06D09C
:10096000042E04D0052E02D0062907D019E0D4F8B1
:100970005812394A01F04F01116002E0117809075D
:100980000FD10078C0F30310032803D0042801D04E
:10099000052806D131480168C90702D06FF001016E
:1009A0000160D4F83001062808D1D4F834010628B3
:1009B00004D12B48016841F48061016022487438F9
:1009C000016841F470010160BFF34F8FBFF36F8F77
:1009D0004FF01021D1F80002002803DBD1F8040207
:1009E000002822DA1F4A15601F480468002CFCD03A
:1009F0001524C1F800420568002DFCD0C1F804425E
:100A000001680029FCD0136001680029FCD0BFF305
:100A10004F8F0D48F0380168144A01F4E06111432A
:100A20000160BFF34F8F00BFFDE712491048086017
:100A3000F0BD0000E00F00F0403501400DF0ADBA10
:100A400000C007403C050040FCED00E010560040AF
:100A50000404001020C50040E40E004000040040E3
:100A60003C17004004E5014000E401400400FA05A1
:100A70000090D0035C01002001480068004700009E
:100A80009400002002E008C8121F08C1002AFAD111
:100A900070477047002001E001C1121F002AFBD1FE
:100AA0007047022000F0C2B970B50024064D06E080
:100AB0006868012110F8340002F042FA641C2878BA
:100AC0008442F5D3002070BDA0000020F8B5164682
:100AD0000C4605460A2A01D20720F8BD02F02AFB7F
:100AE00018B902F0F1FA0028F7D1134F102113487A
:100AF0007D603C70BE60FFF7D2FC0020C7E90400B7
:100B00000F4E0DE005EBC4003168009181788DF83F
:100B1000011000780B4A694602F064FA0028DCD123
:100B2000641EE4B2EED2BDE8F84005480021064A52
:100B3000001D00F05BB80000A0000020C8030020EA
:100B400068420000891C00009118000070B514462E
:100B50000D46064600F0A5F9224629463046BDE876
:100B6000704000F00BB80EB500210091CDE90110E6
:100B70006A4644F20100FFF7E9FF0EBD08B5012304
:100B80008DF800309DF80030144B186059609A6061
:100B90006FF48041401807D001280FD1DA60D8687F
:100BA00000889861D86807E01A6118698068586100
:100BB00018690068986118694068D86118685868B1
:100BC0009868D868186958699869D86972B600BF7A
:100BD0009DF800000028FBD162B608BDD8030020B4
:100BE000014800F0BCBE0000C00000203AB100681F
:100BF0000129426100D000210161002070470720D7
:100C00007047000038B51148082358224168009108
:100C10000F49006801F072FA002815D10D4A6946A3
:100C20000D4800F0A1FE04000ED101210A4800F099
:100C300012FF0123094A1946074800F068FE0649D9
:100C4000012008390870204638BD000070420000BD
:100C5000080400200D390000C0000020FFFF7F00C5
:100C600070B50446007F0D4608B1002070BDA2613A
:100C700000F0F0FF401941F10001C4E902012069D0
:100C800000B125612146BDE87040002003F01AB88C
:100C9000014600200877012003F014B800F002B8E4
:100CA00000F008B872B602480168491C016070473C
:100CB000DC00002003490868401E086000D162B6CD
:100CC00070470000DC0000202DE9F041064608686E
:100CD0000C46411C4FF0A0474FF0010506D005FA25
:100CE00000F1C7F80815206801F0BAFC6068411CE3
:100CF00002D0002101F0A2FC3168A069C1F82405EE
:100D0000607D227D31681043C1F86C05D4E9001282
:100D10003068C0F81425C0F80C15207D012815D1C5
:100D2000A068411C02D0002101F088FCE068411C51
:100D300005D08540C7F80855E06801F091FCD4E97A
:100D400002123068C0F80825C0F81015BDE8F0811F
:100D50002DE9F041064608680C46411C4FF0A047BB
:100D60004FF0010506D005FA00F1C7F80815206814
:100D700001F080FC6068411C02D0002101F067FC9A
:100D80003168A069C1F82405607D217D326808437F
:100D9000C2F86C05D4E900123068C0F80C15C0F830
:100DA0001425207D012815D1A068411C02D0002106
:100DB00001F04DFCE068411C05D08540C7F808559E
:100DC000E06801F057FCD4E902123068C0F8082549
:100DD000C0F81015BDE8F0812DE9FC410646C007BA
:100DE0004FF000050ED0104F00240122385D009511
:100DF00000231146019501F0C7FB641C042CF4D3B9
:100E000000F046F8B0070DD5074E0024361D00222D
:100E1000305D032300951146019501F0B5FB641C7C
:100E2000042CF4D3BDE8FC812842000007490B5C88
:100E30004FF0A041D1F804250120984020EA020398
:100E4000C1F808351040C1F80C0570472842000071
:100E50000249085C012101F028BC00002842000082
:100E60000249085C002101F020BC0000284200007B
:100E70000649095C4FF0A040D0F80405C84010F0C6
:100E8000010000D0012080F00100704728420000DE
:100E900010B500242046FFF7DBFF641C042CF9D3B7
:100EA00010BD10B500242046FFF7DAFF641C042CA7
:100EB000F9D310BD10B50246064B4FF0FF300021AC
:100EC0005C5C944201D1084610BD491C0429F7D34B
:100ED00010BD00002C4200002DE9F0470D46814670
:100EE000FFF7E8FF0446042836D2DFF874801B4879
:100EF0001C4EA8F10C0725B3012D0ED0022D2BD1CD
:100F000004EB440030444578002D25D0B968002911
:100F100022D02846BDE8F047084704EB4401755C41
:100F20000E44717849B10E4A4FF48041093A806805
:100F3000FFF796FE08B987F80390B17808F8041017
:100F4000E2E78068FFF7A4FE04EB4401314418F89F
:100F500004008D78A842D7D0BDE8F0873042000069
:100F60007C000020A0020020FFF79EBD70B500238A
:100F7000042810D20D4D00EB4004012A02D10129B2
:100F80000CD00022094E00EB4000304461B1012931
:100F900006D0022906D00723184670BD0E30C2B213
:100FA0002A55F9E74270F7E78270F5E7A0020020C2
:100FB00070B586B00646142219496846FFF756FAFE
:100FC000184C00250E2E617806D00F2E25D104294D
:100FD00008D2491C617006E009B1491EFAE70420F5
:100FE000607000E065702078C00703D00D48001DD8
:100FF00002F0A4F92078800703D50A480C3002F0EB
:101000009DF92078400703D50648143002F096F980
:10101000257061785DF82100804706B070BD000042
:10102000144200000000002070B506461E4800244F
:10103000C0E90161B00720D50025012211462846EC
:10104000FFF794FF6D1C0446042D02D2002CF4D04F
:1010500013E094B940F2333204211448FFF736FD0F
:1010600004000AD1FFF720FD040006D10F48104A02
:101070000021001FFFF7BAFD0446F00712D001203F
:10108000FFF7AAFE74B909480A4A00210C38FFF795
:10109000ADFD040006D10548074A01210838FFF7D5
:1010A000A5FD0446204670BD700000203C420000B3
:1010B00079130000091F0000A30A00002DE9F05F6A
:1010C0006E4C054600266078B34618B184F801B02E
:1010D00000F002FF6A4F4FF47A694FF4C87A4FF07C
:1010E0000108182D69D2DFE805F00C1313384754B6
:1010F000696E727B727BC58484848484B3B6B9BC08
:10110000C5C500F0E9FE3868FFF7C2FD06465CE0A1
:101110000020FFF7ADFE00284FF0000008D0FFF7D9
:1011200097FE022D02D14FF4E16008E0484606E048
:10113000FFF796FE022D01D1C82000E05046410C79
:10114000C0034FF47A72801841F1000125705200FB
:101150000023FFF747F901462AE00020FFF788FE49
:1011600000284FF0000004D0FFF772FE4FF44870E3
:10117000E5E7FFF775FEDFE70020FFF779FE0028BF
:101180004FF0000002D0FFF763FECFE7FFF768FEE5
:10119000D4E70020FFF76CFE00284FF0000002D0DB
:1011A000FFF756FE01E0FFF75BFE257040F6CD41EC
:1011B00000223868FFF754FD064646E00020FFF79E
:1011C00035FE257008E0002051E025703DE084F8F0
:1011D00001800120FFF72AFE002240F26661E8E765
:1011E00084F801800120FFF721FE00224FF4005116
:1011F000DFE77868FFF74CFD0646D5F1110000D017
:101200002EB10220FFF724FE84F802B01DE0012871
:1012100016D980B2C8214843C117C90341EA5041D9
:10122000C0034FF47A72801841F10001520000238C
:10123000FFF7D8F8014600227868FFF711FD06464F
:101240000220FFF70DFE84F802803046BDE8F09FD3
:1012500000F042FEB9E700F03FFEB4E700F03CFECC
:1012600004E000F039FE0020FFF7FAFD0120FFF74F
:10127000F7FDAAE7FFF715FEA7E7000070000020C2
:10128000304200002DE9F0470546861C90460F4687
:101290004FF001090020FFF701FD1B4C206838606A
:1012A000D4E90001401AA16804F21C47081A0EE0B4
:1012B0000121384600F067FF00F030FE0146384655
:1012C00000F061FFD4E90001401AA168081A401C2F
:1012D0008642EDD8B8F1000F03D0052065F38910E0
:1012E00002E0062065F39F50A2682168114004EBDC
:1012F0008101C8602068304420600020FFF7D0FCE6
:101300004846BDE8F0870000F805002070B50D469E
:1013100004460A2902D10D21FFF7F8FFA0682268D0
:10132000411CA1601554D4E90101814204D3204637
:10133000BDE8704001F02FB870BD0000034803C83D
:10134000814201D10120704700207047F80500203C
:10135000034630B5074800210478426806E000BF24
:1013600002EBC10005789D4203D0491CA142F7DB86
:10137000002030BDA000002000780221FFF7ACBDA6
:1013800005494FF0FF32082841F8202002D30844D5
:1013900080F8482070470000E4020020F0B54FF0CC
:1013A000FF3512B10023082601E008230C260C4C5F
:1013B00005E000BF54F823707F1C04D05B1CB342CF
:1013C000F8D32846F0BD26185DB286F8305044F8B0
:1013D0002310002AF5D1E11881F84800F1E7000058
:1013E000E40200200249084490F9300070470000F0
:1013F000E402002070B5084C050009D010342168C3
:10140000002907D008682060496828468847F6E721
:101410000834F4E770BD0000D0020020054A012125
:1014200020B1012805D19170FFF7E4BF5170002071
:10143000FAE77047D002002010B5D0E90234D1E9B4
:101440000220D11AA04101D3012010BD002010BDFF
:10145000FFB5002301244FF0A0456E46CA5CFF2A69
:1014600012D0D70922F0800246F8232004FA02F7AE
:1014700002D0C5F8087501E0C5F80C7505EB8202CD
:101480000327C2F8007703E04FF0FF3246F823202D
:101490005B1CDBB2042BE1D3016832465FF0000035
:1014A00001EB800452F82030C4F86035401CC0B213
:1014B0000428F5D3FFBD00000EB516481649401AA2
:1014C000C008032101EB004014A101F015FB154AEF
:1014D00007CA8DE80700144A6946144801F08CFEDB
:1014E00008B1FFF740FB114A0223121F02F11C0151
:1014F000107840F00100107000200880488088803B
:10150000C8809070074901221039084801F0DEFEBA
:101510000EBD0000BC4400006C44000044656D6FCB
:101520002031000048410000311500000400002077
:1015300070B5002822D112484FF0000200F11C04BF
:1015400083785D0813F0010F34F8151004D0C83902
:101550000904090C06D006E0C83189B242F21076BF
:10156000B14200D3012224F81510002A06D05B1CDA
:10157000D9B28170082901D30021817070BD0000AB
:10158000000000202148224910B5401AC00803215C
:1015900001EB00408CB01FA101F0AEFA1F4C09AB6B
:1015A00004F11C0007C883E80700002209A91C48B1
:1015B00001F022FE08B1FFF7D6FA1948194B001FB7
:1015C0004FF4C872017841F0010101700021084612
:1015D000114489B223F81010401CC0B21928F7D367
:1015E00028340DF1040C0FCC8CE80F0094E80F00A8
:1015F0000DF1140C8CE80F0002200090012305AAC5
:1016000001A9074801F0CAFD0CB010BDBC440000A0
:101610006C44000044656D6F2032000038410000CA
:1016200004000020600100201648174910B5401A38
:10163000C008032101EB004088B014A101F05CFA5E
:10164000144C04AB04F1480007C883E807000022EB
:1016500004A9114801F0D0FD08B1FFF784FA0E4843
:101660005434001F017841F00101017094E80F002B
:101670008DE80F00012303226946074801F026FE8A
:1016800008B010BDBC4400006C44000044656D6FA0
:101690002033000038410000040000205848594918
:1016A000F0B5401AC008032101EB00409BB056A1E1
:1016B00001F022FA564E02AB06F16400FF2407C87F
:1016C00083E8070091208DF808008DF809409220EA
:1016D0008DF80A0007208DF80D0047F61220ADF8AE
:1016E000100001208DF812008DF80B40002202A995
:1016F000484801F081FD08B1FFF735FA454D05AFC7
:101700002D1F7036287840F00100287096E80F00F1
:1017100087E80F0004208DF80D00002041F2883387
:10172000ADF810303C4A8DF8120001466426314471
:1017300089B222F8101002EB400C5F1A401CC0B2B4
:10174000ACF864703228F2D38DF808408DF8094067
:1017500093208DF80A002F488DF80B40002202A933
:10176000083001F049FD08B1FFF7FDF92878284E4F
:1017700040F00200803628700FCE09AF87E80F00D6
:1017800096E80F000DAF103E87E80F008DF8084077
:101790008DF809408DF80A4094208DF80B001D4803
:1017A000002202A9103001F027FD08B1FFF7DBF994
:1017B0002878203640F0040028700FCE11AC84E861
:1017C0000F0096E80F0015AC84E80F0002230122F9
:1017D00005A9104801F07AFD0E48022401230DAA44
:1017E00009A90830009401F0D9FC0A48012315AA80
:1017F00011A91030009401F0D1FC1BB0F0BD000025
:10180000BC4400006C44000044656D6F203400004F
:1018100038410000040000209201002016481749BA
:1018200010B5401AC008032101EB004088B014A194
:1018300001F062F9144C04AB04F1400007C883E8DE
:101840000700002204A9114801F0D6FC08B1FFF7F7
:101850008AF90E484C34001F017841F001010170F3
:1018600094E80F008DE80F00022301226946074823
:1018700001F02CFD08B010BDBC4400006C44000019
:1018800044656D6F20350000B84100000400002061
:1018900070B500240F4D10E0686800EBC406307886
:1018A00001F008FC7178012901D0012100E000213C
:1018B0004140307800F058F9641C28788442EBDB12
:1018C000D5E90401084303D0BDE8704002F016BA20
:1018D00070BD0000A000002010B50021024800F0FB
:1018E0005DFC80F3100010BD140A00204FF480321C
:1018F0008A400168C1F848230068C0F8082370478F
:101900004FF4A07202EB810189B200F099B92DE980
:10191000F04105460E464FF4A07000EB860081B200
:1019200028684FF48034B440984622F07F47C0F8CE
:1019300008432868C0F84843286801F060FA28681E
:1019400000EB8600C0F840752868C0F84443B8F141
:10195000000F02D02868C0F80443BDE8F081006899
:10196000D0F804057047000070B54379224C44F864
:1019700023204279241D04EBC202204B1579204A12
:101980009A1AD3082DB10824022000EB03401DA1B0
:101990002EE002680D88C2F8085590F90420897875
:1019A000002A4FEA411106DA02F00F0202F1E022AA
:1019B00082F8141D03E002F1E02282F8001490F98D
:1019C0000410012201F01F0502FA05F549098900FA
:1019D00001F1E021C1F80051417904EBC1010A7124
:1019E000417944F831000320002400EB03400EA1AC
:1019F00001F082F8204670BDE0000020AC440000F9
:101A00006C44000052544320696E7374616E6365C8
:101A100020616C726561647920696E697469616CBA
:101A2000697A65642E0000005254433A20696E6959
:101A30007469616C697A65642E00000090F9040095
:101A4000012100F01F0291404009800000F1E020D8
:101A5000C0F8001270470A46022100F07BB84FF42C
:101A6000827100F0EDB800680121016070470068E4
:101A70000121416070472DE9F05F07460C464FF4A5
:101A8000A07000EB84001FFA80FA38684FF48036AB
:101A9000A6409B4622F07F45C0F848633868C0F8EE
:101AA00008633868D0F8048500EB8402D2F84095CA
:101AB000C2F840855146386801F0A1F9A9EB080049
:101AC00020F07F40012806D1102001F031FA514664
:101AD000386801F094F93868D0F80485C0F8446398
:101AE000A5EB080121F07F413868012900EB840053
:101AF00010D0C0F840553868D0F804156FF07F4C0E
:101B00006A1A521E22F07F42ACEB0B03934217D3AA
:101B100062B118E06D1CC0F84055102001F008FAC1
:101B20003868D0F8040540450AD10CE000EB840089
:101B30006D1CC0F840553868D0F80405884202D0C2
:101B40000D20BDE8F09F01223146384600F002F832
:101B50000020F6E70368C3F84413002A02D00068A7
:101B6000C0F80413704700002DE9F0470E463249D3
:101B7000804601EB5001C007097801D00F0901E050
:101B800001F00F07424601200021FEF75CFCDFF860
:101B9000AC9004460D46052F4BD2DFE807F0031446
:101BA00019262A00002E44D00121404601F0C4FF2E
:101BB0000020FFF773F84846D0E904120C431543A0
:101BC000C9E9044530E00EB1022114E0002112E021
:101BD0004EB10321404601F0AFFF4046BDE8F0475B
:101BE000012102F099BA012105E0002E21D1042142
:101BF00001E02EB103214046BDE8F04701F09CBF53
:101C00000021404601F098FF0021404602F084FA8E
:101C10000020FFF743F84A46E043D2E90434184075
:101C200024EA0501C9E90401BDE8F0470020FFF7F7
:101C300037B8BDE8F0870000C8030020A0000020EE
:101C400010B5006842581AB101F0D9F8012010BD52
:101C5000002010BD10B50B48FFF781FE094A083A75
:101C6000D2E90434C018D2E9063244F10001C31AA3
:101C700071EB020204D24FF08072801841F1000132
:101C800010BD0000C000002010B5C0B2FFF760FB1F
:101C90000446007801F00EFA01466078012801D070
:101CA000012000E0002090EA010F08D00449D1E9AA
:101CB0000401084303D1BDE8104002F01FB810BD75
:101CC000A00000202DE9FC5F0E008346DDE90C47F3
:101CD000C6F1000098469246814600D40846012588
:101CE00003E000BF90FBFAF06D1C5045FADAA845FE
:101CF00000D9454624B1002E01DB780700D5641ECB
:101D0000B80702D5B8F1000F0AD0F80708D13CB1E6
:101D1000A54205D220215846641EFFF7F7FAF6E7E0
:101D2000002E02DA4E462D2102E0780703D52B2142
:101D30005846FFF7EBFA07F0030002280BD1B8F181
:101D4000000F08D13CB1A54205D230215846641E8F
:101D5000FFF7DCFAF6E7CDE9004743465246314645
:101D6000584602F07FF9BDE8FC9F000070B50D46B3
:101D7000044600684FF4887101F087F84FF49071C1
:101D8000206801F082F84FF49271206801F07DF82C
:101D90004FF4A271206801F078F84FF4AC7120681C
:101DA00001F073F820681149C0F80413206869072E
:101DB00040F30730090E002806DA00F00F0000F1AA
:101DC000E02080F8141D03E000F1E02080F800140A
:101DD0002068012140F3073000F01F0291404009C4
:101DE000800000F1E020C0F8001170BD1003420037
:101DF000024600201268530713D502F003000128A1
:101E000002D002280CD105E0C2F383100B68801CBD
:101E1000184404E00223086803EB9252104408605F
:101E20000120704770B50C464FF488760546314660
:101E300000F0BDFF50B13146284600F0BDFF60798B
:101E4000400703D5216809B1012088474FF48A76FD
:101E50003146284600F0ABFF50B13146284600F02D
:101E6000ABFF6079000703D5216809B102208847DC
:101E70004FF48E763146284600F099FF50B1314636
:101E8000284600F099FF6079C00603D4216809B1A3
:101E9000002088474FF482763146284600F087FFBD
:101EA00000280CD03146284600F086FF0120207122
:101EB0002168002903D0BDE870400320084770BDA9
:101EC0000268134602E08A4204D01268002AFAD15E
:101ED0000B600160704700000A4810B5807860B15F
:101EE000002401E0022C06D02046FEF7B1FF641C5E
:101EF000042CF7D310BD0324F6E7BDE81040FEF72D
:101F0000C7BF00007000002003480179C90702D054
:101F10000078FFF7D3B87047700000202DE9FF412B
:101F20000026234800F02CF92148001F074600F046
:101F300027F9204C60680090A56800E00098694689
:101F4000284004EB80000C30FFF752FF0028F5D149
:101F500001AA009901EA050304EB8303491CDB682D
:101F600042F82030401C00910228F2D3019800F082
:101F7000030001280BD0022810D10198032101EBA6
:101F800090500099BDF80A6001EB900005E00198BF
:101F9000BDF80A60C0F3831008440090384600F092
:101FA000ECF808B10098606004B03046BDE8F081FC
:101FB000100A0020F80500204FF48041002000F0B6
:101FC000F7FD08B1FEF7CFFD00F070FC00F064F9FA
:101FD00008B1FEF7C8FD002000F078F9FEF712FE08
:101FE00008B1FEF7C0FD10490220FFF71DF808B147
:101FF000FEF7B9FDFEF7B8FF08B1FEF7B4FD0B48D8
:102000000B49401AC008032101EB004009A100F070
:1020100073FDFFF751FA20BF40BF20BF00F054FC12
:102020000028FBD1F7E70000B10F0000BC4400001E
:102030006C44000050574D206578616D706C6520D0
:10204000737461727465642E000000002DE9F0471E
:10205000C5881E1DB6FBF5F78946B6FBF5F10446AB
:1020600005FB176C407916686843DDF820A0F71867
:10207000001F874200D9C61A166001E02468491E75
:102080000029FBD1A5EB0C078846B74216D818E00B
:1020900004EB0C00001D09EB0803BAF1000F3A46EF
:1020A00002D00146184600E01946FEF7DFF9246821
:1020B000F61B4FF0000CB844B54201D9374600E09A
:1020C0002F46002EE4D1BDE8F087000030B502466F
:1020D00051B100F08BFD0021074C08E034F82130AD
:1020E0001568AB4202D11160002030BD491C81420D
:1020F000F4D3052030BD00000000000010B531B160
:10210000B2FBF3F403FB14241CB1092010BD0E2014
:1021100010BD01600021416081608281C381084659
:1021200010BD70B50C460546FEF774F8002802D0C5
:1021300021882868084470BD10B50A8849888A42F9
:1021400003D1FEF7A9F8012010BD002010BD70B525
:102150000C460546FEF783F8002802D061882868FF
:10216000084470BD10B50A8849888A4203D1FEF739
:102170006DF8012010BD002010BD002100F009B84D
:10218000012100F010B808B56A46FEF7DAF80098A9
:1021900008BD08B56A46FEF7BAF808BD08B56A4634
:1021A000FEF79CF808BD08B56A46FEF7A3F800984C
:1021B00008BD08B56A46FEF7D1F8009808BD70B5AD
:1021C000044600252846FEF769FD21686268086814
:1021D00090420ED9401E08600178238AE26801FB14
:1021E0000325227A2168101AC0B20A79824200D2ED
:1021F00008710020FEF754FD284670BD70B50546F5
:102200000C460020FEF74AFDE868298A201AB0FB38
:10221000F1F12A681068431C13600170BDE870403A
:102220000020FEF73DBD10B530B1017A4268036869
:10223000891AC9B21A6006E00E2010BD03681A6838
:10224000541C1C601170491EC9B2F7D200680021ED
:102250000171084610BDC20800F007030120895C27
:1022600098400840704710B5C20800F00703885C2A
:1022700001249C402043885410BD00F18040006838
:10228000002800D00120704708B500F180400021EF
:1022900001600068009008BD70B50A4C207808B154
:1022A00085250CE00020A06060602061E0600648A9
:1022B00000F008FE054600F0EFFD012020702846E2
:1022C00070BD0000D00200201D14000070B5104D3C
:1022D0000446A87838B114B161680120884700200D
:1022E000FEF7DCFC0CE00020FEF7D8FC24B1084827
:1022F00021461030FFF7E4FDE86808B900F0F2FD70
:10230000E868401CE860BDE870400020FEF7C8BCEB
:10231000D0020020F0B505460478154889B016466D
:1023200040F82420124A0869121DA2F1080742F859
:102330002400487F385520226846FEF797F8049419
:102340002878385C48B10EB10A4A00E0002269469C
:10235000281D01F043F909B0F0BD0EB1064A00E0B6
:102360000022694605F10C0001F00AF8F3E70000CD
:1023700084000020213F0000693D00000FB408B533
:102380000399002904D004AA00926A4600F00FF8CD
:1023900001B05DF814FB10B582680446002A05D030
:1023A000D4E90403216898470020A06010BD2DE9FE
:1023B000FC4791460C00804676D014F8011B39B1D9
:1023C00025290ED04046FEF7A1FF20780028F4D141
:1023D00098F80C00002867D04046BDE8FC47FFF79E
:1023E000DABF0020012221782B291BD02D2902D011
:1023F000302908D102E040F0010001E040F0020085
:10240000641C002AEFD100252A290ED02178A1F1E1
:1024100030020A2A11D205EB850201EB4205641C49
:10242000303DF1E740F00400EAE7D9F800100B1D59
:10243000C9F800300968641C0D44217800232E2956
:102440000BD114F8011FA1F130020A2A05D203EBC7
:10245000830201EB4203303BF3E76C290DD068297E
:102460000BD0692921D00BDC252918D0582931D06F
:1024700063290ED0642915D117E014F8011FECE789
:10248000702969D0732932D075291BD0782909D1D8
:1024900020E0D9F80000011DC9F80010017840467D
:1024A000FEF734FF641C90E76CE0D9F800100A1DB9
:1024B000C9F800200968CDE900500A224046FFF71C
:1024C00001FCEFE7D9F800100A1DC9F800200968DF
:1024D0000A2206E0D9F800100A1DC9F80020096890
:1024E0001022CDE90050404601F0BCFDDAE7D9F8F2
:1024F000001000270A1DC9F800200E68C00705D18A
:1025000012E04046761C7F1CFEF700FF3178002960
:10251000F7D104E0202140466D1EFEF7F7FEBD42D4
:10252000C0D9002DF6D1BDE74EB13046FDF7C2FF50
:10253000074604E0202140466D1EFEF7E7FEBD423F
:1025400006D9002DF6D103E04046761CFEF7DEFEEC
:1025500031780029F8D1A5E7D9F80000011DC9F8A4
:102560000010056830214046FEF7D0FE7821404635
:10257000FEF7CCFE08200021CDE900010346102221
:102580002946B0E7BDE8FC8770B541EA4201DDE9C4
:1025900004564FF0A04441EA830141EA052104EBCF
:1025A000800041EA0641C0F8001770BD70B541EAED
:1025B0004201DDE904564FF0A04441EA830141EABB
:1025C000052104EB800041EA0641C0F8001770BD08
:1025D00070B541EA4201DDE904564FF0A04441EAFA
:1025E000830141EA052104EB800041EA0641C0F87D
:1025F000001770BD70B541EA4201DDE904564FF0A5
:10260000A04441EA830141EA052104EB800041EA4C
:102610000641C0F8001770BD1CB5002100910B46A3
:1026200001220191FFF7D4FF1CBD1CB500210091D0
:102630000B4601220191FFF7DDFF1CBD1CB50022F6
:102640000B46009211460192FFF7C2FF1CBD1CB55C
:1026500000220B46009211460192FFF7CBFF1CBDF2
:102660001CB5002100910B46012201911146FFF794
:10267000AFFF1CBD1CB5002100910B46012201914A
:102680001146FFF7B7FF1CBD4FF0A04202EB8000E0
:10269000D0F8002722F44032C0F80027D0F80027F5
:1026A00042EA0141C0F80017704701224FF0A043F1
:1026B000824011B1C3F808257047C3F80C25704754
:1026C00018B5084B6C4601441B68009306E000BF38
:1026D00054F82030D3F81035401C08C28142F7D896
:1026E00018BD00005C420000034908B50844002101
:1026F00001600068009008BD006000400249405839
:10270000012800D0002070470060004030B5154A15
:1027100001460020D2F8104423460AE0DB681D7908
:10272000854205D1401C0A28F6DB4FF0FF3030BD52
:102730001B68002BF2D1431CF9D0CB681871D2F87A
:10274000103443B1DB68CC681B682360D2F81024D6
:10275000D268116030BDC2F81014C96800220A6046
:1027600030BD0000F8050020F0B595B01C461546B8
:102770000F4608461A9E00F0F5FA182109A8FDF741
:102780008EFE0E96CDE909540023082203A938468F
:1027900000F0FDFA05980690BDF81000ADF81C0099
:1027A000BDF81200ADF81E0000208DF8210003983E
:1027B000082600F00300012802D0022818D032E0D9
:1027C00003983346850AC0F3C2008DF820000398B1
:1027D0000FA9C0F38314A200384600F0D8FA09A864
:1027E000009006AB22460FA9284600F017FA1AE01F
:1027F0000398840DC0F3C2008DF82000082C01D28C
:10280000254600E0082533462A460FA9384600F041
:10281000BEFA2E44641B09AB06AA29460FA800F095
:102820006FF9002CEAD1384600F0A2FA15B0F0BDDD
:102830007047012001F0B6BA084810B50178084A7F
:10284000515C19B1001D00F063FF02E00C3000F094
:1028500063FEBDE81040002001F0A4BAF0000020A3
:102860008000002008B5034A00924023024AFFF787
:102870007BFF08BDA13A0000600400200A4A01293C
:1028800002EBC00007D0022907D0032907D0042992
:1028900007D000207047022070470420704700795D
:1028A00070474079704700006C44000010B5FFF796
:1028B000C0FF04210348FFF729FF02490120C9682E
:1028C000487110BD5C4400002DE9F0478CB0FEF764
:1028D00035FD18B100200CB0BDE8F0877D4C00201C
:1028E000C4F81804BFF34F8F60680290A5684FF0DA
:1028F0000008284004EB80000CE000BFD4F8180466
:1029000070B921680298814201D86160E2E72840ED
:1029100004EB80000C3002A9FFF76AFA0028EDD121
:10292000002003AA029901EA050304EB8303491C72
:10293000DB6842F82030401C02910228F2D3039851
:1029400000F00300022802D001284DD0A7E0039830
:102950005022810D8946B2EB905F00D850210E467F
:1029600066F39F50039008315B4800F0B2F907000E
:1029700078D000F0F7F94346082203A9384600F062
:102980000EFA029908F1080A2940681A8000001D11
:10299000864222D94F4D0C3530B1C2B204EB8101D1
:1029A000301A90460C3104E02946F2B200259046D8
:1029B0002846C6B25346384600F0F1F90AEB080340
:1029C00025B132462946384600F0E9F9029909F165
:1029D000030001EB900002903BE004EB81015346C1
:1029E000324638460C31EFE70398C0F383100628CF
:1029F00000D30620039960F38911C1F38310801C72
:102A000003918100344800F064F9070047D000F0DA
:102A1000A9F94346082203A9384600F0C0F908F195
:102A2000080800260FE00298434600EA0501401C12
:102A300004EB81010290042238460C3100F0AFF91A
:102A400008F10408761C0398C0F38310B042EAD85A
:102A500047B1D4F81054D4F8180478B1384600F0CF
:102A600087F931E01BE0E8684079012804D12A6841
:102A70002846394612689047E8680568002DF2D16B
:102A8000384600F075F90020FEF708F9D4F818046C
:102A900008B9029860600020FEF702F914E0D4F84B
:102AA000104405E02168204689688847E06804688A
:102AB000002CF7D109480A49401AC008022101EB4D
:102AC000004008A100F018F8FEF738FC80F0010083
:102AD00001E70000F8050020C4440000BC440000E9
:102AE0006C4400004261636B656E647320666C75B4
:102AF000736865640000000000231A4601F034B8D2
:102B00002DE9F0470E4680461C469246082940D8DB
:102B100094F80C90002020731946104600F09EFE99
:102B20000025B54206D218F805201BA12046FFF764
:102B300025FC03E01AA12046FFF720FC6D1C082DA0
:102B4000EFD318A12046FFF719FC0025B54212D299
:102B500018F805707E2F08D8FDF784FC0068C05D6A
:102B600010F03E0F01D03A4600E02E220EA1204682
:102B7000FFF704FC03E00DA12046FFF7FFFB6D1CEF
:102B8000082DE3D301222146504600F049FE84F887
:102B90000C90BDE8F087000020253032780000005E
:102BA000202020007C0000002563000020000000A1
:102BB0000B4810B5FF218160002101604160C0F821
:102BC0001814C0F8141480F82014064800F0CEF849
:102BD000002803D1044800F004F9002010BD0000D3
:102BE000F8050020C4440000D44200000248034914
:102BF000401AC00870470000C44400006C44000044
:102C000013B56846FFF762FA08B100201CBD024800
:102C1000009950F831001CBD6C4400002DE9FF47BD
:102C200081460C9D00200C462F7B28739846164643
:102C30002946184600F012FE072E42D2DFE806F0C1
:102C400004090F161F2A360049462846FFF796FB4F
:102C500037E0494628462268FFF790FB31E0D4E987
:102C6000002349462846FFF789FB2AE0A068009028
:102C7000D4E9002349462846FFF780FB21E0D4E948
:102C80000201CDE90001D4E9002349462846FFF7B7
:102C900075FB16E004F1080007C88DE80700D4E9C9
:102CA000002349462846FFF769FB0AE004F10800C3
:102CB0000FC88DE80F00D4E9002349462846FFF7E6
:102CC0005DFB00222946404600F0AAFD2F73BDE8B7
:102CD000FF872DE9F041058A80462D1F4819C01C49
:102CE000B0FBF5F0C6B24046FFF769FA041E19D0F2
:102CF0000020207101206071E58000272546761EA6
:102D0000C4F800800BE04046FFF759FA60B16179E2
:102D1000491C6171286005467F1CC0F80080B742DD
:102D2000F1D32046BDE8F081204600F002F80020F3
:102D3000F8E72DE9F041457901466B1E002201E0DC
:102D40000968521C9A42FBD30F680146002605E031
:102D500038460C68FFF752FA2146761CAE42F7D38C
:102D6000BDE8F0810121001DFFF70DBAFFF75BBA46
:102D700010B504460121001DFFF71BFA10F0FF0FEC
:102D800004D12046BDE81040FFF7D3BF10BD1CB5ED
:102D900001920122009201AAFFF758F91CBD1CB54F
:102DA00001920022009201AAFFF750F91CBD405881
:102DB000002800D00120704708B50022425040583A
:102DC000009008BD00EB41101368C0F820359188D1
:102DD000C0F824159168C0F82815D168C0F82C15E2
:102DE0007047826800219160826811618268516138
:102DF0008268D1608268516080680160704708B560
:102E0000002242504058009008BD70B50D4606465D
:102E1000446804E0B2682946904718B124682068E5
:102E20000028F7D120682860256070BD40680068E0
:102E3000704741680868002801D002680A6070473E
:102E400002460020526806E08B4203D108681060F9
:102E5000012070471A461368002BF5D1704740587F
:102E6000002800D00120704708B500224250405889
:102E7000009008BDD0F80403084000D0012070473E
:102E80004058002800D00120704708B50022425069
:102E90004058009008BD000008480068012110F06B
:102EA000010F06D14FF0E020C02280F80024C0F8C6
:102EB00000110349012008607047000000E100E0B4
:102EC000180500400649024600200B790BB1852009
:102ED00070470A6001220A7100224A71704700009F
:102EE0008C00002070B54FF48270FFF7CDF90220FE
:102EF0004107C1F804030B4B196841F0807018605A
:102F00000948026842F00104046044684FF40A551D
:102F10004668361BAE42FBD30260196003490120AC
:102F2000086070BDFCED00E0001000E0080000400B
:102F3000002802D0014980010847704791420000F3
:102F40002DE9F0418846054600F052FC234E00284A
:102F500028461AD0FEF746FA304490F84800800917
:102F6000032802D001280ED007E04FF0A040D0F88F
:102F70001005E84010F0010F05D003212846BDE8F8
:102F8000F041FFF781BB0221F8E700F03DFC00288B
:102F900022D02846FEF726FA04464FF4807000EB54
:102FA00084000F4F81B207EB8400D0F8102542F067
:102FB0000102C0F810250846FFF796FBB8F1000F94
:102FC0000AD02846FEF70EFA56F82000002803D053
:102FD0000120A040C7F80403BDE8F081E40200200E
:102FE000006000402DE9FC41DFF8BC80044608EB9E
:102FF0000400002790F930001346C0170E46401C0D
:1030000001D008274CE0B0781946C0F340022046B2
:10301000FEF7C4F90546401C41D0B078410719D4E9
:10302000C0070AD04FF0A04000EB8401D1F80007A0
:1030300020F00200C1F8000707E000217378204665
:1030400000910A460191FFF7B1FA17492046543121
:10305000FFF709F9B078800718D51448317800EBEC
:103060008500D0F81025124B1A40C0F810254FF4F7
:10307000F8524FF4403302EA042203EA01410A43C2
:10308000D0F810150A43C0F8102509E008EB050038
:10309000327810F8481F41EA8211017000E00427DD
:1030A0003846BDE8FC810000E402002000600040DA
:1030B000FFE0FCFF4FF0A041D1F81015C14011F026
:1030C000010000D00120704770B5174D95F85800E9
:1030D00008B1082070BD0020411E2A18401CC0B253
:1030E00082F830102028F8D300242046FEF748F953
:1030F000641CE4B20C2CF8D300240C49C0206C658D
:1031000081F8000401264020891FC1F800014FF416
:10311000BE70FFF7E9FA0649F007C1F8040385F825
:103120005860204670BD0000E402002006E000E088
:1031300000600040034890F85800002800D00120AB
:1031400070470000E40200200121B1EB507F01D163
:10315000012070470020704770B50D4600F0CAFB93
:1031600004000FD00020FDF799FD207920B1002048
:10317000FDF796FD112070BD012025602071002013
:10318000FDF78EFD002070BD10B500F0B3FB0028E8
:1031900002D000210160017110BD00002DE9F04155
:1031A000904604460079134A1F4602EBC0060A46C1
:1031B000069D00212068FFF705FE42460121206898
:1031C000FFF700FE2068C0F81475E80701D0102052
:1031D00004E0A80701D5042000E000202168C1F820
:1031E0000002EAB231462046BDE8F041082300F073
:1031F0007DBC0000400300202DE9F0410D4604464F
:103200000079314901EBC006307910B10820BDE8E2
:10321000F081294620463260FEF71AF9206801271E
:10322000C0F8007520686B79AA792989C0F80C3537
:10323000C0F80425C0F80815A97AEA7A206841EA9E
:103240000221C0F8101520680021C0F80012206883
:10325000C0F800134FF48E712068FFF7ADFD4FF4F6
:1032600088712068FFF7A8FD4FF48A712068FFF786
:10327000A3FD4FF482712068FFF79EFD3068F8B11E
:103280002068297940F3073000284FEA411106DA17
:1032900000F00F0000F1E02080F8141D03E000F1C1
:1032A000E02080F80014206840F3073000F01F0190
:1032B00007FA01F14009800000F1E020C0F8001198
:1032C00037710020A3E70000400300202DE9F04102
:1032D0000F46044600791849164601EBC0081D4602
:1032E0003A4600212068FFF76DFD3A46012120682B
:1032F000FFF768FD206806F0010101EB5602C0F8F7
:103300001425E80701D0102007E0A80704D509B16B
:10331000082002E0042000E000202268C2F8000239
:1033200009B10C2300E00823EAB241462046BDE87B
:10333000F04100F0DBBB00004003002010B5017934
:103340000A4A012302EBC102016841F3073101F08F
:103350001F04A3404909890001F1E021C1F880312F
:1033600000680021C0F80015117110BD4003002055
:103370000149024800F03EBD5803002000200040F3
:103380002DE9F0410546007916460F4600EB400155
:103390002C4A01EBC00102EB810494F82A1011B110
:1033A0000820BDE8F081284951F820102868FFF76F
:1033B000D3FE08B11120F4E739462846FDF784FC16
:1033C00066603869206030004FF001062DD03F7FE5
:1033D0004FF48E712868FFF747FD4FF4A2712868FB
:1033E000FFF742FD28681949C0F8041328684FEA1E
:1033F000471140F30730002806DA00F00F0000F113
:10340000E02080F8141D03E000F1E02080F80014B3
:10341000286840F3073000F01F0106FA01F1400967
:10342000800000F1E020C0F8001128680421C0F8F5
:1034300000150020A061E06184F8290044F8140F11
:10344000A675AEE75803002060420000800002002D
:103450002DE9F05F054600790B4600EB400101EBDA
:10346000C000244901EB8004284600F045F810B163
:103470001120BDE8F09F62614FF00009C4F8209070
:10348000A36084F828904FF48E784E464146286811
:10349000FFF7EAFC28684FF0010AC0F808A02146AF
:1034A000286800F037FC606808BBD5F800B0676991
:1034B0000FE000BF94F8280008B10F2615E0414640
:1034C0005846FFF7CCFC0028F4D02146584600F0BF
:1034D00021FC206AB842F2D3574641462868FFF7DC
:1034E000BEFC0028F9D02868C760C4F814903046A4
:1034F000BFE7000058030020007900EB400101EB1A
:10350000C000044901EB80004069002800D0012080
:1035100070470000580300202DE9F0470446007969
:103520004FF0000900EB400101EBC000254901EB21
:1035300080072068C0F80095786880B1206822492B
:10354000C0F808132068012140F3073000F01F0283
:1035500091404009800000F1E020C0F8801120680F
:10356000D0F80C25D0F81485D0F80865D0F810559F
:103570004FF0FF31C0F81415C0F80C152068C0F8E2
:103580000815C0F81015501C02D01046FFF744F87B
:10359000B8F1FF3F02D04046FFF73EF8681C02D06A
:1035A0002846FFF739F8701C02D03046FFF734F890
:1035B0002068FFF7E9FD87F82A90C7F80490BDE876
:1035C000F0870000580300208402020001490248ED
:1035D00000F0BEBC84030020002000402DE9F04133
:1035E0000546164600790F46154A00EBC00102EB6E
:1035F000810494F8201011B10820BDE8F081114930
:1036000051F820102868FFF7A7FD08B11120F4E752
:1036100039462846FDF79CFB6660386920601EB17C
:10362000397F2846FEF7A2FB28680821C0F800155C
:103630000020A061E0616061012184F82010DCE7D6
:1036400084030020644200002DE9F04704460E4642
:103650000079274900EBC00001EB80051746304692
:10366000FFF772FD30B1204600F044F820B1112080
:10367000BDE8F0871020FBE76F61AE604FF49077F4
:103680004FF0000839462068FFF7FFFB4FF4AC7697
:1036900031462068FFF7F9FB2068AA686969C0F81D
:1036A0004425C0F8481520684FF00109C0F808907B
:1036B0006868D0B9BA4651462068FFF7E1FB074673
:1036C00031462068FFF7DCFB0743F4D010B14FF020
:1036D0000F0808E02068C0F80C9031462068FFF71A
:1036E000CFFB0028F9D0002068614046C0E7000009
:1036F000840300200079054900EBC00001EB800045
:103700004069002800D00120704700008403002099
:103710002DE9F04704460079334900EBC00001EB86
:1037200080070125786880B120683049C0F8081307
:10373000206840F3073000F01F0105FA01F140094D
:10374000800000F1E020C0F880112068D0F800125D
:1037500021F02001C0F80012206845604FF4AC76DB
:1037600031462068FFF791FB2068C560314620682C
:10377000FFF786FB0028F9D020684FF00009C0F859
:1037800000952068D0F80C25D0F81485D0F808658D
:10379000D0F810554FF0FF31C0F80C15C0F81415D3
:1037A0002068C0F80815C0F81015501C02D010464B
:1037B000FEF73BFFB8F1FF3F02D04046FEF735FF72
:1037C000681C02D02846FEF730FF701C02D030463D
:1037D000FEF72BFF2068FFF7D7FC87F82090C7F88B
:1037E0000490BDE8F087000084030020100342002D
:1037F0000449084490F93000082801DB0120704793
:1038000000207047E40200200449084490F9300089
:10381000082801D20120704700207047E4020020F0
:1038200010B50C46017A052908D0407A38B108480D
:1038300008A102682046FEF7A1FD00E01AB106A12A
:103840002046FEF79BFD2046BDE81040FEF7A3BDD5
:1038500038010020257300000D0A000038B5C38828
:103860000D46044633B114A0009015A216A12846B7
:10387000FEF784FD217A05291CD0607A48B1A08822
:10388000FEF7FCFF164951F8202016A12846FEF746
:1038900075FDA0880021FFF7B3F903461049207A8F
:1038A000143951F8202001B02846BDE830400EA15F
:1038B000FEF764BD38BD00001B5B306D00000000EA
:1038C0001B5B313B33316D0025734C6F6773206494
:1038D000726F70706564202825642925730D0A00B5
:1038E00038010020257300003C25733E2025733AE3
:1038F000200000000349884201D10348704700209E
:1039000070470000002000409400002070B505467C
:10391000FEF7A5F8134C40B1D4E904024FF08071D2
:10392000411842F10000C4E9041000212846FDF7C7
:10393000E7FF30B1606820B1606800F05BF90020FB
:10394000606001212846FDF7DBFF18B1FEF782F920
:10395000C4E90601284600F079F92846BDE8704020
:1039600000F034B8B800002070B5054600200C46C1
:103970000870FEF76FF9D5E90223101A63EB010313
:1039800000263146361A994112DAB0F5350F03D3C5
:10399000FDF726F90B4942184FF4960300210A4817
:1039A000FEF769F810B10D2806D009E0012070BDBE
:1039B00000210548FDF79AFF284600F01BF920700A
:1039C000002070BDFFFFB400C0000020F8B51A4C05
:1039D000074600261948FFF729FAD0B1616871B18E
:1039E000D0E902106268D2E90232C91A904120D2AD
:1039F0006068007F18B161681048FFF706FA00F0B0
:103A00006FF805466946FFF7AFFF98B1606840B1AF
:103A10000AE0606800280CD13846BDE8F840FEF79F
:103A200026B83846FEF71FF865609DF800000028AC
:103A3000D0D1F8BD6660CDE7B80000207842000024
:103A400070B5054688690C4600284FF484712846F5
:103A50000AD0FFF709FAD5F81805626AE1688854B8
:103A6000606A401C606270BDFFF7FEF9D5F818056A
:103A700070BD1FB501238DF80030CDE90121D0E9DB
:103A80000012684690471FBD1FB501238DF8003016
:103A9000CDE90121D0E90012684690471FBD000022
:103AA00070B50D4C0020D2B22070201D0B4D037854
:103AB000EB5C1BB1001DFFF7C7FD02E00C30FFF708
:103AC000C7FC08B1FDF74FF86078002802D02178D4
:103AD0000029FAD070BD0000EC000020800000201A
:103AE0000148FFF7A6B900007842000070B505460E
:103AF00002201E46144608714A71086870B182217E
:103B0000600700D59221200701D541F02001E00691
:103B100001D521F080012868C0F800134FF48271AC
:103B20002868FFF749F92006286801D5304470BDA0
:103B300001218151002070BDC207002A03D000BFBF
:103B40004FF00F0201E04FF0F00201D04FEA0111F7
:103B5000044B03EB5003187800EA020040EA01002E
:103B600018707047C80300202DE9F84F204D924689
:103B7000894606469846012269461846AF68FDF711
:103B800081FB58B3009800210446801C09E000BF67
:103B900000EA07035AF8212005EB8303401C491C67
:103BA000DA604145F4D34FEA164AFDF795FE4AEA3A
:103BB0000041601C384005EB80003C4005EB84026E
:103BC000C160D06866F3C50068F3891069F39F206F
:103BD00020F00300401C20F00400D06095F8200481
:103BE00002E000BFFEF770FE0028FBD1BDE8F88FB1
:103BF000F805002070B50446124800250078F8B199
:103C0000F4B1207FE0B1FEF725F8D4E90223801A51
:103C1000994110D32069002600B92677D4E9051010
:103C20008847206960B1217F51B1D4E90221101881
:103C30007141C4E9020121460348FFF7E6F8012576
:103C4000284670BDB800002078420000F8B51B4C33
:103C500069462068FEF77BFA00260127184D29E007
:103C6000017821B101290CD002291BD114E041684F
:103C70000A7FBAB90F77416810480830FFF7C5F8D6
:103C800010E041686868814201D16E600AE00B482B
:103C90000830FFF7D5F805E0FFF722FF08B10677F7
:103CA000FAE72F7069462068FEF746FA69462068F1
:103CB000FEF74DFA0028D3D1F8BD00007042000095
:103CC000B8000020F8B50B4C0D4606466946206842
:103CD000FEF727FA58B10670456069462068FEF77E
:103CE00041FA10B10448FDF7A9FE0020F8BD0420F8
:103CF000F8BD000070420000C0000020034880684A
:103D00004108034800224068FCF7AABFA000002039
:103D10006842000070B50C4605464FF48E71FFF7FF
:103D2000A3F8216AA068415C206A401C2062C5F8A3
:103D30001C1570BD1FB500228DF80020029181680E
:103D400001914261D0E90012684690471FBD1FB53E
:103D500000228DF800200291816801914261D0E932
:103D60000012684690471FBD1FB50A4601788DF8BE
:103D7000001041680191017A8DF80810C068039025
:103D8000044850F82210001F50F82220684690473F
:103D90001FBD000088000020014901200870704705
:103DA000EC00002010B588B0044620220E49684679
:103DB000FCF75CFB06200090C01F0190029003906E
:103DC0004FF0EB7006900CB1084A00E00022694603
:103DD0000748FEF79FFA08B1FCF7C5FE0448001F2C
:103DE000447008B010BD0000B4420000993D0000CE
:103DF000F00000202DE9FF470C4605464FF4007106
:103E0000FFF738F801274FF40178002618B34FF474
:103E1000927949462846FFF722F8E0B149462846FC
:103E2000FFF722F8C5F8088394F8290000B96F60FD
:103E300002208DF80000D5F88004C5F880040390B6
:103E4000A0690290E0680190A661E661D4E90012E1
:103E50006846904728E004212846FFF70BF818B37E
:103E60004FF484712846FEF7FAFFE8B12146284650
:103E7000FFF7E6FD616AA069884215D1E06938B1B3
:103E8000E268616AA0612069E6616662E06008E05C
:103E900094F8290000B96F60C5F80883A661E2684C
:103EA000616A2046FFF7E5FD4FF48E7841462846CB
:103EB000FEF7D5FF80B16069216A814202D294F891
:103EC000280028B341462846FEF7CEFF606918B1A6
:103ED00061692046FFF72EFF4FF4A278414628463D
:103EE000FEF7BDFF002818D041462846FEF7BCFF6C
:103EF00094F8290000B12F60A06900280DD0A661B8
:103F0000E268616A04B02046BDE8F047FFF7B1BD42
:103F100021462846FFF7FEFEDEE7BDE8FF870000EA
:103F20001FB50A4601788DF8001041680191017AA9
:103F30008DF80810C0680390044850F82210001F44
:103F400050F82220684690471FBD000088000020DE
:103F50002DE9FF410C464FF4927705463946FEF7AE
:103F60008FFF0026B8B139462846FEF78EFF0220A3
:103F70008DF80000D5F88004C5F880040390D5F8CA
:103F80003C050290E0680190A661E661D4E9001268
:103F90006846904723E04FF4887739462846FEF775
:103FA0006FFFE0B139462846FEF76FFFD5F83C15A4
:103FB000A069884213D1E06960B1E268D5F80002D7
:103FC00020F02000C5F80002E069A0612069E661E8
:103FD000E06001E0A661E2682046FFF755FD4FF47E
:103FE000A27739462846FEF74BFF68B13946284686
:103FF000FEF74BFFA06938B1A661E661D5F83C1524
:104000002046E268FFF740FD4FF49076314628469F
:10401000FEF736FF60B131462846FEF736FF012035
:10402000E860606920B1D5F84C152046FFF78FFE97
:104030004FF4AC7631462846FEF722FF00280ED01A
:1040400031462846FEF721FF6069002807D0D5F8E1
:104050004C1504B02046BDE8F041FFF778BEBDE83E
:10406000FF8100002DE9F05F8346DDE90A4A9946A9
:1040700090460D460846012703E000BFB0FBF8F06C
:104080007F1C4045FAD2B94500D94F465FEACA7055
:1040900012D18CB15FEA8A7002D5B9F1000F01D05C
:1040A000202607E0302605E031465846641EFDF71D
:1040B0002DF90CB1A742F7D35FF00106B9F1010F5A
:1040C00002D9A9F1010903E0B5FBF6F0404502D39E
:1040D00006FB08F6F2E7DFF83C9000BFB5FBF6F010
:1040E00000FB165519F800105846FDF70FF9B6FBFE
:1040F000F8F6002EF2D15FEACA7009D0002C07D082
:10410000A74205D220215846641EFDF7FFF8F5E7C7
:10411000BDE8F09F9642000070B50C460546FDF7DD
:1041200017F9002807D04268002A04D02146284603
:10413000BDE87040104770BD1C0000200400000066
:10414000000000000000000091929493070400001A
:104150001027020091929394070500001027000099
:1041600060010020190000000100000000000000B4
:1041700024000020060000000400000000000000F1
:1041800091FFFFFF07070000A8610000300000203A
:104190000600000000000000040000000000000015
:1041A00007000000000000003C00002008000000A4
:1041B00001000000000000009201002064000000E7
:1041C00000000000000000004C0000200200000081
:1041D00095000000000000004C00002002000000DC
:1041E0003100000000000000920100206400000087
:1041F0000200000000000000919394920707000065
:10420000093D0200500000201000000000000000E6
:1042100000000000B91400008515000029160000F8
:104220009D1600001D180000111213140D0E0F1022
:104230006002002080020020B00200200D00030078
:10424000D90E00000E000300D90E00000F0003007D
:10425000D90E000010000300D90E0000000000502D
:1042600071330000CD35000003000000A8030020DA
:10427000F80300200100060000000000D800002024
:1042800039140000000000000000000000000000E1
:104290000338FDD87047303132333435363738394A
:1042A000414243444546000065280000392800008B
:1042B00031280000FFFFFFFFFFFFFFFFFFFFFFFFB1
:1042C000FFFFFFFF00000000000000000000D6011B
:1042D00006010000600500207F000000E0050020CE
:1042E0000040404040404040404041414141414009
:1042F00040404040404040404040404040404040BE
:10430000400502020202020202020202020202024C
:104310000220202020202020202020020202020251
:1043200002029090909090901010101010101010A9
:1043300010101010101010101010101002020202B5
:1043400002028888888888880808080808080808F9
:1043500008080808080808080808080802020202F5
:1043600040000000E14200007761726E696E6700F4
:1043700064656275670000001B5B313B33306D0084
:104380001B5B306D000000001B5B313B33316D0067
:104390001B5B313B33326D001B5B313B33336D00B4
:1043A0001B5B313B33346D001B5B313B33356D00A0
:1043B0001B5B313B33366D001B5B313B33376D008C
:1043C000696E666F000000006572726F7200000017
:1043D000636C6F636B000000434C4F434B00000065
:1043E0004750494F544500005052530050574D001C
:1043F0005541525400000000554152544500000000
:104400006170705F627574746F6E00006170705FD0
:1044100074696D6572000000736F72746C697374F7
:1044200000000000756172745F6C6F675F626163AA
:104430006B656E640000000061707000D84400007D
:104440000000002060010000080500003845000061
:1044500060010020C0280000940A0000A84200006B
:10446000000000002444000004010020D0430000AC
:1044700000000000D843000000000000E0430000FE
:1044800000000000E843000000000000EC430000D2
:1044900000000000F043000000000000F8430000AE
:1044A0000000000000440000000000000C44000078
:1044B0000000000018440000000000003844000024
:1044C00000000303140100200C010020140100204F
:1044D000A0040020180000005154C0014045100203
:1044E0004001E5200240025A8004890A490E8916DB
:1044F0002902891009200A01481510014011022ED5
:1045000004122049F0690831021FFF23C8431A68CA
:10451000041AC0041A70041A80041A78041A880451
:104520001A90041A98041AA0041AA8041AB0041ABB
:08453000B80411040090D0034F
:0400000500000201F4
:00000001FF
