:020000040000FA
:10000000E0230020150200001D0200001F02000076
:100010002102000023020000250200000000000071
:1000200000000000000000000000000027020000A7
:1000300029020000000000002B0200002D02000039
:100040002F0200001D030000AD0500002F0200007C
:100050002F0200002F0200002F0200002F020000DC
:100060002F0200002F0200002F0200002F020000CC
:100070002F0200002F0200002F0200002F020000BC
:100080002F0200002F0200002F0200002F020000AC
:10009000790300002F0200002F0200002F02000051
:1000A0002F0200002F0200002F0200002F0200008C
:1000B0002F0200002F0200000000000000000000DE
:1000C0002F0200002F0200002F0200002F0200006C
:1000D0002F0200002F0200002F0200002F0200005C
:1000E0002F0200002F0200002F020000000000007D
:1000F000000000002F020000000000002F0200009E
:1001000000000000000000000000000000000000EF
:1001100000000000000000000000000000000000DF
:1001200000000000000000000000000000000000CF
:1001300000000000000000000000000000000000BF
:1001400000000000000000000000000000000000AF
:10015000000000000000000000000000000000009F
:10016000000000000000000000000000000000008F
:10017000000000000000000000000000000000007F
:10018000000000000000000000000000000000006F
:10019000000000000000000000000000000000005F
:1001A000000000000000000000000000000000004F
:1001B000000000000000000000000000000000003F
:1001C000000000000000000000000000000000002F
:1001D000000000000000000000000000000000001F
:1001E000000000000000000000000000000000000F
:1001F00000000000000000000000000000000000FF
:10020000DFF80CD000F03CF800480047210800005F
:10021000E02300200648804706480047FEE7FEE747
:10022000FEE7FEE7FEE7FEE7FEE7FEE7FEE7FEE7A6
:10023000D10300000102000040EA01039B0703D044
:1002400009E008C9121F08C0042AFAD203E011F815
:10025000013B00F8013B521EF9D27047D2B201E0D7
:1002600000F8012B491EFBD270470022F6E710B5BB
:1002700013460A4604461946FFF7F0FF204610BD14
:10028000064C074D06E0E06840F0010394E80700E3
:1002900098471034AC42F6D3FFF7B6FF981300002E
:1002A000B813000000F01F020121914040098000B6
:1002B00000F1E020C0F88012704700F01F02012119
:1002C00091404009800000F1E020C0F880117047A3
:1002D00000F01F02012191404009800000F1E02060
:1002E000C0F80011704700F01F0201219140400941
:1002F000800000F1E020C0F8001270474907090EA5
:10030000002806DA00F00F0000F1E02080F8141D4C
:10031000704700F1E02080F80014704770B5144C6D
:10032000D4F80001002628B1D4F80403C00701D096
:10033000C4F80061D4F80C010E4D40B1D4F80403A8
:10034000000704D5C4F80C61286900B18047D4F8CF
:10035000100100280BD0D4F80403C00607D5C4F858
:100360001061E868002802D0BDE87040004770BD09
:1003700000100040440000207CB5144C606A0190DD
:100380002078002821D00120FFF797FF656800261C
:1003900066600120FFF79CFFE169002915D0E8079E
:1003A00003D08DF8006068468847A80705D501206E
:1003B0008DF80000E16968468847680705D5022086
:1003C0008DF80000E169684688477CBD4400002044
:1003D00030B54FF0805000228300D0F83011C3F8C0
:1003E0000C21C3F81021624B1A60624B1B68624CEF
:1003F0002360604B1B1D1B68241D23605D4B08336D
:100400001B68241D23605B4B0C331B68241D236079
:10041000584B10331B68241D2360564B14331B6844
:10042000241D2360534B18331B68534C2034236026
:10043000504B1C331B68241D23604E4B20331B681C
:10044000241D23604B4B24331B68241D2360494B20
:1004500028331B68241D2360464B2C331B68241D46
:100460002360444B30331B68434C40342360414B82
:1004700034331B68241D23603E4B38331B68241D16
:1004800023603C4B3C331B68241D2360394B4033B5
:100490001B68241D23600123082902D1D0F83441B0
:1004A00014B1082904D006E0354C3449216005E038
:1004B000D0F8344114B1082904D006E0314CFB21B6
:1004C000216005E0D0F8344114B1082908D00EE0CD
:1004D00090F858422C48016864F30301016002E07F
:1004E000D0F834411CB929494FF4007008602848FD
:1004F0000168C90702D06FF0010101602548016859
:1005000041F470010160BFF34F8FBFF36F8F4FF065
:100510001021D1F80002002803DBD1F804020028E2
:1005200022DA1D4C23601D480368002BFCD01223E7
:10053000C1F800320568002DFCD0C1F80432016812
:100540000029FCD0226001680029FCD0BFF34F8F46
:1005500010487C380168124A01F4E06111430160DF
:10056000BFF34F8F00BFFDE70F490E48086030BD55
:10057000380500400404001020C5004048810300F5
:100580008C56004018F50040E40E004040960240B2
:100590000004004088ED00E004E5014000E4014073
:1005A0000400FA050090D0038C0000200148006888
:1005B000004700003C00002002E008C8121F08C1EC
:1005C000002AFAD170477047002001E001C1121FD4
:1005D000002AFBD17047006890FAA0F000BA00BA78
:1005E0007047000072B609480068C00700D000BE1E
:1005F000BFF34F8F0548E4380168054A01F4E06114
:1006000011430160BFF34F8F00BFFDE7F0ED00E045
:100610000400FA050EB500210091CDE901106A46EB
:1006200044F20100FFF7DEFF0EBD00002DE9FC41A2
:100630000646C0074FF000050ED0104F00240122DF
:10064000385D009500231146019500F059FB641CAC
:10065000042CF4D300F01CF8B0070DD5074E00248D
:10066000361D0022305D032300951146019500F0F0
:1006700047FB641C042CF4D3BDE8FC8190130000FC
:100680000249085C012100F0A1BB000090130000AA
:1006900010B500242046FFF7F3FF641C042CF9D3A7
:1006A00010BD006890FAA0F000BA70474FF080408B
:1006B0000021C0F800110121C0F80010D0F800118D
:1006C0000029FBD07047000010B51EA08AB000685A
:1006D00008901DA01DA100680990D1E90001CDE995
:1006E000060118221B496846FFF7A6FD0620ADF853
:1006F0000E00002401208DF814408DF800008DF8C4
:100700000800154801908DF80140684600F04CF94A
:10071000002815D108A800F033FA002810D109A844
:1007200000F040FA00280BD1082106A800F04CFA8E
:10073000002805D10948032101704470447100204C
:100740000AB010BDE7E7E7E7C2C2C2C2E7C2C3C44E
:10075000C5C6C7C878130000BD08000014000020FB
:1007600070B50B2000F014FB1C4C60600C2000F0F6
:100770000FFBA060182000F00BFBE060192000F0D8
:1007800007FB2061626804F114011AB94B7943F048
:1007900001034B71A3681BB94D7945F002054D71FA
:1007A000E5681DB94E7946F004064E7118B94E79C8
:1007B00046F008064E711A442A441044032803D018
:1007C00001202070002070BD0020C8700348143044
:1007D00000F040FA0028F5D070BD000000000020B5
:1007E00010B5032211460B2000F0A3FA0322114694
:1007F0000C2000F09EFA03221146182000F099FA0E
:1008000003221146192000F094FA04494FF47A406B
:100810008847BDE810400120FFF708BF71130000B2
:10082000FFF744FFFFF750FF08B1FFF7F3FEFFF7B4
:10083000D7FF00F0D7FBFFF793FF08B1FFF7EAFE01
:100840000C4C20780028FCD00B2000F0A1FA0128E5
:10085000F7D10C2000F09CFA0128F2D1182000F00A
:1008600097FA0128EDD1192000F092FA0128E8D179
:1008700000F0B4FC0000002070B50C494FF470503B
:1008800008600B4C00256570257000F0C3FB20212B
:100890000848FFF7EAFCE56214202563FFF70DFD29
:1008A00005490320C1F80002002070BD08F5014091
:1008B00044000020BC0300200010004070B5007808
:1008C0002B4C002851D0012802D002284DD102E043
:1008D00000F052F849E0274800F00EF90028FAD05D
:1008E000244D6168687940F30000401C21B100216B
:1008F000884203D1012102E00121F9E700210D2006
:1009000000F051FA6879A16840F34000401C21B121
:100910000021884203D1012102E00121F9E70021F1
:100920000E2000F040FA6879E16840F38000401C36
:1009300021B10021884203D1012102E00121F9E720
:1009400000210F2000F02FFA6879216940F3C000E0
:10095000401C21B10021884203D1012102E0012184
:10096000F9E70021102000F01EFA0120207070BD70
:100970000000002090000020094810B5007860B108
:100980000120FFF79AFC0748002181620162416261
:100990000120FFF79DFC002010BD082010BD0000C5
:1009A00044000020F801002070B505007ED0454CC1
:1009B000207818B1FFF760FF00287DD16868E061FA
:1009C000182229464048FFF737FC002565602021A2
:1009D0003E48FFF74AFCE562256300F04DFC002825
:1009E0006DD03B494FF0E7300860091D4FF04330B0
:1009F0000860091D37480860091D3748086000F085
:100A000009FB314A0020183202F5947100EB800393
:100A100003EB4013134441F82030401C0828F5DB59
:100A20002E4A002002F5947100EB800303EB401383
:100A3000134441F82030401C0828F5DB28490420E5
:100A40000860274808380560264840F20221C0F8AF
:100A50000012264A24491160111D08602248001D19
:100A6000091D08601F481030091D0860091D204835
:100A700008601D48F038091D08601D48001D091D4B
:100A80000860091D1B4808600F4E707C00F00301D0
:100A90000120FFF733FCB07C00F003011420FFF7C6
:100AA0002DFC1420FFF714FC657002E005E003E064
:100AB00005E001202070002070BD0E2070BD0720D1
:100AC00070BD000044000020B8000020BC030020DE
:100AD0001C150040E743C323A363E3132402002053
:100AE00010A5004000A000400011004060F501404A
:100AF00040A100400010004070B505461E48007837
:100B000080B385B31D4CA06A70B30120FFF7D5FBFD
:100B1000606A54F820100A782A7054F82010497836
:100B2000697054F820108978A97054F82010097958
:100B3000297154F82010C978E97054F82010681D04
:100B4000491DFFF779FB606A401C6062082801D3E9
:100B500000206062A06A401EA0620120FFF7B8FB7F
:100B6000002070BD01E002E003E00820F9E70E205C
:100B7000F7E70520F5E70000440000204C030020C3
:100B8000074910B54A780AB1112010BD30B100688C
:100B90004863012000F02CFB002010BD0E2010BD8A
:100BA00044000020074910B54A780AB1112010BD51
:100BB00030B100688863022000F01AFB002010BDED
:100BC0000E2010BD4400002010B50C460F49497896
:100BD00009B1112010BD18B1082C03D9072010BD90
:100BE0000E2010BD0146094822463C30FFF724FB89
:100BF0000648C4F108023430FF210474D1408174E6
:100C0000042000F0F5FA002010BD00004400002090
:100C10000E4810B50078A0B10D4CA06A98B1012023
:100C2000FFF74BFBA06A401EA062606A401C606236
:100C3000082801D3002060620120FFF749FB002053
:100C400010BD082010BD4FF4807010BD440000207E
:100C5000F80100202DE9F041264F0546387840B1D3
:100C600055B1287868B120280BD8234E317829B1A6
:100C700009E00820BDE8F0810E20FBE7F17C884206
:100C800001D90920F6E71D4CA06A082801D30420E9
:100C9000F0E76878082801D30720EBE70120FFF789
:100CA0000CFB206A2522294654F82000FFF7C4FADD
:100CB00010486A782C30815C491C01F00301815492
:100CC000206A54F82020401C08281171206201D3AA
:100CD00000202062A06A401CA0620120FFF7F8FA01
:100CE000707828B9307C18B9787808B900F0ECF938
:100CF0000020BFE744000020B8000020F8010020D9
:100D00002DE9FF411C46DDE90A7815460E46684686
:100D100000F030F846EA450141EA840141EA072241
:100D200042EA0841009A00EB8200C0F80017BDE8D3
:100D3000FF8138B50C4600901546684600F00CF867
:100D4000009A002141EA840100EB820041EA05415A
:100D5000C0F8001738BD00000168202902D24FF00A
:100D6000A040704701F01F0101600148704700007A
:100D7000000300500168202902D24FF0A0407047C4
:100D800001F01F010160014870470000000300509E
:100D900001B56846FFF7E0FFD0F810050099C8409C
:100DA00000F0010008BD38B501240090684631B15B
:100DB000FFF7D2FF00998C40C0F8084538BDFFF717
:100DC000CBFF00998C40C0F80C4538BD38B50124E4
:100DD0000090684631B1FFF7CDFF00998C40C0F814
:100DE000084538BDFFF7C6FF00998C40C0F80C4598
:100DF00038BD000070B5164CA068164AC2F8000253
:100E0000A06A15490860154B091D98898238086049
:100E10001348012140F80C1F0021C0F83411C0F81C
:100E20003811104D4FF4E050286050142D1D2860EB
:100E3000C2F80C11187810B96169002088470B4975
:100E4000094808600A48E0600320607070BD000037
:100E5000440000200010004040A50040B8000020E1
:100E600000A0004004F501409A0300200415004052
:100E7000B10E000010B50C4C606840F001006060DD
:100E8000FFF7C6FE0948806A30B11420FFF72BFA3D
:100E9000BDE8104000F018B900206070BDE81040B7
:100EA0001420FFF720BA000044000020F8010020C1
:100EB0002DE9F047414A4FF4E05010604049D1F825
:100EC0000C31DFF8009100273F4CB9F80E004E14AA
:100ED000DFF8F8800125E3B33D4B1B68CBB32561F8
:100EE0001660D8F8041041F00101C8F80410D8F8D1
:100EF0002010401A401CC8F82400FFF789FE99F81A
:100F0000000088B109F2E220017869B14078410817
:100F100030480068C0B200F08BF828B1D8F804005F
:100F200040F00400C8F804002B48806A50B199F8DA
:100F30001000012806D01420FFF7D5F9BDE8F047CE
:100F400000F0C2B888F80170BDE8F0471420FFF740
:100F5000CAB9D8F820C0BCF1010CC8F820C00BD227
:100F600025611660401CC8F82400D8F8040040F041
:100F70000200C8F80400E5E7D8F808000F4640F082
:100F80000802C1F80022D8F81800D8F81410007828
:100F9000884710481149283801601148C8F80C00EA
:100FA000022088F8010025600448001F0660D4F87C
:100FB0004401002800D03D60BDE8F08708F50140FD
:100FC00000100040B800002000A0004044000020B5
:100FD000001400402C150040F80100207803002088
:100FE000F50D00000948002102680D23B3EB121F24
:100FF00004D10168002201F00F010260491C41F098
:10100000D002026008010249887170471C05004047
:10101000140000200549002008624862886201F53A
:10102000AA7108624862886270470000F8010020D7
:101030002DE9F041224C07468846A06A08283DD297
:10104000A4F5257120460A780026006A01F2E225FF
:10105000012A03D04A7842B1C97C02E029782029CC
:101060002CD854F82020117002E054F820100E7093
:1010700054F82000A91C10F8052BFFF7DDF8206AB2
:1010800054F820104F700F49096854F820209170CF
:1010900054F8202082F80480697854F8202041F325
:1010A0000001491C401CD1702062082800D3266230
:1010B000A06A401CA0620120BDE8F0810020FBE78F
:1010C0004C030020481500402DE9F05F3D4C4FF0E7
:1010D0000108C4F824803C48DFF8F0A0A0F5A07710
:1010E000416A3B4D4FF0000B50F82110A161387858
:1010F00007F5307610B1012843D10DE00878616919
:101100008847A1690879307086F801B011F8052B7D
:10111000B01CFFF791F818E0C87820B3387D10B301
:10112000002081460878307008794006000E707003
:10113000CA78D2B100221043707011F8052BB01C90
:10114000FFF77AF8B9F1000F11D0A06840F008005D
:10115000C5F800021120C5F80403F88920620220B6
:10116000C4F80CA00CE00120DBE70122E3E7A06853
:10117000C5F800021020C5F804031648E060404698
:101180006070A069144A417811604078444608FABA
:1011900000F0111D08600B480F4934302439C07C21
:1011A0000860081F06600120FFF77CF80120FFF7A8
:1011B0008FF8C5F804B1C5F808B1C5F810B12C60B6
:1011C000BDE8F09F44000020F8010020F50D00006C
:1011D00000100040750E00002C150040FFF758FA73
:1011E0000248012101600068FEE7000000050040A0
:1011F00010B50446C00704D00F48FFF7ECF90F49BB
:101200000860A00706D50C48001DFFF7E4F90B495C
:10121000091D086060070DD507480830FFF741FA3F
:1012200006490831086004480C30FFF73AFA0349D0
:101230000C31086010BD0000780000201C15004033
:101240000A48017A0A4801600A48492251B1012935
:1012500005D0032906D0042901D000207047302191
:10126000816200E08262012070470000B800002027
:10127000101500404400002070B500F041F8FFF761
:10128000DFFF194C194922787AB1012A0BD00022CC
:101290000240607AB8B1164B1D1F01280ED00228FB
:1012A00007D0002513E0134A00E0134A4A610122E7
:1012B000EEE74FF6FF761E60104B03E0FF261E6040
:1012C00040F207132B600A4B083B1860012549695F
:1012D0001540E07C8847A089872801D3012000E0E1
:1012E0000020284070BD0000B8000020440000200D
:1012F0003C150040411300001513000021100100AF
:1013000002480349807A086070470000B800002056
:101310000C150040084A074911600849497C491EDC
:10132000090441EA0021014341F08070111D086069
:1013300070470000000101001415004078000020F3
:1013400007490648086007480749407C401E41EAB3
:1013500000400349091D08607047000006000300B3
:10136000141500407800002020000001000000005B
:101370000338FDD8704700000100000000000000A5
:1013800001020000FA00030000010220000000003A
:101390000D0E0F100B0C1819B813000000000020E0
:1013A00090000000B80500004814000090000020E4
:1013B00050230000C80500000000000000000000ED
:1013C000000000000000000000000000020000001B
:1013D000000100000000000000000000000000000C
:1013E00000000000000000000000000000000000FD
:1013F00000000000000000000000000000000000ED
:1014000000000000130100000000000000000000C8
:1014100000000000000000000000000000000000CC
:1014200000000000000000000000000000000000BC
:10143000E7E7E7E7C2C2C2C2E7C2C3C4C5C6C7C8BE
:081440000805FF020090D00333
:0400000500000201F4
:00000001FF
