:020000040000FA
:10000000B00A0020150200001D0200001F020000BF
:100010002102000023020000250200000000000071
:1000200000000000000000000000000027020000A7
:1000300029020000000000002B0200002D02000039
:100040002F0200002F020000610500002F020000B7
:100050002F020000000000002F0200002F0200000D
:100060002F0200002F0200002F0200002F020000CC
:100070002F0200002F0200002F0200002F020000BC
:100080002F0200002F0200002F0200002F020000AC
:100090002F0200002F0200002F0200002F0200009C
:1000A0002F0200002F0200000000000000000000EE
:1000B0002F0200002F0200000000000000000000DE
:1000C0000000000000000000000000000000000030
:1000D0000000000000000000000000000000000020
:1000E0000000000000000000000000000000000010
:1000F0000000000000000000000000000000000000
:1001000000000000000000000000000000000000EF
:1001100000000000000000000000000000000000DF
:1001200000000000000000000000000000000000CF
:1001300000000000000000000000000000000000BF
:1001400000000000000000000000000000000000AF
:10015000000000000000000000000000000000009F
:10016000000000000000000000000000000000008F
:10017000000000000000000000000000000000007F
:10018000000000000000000000000000000000006F
:10019000000000000000000000000000000000005F
:1001A000000000000000000000000000000000004F
:1001B000000000000000000000000000000000003F
:1001C000000000000000000000000000000000002F
:1001D000000000000000000000000000000000001F
:1001E000000000000000000000000000000000000F
:1001F00000000000000000000000000000000000FF
:10020000DFF80CD000F02AF800480047C90A0000C7
:10021000B00A00200648804706480047FEE7FEE790
:10022000FEE7FEE7FEE7FEE7FEE7FEE7FEE7FEE7A6
:10023000810200000102000040EA01039B0703D095
:1002400009E008C9121F08C0042AFAD203E011F815
:10025000013B00F8013B521EF9D27047064C074D96
:1002600006E0E06840F0010394E807009847103486
:10027000AC42F6D3FFF7C8FF58160000781600000E
:100280002DE9F047A44E4FF08054371D31783D1DC5
:100290004FF0010906290BD13878000708D12878DA
:1002A000C0F30310032806D0042804D0052802D088
:1002B000062907D011E0B4F824039849C0F30420BC
:1002C000086002E03878000707D12878C0F30310EF
:1002D000032802D193499248486700F051FB28B1A6
:1002E000D4F844029049C0F3423008603078B046F8
:1002F00006280CD13878000709D12878C0F30310FC
:10030000032804D18948016821F08071016000F060
:100310005DFB002640B14FF08040C0F80C61C0F892
:1003200010618148001F066098F80000062807D178
:100330003978090704D12978C1F30311032902D0C0
:10034000062805D019E0784A03216432116007E0DD
:100350003978090711D12978C1F3031103290CD188
:10036000734B05221A60724A7832C2F800907049C5
:1003700008310E603F211A1D1160D4F830110A298E
:1003800004D1D4F834215AB1012A09D0062807D162
:100390003A78120704D12A78C2F30312052A55D1FC
:1003A000644A1268644B1A60624A121D12681B1D6F
:1003B0001A60604A083212681B1D1A605D4A0C32CE
:1003C00012681B1D1A605B4A103212681B1D1A60EE
:1003D000584A143212681B1D1A60564A18321268A5
:1003E000554B20331A60534A1C3212681B1D1A6089
:1003F000504A203212681B1D1A604E4A243212687D
:100400001B1D1A604B4A283212681B1D1A60494A8C
:100410002C3212681B1D1A60464A30321268464B55
:1004200040331A60434A343212681B1D1A60414A35
:10043000383212681B1D1A603E4A3C3212681B1D7E
:100440001A603C4A403212681B1D1A600A2905D105
:10045000D4F8341111B9394AFB211160062811D1A1
:10046000387800070ED12878C0F30310032803D092
:10047000042801D0052805D1D4F85802304900F0ED
:100480004F00086000F056FA30B12E480168C907E5
:1004900002D06FF001010160D4F83001062808D1C4
:1004A000D4F83401062804D12748016841F480615A
:1004B00001604FF01021D1F80002002803DBD1F8D1
:1004C0000402002823DA214AC2F800902048036879
:1004D000002BFCD01523C1F800320468002CFCD09E
:1004E000C1F8043201680029FCD0166001680029B7
:1004F000FCD0BFF34F8F0D48F0380168154A01F466
:10050000E06111430160BFF34F8F00BFFDE7134966
:1005100011480860BDE8F087E00F00F04035014069
:100520000DF0ADBA00C007403C050040FCED00E016
:10053000105600400404001020C5004018F500408B
:10054000E40E0040000400403C17004004E5014078
:1005500000E401400400FA050090D00338000020B8
:1005600001480068004700000C000020014A0249D1
:1005700000F013B83F0A00003400002002E008C871
:10058000121F08C1002AFAD170477047002001E00D
:1005900001C1121F002AFBD170472DE9F041164618
:1005A0000F460446002503E03946B047641C6D1C25
:1005B00020780028F8D12846BDE8F08172B60948B5
:1005C0000068C00700D000BEBFF34F8F0548E43875
:1005D0000168054A01F4E06111430160BFF34F8FE8
:1005E00000BFFDE7F0ED00E00400FA050EB50021C4
:1005F0000091CDE901106A4644F20100FFF7DEFFE9
:100600000EBD10B58268C368934203D000F004FAAF
:10061000002010BD052010BD29B112B1531E134298
:1006200003D0092070470E207047016083800021AD
:100630008160C1600846704710B58268C3689A1A25
:1006400083889A4203D800F0F1F9002010BD0420FD
:1006500010BD000070B50A4E01460A48B578FFF794
:10066000D0FF04464DB10020B070711C0122C81D9E
:1006700000F0ACFA08B1FFF7B9FF204670BD0000EA
:10068000140000208C020020F0B5244E89B01F46D3
:100690000D00044672603FD0A888296882B22048C5
:1006A000FFF7BAFF002835D1A889A96882B21C4893
:1006B0001030FFF7B1FF00282CD1202219496846DD
:1006C000FFF7BAFD60690690207C00B101208DF82B
:1006D00014008DF81C70607C00B10E208DF81500A0
:1006E000E0680290A0680390206801906068009024
:1006F0000A480D4A6946083000F034FA002809D14A
:10070000B0702068401C05D004490122491CC81D56
:1007100000F05CFA09B0F0BD0720FBE714000020F0
:100720008C02002038160000F512000010B50146BA
:100730001048FFF781FF040019D10F480F4A0178D4
:10074000515C19B1001D00F055FD02E00C3000F0C5
:1007500039FC60B9084907480839FFF752FF30B93A
:10076000054901220839044800F040FA04462046B1
:1007700010BD00009C0200201C0000200000002092
:1007800000F002B800F008B872B602480168491CCF
:10079000016070473000002003490868401E08606F
:1007A00000D162B670470000300000202DE9F04112
:1007B000064608680C46411C4FF0A0474FF0010563
:1007C00006D005FA00F1C7F80815206800F066FAAF
:1007D0006068411C02D0002100F04EFA3168A06927
:1007E000C1F82405607D227D31681043C1F86C0595
:1007F000D4E900123068C0F81425C0F80C15207D2B
:10080000012815D1A068411C02D0002100F034FA63
:10081000E068411C05D08540C7F80855E06800F045
:100820003DFAD4E902123068C0F80825C0F8101566
:10083000BDE8F0812DE9F041064608680C46411CF0
:100840004FF0A0474FF0010506D005FA00F1C7F8B8
:100850000815206800F02CFA6068411C02D00021C5
:1008600000F013FA3168A069C1F82405607D217D8C
:1008700032680843C2F86C05D4E900123068C0F849
:100880000C15C0F81425207D012815D1A068411C45
:1008900002D0002100F0F9F9E068411C05D0854044
:1008A000C7F80855E06800F003FAD4E9021230688E
:1008B000C0F80825C0F81015BDE8F0812DE9FC410D
:1008C0000646C0074FF000050ED0104F002401224D
:1008D000385D009500231146019500F097F9641CDE
:1008E000042CF4D300F01CF8B0070DD5074E0024FB
:1008F000361D0022305D032300951146019500F05E
:1009000085F9641C042CF4D3BDE8FC812816000092
:100910000249085C012100F0D5B90000281600004A
:1009200010B500242046FFF7F3FF641C042CF9D314
:1009300010BD00004FF08050D0F830110A2904D1CA
:10094000D0F83401B8B1012814D00C48007806283A
:1009500011D10A48001D007800070CD10748083063
:100960000078C0F30310032805D0042803D005281D
:1009700001D000207047012070470000E00F00F018
:100980004FF08050D0F830110A2904D1D0F834014A
:10099000B8B1012814D00C480078062811D10A48B3
:1009A000001D007800070CD1074808300078C0F31C
:1009B0000310032805D0042803D0052801D0002007
:1009C0007047012070470000E00F00F04FF08050AA
:1009D000D0F830110A2904D1D0F83401B8B1012877
:1009E00014D00C480078062811D10A48001D007860
:1009F00000070CD1074808300078C0F30310032823
:100A000005D0042803D0052801D00020704701201C
:100A100070470000E00F00F0826883881A40036886
:100A20009A5C0A708168491C81607047C26883883B
:100A30001A4003689954C168491CC160704710B5D9
:100A40000446C0B2FFF772FE204610BD70B50D46D9
:100A5000044600684FF4887100F055F94FF4907126
:100A6000206800F050F94FF49271206800F04BF9C3
:100A70004FF4A271206800F046F920681149C0F8CF
:100A800004132068690740F30730090E002806DACE
:100A900000F00F0000F1E02080F8141D03E000F1E9
:100AA000E02080F800142068012140F3073000F0B6
:100AB0001F0291404009800000F1E020C0F80011C1
:100AC00070BD0000100302008AB00120FFF7F6FE9F
:100AD000182216496846FFF7AFFB154806901549DE
:100AE0004FF48070CDE9070109900723124A06A947
:100AF0006846FFF7C9FD08B1FFF778FD0FA0FFF7C3
:100B000035FD06A8FFF7A6FD0028FAD19DF81800CC
:100B1000FFF70CFE0028F9D19DF81800712801D0CC
:100B20005128EED10CA0FFF721FDFEE710160000C2
:100B30003C0000203C010020E11200000D0A55415C
:100B40005254206578616D706C65207374617274A5
:100B500065642E0D0A000000200D0A457869742195
:100B60000D0A0000F0B505460478154889B0164610
:100B700040F82420124A0869121DA2F1080742F821
:100B80002400487F385520226846FFF755FB04941F
:100B90002878385C48B10EB10A4A00E00022694664
:100BA000281D00F027FA09B0F0BD0EB1064A00E09A
:100BB0000022694605F10C0000F0D4F8F3E70000CC
:100BC00004000020ED1400009513000030B40378F9
:100BD000054CE35C1BB130BC001D00F041BA30BCD9
:100BE0000C3000F027B900000000002030B403787A
:100BF000054CE35C1BB130BC001D00F0B3BA30BC47
:100C00000C3000F08DB900000000002070B541EA02
:100C10004201DDE904564FF0A04441EA830141EA74
:100C2000052104EB800041EA0641C0F8001770BDC1
:100C300070B541EA4201DDE904564FF0A04441EAB3
:100C4000830141EA052104EB800041EA0641C0F836
:100C5000001770BD70B541EA4201DDE904564FF05E
:100C6000A04441EA830141EA052104EB800041EA06
:100C70000641C0F8001770BD1CB500220B4600925B
:100C800011460192FFF7D4FF1CBD1CB500220B4694
:100C9000009211460192FFF7DDFF1CBD1CB500213B
:100CA00000910B46012201911146FFF7C1FF1CBDC7
:100CB0001CB5002100910B46012201911146FFF75E
:100CC000C9FF1CBD01224FF0A043824011B1C3F8FF
:100CD00008257047C3F80C2570474058002800D0FD
:100CE0000120704708B5002242504058009008BDCE
:100CF000D0F80403084000D0012070474058002875
:100D000000D00120704708B50022425040580090A2
:100D100008BD0121B1EB507F01D1012070470020B7
:100D2000704770B50D4600F073FA04000FD0002034
:100D3000FFF726FD207920B10020FFF723FD1120C9
:100D400070BD0120256020710020FFF71BFD0020F1
:100D500070BD00000149024800F034BB3C02002095
:100D6000002000402DE9F0410546007916460F4667
:100D700000EB40012C4A01EBC00102EB810494F826
:100D80002A1011B10820BDE8F081284951F820103F
:100D90002868FFF7C6FF08B11120F4E73946284656
:100DA000FFF704FD66603869206030004FF00106EF
:100DB0002DD03F7F4FF48E712868FFF793FF4FF4DB
:100DC000A2712868FFF78EFF28681949C0F804133C
:100DD00028684FEA471140F30730002806DA00F090
:100DE0000F0000F1E02080F8141D03E000F1E02086
:100DF00080F80014286840F3073000F01F0106FA5D
:100E000001F14009800000F1E020C0F800112868DD
:100E10000421C0F800150020A061E06184F82900D9
:100E200044F8140FA675AEE73C020020301600000F
:100E3000800002002DE9F05F054600794FF401764D
:100E400000EB400303EBC000344B03EB80040020B5
:100E5000636813B12B68C3F80863A3694FF00009F6
:100E60006BB1E06938B1606810B12868C0F80463FC
:100E70001120BDE8F09FE2610120216105E0C4F886
:100E80002490A261E160C4F81C9094F829100143F9
:100E900002D1284600F0F7F960680028286803D0DE
:100EA000C0F804630020E4E74FF4A2763146FFF770
:100EB00019FFB2464FF4927B59462868FFF70DFFA1
:100EC00006464FF484712868FFF707FF80465146B5
:100ED0002868FFF702FF074648EA07003043EBD0D7
:100EE00056EA070007D12146286800F09DF9A1695C
:100EF000606A8142E0D8C4F818900EB10320B8E7C8
:100F00000FB10F20B5E794F82910012000292968B6
:100F100001D00860C6E74860C4E700003C0200203A
:100F20002DE9F047054600790B4600EB400101EB47
:100F3000C000234901EB8004284600F043F810B1BB
:100F40001120BDE8F0874FF00008C4F82080A360AE
:100F5000626184F828804FF48E76474631462868CF
:100F6000FFF7C0FE28684FF00109C0F8089021463D
:100F7000286800F098F9606800BBD5F800A00EE082
:100F800094F8280008B10F2716E031465046FFF7C5
:100F9000A4FE0028F4D02146504600F084F9216ACE
:100FA00060698142F1D331462868FFF796FE002838
:100FB000F9D02868C0F80C90C4F814803846C0E70F
:100FC0003C020020007900EB400101EBC000044925
:100FD00001EB80004069002800D00120704700002C
:100FE0003C0200200149024800F098BA6802002043
:100FF000002000402DE9F0410546164600790F46D5
:10100000154A00EBC00102EB810494F8201011B1E5
:101010000820BDE8F081114951F820102868FFF739
:1010200080FE08B11120F4E739462846FFF702FC9C
:101030006660386920601EB1397F2846FFF706FDDB
:1010400028680821C0F800150020A061E0616061F7
:10105000012184F82010DCE768020020341600002B
:101060002DE9F05F044600790E4600EBC001DFF881
:10107000F0A017460AEB81053046FFF74AFEB0B1F3
:1010800068684FF000084FF4047910B12168C1F886
:101090000893A8694FF0000B80B1E86948B168680F
:1010A00010B12068C0F804931120BDE8F09F102013
:1010B000FBE7EF614FF001082E6102E0EE60C5E949
:1010C000067B00254FF488712068FFF71CFE4FF463
:1010D000A2712068FFF717FE2068C0F83465C0F8D9
:1010E00038752068B8F1000F12D0D0F8001241F026
:1010F0002001C0F800122079D04600EBC0010AEBB5
:101100008100406838B12068C0F804932846CCE7D5
:1011100001210160EFE74FF4887A4FF4A27951463C
:101120002068FFF7EBFD074649462068FFF7E6FD1C
:1011300006464FF492712068FFF7E0FD014647EA4A
:1011400006000843EBD0227902EBC20308EB8302CE
:10115000C2F818B001B10325002ED7D00F25D5E76E
:10116000680200202DE9F04704460E460079204928
:1011700000EBC00001EB800517463046FFF7C9FDC4
:1011800030B1204600F036F820B11120BDE8F087DC
:101190001020FBE76F61AE604FF490760027314678
:1011A0002068FFF7B0FD4FF4AC7841462068FFF7A8
:1011B000AAFD2068AA686969C0F84425C0F84815E6
:1011C000206801218160686878B9B1464946206885
:1011D000FFF794FD064641462068FFF78FFD064362
:1011E000F4D000B10F27002068613846CEE7000038
:1011F000680200200079054900EBC00001EB800087
:101200004069002800D001207047000068020020DB
:101210000349884201D1034870470020704700000D
:10122000002000400C00002070B5054688690C467F
:1012300000284FF4847128460AD0FFF753FDD5F8F3
:101240001805626AE1688854606A401C606270BD7B
:10125000FFF748FDD5F8180570BD1FB501238DF8BF
:101260000030CDE90121D0E90012684690471FBD4A
:101270001FB501238DF80030CDE90121D0E900121E
:10128000684690471FBD10B5044600684FF4927140
:10129000FFF728FD4FF484712068FFF723FD2068D5
:1012A0000121016010BD70B50C4605464FF48E71EA
:1012B000FFF718FD216AA068415C206A401C20628B
:1012C000C5F81C1570BD1FB500228DF800200291D5
:1012D000816801914261D0E90012684690471FBDC4
:1012E0000178022901D0012902D14068FFF77EB9B7
:1012F000704700007CB50178244D81B301290BD0E3
:1013000002292BD18DF80010C068691C01900122C0
:10131000C81DFFF75BFC2EE0406801781C48FFF712
:101320008BF91B4C012618B18DF80060019006E086
:10133000A068E168814205D000208DF8000069684E
:1013400068468847A068E168081AA188884207D8DB
:101350000E490122491CC81DFFF738FC7CBD01E085
:10136000AE70FBE70A4809491030FFF74AF930B17F
:1013700003208DF80000696868468847EEE7034956
:10138000012201F10800FFF731FCE7E7140000201B
:101390008C0200201FB50A4601788DF800104168C4
:1013A0000191017A8DF80810C0680390044850F844
:1013B0002210001F50F82220684690471FBD0000F1
:1013C000080000202DE9FF470C4605464FF4007148
:1013D000FFF78EFC01274FF40178002618B34FF475
:1013E000927949462846FFF778FCE0B149462846FD
:1013F000FFF778FCC5F8088394F8290000B96F60FE
:1014000002208DF80000D5F88004C5F88004039010
:10141000A0690290E0680190A661E661D4E900123B
:101420006846904728E004212846FFF761FC18B37E
:101430004FF484712846FFF750FCE8B12146284656
:10144000FFF7F2FE616AA069884215D1E06938B100
:10145000E268616AA0612069E6616662E06008E0B6
:1014600094F8290000B96F60C5F80883A661E268A6
:10147000616A2046FFF7F1FE4FF48E784146284618
:10148000FFF72BFC78B1206A6169884202D294F898
:10149000280020B341462846FFF724FC616911B1BA
:1014A0002046FFF710FF4FF4A27841462846FFF789
:1014B00014FC002818D041462846FFF713FC94F886
:1014C000290000B12F60A06900280DD0A661E26854
:1014D000616A04B02046BDE8F047FFF7BEBE214672
:1014E0002846FFF7E0FEDEE7BDE8FF871FB50A46A6
:1014F00001788DF8001041680191017A8DF808108B
:10150000C0680390044850F82210001F50F82220B1
:10151000684690471FBD0000080000202DE9FF41EC
:101520000C464FF4927706463946FFF7E7FB002555
:10153000B8B139463046FFF7E6FB02208DF80000CF
:10154000D6F88004C6F880040390D6F83C050290D3
:10155000E0680190A561E561D4E900126846904712
:1015600023E04FF4887739463046FFF7C7FBE0B1F8
:1015700039463046FFF7C7FBD6F83C15A0698842CC
:1015800013D1E06960B1E268D6F8000220F02000D3
:10159000C6F80002E069A0612069E561E06001E051
:1015A000A561E2682046FFF763FE4FF4A277394653
:1015B0003046FFF7A3FB68B139463046FFF7A3FB7F
:1015C000A06938B1A561E561D6F83C152046E2680E
:1015D000FFF74EFE4FF4907739463046FFF78EFB0B
:1015E000002812D039463046FFF78DFB606900288D
:1015F0000BD0D6F84C058DF800500290A0680190F1
:101600006561D4E9001268469047BDE8FF8100009B
:1016100008000000060000000500000007000000B0
:101620000000000000E0D701111213140D0E0F107E
:10163000550D0000E50F0000FFFFFFFFFFFFFFFF5C
:10164000FFFFFFFFFFFFFFFF0000000000000000A2
:101650000000D601060100007816000000000020FE
:101660003C0000007C050000B41600003C00002097
:10167000740A00008C05000000000000000000005B
:10168000000000000000000000000000000000005A
:1016900000000000000000000020004000000000EA
:1016A00000200040000000000000000000000000DA
:0416B0000090D003D3
:0400000500000201F4
:00000001FF
